{
  "contractName": "AccessErrorProver",
  "abi": [
    {
      "inputs": [
        {
          "components": [
            {
              "internalType": "bytes32",
              "name": "parentHash",
              "type": "bytes32"
            },
            {
              "internalType": "uint256",
              "name": "childIndex",
              "type": "uint256"
            },
            {
              "internalType": "uint256",
              "name": "blockNumber",
              "type": "uint256"
            },
            {
              "components": [
                {
                  "internalType": "uint256",
                  "name": "submittedAt",
                  "type": "uint256"
                },
                {
                  "internalType": "bytes32",
                  "name": "exitsRoot",
                  "type": "bytes32"
                },
                {
                  "internalType": "address",
                  "name": "coinbase",
                  "type": "address"
                },
                {
                  "internalType": "bytes32",
                  "name": "blockHash",
                  "type": "bytes32"
                }
              ],
              "internalType": "struct CommitmentHeaderLib.CommitmentHeader",
              "name": "commitment",
              "type": "tuple"
            }
          ],
          "internalType": "struct CommitmentHeaderLib.CommitmentHeaderQuery",
          "name": "commitmentQuery",
          "type": "tuple"
        },
        {
          "internalType": "bytes",
          "name": "witnessBytes",
          "type": "bytes"
        },
        {
          "internalType": "uint256",
          "name": "transactionIndex",
          "type": "uint256"
        },
        {
          "internalType": "uint256",
          "name": "recordIndex",
          "type": "uint256"
        },
        {
          "internalType": "bytes",
          "name": "stateProof",
          "type": "bytes"
        }
      ],
      "name": "proveExtCodeHashError",
      "outputs": [],
      "stateMutability": "nonpayable",
      "type": "function"
    },
    {
      "inputs": [
        {
          "components": [
            {
              "internalType": "bytes32",
              "name": "parentHash",
              "type": "bytes32"
            },
            {
              "internalType": "uint256",
              "name": "childIndex",
              "type": "uint256"
            },
            {
              "internalType": "uint256",
              "name": "blockNumber",
              "type": "uint256"
            },
            {
              "components": [
                {
                  "internalType": "uint256",
                  "name": "submittedAt",
                  "type": "uint256"
                },
                {
                  "internalType": "bytes32",
                  "name": "exitsRoot",
                  "type": "bytes32"
                },
                {
                  "internalType": "address",
                  "name": "coinbase",
                  "type": "address"
                },
                {
                  "internalType": "bytes32",
                  "name": "blockHash",
                  "type": "bytes32"
                }
              ],
              "internalType": "struct CommitmentHeaderLib.CommitmentHeader",
              "name": "commitment",
              "type": "tuple"
            }
          ],
          "internalType": "struct CommitmentHeaderLib.CommitmentHeaderQuery",
          "name": "commitmentQuery",
          "type": "tuple"
        },
        {
          "internalType": "bytes",
          "name": "witnessBytes",
          "type": "bytes"
        },
        {
          "internalType": "uint256",
          "name": "transactionIndex",
          "type": "uint256"
        },
        {
          "internalType": "uint256",
          "name": "recordIndex",
          "type": "uint256"
        },
        {
          "internalType": "bytes",
          "name": "stateProof",
          "type": "bytes"
        }
      ],
      "name": "proveExtCodeSizeError",
      "outputs": [],
      "stateMutability": "nonpayable",
      "type": "function"
    },
    {
      "inputs": [
        {
          "components": [
            {
              "internalType": "bytes32",
              "name": "parentHash",
              "type": "bytes32"
            },
            {
              "internalType": "uint256",
              "name": "childIndex",
              "type": "uint256"
            },
            {
              "internalType": "uint256",
              "name": "blockNumber",
              "type": "uint256"
            },
            {
              "components": [
                {
                  "internalType": "uint256",
                  "name": "submittedAt",
                  "type": "uint256"
                },
                {
                  "internalType": "bytes32",
                  "name": "exitsRoot",
                  "type": "bytes32"
                },
                {
                  "internalType": "address",
                  "name": "coinbase",
                  "type": "address"
                },
                {
                  "internalType": "bytes32",
                  "name": "blockHash",
                  "type": "bytes32"
                }
              ],
              "internalType": "struct CommitmentHeaderLib.CommitmentHeader",
              "name": "commitment",
              "type": "tuple"
            }
          ],
          "internalType": "struct CommitmentHeaderLib.CommitmentHeaderQuery",
          "name": "commitmentQuery",
          "type": "tuple"
        },
        {
          "internalType": "bytes",
          "name": "witnessBytes",
          "type": "bytes"
        },
        {
          "internalType": "uint256",
          "name": "transactionIndex",
          "type": "uint256"
        },
        {
          "internalType": "uint256",
          "name": "recordIndex",
          "type": "uint256"
        },
        {
          "internalType": "bytes",
          "name": "stateProof",
          "type": "bytes"
        }
      ],
      "name": "proveExtCodeCopyError",
      "outputs": [],
      "stateMutability": "nonpayable",
      "type": "function"
    },
    {
      "inputs": [
        {
          "components": [
            {
              "internalType": "bytes32",
              "name": "parentHash",
              "type": "bytes32"
            },
            {
              "internalType": "uint256",
              "name": "childIndex",
              "type": "uint256"
            },
            {
              "internalType": "uint256",
              "name": "blockNumber",
              "type": "uint256"
            },
            {
              "components": [
                {
                  "internalType": "uint256",
                  "name": "submittedAt",
                  "type": "uint256"
                },
                {
                  "internalType": "bytes32",
                  "name": "exitsRoot",
                  "type": "bytes32"
                },
                {
                  "internalType": "address",
                  "name": "coinbase",
                  "type": "address"
                },
                {
                  "internalType": "bytes32",
                  "name": "blockHash",
                  "type": "bytes32"
                }
              ],
              "internalType": "struct CommitmentHeaderLib.CommitmentHeader",
              "name": "commitment",
              "type": "tuple"
            }
          ],
          "internalType": "struct CommitmentHeaderLib.CommitmentHeaderQuery",
          "name": "commitmentQuery",
          "type": "tuple"
        },
        {
          "internalType": "bytes",
          "name": "witnessBytes",
          "type": "bytes"
        },
        {
          "internalType": "uint256",
          "name": "transactionIndex",
          "type": "uint256"
        },
        {
          "internalType": "uint256",
          "name": "recordIndex",
          "type": "uint256"
        }
      ],
      "name": "proveChainIdError",
      "outputs": [],
      "stateMutability": "nonpayable",
      "type": "function"
    },
    {
      "inputs": [
        {
          "components": [
            {
              "internalType": "bytes32",
              "name": "parentHash",
              "type": "bytes32"
            },
            {
              "internalType": "uint256",
              "name": "childIndex",
              "type": "uint256"
            },
            {
              "internalType": "uint256",
              "name": "blockNumber",
              "type": "uint256"
            },
            {
              "components": [
                {
                  "internalType": "uint256",
                  "name": "submittedAt",
                  "type": "uint256"
                },
                {
                  "internalType": "bytes32",
                  "name": "exitsRoot",
                  "type": "bytes32"
                },
                {
                  "internalType": "address",
                  "name": "coinbase",
                  "type": "address"
                },
                {
                  "internalType": "bytes32",
                  "name": "blockHash",
                  "type": "bytes32"
                }
              ],
              "internalType": "struct CommitmentHeaderLib.CommitmentHeader",
              "name": "commitment",
              "type": "tuple"
            }
          ],
          "internalType": "struct CommitmentHeaderLib.CommitmentHeaderQuery",
          "name": "commitmentQuery",
          "type": "tuple"
        },
        {
          "internalType": "bytes",
          "name": "witnessBytes",
          "type": "bytes"
        },
        {
          "internalType": "uint256",
          "name": "transactionIndex",
          "type": "uint256"
        },
        {
          "internalType": "uint256",
          "name": "recordIndex",
          "type": "uint256"
        }
      ],
      "name": "proveCoinbaseError",
      "outputs": [],
      "stateMutability": "nonpayable",
      "type": "function"
    },
    {
      "inputs": [
        {
          "components": [
            {
              "internalType": "bytes32",
              "name": "parentHash",
              "type": "bytes32"
            },
            {
              "internalType": "uint256",
              "name": "childIndex",
              "type": "uint256"
            },
            {
              "internalType": "uint256",
              "name": "blockNumber",
              "type": "uint256"
            },
            {
              "components": [
                {
                  "internalType": "uint256",
                  "name": "submittedAt",
                  "type": "uint256"
                },
                {
                  "internalType": "bytes32",
                  "name": "exitsRoot",
                  "type": "bytes32"
                },
                {
                  "internalType": "address",
                  "name": "coinbase",
                  "type": "address"
                },
                {
                  "internalType": "bytes32",
                  "name": "blockHash",
                  "type": "bytes32"
                }
              ],
              "internalType": "struct CommitmentHeaderLib.CommitmentHeader",
              "name": "commitment",
              "type": "tuple"
            }
          ],
          "internalType": "struct CommitmentHeaderLib.CommitmentHeaderQuery",
          "name": "commitmentQuery",
          "type": "tuple"
        },
        {
          "internalType": "bytes",
          "name": "witnessBytes",
          "type": "bytes"
        },
        {
          "internalType": "uint256",
          "name": "transactionIndex",
          "type": "uint256"
        },
        {
          "internalType": "uint256",
          "name": "recordIndex",
          "type": "uint256"
        },
        {
          "components": [
            {
              "internalType": "bytes32",
              "name": "parentHash",
              "type": "bytes32"
            },
            {
              "internalType": "uint256",
              "name": "number",
              "type": "uint256"
            },
            {
              "internalType": "uint256",
              "name": "incomingTransactionsIndex",
              "type": "uint256"
            },
            {
              "internalType": "uint256",
              "name": "incomingTransactionsCount",
              "type": "uint256"
            },
            {
              "internalType": "uint256",
              "name": "transactionsCount",
              "type": "uint256"
            },
            {
              "internalType": "bytes32",
              "name": "transactionsRoot",
              "type": "bytes32"
            },
            {
              "internalType": "bytes32",
              "name": "stateRoot",
              "type": "bytes32"
            },
            {
              "internalType": "bytes32",
              "name": "exitsRoot",
              "type": "bytes32"
            },
            {
              "internalType": "address",
              "name": "coinbase",
              "type": "address"
            },
            {
              "internalType": "uint256",
              "name": "timestamp",
              "type": "uint256"
            }
          ],
          "internalType": "struct ISO_HeaderLib.ISO_Header",
          "name": "header",
          "type": "tuple"
        }
      ],
      "name": "proveTimestampError",
      "outputs": [],
      "stateMutability": "nonpayable",
      "type": "function"
    },
    {
      "inputs": [
        {
          "components": [
            {
              "internalType": "bytes32",
              "name": "parentHash",
              "type": "bytes32"
            },
            {
              "internalType": "uint256",
              "name": "childIndex",
              "type": "uint256"
            },
            {
              "internalType": "uint256",
              "name": "blockNumber",
              "type": "uint256"
            },
            {
              "components": [
                {
                  "internalType": "uint256",
                  "name": "submittedAt",
                  "type": "uint256"
                },
                {
                  "internalType": "bytes32",
                  "name": "exitsRoot",
                  "type": "bytes32"
                },
                {
                  "internalType": "address",
                  "name": "coinbase",
                  "type": "address"
                },
                {
                  "internalType": "bytes32",
                  "name": "blockHash",
                  "type": "bytes32"
                }
              ],
              "internalType": "struct CommitmentHeaderLib.CommitmentHeader",
              "name": "commitment",
              "type": "tuple"
            }
          ],
          "internalType": "struct CommitmentHeaderLib.CommitmentHeaderQuery",
          "name": "commitmentQuery",
          "type": "tuple"
        },
        {
          "internalType": "bytes",
          "name": "witnessBytes",
          "type": "bytes"
        },
        {
          "internalType": "uint256",
          "name": "transactionIndex",
          "type": "uint256"
        },
        {
          "internalType": "uint256",
          "name": "recordIndex",
          "type": "uint256"
        },
        {
          "components": [
            {
              "internalType": "bytes32",
              "name": "parentHash",
              "type": "bytes32"
            },
            {
              "internalType": "uint256",
              "name": "number",
              "type": "uint256"
            },
            {
              "internalType": "uint256",
              "name": "incomingTransactionsIndex",
              "type": "uint256"
            },
            {
              "internalType": "uint256",
              "name": "incomingTransactionsCount",
              "type": "uint256"
            },
            {
              "internalType": "uint256",
              "name": "transactionsCount",
              "type": "uint256"
            },
            {
              "internalType": "bytes32",
              "name": "transactionsRoot",
              "type": "bytes32"
            },
            {
              "internalType": "bytes32",
              "name": "stateRoot",
              "type": "bytes32"
            },
            {
              "internalType": "bytes32",
              "name": "exitsRoot",
              "type": "bytes32"
            },
            {
              "internalType": "address",
              "name": "coinbase",
              "type": "address"
            },
            {
              "internalType": "uint256",
              "name": "timestamp",
              "type": "uint256"
            }
          ],
          "internalType": "struct ISO_HeaderLib.ISO_Header",
          "name": "header",
          "type": "tuple"
        }
      ],
      "name": "proveNumberError",
      "outputs": [],
      "stateMutability": "nonpayable",
      "type": "function"
    },
    {
      "inputs": [
        {
          "components": [
            {
              "internalType": "bytes32",
              "name": "parentHash",
              "type": "bytes32"
            },
            {
              "internalType": "uint256",
              "name": "childIndex",
              "type": "uint256"
            },
            {
              "internalType": "uint256",
              "name": "blockNumber",
              "type": "uint256"
            },
            {
              "components": [
                {
                  "internalType": "uint256",
                  "name": "submittedAt",
                  "type": "uint256"
                },
                {
                  "internalType": "bytes32",
                  "name": "exitsRoot",
                  "type": "bytes32"
                },
                {
                  "internalType": "address",
                  "name": "coinbase",
                  "type": "address"
                },
                {
                  "internalType": "bytes32",
                  "name": "blockHash",
                  "type": "bytes32"
                }
              ],
              "internalType": "struct CommitmentHeaderLib.CommitmentHeader",
              "name": "commitment",
              "type": "tuple"
            }
          ],
          "internalType": "struct CommitmentHeaderLib.CommitmentHeaderQuery",
          "name": "commitmentQuery",
          "type": "tuple"
        },
        {
          "internalType": "bytes",
          "name": "witnessBytes",
          "type": "bytes"
        },
        {
          "internalType": "uint256",
          "name": "transactionIndex",
          "type": "uint256"
        },
        {
          "internalType": "uint256",
          "name": "recordIndex",
          "type": "uint256"
        },
        {
          "internalType": "bytes",
          "name": "stateProof",
          "type": "bytes"
        }
      ],
      "name": "proveBalanceError",
      "outputs": [],
      "stateMutability": "nonpayable",
      "type": "function"
    },
    {
      "inputs": [
        {
          "components": [
            {
              "internalType": "bytes32",
              "name": "parentHash",
              "type": "bytes32"
            },
            {
              "internalType": "uint256",
              "name": "childIndex",
              "type": "uint256"
            },
            {
              "internalType": "uint256",
              "name": "blockNumber",
              "type": "uint256"
            },
            {
              "components": [
                {
                  "internalType": "uint256",
                  "name": "submittedAt",
                  "type": "uint256"
                },
                {
                  "internalType": "bytes32",
                  "name": "exitsRoot",
                  "type": "bytes32"
                },
                {
                  "internalType": "address",
                  "name": "coinbase",
                  "type": "address"
                },
                {
                  "internalType": "bytes32",
                  "name": "blockHash",
                  "type": "bytes32"
                }
              ],
              "internalType": "struct CommitmentHeaderLib.CommitmentHeader",
              "name": "commitment",
              "type": "tuple"
            }
          ],
          "internalType": "struct CommitmentHeaderLib.CommitmentHeaderQuery",
          "name": "commitmentQuery",
          "type": "tuple"
        },
        {
          "internalType": "bytes",
          "name": "witnessBytes",
          "type": "bytes"
        },
        {
          "internalType": "uint256",
          "name": "transactionIndex",
          "type": "uint256"
        },
        {
          "internalType": "uint256",
          "name": "recordIndex",
          "type": "uint256"
        },
        {
          "internalType": "bytes",
          "name": "stateProof",
          "type": "bytes"
        }
      ],
      "name": "proveSelfBalanceError",
      "outputs": [],
      "stateMutability": "nonpayable",
      "type": "function"
    },
    {
      "inputs": [
        {
          "components": [
            {
              "internalType": "bytes32",
              "name": "parentHash",
              "type": "bytes32"
            },
            {
              "internalType": "uint256",
              "name": "childIndex",
              "type": "uint256"
            },
            {
              "internalType": "uint256",
              "name": "blockNumber",
              "type": "uint256"
            },
            {
              "components": [
                {
                  "internalType": "uint256",
                  "name": "submittedAt",
                  "type": "uint256"
                },
                {
                  "internalType": "bytes32",
                  "name": "exitsRoot",
                  "type": "bytes32"
                },
                {
                  "internalType": "address",
                  "name": "coinbase",
                  "type": "address"
                },
                {
                  "internalType": "bytes32",
                  "name": "blockHash",
                  "type": "bytes32"
                }
              ],
              "internalType": "struct CommitmentHeaderLib.CommitmentHeader",
              "name": "commitment",
              "type": "tuple"
            }
          ],
          "internalType": "struct CommitmentHeaderLib.CommitmentHeaderQuery",
          "name": "commitmentQuery",
          "type": "tuple"
        },
        {
          "internalType": "bytes",
          "name": "witnessBytes",
          "type": "bytes"
        },
        {
          "internalType": "uint256",
          "name": "transactionIndex",
          "type": "uint256"
        },
        {
          "internalType": "uint256",
          "name": "recordIndex",
          "type": "uint256"
        },
        {
          "internalType": "bytes",
          "name": "accountProof",
          "type": "bytes"
        },
        {
          "internalType": "bytes",
          "name": "storageProof",
          "type": "bytes"
        }
      ],
      "name": "proveSloadError",
      "outputs": [],
      "stateMutability": "nonpayable",
      "type": "function"
    },
    {
      "inputs": [
        {
          "components": [
            {
              "internalType": "bytes32",
              "name": "parentHash",
              "type": "bytes32"
            },
            {
              "internalType": "uint256",
              "name": "childIndex",
              "type": "uint256"
            },
            {
              "internalType": "uint256",
              "name": "blockNumber",
              "type": "uint256"
            },
            {
              "components": [
                {
                  "internalType": "uint256",
                  "name": "submittedAt",
                  "type": "uint256"
                },
                {
                  "internalType": "bytes32",
                  "name": "exitsRoot",
                  "type": "bytes32"
                },
                {
                  "internalType": "address",
                  "name": "coinbase",
                  "type": "address"
                },
                {
                  "internalType": "bytes32",
                  "name": "blockHash",
                  "type": "bytes32"
                }
              ],
              "internalType": "struct CommitmentHeaderLib.CommitmentHeader",
              "name": "commitment",
              "type": "tuple"
            }
          ],
          "internalType": "struct CommitmentHeaderLib.CommitmentHeaderQuery",
          "name": "commitmentQuery",
          "type": "tuple"
        },
        {
          "internalType": "bytes",
          "name": "witnessBytes",
          "type": "bytes"
        },
        {
          "internalType": "uint256",
          "name": "transactionIndex",
          "type": "uint256"
        },
        {
          "internalType": "uint256",
          "name": "recordIndex",
          "type": "uint256"
        },
        {
          "internalType": "bytes",
          "name": "accountProof",
          "type": "bytes"
        },
        {
          "internalType": "bytes",
          "name": "storageProof",
          "type": "bytes"
        }
      ],
      "name": "proveSstoreError",
      "outputs": [],
      "stateMutability": "nonpayable",
      "type": "function"
    },
    {
      "inputs": [
        {
          "components": [
            {
              "internalType": "bytes32",
              "name": "parentHash",
              "type": "bytes32"
            },
            {
              "internalType": "uint256",
              "name": "number",
              "type": "uint256"
            },
            {
              "internalType": "uint256",
              "name": "incomingTransactionsIndex",
              "type": "uint256"
            },
            {
              "internalType": "uint256",
              "name": "incomingTransactionsCount",
              "type": "uint256"
            },
            {
              "internalType": "uint256",
              "name": "transactionsCount",
              "type": "uint256"
            },
            {
              "internalType": "bytes32",
              "name": "transactionsRoot",
              "type": "bytes32"
            },
            {
              "internalType": "bytes32",
              "name": "stateRoot",
              "type": "bytes32"
            },
            {
              "internalType": "bytes32",
              "name": "exitsRoot",
              "type": "bytes32"
            },
            {
              "internalType": "address",
              "name": "coinbase",
              "type": "address"
            },
            {
              "internalType": "uint256",
              "name": "timestamp",
              "type": "uint256"
            }
          ],
          "internalType": "struct ISO_HeaderLib.ISO_Header",
          "name": "header",
          "type": "tuple"
        },
        {
          "components": [
            {
              "internalType": "bytes32",
              "name": "parentHash",
              "type": "bytes32"
            },
            {
              "internalType": "uint256",
              "name": "childIndex",
              "type": "uint256"
            },
            {
              "internalType": "uint256",
              "name": "blockNumber",
              "type": "uint256"
            },
            {
              "components": [
                {
                  "internalType": "uint256",
                  "name": "submittedAt",
                  "type": "uint256"
                },
                {
                  "internalType": "bytes32",
                  "name": "exitsRoot",
                  "type": "bytes32"
                },
                {
                  "internalType": "address",
                  "name": "coinbase",
                  "type": "address"
                },
                {
                  "internalType": "bytes32",
                  "name": "blockHash",
                  "type": "bytes32"
                }
              ],
              "internalType": "struct CommitmentHeaderLib.CommitmentHeader",
              "name": "commitment",
              "type": "tuple"
            }
          ],
          "internalType": "struct CommitmentHeaderLib.CommitmentHeaderQuery",
          "name": "commitmentQuery",
          "type": "tuple"
        },
        {
          "internalType": "bytes",
          "name": "witnessBytes",
          "type": "bytes"
        },
        {
          "internalType": "uint256",
          "name": "transactionIndex",
          "type": "uint256"
        },
        {
          "internalType": "uint256",
          "name": "recordIndex",
          "type": "uint256"
        },
        {
          "internalType": "bytes",
          "name": "callData",
          "type": "bytes"
        },
        {
          "internalType": "bytes",
          "name": "callerProof",
          "type": "bytes"
        },
        {
          "internalType": "bytes",
          "name": "stateProofBytes",
          "type": "bytes"
        },
        {
          "internalType": "bytes",
          "name": "storageProofBytes",
          "type": "bytes"
        },
        {
          "internalType": "bytes",
          "name": "transactionProofBytes",
          "type": "bytes"
        }
      ],
      "name": "proveExitCallError",
      "outputs": [],
      "stateMutability": "nonpayable",
      "type": "function"
    },
    {
      "inputs": [
        {
          "components": [
            {
              "internalType": "bytes32",
              "name": "parentHash",
              "type": "bytes32"
            },
            {
              "internalType": "uint256",
              "name": "childIndex",
              "type": "uint256"
            },
            {
              "internalType": "uint256",
              "name": "blockNumber",
              "type": "uint256"
            },
            {
              "components": [
                {
                  "internalType": "uint256",
                  "name": "submittedAt",
                  "type": "uint256"
                },
                {
                  "internalType": "bytes32",
                  "name": "exitsRoot",
                  "type": "bytes32"
                },
                {
                  "internalType": "address",
                  "name": "coinbase",
                  "type": "address"
                },
                {
                  "internalType": "bytes32",
                  "name": "blockHash",
                  "type": "bytes32"
                }
              ],
              "internalType": "struct CommitmentHeaderLib.CommitmentHeader",
              "name": "commitment",
              "type": "tuple"
            }
          ],
          "internalType": "struct CommitmentHeaderLib.CommitmentHeaderQuery",
          "name": "commitmentQuery",
          "type": "tuple"
        },
        {
          "internalType": "bytes",
          "name": "witnessBytes",
          "type": "bytes"
        },
        {
          "internalType": "uint256",
          "name": "transactionIndex",
          "type": "uint256"
        },
        {
          "internalType": "uint256",
          "name": "recordIndex",
          "type": "uint256"
        },
        {
          "internalType": "bytes",
          "name": "callData",
          "type": "bytes"
        }
      ],
      "name": "proveStaticCallError",
      "outputs": [],
      "stateMutability": "nonpayable",
      "type": "function"
    },
    {
      "inputs": [
        {
          "components": [
            {
              "internalType": "bytes32",
              "name": "parentHash",
              "type": "bytes32"
            },
            {
              "internalType": "uint256",
              "name": "childIndex",
              "type": "uint256"
            },
            {
              "internalType": "uint256",
              "name": "blockNumber",
              "type": "uint256"
            },
            {
              "components": [
                {
                  "internalType": "uint256",
                  "name": "submittedAt",
                  "type": "uint256"
                },
                {
                  "internalType": "bytes32",
                  "name": "exitsRoot",
                  "type": "bytes32"
                },
                {
                  "internalType": "address",
                  "name": "coinbase",
                  "type": "address"
                },
                {
                  "internalType": "bytes32",
                  "name": "blockHash",
                  "type": "bytes32"
                }
              ],
              "internalType": "struct CommitmentHeaderLib.CommitmentHeader",
              "name": "commitment",
              "type": "tuple"
            }
          ],
          "internalType": "struct CommitmentHeaderLib.CommitmentHeaderQuery",
          "name": "commitmentQuery",
          "type": "tuple"
        },
        {
          "internalType": "bytes",
          "name": "witnessBytes",
          "type": "bytes"
        },
        {
          "internalType": "uint256",
          "name": "transactionIndex",
          "type": "uint256"
        },
        {
          "internalType": "uint256",
          "name": "recordIndex",
          "type": "uint256"
        },
        {
          "internalType": "bytes",
          "name": "callerProof",
          "type": "bytes"
        },
        {
          "internalType": "bytes",
          "name": "receiverProof",
          "type": "bytes"
        }
      ],
      "name": "proveCallError",
      "outputs": [],
      "stateMutability": "nonpayable",
      "type": "function"
    }
  ],
  "bytecode": "0x608060405234801561001057600080fd5b506141e2806100206000396000f3fe608060405234801561001057600080fd5b50600436106100ea5760003560e01c8063936b33451161008c578063e86d895211610066578063e86d8952146101af578063f3b7706f146101c2578063f811c462146101d5578063fb43ed1d146101e8576100ea565b8063936b3345146101765780639701e80814610189578063d90512681461019c576100ea565b8063470b7ad4116100c8578063470b7ad41461012a57806347a4d3e41461013d578063646f7fd0146101505780636966fa4314610163576100ea565b806302b11118146100ef57806305820145146101045780632ac94e6614610117575b600080fd5b6101026100fd366004613139565b6101fb565b005b610102610112366004613198565b610231565b610102610125366004613335565b610269565b610102610138366004613221565b6102e3565b61010261014b366004613198565b61031d565b61010261015e3660046132c0565b610341565b610102610171366004613139565b610394565b6101026101843660046132c0565b6103bc565b610102610197366004613198565b61040f565b6101026101aa366004613221565b610433565b6101026101bd366004613198565b610458565b6101026101d0366004613198565b61047c565b6101026101e3366004613221565b6104a0565b6101026101f6366004613198565b6104c5565b610203612935565b60006102108685876104e9565b9150915061021e828461057b565b6102298685836105c9565b505050505050565b610239612935565b60006102468786886104e9565b91509150610255828585610637565b6102608786836105c9565b50505050505050565b610271612935565b600061027e8b8a8c6104e9565b915091508a60600151606001516102948d610714565b146102ba5760405162461bcd60e51b81526004016102b190613ae7565b60405180910390fd5b6102ca8c838a8a8a8a8a8a610744565b6102d58b8a836105c9565b505050505050505050505050565b6102eb612935565b60006102f88887896104e9565b91509150610308828686866108d1565b6103138887836105c9565b5050505050505050565b610325612935565b60006103328786886104e9565b9150915061025582858561099b565b84606001516060015161035382610714565b146103705760405162461bcd60e51b81526004016102b190613ae7565b610378612935565b60006103858786886104e9565b91509150610255828585610a3b565b61039c612935565b60006103a98685876104e9565b9150915061021e82848860600151610a7c565b8460600151606001516103ce82610714565b146103eb5760405162461bcd60e51b81526004016102b190613ae7565b6103f3612935565b60006104008786886104e9565b91509150610255828585610ad4565b610417612935565b60006104248786886104e9565b91509150610255828585610b16565b61043b612935565b60006104488887896104e9565b9150915061030882868686610b7b565b610460612935565b600061046d8786886104e9565b91509150610255828585610c47565b610484612935565b60006104918786886104e9565b91509150610255828585610cb1565b6104a8612935565b60006104b58887896104e9565b9150915061030882868686610e21565b6104cd612935565b60006104da8786886104e9565b91509150610255828585610faa565b6104f1612935565b8151602083012060009061050d8287878463ffffffff61101a16565b6105295760405162461bcd60e51b81526004016102b190613a63565b61053284611068565b606096870151909601516000908152600e6020908152604080832097835260029097019052949094205494956701000000000000009095046001600160a01b0316949350505050565b6105836129bb565b610597610592848460466111a1565b6111ee565b90506105a1611227565b816020015114156105c45760405162461bcd60e51b81526004016102b190613987565b505050565b6105da60008463ffffffff61122d16565b506105e4816112c6565b50606091820180518301516000908152600e60208181526040808420868552600201825280842080546001600160e01b031916905593519095015182528452818120928152600390920190925290812055565b61063f6129d5565b61065361064e8585603b6111a1565b61140a565b905061065d6129ff565b600254610682906001600160a01b03166106778787611456565b846020015186611511565b606081015190915060008051602061418d83398151915214156106c55760408201516106c05760405162461bcd60e51b81526004016102b190613f12565b61070d565b60006106df836020015160006115f390919063ffffffff16565b6040840151909150600019823b01908114156102605760405162461bcd60e51b81526004016102b190613f12565b5050505050565b6000816040516020016107279190614019565b604051602081830303815290604052805190602001209050919050565b61074c612a26565b61076061075b898960f16111a1565b611687565b905061076a611716565b6001600160a01b03168160a001516001600160a01b03161461079e5760405162461bcd60e51b81526004016102b190613bed565b60e081015186516020880120146107c75760405162461bcd60e51b81526004016102b1906139be565b60606107e96107e4888b60c001518560c001518660400151611752565b6119a7565b905060006107f78a8a611456565b9050600080610829600060020160009054906101000a90046001600160a01b0316848e608001518c8960c001516119f2565b915091508161086d5784610100015180610847575082856020015114155b6108635760405162461bcd60e51b81526004016102b190613e76565b5050505050610313565b60025460208e015161088e916001600160a01b03169083908b8b8b8a611a5e565b905084610100015115806108a6575084602001518114155b6108c25760405162461bcd60e51b81526004016102b190613e76565b50505050505050505050505050565b6108d9612a8a565b6108ed6108e8868660556111a1565b611ae2565b6002549091506000908190610925906001600160a01b031661090f8989611456565b8960c00151866040015187606001518a8a611b37565b915091508083602001511461093c57505050610995565b60608301511561095c57811561095457613a98610957565b60005b61096e565b811561096a5761753061096e565b613a985b61ffff16836080015114156102605760405162461bcd60e51b81526004016102b190613c74565b50505050565b6109a3612ab8565b6109b76109b28585603c6111a1565b611b90565b90506109c16129ff565b6002546109db906001600160a01b03166106778787611456565b606081015190915060008051602061418d8339815191521415610a19578160400151610a195760405162461bcd60e51b81526004016102b190613b10565b81604001511561070d5760405162461bcd60e51b81526004016102b190613b10565b610a436129bb565b610a52610592858560436111a1565b90508160200151816020015114156109955760405162461bcd60e51b81526004016102b190613fb0565b610a84612ad8565b610a98610a93858560416111a1565b611bde565b905081604001516001600160a01b031681602001516001600160a01b031614156109955760405162461bcd60e51b81526004016102b190613bab565b610adc6129bb565b610aeb610592858560426111a1565b9050816101200151816020015114156109955760405162461bcd60e51b81526004016102b190613aa4565b610b1e6129d5565b610b2d61064e858560316111a1565b9050610b376129ff565b600254610b51906001600160a01b03166106778787611456565b905081604001518160200151141561070d5760405162461bcd60e51b81526004016102b190613cbe565b610b83612ab8565b610b97610b92868660546111a1565b611c20565b9050610ba16129ff565b600254610bc6906001600160a01b0316610bbb8888611456565b8860c0015187611511565b9050610bd181611c63565b15610bfe576040820151610bf75760405162461bcd60e51b81526004016102b190613b10565b5050610995565b6002546020830151600091610c21916001600160a01b0390911690849087611c8c565b905080836040015114156102605760405162461bcd60e51b81526004016102b190613b10565b610c4f612ab8565b610c63610c5e8585603f6111a1565b611cab565b9050610c6d6129ff565b600254610c87906001600160a01b03166106778787611456565b905081604001518160600151141561070d5760405162461bcd60e51b81526004016102b190613a2c565b6060610cbf848460fa6111a1565b9050610cc9612aef565b610cd282611cb3565b9050600081606001516001600160a01b031690508160800151848051906020012014610d105760405162461bcd60e51b81526004016102b190613edb565b6001811080610d1f5750600981115b15610d4d578160a00151610d455760405162461bcd60e51b81526004016102b190613b47565b5050506105c4565b816020015161c350015a1015610d755760405162461bcd60e51b81526004016102b190613cf5565b6000606083606001516001600160a01b03165a87604051610d96919061386f565b6000604051808303818686fa925050503d8060008114610dd2576040519150601f19603f3d011682016040523d82523d6000602084013e610dd7565b606091505b50915091508115158460a001511515141580610e0557508360c0015180519060200120818051906020012014155b6103135760405162461bcd60e51b81526004016102b190613c3d565b610e29612a26565b610e3861075b868660f16111a1565b90506000610e468686611456565b9050600080610e78600060020160009054906101000a90046001600160a01b0316848a60800151898860c001516119f2565b9150915081610ebb5783610100015180610e96575082846020015114155b610eb25760405162461bcd60e51b81526004016102b190613e76565b50505050610995565b610ec3611716565b6001600160a01b03168460a001516001600160a01b03161415610ef85760405162461bcd60e51b81526004016102b190613bed565b610f006129ff565b60025460a086015160c0870151610f24926001600160a01b03169185918a90611d25565b9092509050610f3281611d75565b15610f6d5784610100015180610f4c575083856020015114155b610f685760405162461bcd60e51b81526004016102b190613e76565b610f9f565b8461010001511580610f83575081856020015114155b610f9f5760405162461bcd60e51b81526004016102b190613e76565b505050505050505050565b610fb26129bb565b610fc1610592858560476111a1565b9050610fcb6129ff565b600254610ff0906001600160a01b0316610fe58787611456565b8760c0015186611511565b905081602001518160200151141561070d5760405162461bcd60e51b81526004016102b190613cbe565b6000806110278686611d8d565b60608087015101516000908152600e880160209081526040808320888452600301909152902054909150831481801561105d5750805b979650505050505050565b611070612935565b611078612b3a565b611080612b58565b611088612b76565b6060611092612b94565b6060878060200190518101906110a89190612ffc565b955095509550955095509550604051806102000160405280876000600381106110cd57fe5b60200201518152602001876001600381106110e457fe5b602090810291909101518252604089810151158383015288516001600160a01b03908116828501528983015181166060808601919091528a83015182166080860152808b015190911660a0850152885160c08501529188015160e084015287015161010083015286015161012082015261014001856004602002015181526020018481526020018360006002811061117857fe5b60209081029190910151825293840151938101939093526040909201529450505050505b919050565b606083610180015183815181106111b457fe5b602002602001015190506000602082015190508281146111e65760405162461bcd60e51b81526004016102b190613dfe565b509392505050565b6111f66129bb565b6000808380602001905181019061120d9190613748565b604080518082019091529182526020820152949350505050565b61c35590565b80516000908152600d8301602090815260408220908301518154811061124f57fe5b6000918252602080832091909101829055606084810180518201518452600f8701909252604092839020805460ff191660029081179091559151015191517f99c9efff0684b78043f08af38ed552c7eb27175341050520cf3d3a60f83b26e5916112b891613973565b60405180910390a292915050565b806001600160a01b03811633141561133157806001600160a01b03166108fc60026112ef611dd3565b816112f657fe5b046112ff611dde565b019081150290604051600060405180830381858888f1935050505015801561132b573d6000803e3d6000fd5b506113c8565b806001600160a01b03166108fc6004611348611dd3565b8161134f57fe5b04611358611dde565b019081150290604051600060405180830381858888f19350505050158015611384573d6000803e3d6000fd5b50336108fc6004611393611dd3565b8161139a57fe5b049081150290604051600060405180830381858888f193505050501580156113c6573d6000803e3d6000fd5b505b60006108fc60026113d7611dd3565b816113de57fe5b049081150290604051600060405180830381858888f193505050501580156105c4573d6000803e3d6000fd5b6114126129d5565b60008060008480602001905181019061142b919061360a565b604080516060810182529384526001600160a01b039092166020840152908201529350505050919050565b60008261018001515182111561147e5760405162461bcd60e51b81526004016102b1906139f5565b8161148b5750815161150b565b60001982015b606084610180015182815181106114a457fe5b602002602001015190506000602082015190508060f414806114c657508060f1145b806114d157508060f2145b806114dc5750806055145b156114ef575060400151915061150b9050565b826114fb575050611506565b505060001901611491565b505081515b92915050565b6115196129ff565b611521612bb2565b61152a83611dea565b80516020820151604080840151905163b096267360e01b81529394506001600160a01b03808b169463b096267394611570948c9460a094929391928d1691600401613936565b60206040518083038186803b15801561158857600080fd5b505afa15801561159c573d6000803e3d6000fd5b505050506040513d601f19601f820116820180604052508101906115c091906130e9565b6115dc5760405162461bcd60e51b81526004016102b190613b7e565b6115e98160200151611e06565b9695505050505050565b81546040516000916001600160a01b031690829061161360208201612bd3565b601f1982820381018352601f909101166040818152825160209384012060558084526080840190925293506060928201818036833701905050905060ff60208201538260601b60218201528460358201528160558201526001600160a01b0360556020830120811694505050505092915050565b61168f612a26565b600080600080600080600080600060608b8060200190518101906116b391906136ae565b60408051610140810182529a8b5260208b019990995297890196909652606088019490945260808701929092526001600160a01b031660a086015260c085015260e084015215156101008301526101208201529c9b505050505050505050505050565b600080611721611227565b6040516020016117319190613866565b60408051601f19818403018152919052805160209091012060601c92915050565b61175a612bdf565b60048551101561177c5760405162461bcd60e51b81526004016102b190613f42565b600061178786611f01565b9050606061179487611f0b565b6001600160a01b038716845260608401869052600060a08501529050633ccfd60b60e01b6001600160e01b0319831614156117f1576040805160208082019092526000815260808501526001600160a01b03871690840152611969565b632e1a7d4d60e01b6001600160e01b03198316141561187d576000818060200190518101906118209190613581565b9050808610156118425760405162461bcd60e51b81526004016102b190613e3f565b6040805160208082019092526000815260808601526001600160a01b0388169085015260a08401819052606084018051919091039052611969565b6309370cdf60e11b6001600160e01b0319831614156118cb5760006060828060200190518101906118ae9190612f57565b6001600160a01b0390911660208701526080860152506119699050565b6310f3c58b60e01b6001600160e01b03198316141561195157600060606000838060200190518101906118fe9190612fa5565b925092509250808810156119245760405162461bcd60e51b81526004016102b190613e3f565b6001600160a01b039092166020860152608085015260a08401819052606084018051919091039052611969565b60405162461bcd60e51b81526004016102b190613dc7565b600061197484611f1c565b9050808510156119965760405162461bcd60e51b81526004016102b190613d86565b909303604083015250949350505050565b6060816000015182602001518360400151846060015185608001518660a001516040516020016119dc9695949392919061388b565b6040516020818303038152906040529050919050565b6000806119fd612bb2565b611a0685611dea565b9050611a106129ff565b611a1d8260200151611e06565b9050848160200151101593508315611a4e576020810180518690039052611a478989898486611f3a565b9250611a52565b8792505b50509550959350505050565b6000611a68612bb2565b611a7186611dea565b9050611a7b612bb2565b611a8486611dea565b9050611a8e6129ff565b611a9b8360200151611e06565b90506060611aaf8c84602001518989612005565b9050611abe8c8b84868561210b565b611ad28c8c611acb611716565b8588611f3a565b9c9b505050505050505050505050565b611aea612a8a565b600080600080600086806020019051810190611b06919061366f565b6040805160a08101825295865260208601949094529284019190915260608301526080820152979650505050505050565b600080611b42612bb2565b611b4b85611dea565b9050611b556129ff565b611b628260200151611e06565b9050611b718b828a8a896121ff565b9350611b808b8b8b8486611f3a565b9250505097509795505050505050565b611b98612ab8565b600080600084806020019051810190611bb191906135c8565b604080516060810182529384526001600160a01b0390921660208401521515908201529350505050919050565b611be6612ad8565b60008083806020019051810190611bfd9190613599565b604080518082019091529182526001600160a01b03166020820152949350505050565b611c28612ab8565b600080600084806020019051810190611c419190613642565b6040805160608101825293845260208401929092529082015295945050505050565b604001517fa9a4da177ac3f81cfe85a6767678aabb095aa306e72ab73f5cf0559c56d0a5301490565b6000611ca2858585611c9d86611dea565b61230e565b95945050505050565b611412612ab8565b611cbb612aef565b600080600080600080606088806020019051810190611cda919061376b565b6040805160e0810182529788526020880196909652948601939093526001600160a01b0390911660608501526080840152151560a083015260c0820152975050505050505050919050565b6000611d2f6129ff565b611d37612bb2565b611d4085611dea565b9050611d4f8160200151611e06565b602081018051860190529150611d688888888585611f3a565b9250509550959350505050565b6060015160008051602061418d833981519152141590565b6000611d9c82606001516123d2565b82516000908152600d8501602090815260409091209084015181548110611dbf57fe5b906000526020600020015414905092915050565b662386f26fc1000090565b670de0b6b3a764000090565b611df2612bb2565b8180602001905181019061150b9190613496565b611e0e6129ff565b8151611e2357611e1c6123e5565b905061119c565b815160201415611e605760208201518015611e505760405162461bcd60e51b81526004016102b190613d4f565b611e586123e5565b91505061119c565b600080600080611ea9565b8051600090600183019060f81c608081108015611e8a57819350611ea2565b60808203835160088202610100031c94508084019350505b5050915091565b602086015160f81c860160d51901611ec081611e6b565b91509450611ecd81611e6b565b6001810151602290910151604080516080810182529889526020890193909352918701526060860152509295945050505050565b6020015160e01c90565b805160031901600490910190815290565b600080611f2c8360800151612441565b600601612710029392505050565b6000806000876001600160a01b0316637022c2c48860a087600001518860200151611f648b612468565b8c6001600160a01b03168b604001516040518863ffffffff1660e01b8152600401611f9597969594939291906138d8565b604080518083038186803b158015611fac57600080fd5b505afa158015611fc0573d6000803e3d6000fd5b505050506040513d601f19601f82011682018060405250810190611fe4919061310c565b915091508161105d5760405162461bcd60e51b81526004016102b190613ead565b606061200f612bb2565b61201884611dea565b9050612022612ad8565b61202b866125c8565b9050600080886001600160a01b0316637022c2c484600001516010876000015188602001518b89602001518b604001516040518863ffffffff1660e01b815260040161207d97969594939291906138d8565b604080518083038186803b15801561209457600080fd5b505afa1580156120a8573d6000803e3d6000fd5b505050506040513d601f19601f820116820180604052508101906120cc919061310c565b91509150816120ed5760405162461bcd60e51b81526004016102b190613f79565b6120fe81846020015160010161262c565b9998505050505050505050565b600080866001600160a01b0316637022c2c4866040015161010087600001518860200151888c6040516020016121419190613866565b60408051601f198184030181528282528051602090910120908d01516001600160e01b031960e08a901b16835261217f9796959493926004016138d8565b604080518083038186803b15801561219657600080fd5b505afa1580156121aa573d6000803e3d6000fd5b505050506040513d601f19601f820116820180604052508101906121ce919061310c565b91509150816121ef5760405162461bcd60e51b81526004016102b190613d20565b6040909401939093525050505050565b6000612209612bb2565b61221283611dea565b9050600080886001600160a01b0316637022c2c48960400151610100866000015187602001518b6040516020016122499190613866565b6040516020818303038152906040528d60001c8a604001516040518863ffffffff1660e01b815260040161228397969594939291906138d8565b604080518083038186803b15801561229a57600080fd5b505afa1580156122ae573d6000803e3d6000fd5b505050506040513d601f19601f820116820180604052508101906122d2919061310c565b91509150816122f35760405162461bcd60e51b81526004016102b190613d20565b60409097019690965260209081015101519695505050505050565b6040808401518251602084015184840151935163b096267360e01b81526000946001600160a01b038a169463b096267394612356949193610100939192918b91600401613936565b60206040518083038186803b15801561236e57600080fd5b505afa158015612382573d6000803e3d6000fd5b505050506040513d601f19601f820116820180604052508101906123a691906130e9565b6123c25760405162461bcd60e51b81526004016102b190613d20565b5060209081015101519392505050565b6000816040516020016107279190613fe5565b6123ed6129ff565b5060408051608081018252600080825260208201527fa9a4da177ac3f81cfe85a6767678aabb095aa306e72ab73f5cf0559c56d0a5309181019190915260008051602061418d833981519152606082015290565b8051600090601f81168061245b575060209004905061119c565b6020910381010492915050565b8051602082015160408301516060848101519093929190600061248a8561266a565b905060006124978561266a565b90506000608087106124aa5760016124ad565b60005b60ff1690506000608087106124c35760016124c6565b60005b60ff169050604482850182018401016060816001600160401b03811180156124ed57600080fd5b506040519080825280601f01601f191660200182016040528015612518576020820181803683370190505b5090506020810160f8815360010160011983018153600101612584565b8082801561255f578560800182536001820191508460088702610100031b8252858201915061257b565b84801561256e57858353612573565b608083535b506001820191505b50949350505050565b612590878c8784612535565b905061259e868b8684612535565b905060a081536001810189905260210160a081536001019690965250939998505050505050505050565b6125d0612ad8565b6125d982612903565b156126185750604080518082019091527f2def10d13dd169f550f578bda343d9717a138562e0093b380a1120789d53cf1081526000602082015261119c565b8180602001905181019061150b9190613463565b60606040518060400160405280848152602001838152506040516020016126539190614090565b604051602081830303815290604052905092915050565b6000816126795750600161119c565b6001600160f81b03198216156126915750602061119c565b60ff60f01b8216156126a55750601f61119c565b60ff60e81b8216156126b95750601e61119c565b60ff60e01b8216156126cd5750601d61119c565b60ff60d81b8216156126e15750601c61119c565b60ff60d01b8216156126f55750601b61119c565b60ff60c81b8216156127095750601a61119c565b60ff60c01b82161561271d5750601961119c565b60ff60b81b8216156127315750601861119c565b60ff60b01b8216156127455750601761119c565b60ff60a81b8216156127595750601661119c565b60ff60a01b82161561276d5750601561119c565b60ff60981b8216156127815750601461119c565b60ff60901b8216156127955750601361119c565b60ff60881b8216156127a95750601261119c565b60ff60801b8216156127bd5750601161119c565b60ff60781b8216156127d15750601061119c565b60ff60701b8216156127e55750600f61119c565b60ff60681b8216156127f95750600e61119c565b60ff60601b82161561280d5750600d61119c565b60ff60581b8216156128215750600c61119c565b60ff60501b8216156128355750600b61119c565b69ff00000000000000000082161561284f5750600a61119c565b68ff00000000000000008216156128685750600961119c565b67ff000000000000008216156128805750600861119c565b66ff0000000000008216156128975750600761119c565b65ff00000000008216156128ad5750600661119c565b64ff000000008216156128c25750600561119c565b63ff0000008216156128d65750600461119c565b62ff00008216156128e95750600361119c565b61ff008216156128fb5750600261119c565b506001919050565b60008151600014156129175750600161119c565b81516020141561292d575060208101511561119c565b506000919050565b604080516102008101825260008082526020820181905291810182905260608082018390526080820183905260a0820183905260c0820183905260e08201839052610100820183905261012082018390526101408201839052610160820183905261018082018190526101a082018390526101c08201929092526101e081019190915290565b604051806040016040528060008152602001600081525090565b60405180606001604052806000815260200160006001600160a01b03168152602001600081525090565b60408051608081018252600080825260208201819052918101829052606081019190915290565b604051806101400160405280600081526020016000801916815260200160008152602001600081526020016000815260200160006001600160a01b031681526020016000815260200160008019168152602001600015158152602001606081525090565b6040805160a08101825260008082526020820181905291810182905260608101829052608081019190915290565b604080516060810182526000808252602082018190529181019190915290565b604080518082019091526000808252602082015290565b6040518060e0016040528060008152602001600081526020016000815260200160006001600160a01b0316815260200160008019168152602001600015158152602001606081525090565b60405180606001604052806003906020820280368337509192915050565b60405180608001604052806004906020820280368337509192915050565b6040518060a001604052806005906020820280368337509192915050565b60405180604001604052806002906020820280368337509192915050565b60405180606001604052806000815260200160608152602001606081525090565b602b8061416283390190565b6040518060c0016040528060006001600160a01b0316815260200160006001600160a01b03168152602001600081526020016000815260200160608152602001600081525090565b803561150b8161413b565b600082601f830112612c42578081fd5b612c4c60806140a7565b9050808284608085011115612c6057600080fd5b60005b6004811015612c8c578151612c778161413b565b83526020928301929190910190600101612c63565b50505092915050565b600082601f830112612ca5578081fd5b612caf60406140a7565b9050808284604085011115612cc357600080fd5b60005b6002811015612c8c578151835260209283019290910190600101612cc6565b600082601f830112612cf5578081fd5b8151612d08612d03826140cd565b6140a7565b818152915060208083019084810160005b84811015612d4257612d30888484518a0101612deb565b84529282019290820190600101612d19565b505050505092915050565b600082601f830112612d5d578081fd5b612d6760a06140a7565b905080828460a085011115612d7b57600080fd5b60005b6005811015612c8c578151835260209283019290910190600101612d7e565b600082601f830112612dad578081fd5b8135612dbb612d03826140ec565b9150808252836020828501011115612dd257600080fd5b8060208401602084013760009082016020015292915050565b600082601f830112612dfb578081fd5b8151612e09612d03826140ec565b9150808252836020828501011115612e2057600080fd5b612e3181602084016020860161410f565b5092915050565b600081830360e0811215612e4a578182fd5b612e5460806140a7565b91508235825260208301356020830152604083013560408301526080605f1982011215612e8057600080fd5b50612e8b60806140a7565b606083013581526080830135602082015260a0830135612eaa8161413b565b8060408301525060c083013560608201528060608301525092915050565b6000610140808385031215612edb578182fd5b612ee4816140a7565b915050813581526020820135602082015260408201356040820152606082013560608201526080820135608082015260a082013560a082015260c082013560c082015260e082013560e0820152610100612f4084828501612c27565b818301525061012080830135818301525092915050565b60008060408385031215612f69578182fd5b8251612f748161413b565b60208401519092506001600160401b03811115612f8f578182fd5b612f9b85828601612deb565b9150509250929050565b600080600060608486031215612fb9578081fd5b8351612fc48161413b565b60208501519093506001600160401b03811115612fdf578182fd5b612feb86828701612deb565b925050604084015190509250925092565b6000806000806000806102008789031215613015578384fd5b87601f880112613023578384fd5b61302d60606140a7565b808860608a018b81111561303f578788fd5b875b6003811015613060578251855260209485019490920191600101613041565b5082995061306e8c82612c32565b9850505050506130818860e08901612d4d565b93506101808701516001600160401b038082111561309d578384fd5b6130a98a838b01612ce5565b94506130b98a6101a08b01612c95565b93506101e08901519150808211156130cf578283fd5b506130dc89828a01612deb565b9150509295509295509295565b6000602082840312156130fa578081fd5b815161310581614153565b9392505050565b6000806040838503121561311e578182fd5b825161312981614153565b6020939093015192949293505050565b600080600080610140858703121561314f578182fd5b6131598686612e38565b935060e08501356001600160401b03811115613173578283fd5b61317f87828801612d9d565b9497949650505050610100830135926101200135919050565b600080600080600061016086880312156131b0578283fd5b6131ba8787612e38565b945060e08601356001600160401b03808211156131d5578485fd5b6131e189838a01612d9d565b955061010088013594506101208801359350610140880135915080821115613207578283fd5b5061321488828901612d9d565b9150509295509295909350565b600080600080600080610180878903121561323a578384fd5b6132448888612e38565b955060e08701356001600160401b038082111561325f578586fd5b61326b8a838b01612d9d565b965061010089013595506101208901359450610140890135915080821115613291578384fd5b61329d8a838b01612d9d565b93506101608901359150808211156132b3578283fd5b506130dc89828a01612d9d565b600080600080600061028086880312156132d8578283fd5b6132e28787612e38565b945060e08601356001600160401b038111156132fc578384fd5b61330888828901612d9d565b94505061010086013592506101208601359150613329876101408801612ec8565b90509295509295909350565b6000806000806000806000806000806103208b8d031215613354578788fd5b61335e8c8c612ec8565b995061336e8c6101408d01612e38565b98506102208b01356001600160401b038082111561338a57898afd5b6133968e838f01612d9d565b99506102408d013598506102608d013597506102808d01359150808211156133bc578586fd5b6133c88e838f01612d9d565b96506102a08d01359150808211156133de578586fd5b6133ea8e838f01612d9d565b95506102c08d0135915080821115613400578485fd5b61340c8e838f01612d9d565b94506102e08d0135915080821115613422578384fd5b61342e8e838f01612d9d565b93506103008d0135915080821115613444578283fd5b506134518d828e01612d9d565b9150509295989b9194979a5092959850565b600060408284031215613474578081fd5b61347e60406140a7565b82518152602083015160208201528091505092915050565b600060208083850312156134a8578182fd5b82516001600160401b03808211156134be578384fd5b818501606081880312156134d0578485fd5b6134da60606140a7565b92508051835283810151828111156134f0578586fd5b6134fc88828401612deb565b8585015250604081015182811115613512578586fd5b019050601f81018613613523578384fd5b8051613531612d03826140cd565b81815284810190838601868402850187018a101561354d578788fd5b8794505b8385101561356f578051835260019490940193918601918601613551565b50604085015250919695505050505050565b600060208284031215613592578081fd5b5051919050565b600080604083850312156135ab578182fd5b8251915060208301516135bd8161413b565b809150509250929050565b6000806000606084860312156135dc578081fd5b8351925060208401516135ee8161413b565b60408501519092506135ff81614153565b809150509250925092565b60008060006060848603121561361e578081fd5b8351925060208401516136308161413b565b80925050604084015190509250925092565b600080600060608486031215613656578081fd5b8351925060208401519150604084015190509250925092565b600080600080600060a08688031215613686578283fd5b5050835160208501516040860151606087015160809097015192989197509594509092509050565b6000806000806000806000806000806101408b8d0312156136cd578384fd5b8a51995060208b0151985060408b0151975060608b0151965060808b0151955060a08b01516136fb8161413b565b8095505060c08b0151935060e08b015192506101008b01518015158114613720578283fd5b6101208c01519092506001600160401b0381111561373c578182fd5b6134518d828e01612deb565b6000806040838503121561375a578182fd5b505080516020909101519092909150565b600080600080600080600060e0888a031215613785578081fd5b87519650602088015195506040880151945060608801516137a58161413b565b608089015160a08a015191955093506137bd81614153565b60c08901519092506001600160401b038111156137d8578182fd5b6137e48a828b01612deb565b91505092959891949750929550565b6001600160a01b03169052565b6000815180845260208085019450808401835b8381101561382f57815187529582019590820190600101613813565b509495945050505050565b6000815180845261385281602086016020860161410f565b601f01601f19169290920160200192915050565b90815260200190565b6000825161388181846020870161410f565b9190910192915050565b6001600160a01b03878116825286166020820152604081018590526060810184905260c0608082018190526000906138c59083018561383a565b90508260a0830152979650505050505050565b600088825287602083015286604083015260e060608301526138fd60e083018761383a565b828103608084015261390f818761383a565b8560a085015283810360c08501526139278186613800565b9b9a5050505050505050505050565b600087825286602083015285604083015260c0606083015261395b60c083018661383a565b84608084015282810360a08401526120fe8185613800565b602081016003831061398157fe5b91905290565b6020808252601b908201527f5265636f72642068616420636f727265637420636861696e69642e0000000000604082015260600190565b60208082526018908201527f496e76616c69642063616c6c64617461206275666665722e0000000000000000604082015260600190565b6020808252601a908201527f5265636f726420696e646578206f7574206f662072616e67652e000000000000604082015260600190565b6020808252601a908201527f5265636f7264206861642076616c696420636f6465686173682e000000000000604082015260600190565b60208082526021908201527f496e76616c69642070656e64696e6720626c6f636b206f72207769746e6573736040820152601760f91b606082015260800190565b60208082526023908201527f5265636f72642068616420636f72726563742074696d657374616d702076616c6040820152623ab29760e91b606082015260800190565b6020808252600f908201526e24b73b30b634b2103432b0b232b91760891b604082015260600190565b60208082526019908201527f5265636f72642068616420636f72726563742076616c75652e00000000000000604082015260600190565b60208082526019908201527f5265636f7264206861642076616c6964206661696c7572652e00000000000000604082015260600190565b60208082526013908201527224b73b30b634b21039ba30ba3290383937b7b360691b604082015260600190565b60208082526022908201527f5265636f72642068616420636f727265637420636f696e626173652076616c75604082015261329760f11b606082015260800190565b60208082526030908201527f43616e206e6f74207573652063616c6c7320746f206368696c642072656c617960408201526f103337b9103a3434b990383937b7b31760811b606082015260800190565b6020808252601a908201527f4e6f206572726f727320666f756e6420696e207265636f72642e000000000000604082015260600190565b6020808252602a908201527f5265636f72642068616420636f727265637420726566756e6420616e64206f756040820152693a383aba103937b7ba1760b11b606082015260800190565b6020808252601b908201527f5265636f72642068616420636f72726563742062616c616e63652e0000000000604082015260600190565b60208082526011908201527024b739bab33334b1b4b2b73a1033b0b99760791b604082015260600190565b60208082526015908201527424b73b30b634b21039ba37b930b3b290383937b7b360591b604082015260600190565b60208082526019908201527f496e76616c6964206163636f756e7420656e636f64696e672e00000000000000604082015260600190565b60208082526021908201527f496e73756666696369656e742067617320666f72206f7574676f696e672074786040820152601760f91b606082015260800190565b6020808252601b908201527f496e76616c69642066756e6374696f6e207369676e61747572652e0000000000604082015260600190565b60208082526021908201527f5265636f7264206e6f7420666f7220636f7272656374206f7065726174696f6e6040820152601760f91b606082015260800190565b6020808252601e908201527f496e73756666696369656e742076616c756520666f7220626f756e74792e0000604082015260600190565b6020808252601f908201527f4e6f206572726f727320666f756e6420696e2063616c6c207265636f72642e00604082015260600190565b60208082526014908201527324b73b30b634b21039ba30ba3290383937b7b31760611b604082015260600190565b6020808252601a908201527f496e76616c69642063616c6c646174612070726f76696465642e000000000000604082015260600190565b6020808252601690820152752932b1b7b932103430b2103b30b634b21039b4bd329760511b604082015260600190565b6020808252601a908201527f496e76616c69642063616c6c6461746120656e636f64696e672e000000000000604082015260600190565b60208082526018908201527f496e76616c69642065786974206c6561662070726f6f662e0000000000000000604082015260600190565b6020808252818101527f5265636f72642068616420636f7272656374206e756d6265722076616c75652e604082015260600190565b81518152602080830151908201526040808301516001600160a01b0316908201526060918201519181019190915260800190565b600061014082019050825182526020830151602083015260408301516040830152606083015160608301526080830151608083015260a083015160a083015260c083015160c083015260e083015160e08301526101008084015161407f828501826137f3565b505061012092830151919092015290565b815181526020918201519181019190915260400190565b6040518181016001600160401b03811182821017156140c557600080fd5b604052919050565b60006001600160401b038211156140e2578081fd5b5060209081020190565b60006001600160401b03821115614101578081fd5b50601f01601f191660200190565b60005b8381101561412a578181015183820152602001614112565b838111156109955750506000910152565b6001600160a01b038116811461415057600080fd5b50565b801515811461415057600080fdfe608060405260405160208160008034335af1508051803b6000835280600060018501843c6001810183f3fec5d2460186f7233c927e7db2dcc703c0e500b653ca82273b7bfad8045d85a470a264697066735822122042a864909c6129044f274b9150f669d738d290ead3a0effdbf58b37e477cb46964736f6c634300060b0033",
  "immutableReferences": {},
  "source": "pragma solidity ^0.6.0;\npragma experimental ABIEncoderV2;\n\nimport { ChainStateImplementer as Stateful } from \"../common/ChainStateImplementer.sol\";\nimport { MessageWitnessLib as Message } from \"../common/witness/MessageWitnessLib.sol\";\nimport { AccessRecordLib as Access } from \"../common/witness/AccessRecordLib.sol\";\nimport { ChainStateLib as State } from \"../common/ChainStateLib.sol\";\nimport { ConfigLib as Config } from \"../common/config/ConfigLib.sol\";\nimport { StateProofLib as StateProof } from \"./lib/StateProofLib.sol\";\nimport { RLPAccountLib as Account } from \"../utils/type-encoders/RLPAccountLib.sol\";\nimport { ISO_HeaderLib as Header } from \"../common/blocks/ISO_HeaderLib.sol\";\nimport { CommitmentHeaderLib as CL } from \"../common/blocks/CommitmentHeaderLib.sol\";\nimport { InclusionProofLib as InclusionProof } from \"./lib/InclusionProofLib.sol\";\nimport { ExitProofLib as ExitProof } from \"./lib/ExitProofLib.sol\";\nimport { OutgoingTransactionLib as OutgoingTx } from \"../common/transactions/OutgoingTransactionLib.sol\";\n\ncontract AccessErrorProver is Stateful {\n  using Account for Account.Account;\n  using State for State.ChainState;\n  using InclusionProof for State.ChainState;\n\n  function proveExtCodeHashError(\n    CL.CommitmentHeaderQuery memory commitmentQuery,\n    bytes memory witnessBytes,\n    uint256 transactionIndex,\n    uint256 recordIndex,\n    bytes memory stateProof\n  ) public {\n    (\n      Message.MessageWitness memory witness,\n      address challenger\n    ) = validateWitnessInclusion(commitmentQuery, transactionIndex, witnessBytes);\n    validateExtCodeHashErrorProof(witness, recordIndex, stateProof);\n    handleSuccess(commitmentQuery, transactionIndex, challenger);\n  }\n\n  function validateExtCodeHashErrorProof(\n    Message.MessageWitness memory messageWitness,\n    uint256 recordIndex,\n    bytes memory stateProof\n  ) internal view {\n    // decode the record\n    Access.ExtCodeHashWitness memory record = Access.toExtCodeHashWitness(\n      getRecord(messageWitness, recordIndex, 0x3f)\n    );\n    // verify the provided state proof and decode the account\n    Account.Account memory account = StateProof.proveAccountInState(\n      chainState.sparse,\n      Message.getLastState(messageWitness, recordIndex),\n      record.target,\n      stateProof\n    );\n    require(account.codeHash != record.value, \"Record had valid codehash.\");\n  }\n\n  function proveExtCodeSizeError(\n    CL.CommitmentHeaderQuery memory commitmentQuery,\n    bytes memory witnessBytes,\n    uint256 transactionIndex,\n    uint256 recordIndex,\n    bytes memory stateProof\n  ) public {\n    (\n      Message.MessageWitness memory witness,\n      address challenger\n    ) = validateWitnessInclusion(commitmentQuery, transactionIndex, witnessBytes);\n    validateExtCodeSizeErrorProof(witness, recordIndex, stateProof);\n    handleSuccess(commitmentQuery, transactionIndex, challenger);\n  }\n\n  function validateExtCodeSizeErrorProof(\n    Message.MessageWitness memory messageWitness,\n    uint256 recordIndex,\n    bytes memory stateProof\n  ) internal view {\n    Access.ExtCodeSizeWitness memory record = Access.toExtCodeSizeWitness(\n      getRecord(messageWitness, recordIndex, 0x3b)\n    );\n    Account.Account memory account = StateProof.proveAccountInState(\n      chainState.sparse,\n      Message.getLastState(messageWitness, recordIndex),\n      record.target,\n      stateProof\n    );\n    if (account.codeHash == 0xc5d2460186f7233c927e7db2dcc703c0e500b653ca82273b7bfad8045d85a470) {\n      /* if the account did not exist, expect the record to have 0 as the size */\n      require(record.size != 0, \"Record had valid size.\");\n    } else {\n      /* if the account existed, compare the size to the archive */\n      address archived = chainState.getContractArchiveAddress(record.target);\n      uint256 size;\n      assembly { size := sub(extcodesize(archived), 1) } // remove 1 for leading 0\n      require(record.size != size, \"Record had valid size.\");\n    }\n  }\n\n  function proveExtCodeCopyError(\n    CL.CommitmentHeaderQuery memory commitmentQuery,\n    bytes memory witnessBytes,\n    uint256 transactionIndex,\n    uint256 recordIndex,\n    bytes memory stateProof\n  ) public {\n    (\n      Message.MessageWitness memory witness,\n      address challenger\n    ) = validateWitnessInclusion(commitmentQuery, transactionIndex, witnessBytes);\n    validateExtCodeCopyErrorProof(witness, recordIndex, stateProof);\n    handleSuccess(commitmentQuery, transactionIndex, challenger);\n  }\n\n  function validateExtCodeCopyErrorProof(\n    Message.MessageWitness memory messageWitness,\n    uint256 recordIndex,\n    bytes memory stateProof\n  ) internal view {\n    // decode the record\n    Access.ExtCodeCopyWitness memory record = Access.toExtCodeCopyWitness(\n      getRecord(messageWitness, recordIndex, 0x3c)\n    );\n    Account.Account memory account = StateProof.proveAccountInState(\n      chainState.sparse,\n      Message.getLastState(messageWitness, recordIndex),\n      record.target,\n      stateProof\n    );\n    if (account.codeHash == 0xc5d2460186f7233c927e7db2dcc703c0e500b653ca82273b7bfad8045d85a470) {\n      require(record.exists, \"Record had correct value.\");\n    } require(!record.exists, \"Record had correct value.\");\n  }\n\n  function proveChainIdError(\n    CL.CommitmentHeaderQuery memory commitmentQuery,\n    bytes memory witnessBytes,\n    uint256 transactionIndex,\n    uint256 recordIndex\n  ) public {\n    (\n      Message.MessageWitness memory witness,\n      address challenger\n    ) = validateWitnessInclusion(commitmentQuery, transactionIndex, witnessBytes);\n    validateChainIdErrorProof(witness, recordIndex);\n    handleSuccess(commitmentQuery, transactionIndex, challenger);\n  }\n\n  function validateChainIdErrorProof(\n    Message.MessageWitness memory messageWitness,\n    uint256 recordIndex\n  ) internal pure {\n    // decode the record\n    Access.ChainidWitness memory record = Access.toChainidWitness(\n      getRecord(messageWitness, recordIndex, 0x46)\n    );\n    require(record.value != Config.CHAIN_ID(), \"Record had correct chainid.\");\n  }\n\n  function proveCoinbaseError(\n    CL.CommitmentHeaderQuery memory commitmentQuery,\n    bytes memory witnessBytes,\n    uint256 transactionIndex,\n    uint256 recordIndex\n  ) public {\n    (\n      Message.MessageWitness memory witness,\n      address challenger\n    ) = validateWitnessInclusion(commitmentQuery, transactionIndex, witnessBytes);\n    validateCoinbaseErrorProof(witness, recordIndex, commitmentQuery.commitment);\n    handleSuccess(commitmentQuery, transactionIndex, challenger);\n  }\n\n  function validateCoinbaseErrorProof(\n    Message.MessageWitness memory messageWitness,\n    uint256 recordIndex,\n    CL.CommitmentHeader memory commitment\n  ) internal pure {\n    // decode the record\n    Access.CoinbaseWitness memory record = Access.toCoinbaseWitness(\n      getRecord(messageWitness, recordIndex, 0x41)\n    );\n    require(record.coinbase != commitment.coinbase, \"Record had correct coinbase value.\");\n  }\n\n  function proveTimestampError(\n    CL.CommitmentHeaderQuery memory commitmentQuery,\n    bytes memory witnessBytes,\n    uint256 transactionIndex,\n    uint256 recordIndex,\n    Header.ISO_Header memory header\n  ) public {\n    require(\n      Header.blockHash(header) == commitmentQuery.commitment.blockHash,\n      \"Invalid header.\"\n    );\n    (\n      Message.MessageWitness memory witness,\n      address challenger\n    ) = validateWitnessInclusion(commitmentQuery, transactionIndex, witnessBytes);\n    validateTimestampErrorProof(witness, recordIndex, header);\n    handleSuccess(commitmentQuery, transactionIndex, challenger);\n  }\n\n  function validateTimestampErrorProof(\n    Message.MessageWitness memory messageWitness,\n    uint256 recordIndex,\n    Header.ISO_Header memory header\n  ) internal pure {\n    // decode the record\n    Access.TimestampWitness memory record = Access.toTimestampWitness(\n      getRecord(messageWitness, recordIndex, 0x42)\n    );\n    require(record.timestamp != header.timestamp, \"Record had correct timestamp value.\");\n  }\n\n  function proveNumberError(\n    CL.CommitmentHeaderQuery memory commitmentQuery,\n    bytes memory witnessBytes,\n    uint256 transactionIndex,\n    uint256 recordIndex,\n    Header.ISO_Header memory header\n  ) public {\n    require(\n      Header.blockHash(header) == commitmentQuery.commitment.blockHash,\n      \"Invalid header.\"\n    );\n    (\n      Message.MessageWitness memory witness,\n      address challenger\n    ) = validateWitnessInclusion(commitmentQuery, transactionIndex, witnessBytes);\n    validateNumberErrorProof(witness, recordIndex, header);\n    handleSuccess(commitmentQuery, transactionIndex, challenger);\n  }\n\n  function validateNumberErrorProof(\n    Message.MessageWitness memory messageWitness,\n    uint256 recordIndex,\n    Header.ISO_Header memory header\n  ) internal pure {\n    // decode the record\n    Access.NumberWitness memory record = Access.toNumberWitness(\n      getRecord(messageWitness, recordIndex, 0x43)\n    );\n    require(record.number != header.number, \"Record had correct number value.\");\n  }\n\n  function proveBalanceError(\n    CL.CommitmentHeaderQuery memory commitmentQuery,\n    bytes memory witnessBytes,\n    uint256 transactionIndex,\n    uint256 recordIndex,\n    bytes memory stateProof\n  ) public {\n    (\n      Message.MessageWitness memory witness,\n      address challenger\n    ) = validateWitnessInclusion(commitmentQuery, transactionIndex, witnessBytes);\n    validateBalanceErrorProof(witness, recordIndex, stateProof);\n    handleSuccess(commitmentQuery, transactionIndex, challenger);\n  }\n\n  /* <-- Begin State Fraud Proofs --> */\n  function validateBalanceErrorProof(\n    Message.MessageWitness memory messageWitness,\n    uint256 recordIndex,\n    bytes memory stateProof\n  ) internal view {\n    // decode the record\n    Access.BalanceWitness memory record = Access.toBalanceWitness(\n      getRecord(messageWitness, recordIndex, 0x31)\n    );\n    // get the state root prior to the operation\n    Account.Account memory account = StateProof.proveAccountInState(\n      chainState.sparse,\n      Message.getLastState(messageWitness, recordIndex),\n      record.target,\n      stateProof\n    );\n    require(account.balance != record.balance, \"Record had correct balance.\");\n  }\n\n  function proveSelfBalanceError(\n    CL.CommitmentHeaderQuery memory commitmentQuery,\n    bytes memory witnessBytes,\n    uint256 transactionIndex,\n    uint256 recordIndex,\n    bytes memory stateProof\n  ) public {\n    (\n      Message.MessageWitness memory witness,\n      address challenger\n    ) = validateWitnessInclusion(commitmentQuery, transactionIndex, witnessBytes);\n    validateSelfBalanceErrorProof(witness, recordIndex, stateProof);\n    handleSuccess(commitmentQuery, transactionIndex, challenger);\n  }\n\n  function validateSelfBalanceErrorProof(\n    Message.MessageWitness memory messageWitness,\n    uint256 recordIndex,\n    bytes memory stateProof\n  ) internal view {\n    // decode the record\n    Access.SelfBalanceWitness memory record = Access.toSelfBalanceWitness(\n      getRecord(messageWitness, recordIndex, 0x47)\n    );\n    // get the state root prior to the operation\n    Account.Account memory account = StateProof.proveAccountInState(\n      chainState.sparse,\n      Message.getLastState(messageWitness, recordIndex),\n      messageWitness.context,\n      stateProof\n    );\n    require(account.balance != record.balance, \"Record had correct balance.\");\n  }\n\n  function proveSloadError(\n    CL.CommitmentHeaderQuery memory commitmentQuery,\n    bytes memory witnessBytes,\n    uint256 transactionIndex,\n    uint256 recordIndex,\n    bytes memory accountProof,\n    bytes memory storageProof\n  ) public {\n    (\n      Message.MessageWitness memory witness,\n      address challenger\n    ) = validateWitnessInclusion(commitmentQuery, transactionIndex, witnessBytes);\n    validateSloadErrorProof(witness, recordIndex, accountProof, storageProof);\n    handleSuccess(commitmentQuery, transactionIndex, challenger);\n  }\n\n  function validateSloadErrorProof(\n    Message.MessageWitness memory messageWitness,\n    uint256 recordIndex,\n    bytes memory accountProof,\n    bytes memory storageProof\n  ) internal view {\n    // decode the record\n    Access.SloadWitness memory record = Access.toSloadWitness(\n      getRecord(messageWitness, recordIndex, 0x54)\n    );\n    // verify the provided state proof and decode the account\n    Account.Account memory account = StateProof.proveAccountInState(\n      chainState.sparse,\n      Message.getLastState(messageWitness, recordIndex),\n      messageWitness.context,\n      accountProof\n    );\n    // verify the provided storage proof\n    if (account.hasEmptyState()) {\n      require(record.value != 0, \"Record had correct value.\");\n      return;\n    }\n    bytes32 provenValue = StateProof.proveStorageValue(\n      chainState.sparse,\n      account,\n      record.slot,\n      storageProof\n    );\n\n    /* if we have a valid proof in last state that doesn't match the record, the record is fraudulent */\n    require(record.value != provenValue, \"Record had correct value.\");\n  }\n\n  function proveSstoreError(\n    CL.CommitmentHeaderQuery memory commitmentQuery,\n    bytes memory witnessBytes,\n    uint256 transactionIndex,\n    uint256 recordIndex,\n    bytes memory accountProof,\n    bytes memory storageProof\n  ) public {\n    (\n      Message.MessageWitness memory witness,\n      address challenger\n    ) = validateWitnessInclusion(\n      commitmentQuery,\n      transactionIndex,\n      witnessBytes\n    );\n    validateSstoreErrorProof(\n      witness,\n      recordIndex,\n      accountProof,\n      storageProof\n    );\n    handleSuccess(commitmentQuery, transactionIndex, challenger);\n  }\n\n  /**\n   * @dev Prove that an sstore record in a message witness has\n   * an invalid output state root or gas refund.\n   */\n  function validateSstoreErrorProof(\n    Message.MessageWitness memory messageWitness,\n    uint256 recordIndex,\n    bytes memory accountProof,\n    bytes memory storageProof\n  ) internal view {\n    // decode the record\n    Access.SstoreWitness memory record = Access.toSstoreWitness(\n      getRecord(messageWitness, recordIndex, 0x55)\n    );\n    (bytes32 oldValue, bytes32 newRoot) = StateProof.proveAndUpdateAccountStorage(\n      chainState.sparse,\n      Message.getLastState(messageWitness, recordIndex),\n      messageWitness.context,\n      record.slot,\n      record.value,\n      accountProof,\n      storageProof\n    );\n    if (record.stateRoot != newRoot) return;\n    \n    require(\n      record.refund != (\n        record.value == bytes32(0)\n          ? oldValue == bytes32(0) ? 15000 : 30000\n          : oldValue == bytes32(0) ? 0 : 15000\n      ),\n      \"Record had correct refund and output root.\"\n    );\n  }\n\n\n\n\n  function proveExitCallError(\n    Header.ISO_Header memory header,\n    CL.CommitmentHeaderQuery memory commitmentQuery,\n    bytes memory witnessBytes,\n    uint256 transactionIndex,\n    uint256 recordIndex,\n    bytes memory callData,\n    bytes memory callerProof,\n    bytes memory stateProofBytes,\n    bytes memory storageProofBytes,\n    bytes memory transactionProofBytes\n  ) public {\n    (\n      Message.MessageWitness memory witness,\n      address challenger\n    ) = validateWitnessInclusion(\n      commitmentQuery,\n      transactionIndex,\n      witnessBytes\n    );\n    require(\n      Header.blockHash(header) == commitmentQuery.commitment.blockHash,\n      \"Invalid header.\"\n    );\n    validateExitCallErrorProof(\n      header,\n      witness,\n      recordIndex,\n      callData,\n      callerProof,\n      stateProofBytes,\n      storageProofBytes,\n      transactionProofBytes\n    );\n    handleSuccess(commitmentQuery, transactionIndex, challenger);\n  }\n  /**\n   * @dev Prove that an exit call record was executed incorrectly.\n   * This can be proven if the target was a contract but the call succeeded anyways,\n   * if the target was an EOA and the output state root is incorrect, or if the \n   */\n  function validateExitCallErrorProof(\n    Header.ISO_Header memory header,\n    Message.MessageWitness memory messageWitness,\n    uint256 recordIndex,\n    bytes memory callData,\n    bytes memory callerProof,\n    bytes memory stateProofBytes,\n    bytes memory storageProofBytes,\n    bytes memory transactionProofBytes\n  ) internal view {\n    Access.CallWitness memory record = Access.toCallWitness(\n      getRecord(messageWitness, recordIndex, 0xf1)\n    );\n    require(\n      record.to == Config.childRelayAddress(),\n      \"Can not use calls to child relay for this proof.\"\n    );\n    require(\n      keccak256(callData) == record.calldataHash,\n      \"Invalid calldata buffer.\"\n    );\n    bytes memory encodedTx = OutgoingTx.toBytes(\n      OutgoingTx.fromExitCalldata(\n        callData, messageWitness.context, record.value, record.gas\n      )\n    );\n    bytes32 previousRoot = Message.getLastState(messageWitness, recordIndex);\n    (bool valid, bytes32 updatedRoot) = StateProof.subtractBalanceAllowError(\n      chainState.sparse,\n      previousRoot,\n      messageWitness.caller,\n      callerProof,\n      record.value\n    );\n    if (!valid) {\n      require(\n        record.success || record.stateRoot != previousRoot,\n        \"No errors found in call record.\"\n      );\n      return;\n    }\n\n    updatedRoot = ExitProof.updateExitsRoot(\n      chainState.sparse,\n      updatedRoot,\n      header.number,\n      stateProofBytes,\n      storageProofBytes,\n      transactionProofBytes,\n      encodedTx\n    );\n    require(\n      !record.success || updatedRoot != record.stateRoot,\n      \"No errors found in call record.\"\n    );\n  }\n\n  function proveStaticCallError(\n    CL.CommitmentHeaderQuery memory commitmentQuery,\n    bytes memory witnessBytes,\n    uint256 transactionIndex,\n    uint256 recordIndex,\n    bytes memory callData\n  ) public {\n    (\n      Message.MessageWitness memory witness,\n      address challenger\n    ) = validateWitnessInclusion(\n      commitmentQuery,\n      transactionIndex,\n      witnessBytes\n    );\n    validateStaticCallErrorProof(\n      witness,\n      recordIndex,\n      callData\n    );\n    handleSuccess(commitmentQuery, transactionIndex, challenger);\n  }\n\n  function validateStaticCallErrorProof(\n    Message.MessageWitness memory messageWitness,\n    uint256 recordIndex,\n    bytes memory callData\n  ) internal view {\n    bytes memory recordBytes = getRecord(messageWitness, recordIndex, 0xfa);\n    Access.StaticCallWitness memory record = Access.toStaticCallWitness(recordBytes);\n    uint256 addressNum = uint256(record.to);\n    require(\n      keccak256(callData) == record.calldataHash,\n      \"Invalid calldata provided.\"\n    );\n    /* Static calls are only allowed to target the precompile contracts. */\n    if (addressNum < 1 || addressNum > 9) {\n      require(record.success, \"Record had valid failure.\");\n      return;\n    }\n    require(gasleft() >= (record.gas + 50000), \"Insufficient gas.\");\n    (bool success, bytes memory returnData) = record.to.staticcall{gas: gasleft()}(callData);\n    require(\n      record.success != success ||\n      keccak256(returnData) != keccak256(record.returndata),\n      \"No errors found in record.\"\n    );\n    // TODO Add handling for gas\n  }\n\n  function proveCallError(\n    CL.CommitmentHeaderQuery memory commitmentQuery,\n    bytes memory witnessBytes,\n    uint256 transactionIndex,\n    uint256 recordIndex,\n    bytes memory callerProof,\n    bytes memory receiverProof\n  ) public {\n    (\n      Message.MessageWitness memory witness,\n      address challenger\n    ) = validateWitnessInclusion(\n      commitmentQuery,\n      transactionIndex,\n      witnessBytes\n    );\n    validateCallErrorProof(\n      witness,\n      recordIndex,\n      callerProof,\n      receiverProof\n    );\n    handleSuccess(commitmentQuery, transactionIndex, challenger);\n  }\n\n  /**\n   * @dev Prove that a call access record is invalid.\n   * The record can be invalid if any of the following are true:\n   * - The recipient was a contract and the call succeeded\n   * - The caller had insufficient balance and the call succeeded\n   * - The output state root does not match the state transition\n   *\n   * This function will fail if the recipient is the child relay\n   * contract, which must be handled with a separate function.\n   *\n   * Note: This is an incomplete fraud proof function which is a \n   * temporary stand-in for the complete fraud proof.\n   */\n  function validateCallErrorProof(\n    Message.MessageWitness memory messageWitness,\n    uint256 recordIndex,\n    bytes memory callerProof,\n    bytes memory receiverProof\n  ) internal view {\n    Access.CallWitness memory record = Access.toCallWitness(\n      getRecord(messageWitness, recordIndex, 0xf1)\n    );\n    \n    bytes32 previousRoot = Message.getLastState(messageWitness, recordIndex);\n    (bool valid, bytes32 updatedRoot) = StateProof.subtractBalanceAllowError(\n      chainState.sparse,\n      previousRoot,\n      messageWitness.caller,\n      callerProof,\n      record.value\n    );\n\n    if (!valid) {\n      // If the caller had an insufficient balance, the state root should be the\n      // input root and the call should have failed.\n      require(\n        record.success || record.stateRoot != previousRoot,\n        \"No errors found in call record.\"\n      );\n      return;\n    }\n\n    require(\n      record.to != Config.childRelayAddress(),\n      \"Can not use calls to child relay for this proof.\"\n    );\n\n    Account.Account memory receiver;\n    (updatedRoot, receiver) = StateProof.increaseBalance(\n      chainState.sparse,\n      updatedRoot,\n      record.to,\n      receiverProof,\n      record.value\n    );\n    if (Account.isContract(receiver)) {\n      // Calls to contracts are temporarily disabled\n      require(\n        record.success || record.stateRoot != previousRoot,\n        \"No errors found in call record.\"\n      );\n    } else {\n      require(\n        !record.success || record.stateRoot != updatedRoot,\n        \"No errors found in call record.\"\n      );\n    }\n  }\n\n  function handleSuccess(\n    CL.CommitmentHeaderQuery memory commitmentQuery,\n    uint256 transactionIndex,\n    address challenger\n  ) internal {\n    chainState.markFraudulentBlock(commitmentQuery);\n    Config.rewardSuccessfulChallenge(challenger);\n    delete chainState\n      .challengesByBlock[commitmentQuery.commitment.blockHash]\n      .challengesByTransaction[transactionIndex];\n    delete chainState\n      .challengesByBlock[commitmentQuery.commitment.blockHash]\n      .witnessHashes[transactionIndex];\n  }\n\n  function validateWitnessInclusion(\n    CL.CommitmentHeaderQuery memory commitmentQuery,\n    uint256 transactionIndex,\n    bytes memory witnessBytes\n  ) internal view returns (\n    Message.MessageWitness memory witness,\n    address challenger\n  ) {\n    bytes32 witnessHash = keccak256(witnessBytes);\n    require(\n      chainState.hasWitnessForPendingBlock(commitmentQuery, transactionIndex, witnessHash),\n      \"Invalid pending block or witness.\"\n    );\n    witness = Message.fromBytes(witnessBytes);\n    challenger = chainState\n      .challengesByBlock[commitmentQuery.commitment.blockHash]\n      .challengesByTransaction[transactionIndex]\n      .challenger;\n  }\n\n  function getRecord(\n    Message.MessageWitness memory messageWitness,\n    uint256 recordIndex,\n    uint256 opcode\n  ) internal pure returns (bytes memory accessRecord) {\n    accessRecord = messageWitness.access_list[recordIndex]; // get the encoded access record from the access list\n    uint256 _opcode;\n    assembly { _opcode := mload(add(accessRecord, 0x20)) }\n    require(_opcode == opcode, \"Record not for correct operation.\");\n  }\n}",
  "sourcePath": "/home/dillon/sparse-iso/sparse-iso/packages/contracts/contracts/fraud-proofs/AccessErrorProver.sol",
  "compiler": {
    "name": "solc",
    "version": "0.6.11+commit.5ef660b1.Emscripten.clang"
  },
  "schemaVersion": "3.2.1",
  "updatedAt": "2020-07-17T23:51:47.584Z",
  "devdoc": {
    "kind": "dev",
    "methods": {},
    "version": 1
  },
  "userdoc": {
    "kind": "user",
    "methods": {},
    "version": 1
  }
}