{
  "contractName": "ByteCounter",
  "abi": [
    {
      "inputs": [
        {
          "internalType": "bytes",
          "name": "",
          "type": "bytes"
        }
      ],
      "name": "countBytes",
      "outputs": [
        {
          "internalType": "uint256",
          "name": "zeroBytes",
          "type": "uint256"
        },
        {
          "internalType": "uint256",
          "name": "nonZeroBytes",
          "type": "uint256"
        }
      ],
      "stateMutability": "pure",
      "type": "function"
    }
  ],
  "bytecode": "0x608060405234801561001057600080fd5b5061012c806100206000396000f3fe6080604052348015600f57600080fd5b506004361060285760003560e01c80639fa6b49614602d575b600080fd5b609760048036036020811015604157600080fd5b810190602081018135640100000000811115605b57600080fd5b820183602082011115606c57600080fd5b80359060200191846001830284011164010000000083111715608d57600080fd5b50909250905060b0565b6040805192835260208301919091528051918290030190f35b600080604460243581015b8082101560ed57813560001a80156001811460da5760018501945060e1565b6001860195505b505060018201915060bb565b5050925092905056fea2646970667358221220770f8d3ff91cd323f2601a3fce73310a326d208a77c71b3318eccc4a9dfebf2564736f6c634300060b0033",
  "immutableReferences": {},
  "source": "pragma solidity ^0.6.0;\n\ncontract ByteCounter {\n  function countBytes(bytes calldata)\n  external pure returns (uint256 zeroBytes, uint256 nonZeroBytes) {\n    assembly {\n      let ptr := 68\n      let end := add(ptr, calldataload(36))\n      for {let i := 68} lt(i, end) {i := add(i, 1)} {\n        let _byte := byte(0, calldataload(i))\n        switch iszero(_byte)\n          case true { zeroBytes := add(zeroBytes, 1) }\n          default { nonZeroBytes := add(nonZeroBytes, 1) }\n      }\n    }\n  }\n}",
  "sourcePath": "/home/dillon/sparse-iso/sparse-iso/packages/contracts/contracts/common/config/byte-counter/ByteCounter.sol",
  "compiler": {
    "name": "solc",
    "version": "0.6.11+commit.5ef660b1.Emscripten.clang"
  },
  "schemaVersion": "3.2.1",
  "updatedAt": "2020-07-17T23:51:47.544Z",
  "devdoc": {
    "kind": "dev",
    "methods": {},
    "version": 1
  },
  "userdoc": {
    "kind": "user",
    "methods": {},
    "version": 1
  }
}