{
  "contractName": "ContractProxy",
  "abi": [
    {
      "inputs": [],
      "stateMutability": "nonpayable",
      "type": "constructor"
    },
    {
      "stateMutability": "payable",
      "type": "fallback"
    },
    {
      "stateMutability": "payable",
      "type": "receive"
    },
    {
      "inputs": [
        {
          "internalType": "address payable",
          "name": "to",
          "type": "address"
        },
        {
          "internalType": "uint256",
          "name": "sendGas",
          "type": "uint256"
        },
        {
          "internalType": "bytes",
          "name": "data",
          "type": "bytes"
        }
      ],
      "name": "executeOutgoingTransaction",
      "outputs": [],
      "stateMutability": "payable",
      "type": "function"
    }
  ],
  "bytecode": "0x608060405234801561001057600080fd5b50600080546001600160a01b0319163317905561032b806100326000396000f3fe6080604052600436106100225760003560e01c806367a30e51146101b75761011f565b3661011f576000546001600160a01b03166366ee1ecd5a34335a604051806020016040528060008152506040518663ffffffff1660e01b815260040180846001600160a01b03166001600160a01b0316815260200183815260200180602001828103825283818151815260200191508051906020019080838360005b838110156100b657818101518382015260200161009e565b50505050905090810190601f1680156100e35780820380516001836020036101000a031916815260200191505b509450505050506000604051808303818589803b15801561010357600080fd5b5088f1158015610117573d6000803e3d6000fd5b505050505050005b6000546001600160a01b03166366ee1ecd5a34335a6000366040518763ffffffff1660e01b815260040180856001600160a01b03166001600160a01b03168152602001848152602001806020018281038252848482818152602001925080828437600081840152601f19601f820116905080830192505050955050505050506000604051808303818589803b15801561010357600080fd5b610272600480360360608110156101cd57600080fd5b6001600160a01b03823516916020810135918101906060810160408201356401000000008111156101fd57600080fd5b82018360208201111561020f57600080fd5b8035906020019184600183028401116401000000008311171561023157600080fd5b91908080601f016020809104026020016040519081016040528093929190818152602001838380828437600092019190915250929550610274945050505050565b005b6000546001600160a01b031633146102d3576040805162461bcd60e51b815260206004820152601860248201527f43616c6c6572206e6f7420706172656e742072656c61792e0000000000000000604482015290519081900360640190fd5b600080825160208401348787f16040513d6000823e816102f1573d81fd5b3d81f3fea26469706673582212201aa4d4ea328589aedb2ba4ab7b25a3ebdb26f36ee320f749b75b6be1830a1e8164736f6c634300060b0033",
  "immutableReferences": {},
  "source": "pragma solidity ^0.6.0;\n\nimport \"./IParentRelay.sol\";\n\ncontract ContractProxy {\n  IParentRelay private parentRelay;\n\n  constructor() public {\n    parentRelay = IParentRelay(msg.sender);\n  }\n\n  function executeOutgoingTransaction(address payable to, uint256 sendGas, bytes memory data) public payable {\n    // TODO - replace with switch on caller, proxy should have no external functions\n    require(\n      msg.sender == address(parentRelay),\n      // gasleft() >= sendGas + 15000, // TODO - better method for ensuring sufficient gas is available\n      \"Caller not parent relay.\"\n    );\n    assembly {\n      let success := call(/* gas() */sendGas, to, callvalue(), add(data, 0x20), mload(data), 0, 0)\n      let ptr := mload(0x40)\n      \n      returndatacopy(ptr, 0, returndatasize())\n      if iszero(success) { revert(ptr, returndatasize()) }\n      return (ptr, returndatasize())\n    }\n  }\n\n  fallback() external payable {\n    parentRelay.forwardFromProxy{gas: gasleft(), value: msg.value}(msg.sender, gasleft(), msg.data);\n  }\n\n  receive() external payable {\n    parentRelay.forwardFromProxy{gas: gasleft(), value: msg.value}(msg.sender, gasleft(), bytes(\"\"));\n  }\n}",
  "sourcePath": "/home/dillon/sparse-iso/sparse-iso/packages/contracts/contracts/relay/ContractProxy.sol",
  "compiler": {
    "name": "solc",
    "version": "0.6.11+commit.5ef660b1.Emscripten.clang"
  },
  "schemaVersion": "3.2.1",
  "updatedAt": "2020-07-17T23:51:47.672Z",
  "devdoc": {
    "kind": "dev",
    "methods": {},
    "version": 1
  },
  "userdoc": {
    "kind": "user",
    "methods": {},
    "version": 1
  }
}