{
  "contractName": "EncodingErrorProver",
  "abi": [
    {
      "inputs": [
        {
          "components": [
            {
              "internalType": "bytes32",
              "name": "parentHash",
              "type": "bytes32"
            },
            {
              "internalType": "uint256",
              "name": "childIndex",
              "type": "uint256"
            },
            {
              "internalType": "uint256",
              "name": "blockNumber",
              "type": "uint256"
            },
            {
              "components": [
                {
                  "internalType": "uint256",
                  "name": "submittedAt",
                  "type": "uint256"
                },
                {
                  "internalType": "bytes32",
                  "name": "exitsRoot",
                  "type": "bytes32"
                },
                {
                  "internalType": "address",
                  "name": "coinbase",
                  "type": "address"
                },
                {
                  "internalType": "bytes32",
                  "name": "blockHash",
                  "type": "bytes32"
                }
              ],
              "internalType": "struct CommitmentHeaderLib.CommitmentHeader",
              "name": "commitment",
              "type": "tuple"
            }
          ],
          "internalType": "struct CommitmentHeaderLib.CommitmentHeaderQuery",
          "name": "commitmentQuery",
          "type": "tuple"
        },
        {
          "components": [
            {
              "internalType": "bytes32",
              "name": "parentHash",
              "type": "bytes32"
            },
            {
              "internalType": "uint256",
              "name": "number",
              "type": "uint256"
            },
            {
              "internalType": "uint256",
              "name": "incomingTransactionsIndex",
              "type": "uint256"
            },
            {
              "internalType": "uint256",
              "name": "incomingTransactionsCount",
              "type": "uint256"
            },
            {
              "internalType": "uint256",
              "name": "transactionsCount",
              "type": "uint256"
            },
            {
              "internalType": "bytes32",
              "name": "transactionsRoot",
              "type": "bytes32"
            },
            {
              "internalType": "bytes32",
              "name": "stateRoot",
              "type": "bytes32"
            },
            {
              "internalType": "bytes32",
              "name": "exitsRoot",
              "type": "bytes32"
            },
            {
              "internalType": "address",
              "name": "coinbase",
              "type": "address"
            },
            {
              "internalType": "uint256",
              "name": "timestamp",
              "type": "uint256"
            }
          ],
          "internalType": "struct ISO_HeaderLib.ISO_Header",
          "name": "header",
          "type": "tuple"
        },
        {
          "internalType": "bytes",
          "name": "transaction",
          "type": "bytes"
        },
        {
          "internalType": "uint256",
          "name": "transactionIndex",
          "type": "uint256"
        },
        {
          "internalType": "bytes32[]",
          "name": "siblings",
          "type": "bytes32[]"
        }
      ],
      "name": "proveIncomingTransactionEncodingError",
      "outputs": [],
      "stateMutability": "nonpayable",
      "type": "function"
    },
    {
      "inputs": [
        {
          "components": [
            {
              "internalType": "bytes32",
              "name": "parentHash",
              "type": "bytes32"
            },
            {
              "internalType": "uint256",
              "name": "childIndex",
              "type": "uint256"
            },
            {
              "internalType": "uint256",
              "name": "blockNumber",
              "type": "uint256"
            },
            {
              "components": [
                {
                  "internalType": "uint256",
                  "name": "submittedAt",
                  "type": "uint256"
                },
                {
                  "internalType": "bytes32",
                  "name": "exitsRoot",
                  "type": "bytes32"
                },
                {
                  "internalType": "address",
                  "name": "coinbase",
                  "type": "address"
                },
                {
                  "internalType": "bytes32",
                  "name": "blockHash",
                  "type": "bytes32"
                }
              ],
              "internalType": "struct CommitmentHeaderLib.CommitmentHeader",
              "name": "commitment",
              "type": "tuple"
            }
          ],
          "internalType": "struct CommitmentHeaderLib.CommitmentHeaderQuery",
          "name": "commitmentQuery",
          "type": "tuple"
        },
        {
          "components": [
            {
              "internalType": "bytes32",
              "name": "parentHash",
              "type": "bytes32"
            },
            {
              "internalType": "uint256",
              "name": "number",
              "type": "uint256"
            },
            {
              "internalType": "uint256",
              "name": "incomingTransactionsIndex",
              "type": "uint256"
            },
            {
              "internalType": "uint256",
              "name": "incomingTransactionsCount",
              "type": "uint256"
            },
            {
              "internalType": "uint256",
              "name": "transactionsCount",
              "type": "uint256"
            },
            {
              "internalType": "bytes32",
              "name": "transactionsRoot",
              "type": "bytes32"
            },
            {
              "internalType": "bytes32",
              "name": "stateRoot",
              "type": "bytes32"
            },
            {
              "internalType": "bytes32",
              "name": "exitsRoot",
              "type": "bytes32"
            },
            {
              "internalType": "address",
              "name": "coinbase",
              "type": "address"
            },
            {
              "internalType": "uint256",
              "name": "timestamp",
              "type": "uint256"
            }
          ],
          "internalType": "struct ISO_HeaderLib.ISO_Header",
          "name": "header",
          "type": "tuple"
        },
        {
          "internalType": "bytes",
          "name": "transaction",
          "type": "bytes"
        },
        {
          "internalType": "uint256",
          "name": "transactionIndex",
          "type": "uint256"
        },
        {
          "internalType": "bytes32[]",
          "name": "siblings",
          "type": "bytes32[]"
        }
      ],
      "name": "proveSignedTransactionEncodingError",
      "outputs": [],
      "stateMutability": "nonpayable",
      "type": "function"
    },
    {
      "inputs": [
        {
          "components": [
            {
              "internalType": "bytes32",
              "name": "parentHash",
              "type": "bytes32"
            },
            {
              "internalType": "uint256",
              "name": "childIndex",
              "type": "uint256"
            },
            {
              "internalType": "uint256",
              "name": "blockNumber",
              "type": "uint256"
            },
            {
              "components": [
                {
                  "internalType": "uint256",
                  "name": "submittedAt",
                  "type": "uint256"
                },
                {
                  "internalType": "bytes32",
                  "name": "exitsRoot",
                  "type": "bytes32"
                },
                {
                  "internalType": "address",
                  "name": "coinbase",
                  "type": "address"
                },
                {
                  "internalType": "bytes32",
                  "name": "blockHash",
                  "type": "bytes32"
                }
              ],
              "internalType": "struct CommitmentHeaderLib.CommitmentHeader",
              "name": "commitment",
              "type": "tuple"
            }
          ],
          "internalType": "struct CommitmentHeaderLib.CommitmentHeaderQuery",
          "name": "commitmentQuery",
          "type": "tuple"
        },
        {
          "components": [
            {
              "internalType": "bytes32",
              "name": "parentHash",
              "type": "bytes32"
            },
            {
              "internalType": "uint256",
              "name": "number",
              "type": "uint256"
            },
            {
              "internalType": "uint256",
              "name": "incomingTransactionsIndex",
              "type": "uint256"
            },
            {
              "internalType": "uint256",
              "name": "incomingTransactionsCount",
              "type": "uint256"
            },
            {
              "internalType": "uint256",
              "name": "transactionsCount",
              "type": "uint256"
            },
            {
              "internalType": "bytes32",
              "name": "transactionsRoot",
              "type": "bytes32"
            },
            {
              "internalType": "bytes32",
              "name": "stateRoot",
              "type": "bytes32"
            },
            {
              "internalType": "bytes32",
              "name": "exitsRoot",
              "type": "bytes32"
            },
            {
              "internalType": "address",
              "name": "coinbase",
              "type": "address"
            },
            {
              "internalType": "uint256",
              "name": "timestamp",
              "type": "uint256"
            }
          ],
          "internalType": "struct ISO_HeaderLib.ISO_Header",
          "name": "header",
          "type": "tuple"
        },
        {
          "internalType": "bytes",
          "name": "transaction",
          "type": "bytes"
        },
        {
          "internalType": "uint256",
          "name": "transactionIndex",
          "type": "uint256"
        },
        {
          "internalType": "bytes32[]",
          "name": "siblings",
          "type": "bytes32[]"
        }
      ],
      "name": "proveTransactionSignatureError",
      "outputs": [],
      "stateMutability": "nonpayable",
      "type": "function"
    },
    {
      "inputs": [
        {
          "components": [
            {
              "internalType": "bytes32",
              "name": "parentHash",
              "type": "bytes32"
            },
            {
              "internalType": "uint256",
              "name": "childIndex",
              "type": "uint256"
            },
            {
              "internalType": "uint256",
              "name": "blockNumber",
              "type": "uint256"
            },
            {
              "components": [
                {
                  "internalType": "uint256",
                  "name": "submittedAt",
                  "type": "uint256"
                },
                {
                  "internalType": "bytes32",
                  "name": "exitsRoot",
                  "type": "bytes32"
                },
                {
                  "internalType": "address",
                  "name": "coinbase",
                  "type": "address"
                },
                {
                  "internalType": "bytes32",
                  "name": "blockHash",
                  "type": "bytes32"
                }
              ],
              "internalType": "struct CommitmentHeaderLib.CommitmentHeader",
              "name": "commitment",
              "type": "tuple"
            }
          ],
          "internalType": "struct CommitmentHeaderLib.CommitmentHeaderQuery",
          "name": "commitmentQuery",
          "type": "tuple"
        },
        {
          "internalType": "uint256",
          "name": "transactionIndex",
          "type": "uint256"
        },
        {
          "internalType": "bytes",
          "name": "witnessBytes",
          "type": "bytes"
        }
      ],
      "name": "proveMessageWitnessEncodingError",
      "outputs": [],
      "stateMutability": "nonpayable",
      "type": "function"
    },
    {
      "inputs": [
        {
          "components": [
            {
              "internalType": "bytes32",
              "name": "parentHash",
              "type": "bytes32"
            },
            {
              "internalType": "uint256",
              "name": "childIndex",
              "type": "uint256"
            },
            {
              "internalType": "uint256",
              "name": "blockNumber",
              "type": "uint256"
            },
            {
              "components": [
                {
                  "internalType": "uint256",
                  "name": "submittedAt",
                  "type": "uint256"
                },
                {
                  "internalType": "bytes32",
                  "name": "exitsRoot",
                  "type": "bytes32"
                },
                {
                  "internalType": "address",
                  "name": "coinbase",
                  "type": "address"
                },
                {
                  "internalType": "bytes32",
                  "name": "blockHash",
                  "type": "bytes32"
                }
              ],
              "internalType": "struct CommitmentHeaderLib.CommitmentHeader",
              "name": "commitment",
              "type": "tuple"
            }
          ],
          "internalType": "struct CommitmentHeaderLib.CommitmentHeaderQuery",
          "name": "commitmentQuery",
          "type": "tuple"
        },
        {
          "internalType": "uint256",
          "name": "transactionIndex",
          "type": "uint256"
        },
        {
          "internalType": "uint256",
          "name": "recordIndex",
          "type": "uint256"
        },
        {
          "internalType": "bytes",
          "name": "witnessBytes",
          "type": "bytes"
        }
      ],
      "name": "proveAccessRecordEncodingError",
      "outputs": [],
      "stateMutability": "nonpayable",
      "type": "function"
    },
    {
      "inputs": [
        {
          "components": [
            {
              "internalType": "bytes32",
              "name": "parentHash",
              "type": "bytes32"
            },
            {
              "internalType": "uint256",
              "name": "childIndex",
              "type": "uint256"
            },
            {
              "internalType": "uint256",
              "name": "blockNumber",
              "type": "uint256"
            },
            {
              "components": [
                {
                  "internalType": "uint256",
                  "name": "submittedAt",
                  "type": "uint256"
                },
                {
                  "internalType": "bytes32",
                  "name": "exitsRoot",
                  "type": "bytes32"
                },
                {
                  "internalType": "address",
                  "name": "coinbase",
                  "type": "address"
                },
                {
                  "internalType": "bytes32",
                  "name": "blockHash",
                  "type": "bytes32"
                }
              ],
              "internalType": "struct CommitmentHeaderLib.CommitmentHeader",
              "name": "commitment",
              "type": "tuple"
            }
          ],
          "internalType": "struct CommitmentHeaderLib.CommitmentHeaderQuery",
          "name": "commitmentQuery",
          "type": "tuple"
        },
        {
          "internalType": "uint256",
          "name": "transactionIndex",
          "type": "uint256"
        },
        {
          "internalType": "bytes",
          "name": "witnessBytes",
          "type": "bytes"
        }
      ],
      "name": "proveExitWitnessEncodingError",
      "outputs": [],
      "stateMutability": "nonpayable",
      "type": "function"
    },
    {
      "inputs": [
        {
          "components": [
            {
              "internalType": "bytes32",
              "name": "parentHash",
              "type": "bytes32"
            },
            {
              "internalType": "uint256",
              "name": "childIndex",
              "type": "uint256"
            },
            {
              "internalType": "uint256",
              "name": "blockNumber",
              "type": "uint256"
            },
            {
              "components": [
                {
                  "internalType": "uint256",
                  "name": "submittedAt",
                  "type": "uint256"
                },
                {
                  "internalType": "bytes32",
                  "name": "exitsRoot",
                  "type": "bytes32"
                },
                {
                  "internalType": "address",
                  "name": "coinbase",
                  "type": "address"
                },
                {
                  "internalType": "bytes32",
                  "name": "blockHash",
                  "type": "bytes32"
                }
              ],
              "internalType": "struct CommitmentHeaderLib.CommitmentHeader",
              "name": "commitment",
              "type": "tuple"
            }
          ],
          "internalType": "struct CommitmentHeaderLib.CommitmentHeaderQuery",
          "name": "commitmentQuery",
          "type": "tuple"
        },
        {
          "internalType": "uint256",
          "name": "transactionIndex",
          "type": "uint256"
        },
        {
          "internalType": "bytes",
          "name": "witnessBytes",
          "type": "bytes"
        },
        {
          "internalType": "bytes",
          "name": "callData",
          "type": "bytes"
        },
        {
          "internalType": "uint256",
          "name": "recordIndex",
          "type": "uint256"
        }
      ],
      "name": "proveExitCallEncodingError",
      "outputs": [],
      "stateMutability": "nonpayable",
      "type": "function"
    },
    {
      "inputs": [
        {
          "internalType": "bytes",
          "name": "transactionBytes",
          "type": "bytes"
        }
      ],
      "name": "tryDecodeSignedTransaction",
      "outputs": [],
      "stateMutability": "pure",
      "type": "function"
    },
    {
      "inputs": [
        {
          "internalType": "bytes",
          "name": "witnessBytes",
          "type": "bytes"
        }
      ],
      "name": "tryDecodeMessageWitness",
      "outputs": [],
      "stateMutability": "pure",
      "type": "function"
    },
    {
      "inputs": [
        {
          "internalType": "bytes",
          "name": "_data",
          "type": "bytes"
        },
        {
          "internalType": "address",
          "name": "_caller",
          "type": "address"
        },
        {
          "internalType": "uint256",
          "name": "_gas",
          "type": "uint256"
        },
        {
          "internalType": "uint256",
          "name": "_value",
          "type": "uint256"
        }
      ],
      "name": "tryDecodeOutgoingTransaction",
      "outputs": [],
      "stateMutability": "pure",
      "type": "function"
    },
    {
      "inputs": [
        {
          "internalType": "bytes",
          "name": "recordBytes",
          "type": "bytes"
        }
      ],
      "name": "tryDecodeAccessRecord",
      "outputs": [],
      "stateMutability": "pure",
      "type": "function"
    }
  ],
  "bytecode": "0x608060405234801561001057600080fd5b50613ba3806100206000396000f3fe608060405234801561001057600080fd5b50600436106100a95760003560e01c80636f944edc116100715780636f944edc1461010f578063704254db14610122578063823cc653146101355780639fdc9ebc14610148578063ce94ddda1461015b578063e832bd8a1461016e576100a9565b806310509033146100ae5780631653fefd146100c35780633aab5221146100d657806340093702146100e95780636a6940fa146100fc575b600080fd5b6100c16100bc366004612f7d565b610181565b005b6100c16100d1366004612dd8565b6102c1565b6100c16100e4366004612e66565b6102fd565b6100c16100f7366004612dd8565b61040d565b6100c161010a366004612f7d565b6105ae565b6100c161011d366004612e0a565b6106aa565b6100c1610130366004612dd8565b6106c5565b6100c1610143366004612fd4565b6106dd565b6100c161015636600461305b565b6108c7565b6100c1610169366004612e66565b6109e8565b6100c161017c366004612e66565b610a6e565b600061018e848484610b0c565b90506101986125e2565b6101a183610b85565b9050620249f05a116101ce5760405162461bcd60e51b81526004016101c59061368c565b60405180910390fd5b6009546000906001600160a01b03165a836101e0015184608001518561012001518660e001516040516024016102079493929190613477565b60408051601f198184030181529181526020820180516001600160e01b0316631be513b760e21b1790525161023c9190613423565b6000604051808303818686fa925050503d8060008114610278576040519150601f19603f3d011682016040523d82523d6000602084013e61027d565b606091505b50506101a08301519091506001148115158114156102ad5760405162461bcd60e51b81526004016101c590613963565b6102b8878786610cbe565b50505050505050565b6102c96125e2565b6102d282610b85565b90506003816101a00151106102f95760405162461bcd60e51b81526004016101c590613838565b5050565b61030f6000868663ffffffff610d2c16565b6103218484848463ffffffff610d8116565b620249f05a116103435760405162461bcd60e51b81526004016101c59061368c565b6009546000906001600160a01b03165a85604051602401610364919061345d565b60408051601f198184030181529181526020820180516001600160e01b031663704254db60e01b179052516103999190613423565b6000604051808303818686fa925050503d80600081146103d5576040519150601f19603f3d011682016040523d82523d6000602084013e6103da565b606091505b5050905080156103fc5760405162461bcd60e51b81526004016101c5906134fa565b6102b860008763ffffffff610dd916565b60208101516000603182141561042e5761042683610e72565b51905061058a565b81603b14156104405761042683610e72565b81603c14156104525761042683610ebe565b81603f14156104645761042683610f0c565b81604114156104765761042683610f14565b81604214156104885761042683610f56565b816043141561049a5761042683610f56565b81604514156104ac5761042683610f56565b81604614156104be5761042683610f56565b81604714156104d05761042683610f56565b81605414156104e25761042683610f8f565b81605514156104f45761042683610fd2565b8160a014156105065761042683611027565b8160a114156105185761042683610f8f565b8160a2141561052a576104268361102f565b8160a3141561053c5761042683610fd2565b8160a4141561054e5761042683611079565b8160f1141561056057610426836110d5565b8160fa14156105725761042683611164565b60405162461bcd60e51b81526004016101c590613655565b8082146105a95760405162461bcd60e51b81526004016101c590613904565b505050565b60006105bb848484610b0c565b9050620249f05a116105df5760405162461bcd60e51b81526004016101c59061368c565b6009546000906001600160a01b03165a84604051602401610600919061345d565b60408051601f198184030181529181526020820180516001600160e01b03166374eb832760e01b179052516106359190613423565b6000604051808303818686fa925050503d8060008114610671576040519150601f19603f3d011682016040523d82523d6000602084013e610676565b606091505b5050905080156106985760405162461bcd60e51b81526004016101c5906134fa565b6106a3858584610cbe565b5050505050565b6106b2612668565b6106be858584866111d6565b90506106a3565b6106cd6126b0565b6106d68261142b565b90506102f9565b60006106ea868686610b0c565b90506106f46125e2565b6106fd85610b85565b90506060816101800151848151811061071257fe5b602002602001015190506000602082015190508060f1146107455760405162461bcd60e51b81526004016101c5906135e0565b61074d612703565b610756836110d5565b90508060e001518780519060200120146107825760405162461bcd60e51b81526004016101c5906138d9565b620249f05a116107a45760405162461bcd60e51b81526004016101c59061368c565b6009546000906001600160a01b03165a898760c0015185604001518660c001516040516024016107d79493929190613477565b60408051601f198184030181529181526020820180516001600160e01b0316631be513b760e21b1790525161080c9190613423565b6000604051808303818686fa925050503d8060008114610848576040519150601f19603f3d011682016040523d82523d6000602084013e61084d565b606091505b50509050801561086f5760405162461bcd60e51b81526004016101c5906135a9565b600061087b868961158e565b905082610100015180610892575080836020015114155b6108ae5760405162461bcd60e51b81526004016101c59061360c565b6108b98c8c89610cbe565b505050505050505050505050565b60006108d4858584610b0c565b9050620249f05a116108f85760405162461bcd60e51b81526004016101c59061368c565b6109006125e2565b61090983610b85565b6009549091506000906001600160a01b03165a836101800151878151811061092d57fe5b6020026020010151604051602401610945919061345d565b60408051601f198184030181529181526020820180516001600160e01b03166320049b8160e11b1790525161097a9190613423565b6000604051808303818686fa925050503d80600081146109b6576040519150601f19603f3d011682016040523d82523d6000602084013e6109bb565b606091505b5050905080156109dd5760405162461bcd60e51b81526004016101c5906134fa565b6102b8878785610cbe565b6109fa6000868663ffffffff610d2c16565b610a0c8484848463ffffffff610d8116565b610a146126b0565b610a1d8461142b565b90506000610a2a82611649565b90506001600160a01b03811615610a535760405162461bcd60e51b81526004016101c5906136b7565b610a6460008863ffffffff610dd916565b5050505050505050565b610a806000868663ffffffff610d2c16565b83606001518210610aa35760405162461bcd60e51b81526004016101c590613572565b610ab58484848463ffffffff6116d016565b610ad15760405162461bcd60e51b81526004016101c5906139d1565b825160201415610af35760405162461bcd60e51b81526004016101c590613793565b610b0460008663ffffffff610dd916565b505050505050565b80516020820120600090610b288286868463ffffffff6116eb16565b610b445760405162461bcd60e51b81526004016101c590613531565b505050606091820151909101516000908152600e6020908152604080832093835260029093019052205467010000000000000090046001600160a01b031690565b610b8d6125e2565b610b95612767565b610b9d612785565b610ba56127a3565b6060610baf6127c1565b606087806020019051810190610bc59190612ceb565b95509550955095509550955060405180610200016040528087600060038110610bea57fe5b6020020151815260200187600160038110610c0157fe5b602090810291909101518252604089810151158383015288516001600160a01b03908116828501528983015181166060808601919091528a83015182166080860152808b015190911660a0850152885160c08501529188015160e0840152870151610100830152860151610120820152610140018560046020020151815260200184815260200183600060028110610c9557fe5b60209081029190910151825293840151938101939093526040909201529450505050505b919050565b610ccf60008463ffffffff610dd916565b50610cd98161173b565b50606091820180518301516000908152600e60208181526040808420868552600201825280842080546001600160e01b031916905593519095015182528452818120928152600390920190925290812055565b610d36838361187f565b610d525760405162461bcd60e51b81526004016101c590613766565b610d5b816118c5565b826060015160600151146105a95760405162461bcd60e51b81526004016101c590613898565b8360600151821015610da55760405162461bcd60e51b81526004016101c590613861565b610db78484848463ffffffff6116d016565b610dd35760405162461bcd60e51b81526004016101c5906139d1565b50505050565b80516000908152600d83016020908152604082209083015181548110610dfb57fe5b6000918252602080832091909101829055606084810180518201518452600f8701909252604092839020805460ff191660029081179091559151015191517f99c9efff0684b78043f08af38ed552c7eb27175341050520cf3d3a60f83b26e591610e64916134af565b60405180910390a292915050565b610e7a6127df565b600080600084806020019051810190610e939190613146565b604080516060810182529384526001600160a01b039092166020840152908201529350505050919050565b610ec6612809565b600080600084806020019051810190610edf9190613104565b604080516060810182529384526001600160a01b0390921660208401521515908201529350505050919050565b610e7a612809565b610f1c612829565b60008083806020019051810190610f3391906130d5565b604080518082019091529182526001600160a01b03166020820152949350505050565b610f5e612840565b60008083806020019051810190610f75919061317e565b604080518082019091529182526020820152949350505050565b610f97612809565b600080600084806020019051810190610fb091906131a1565b6040805160608101825293845260208401929092529082015295945050505050565b610fda61285a565b600080600080600086806020019051810190610ff69190613203565b6040805160a08101825295865260208601949094529284019190915260608301526080820152979650505050505050565b610f5e612829565b611037612888565b6000806000808580602001905181019061105191906131ce565b6040805160808101825294855260208501939093529183015260608201529695505050505050565b6110816128af565b6000806000806000808780602001905181019061109e9190613242565b6040805160c0810182529687526020870195909552938501929092526060840152608083015260a082015298975050505050505050565b6110dd612703565b600080600080600080600080600060608b806020019051810190611101919061328b565b60408051610140810182529a8b5260208b019990995297890196909652606088019490945260808701929092526001600160a01b031660a086015260c085015260e084015215156101008301526101208201529c9b505050505050505050505050565b61116c6128e4565b60008060008060008060608880602001905181019061118b9190613337565b6040805160e0810182529788526020880196909652948601939093526001600160a01b0390911660608501526080840152151560a083015260c0820152975050505050505050919050565b6111de612668565b6004855110156112005760405162461bcd60e51b81526004016101c59061399a565b600061120b866118f5565b90506060611218876118ff565b6001600160a01b038716845260608401869052600060a08501529050633ccfd60b60e01b6001600160e01b031983161415611275576040805160208082019092526000815260808501526001600160a01b038716908401526113ed565b632e1a7d4d60e01b6001600160e01b031983161415611301576000818060200190518101906112a491906130bd565b9050808610156112c65760405162461bcd60e51b81526004016101c590613801565b6040805160208082019092526000815260808601526001600160a01b0388169085015260a084018190526060840180519190910390526113ed565b6309370cdf60e11b6001600160e01b03198316141561134f5760006060828060200190518101906113329190612c46565b6001600160a01b0390911660208701526080860152506113ed9050565b6310f3c58b60e01b6001600160e01b0319831614156113d557600060606000838060200190518101906113829190612c94565b925092509250808810156113a85760405162461bcd60e51b81526004016101c590613801565b6001600160a01b039092166020860152608085015260a084018190526060840180519190910390526113ed565b60405162461bcd60e51b81526004016101c5906137ca565b60006113f884611910565b90508085101561141a5760405162461bcd60e51b81526004016101c590613725565b909303604083015250949350505050565b6114336126b0565b600080600080600060606000806000806000611488565b8051600090600183019060f81c60808110801561146957819350611481565b60808203835160088202610100031c94508084019350505b5050915091565b5060208c015160f81c8c0160d519016114a08161144a565b91509a506114ad8161144a565b915099506114ba8161144a565b915098506114c78161144a565b915097506114d48161144a565b915096506114e18161192e565b90965090506114ef8161144a565b915094506114fc8161144a565b915093506115098161144a565b8e5191945091508d018082146115315760405162461bcd60e51b81526004016101c59061392c565b505160408051610140810182529b8c5260208c019a909a52988a01979097526001600160a01b039095166060890152608088019390935260a087019190915260c086015260e0850152610100840152506101208201529050919050565b6000826101800151518211156115b65760405162461bcd60e51b81526004016101c5906134c3565b816115c357508151611643565b60001982015b606084610180015182815181106115dc57fe5b602002602001015190506000602082015190508060f414806115fe57508060f1145b8061160957508060f2145b806116145750806055145b1561162757506040015191506116439050565b8261163357505061163e565b5050600019016115c9565b505081515b92915050565b60008061165583611ac0565b60e084015161010085015160ff92909216925090600061167486611acd565b905060018185858560405160008152602001604052604051611699949392919061343f565b6020604051602081039080840390855afa1580156116bb573d6000803e3d6000fd5b5050604051601f190151979650505050505050565b60006116e28560a00151858585611b00565b95945050505050565b6000806116f8868661187f565b60608087015101516000908152600e880160209081526040808320888452600301909152902054909150831481801561172e5750805b925050505b949350505050565b806001600160a01b0381163314156117a657806001600160a01b03166108fc6002611764611b97565b8161176b57fe5b04611774611ba2565b019081150290604051600060405180830381858888f193505050501580156117a0573d6000803e3d6000fd5b5061183d565b806001600160a01b03166108fc60046117bd611b97565b816117c457fe5b046117cd611ba2565b019081150290604051600060405180830381858888f193505050501580156117f9573d6000803e3d6000fd5b50336108fc6004611808611b97565b8161180f57fe5b049081150290604051600060405180830381858888f1935050505015801561183b573d6000803e3d6000fd5b505b60006108fc600261184c611b97565b8161185357fe5b049081150290604051600060405180830381858888f193505050501580156105a9573d6000803e3d6000fd5b600061188e8260600151611bae565b82516000908152600d85016020908152604090912090840151815481106118b157fe5b906000526020600020015414905092915050565b6000816040516020016118d89190613a3c565b604051602081830303815290604052805190602001209050919050565b6020015160e01c90565b805160031901600490910190815290565b6000806119208360800151611bc1565b600601612710029392505050565b805160019091019060609060009060f81c608081141561195e576040805160008152602081019091529250611ab9565b60808160ff1610156119b657604080516001808252818301909252906020820181803683370190505092508060f81b8360008151811061199a57fe5b60200101906001600160f81b031916908160001a905350611ab9565b60b88160ff161015611a235760ff607f19820116806001600160401b03811180156119e057600080fd5b506040519080825280601f01601f191660200182016040528015611a0b576020820181803683370190505b509350611a19858583611be8565b9390930192611ab9565b60c08160ff161015611aa157835160ff60b619830116948501949060088202610100031c806001600160401b0381118015611a5d57600080fd5b506040519080825280601f01601f191660200182016040528015611a88576020820181803683370190505b509450611a96868683611be8565b949094019350611ab9565b60405162461bcd60e51b81526004016101c5906136ee565b5090929050565b60c00151620186b1190190565b61c35560c0820152600060e0820181905261010082018190526060611af183611bf7565b80516020909101209392505050565b6000835160001415611b2257602084015180611b20576000915050611733565b505b8351602085012060005b8351811015611b8b576000848281518110611b4357fe5b602002602001015190506000611b598784611dce565b905060ff8116611b7457611b6d8483611dd5565b9350611b81565b611b7e8285611dd5565b93505b5050600101611b2c565b50909414949350505050565b662386f26fc1000090565b670de0b6b3a764000090565b6000816040516020016118d89190613a08565b8051600090601f811680611bdb5750602090049050610cb9565b6020910381010492915050565b60208201610dd3818584611e08565b6040805160098082526101408201909252606091829190816020015b611c1b61292f565b815260200190600190039081611c13579050509050611c45611c408460000151611e46565b611ed1565b81600081518110611c5257fe5b6020026020010181905250611c6d611c408460200151611e46565b81600181518110611c7a57fe5b6020026020010181905250611c95611c408460400151611e46565b81600281518110611ca257fe5b6020026020010181905250611cd98360600151604051602001611cc591906133f8565b604051602081830303815290604052611ed1565b81600381518110611ce657fe5b6020026020010181905250611d01611c408460800151611e46565b81600481518110611d0e57fe5b6020026020010181905250611d268360a00151611ed1565b81600581518110611d3357fe5b6020026020010181905250611d4e611c408460c00151611e46565b81600681518110611d5b57fe5b6020026020010181905250611d79611c408460e0015160001c611e46565b81600781518110611d8657fe5b6020026020010181905250611da5611c4084610100015160001c611e46565b81600881518110611db257fe5b6020026020010181905250611dc681611edf565b519392505050565b1c60011690565b60008282604051602001611dea929190613415565b60405160208183030381529060405280519060200120905092915050565b5b60208110611e28578151835260209283019290910190601f1901611e09565b600180600883602003021b0380845116811984511617845250505050565b60606000611e5383612142565b905080611e70576040805160008152602081019091529150611ecb565b806001600160401b0381118015611e8657600080fd5b506040519080825280601f01601f191660200182016040528015611eb1576020820181803683370190505b506008919091026101000383901b60208201529050610cb9565b50919050565b611ed961292f565b90815290565b611ee761292f565b606082516001600160401b0381118015611f0057600080fd5b50604051908082528060200260200182016040528015611f3457816020015b6060815260200190600190039081611f1f5790505b50905060606000805b8551811015611f90576060611f64878381518110611f5757fe5b60200260200101516123db565b60000151905080858381518110611f7757fe5b6020908102919091010152519190910190600101611f3d565b50603881101561205057806001016001600160401b0381118015611fb357600080fd5b506040519080825280601f01601f191660200182016040528015611fde576020820181803683370190505b5091508060c00160f81b82600081518110611ff557fe5b60200101906001600160f81b031916908160001a905350602160005b8451811015612049576020600182018102860151805184810194870192919091019061203e838383611e08565b505050600101612011565b5050612126565b600061205b82612142565b90508181600101016001600160401b038111801561207857600080fd5b506040519080825280601f01601f1916602001820160405280156120a3576020820181803683370190505b5092508060f70160f81b836000815181106120ba57fe5b60200101906001600160f81b031916908160001a905350600881026101000382901b602184810191909152810160005b85518110156121225760206001820181028701518051848101948801929190910190612117838383611e08565b5050506001016120ea565b5050505b5060408051808201909152908152600160208201529392505050565b60008161215157506001610cb9565b6001600160f81b031982161561216957506020610cb9565b60ff60f01b82161561217d5750601f610cb9565b60ff60e81b8216156121915750601e610cb9565b60ff60e01b8216156121a55750601d610cb9565b60ff60d81b8216156121b95750601c610cb9565b60ff60d01b8216156121cd5750601b610cb9565b60ff60c81b8216156121e15750601a610cb9565b60ff60c01b8216156121f557506019610cb9565b60ff60b81b82161561220957506018610cb9565b60ff60b01b82161561221d57506017610cb9565b60ff60a81b82161561223157506016610cb9565b60ff60a01b82161561224557506015610cb9565b60ff60981b82161561225957506014610cb9565b60ff60901b82161561226d57506013610cb9565b60ff60881b82161561228157506012610cb9565b60ff60801b82161561229557506011610cb9565b60ff60781b8216156122a957506010610cb9565b60ff60701b8216156122bd5750600f610cb9565b60ff60681b8216156122d15750600e610cb9565b60ff60601b8216156122e55750600d610cb9565b60ff60581b8216156122f95750600c610cb9565b60ff60501b82161561230d5750600b610cb9565b69ff0000000000000000008216156123275750600a610cb9565b68ff000000000000000082161561234057506009610cb9565b67ff0000000000000082161561235857506008610cb9565b66ff00000000000082161561236f57506007610cb9565b65ff000000000082161561238557506006610cb9565b64ff0000000082161561239a57506005610cb9565b63ff0000008216156123ae57506004610cb9565b62ff00008216156123c157506003610cb9565b61ff008216156123d357506002610cb9565b506001919050565b6123e361292f565b8160200151156123f4575080610cb9565b600160208083019190915282519083015160609190806124375750805160011480156124375750608060ff168160008151811061242d57fe5b016020015160f81c105b15612480578060008151811061244957fe5b016020015160f81c6124765750506040805180820190915260018152600160ff1b60208201528152610cb9565b8392505050610cb9565b80516038111561251e5780516001016001600160401b03811180156124a457600080fd5b506040519080825280601f01601f1916602001820160405280156124cf576020820181803683370190505b509150805160800160f81b826000815181106124e757fe5b60200101906001600160f81b031916908160001a9053508051602183019060208301906125179083908390611e08565b50506125da565b600061252a8251612142565b9050815181600101016001600160401b038111801561254857600080fd5b506040519080825280601f01601f191660200182016040528015612573576020820181803683370190505b5092508060b70160f81b8360008151811061258a57fe5b60200101906001600160f81b031916908160001a9053508151156125d857815181600802610100031b602184015260008082602101850191506020840190506125d582828651611e08565b50505b505b508152919050565b604080516102008101825260008082526020820181905291810182905260608082018390526080820183905260a0820183905260c0820183905260e08201839052610100820183905261012082018390526101408201839052610160820183905261018082018190526101a082018390526101c08201929092526101e081019190915290565b6040518060c0016040528060006001600160a01b0316815260200160006001600160a01b03168152602001600081526020016000815260200160608152602001600081525090565b604080516101408101825260008082526020820181905291810182905260608082018390526080820183905260a082015260c0810182905260e08101829052610100810182905261012081019190915290565b604051806101400160405280600081526020016000801916815260200160008152602001600081526020016000815260200160006001600160a01b031681526020016000815260200160008019168152602001600015158152602001606081525090565b60405180606001604052806003906020820280368337509192915050565b60405180608001604052806004906020820280368337509192915050565b6040518060a001604052806005906020820280368337509192915050565b60405180604001604052806002906020820280368337509192915050565b60405180606001604052806000815260200160006001600160a01b03168152602001600081525090565b604080516060810182526000808252602082018190529181019190915290565b604080518082019091526000808252602082015290565b604051806040016040528060008152602001600081525090565b6040805160a08101825260008082526020820181905291810182905260608101829052608081019190915290565b60408051608081018252600080825260208201819052918101829052606081019190915290565b6040805160c081018252600080825260208201819052918101829052606081018290526080810182905260a081019190915290565b6040518060e0016040528060008152602001600081526020016000815260200160006001600160a01b0316815260200160008019168152602001600015158152602001606081525090565b60408051808201909152606081526000602082015290565b803561164381613b47565b600082601f830112612962578081fd5b61296c6080613ab3565b905080828460808501111561298057600080fd5b60005b60048110156129ac57815161299781613b47565b83526020928301929190910190600101612983565b50505092915050565b600082601f8301126129c5578081fd5b6129cf6040613ab3565b90508082846040850111156129e357600080fd5b60005b60028110156129ac5781518352602092830192909101906001016129e6565b600082601f830112612a15578081fd5b8135612a28612a2382613ad9565b613ab3565b818152915060208083019084810181840286018201871015612a4957600080fd5b60005b84811015612a6857813584529282019290820190600101612a4c565b505050505092915050565b600082601f830112612a83578081fd5b8151612a91612a2382613ad9565b818152915060208083019084810160005b84811015612a6857612ab9888484518a0101612b69565b84529282019290820190600101612aa2565b600082601f830112612adb578081fd5b612ae560a0613ab3565b905080828460a085011115612af957600080fd5b60005b60058110156129ac578151835260209283019290910190600101612afc565b600082601f830112612b2b578081fd5b8135612b39612a2382613af8565b9150808252836020828501011115612b5057600080fd5b8060208401602084013760009082016020015292915050565b600082601f830112612b79578081fd5b8151612b87612a2382613af8565b9150808252836020828501011115612b9e57600080fd5b612baf816020840160208601613b1b565b5092915050565b600081830360e0811215612bc8578182fd5b612bd26080613ab3565b91508235825260208301356020830152604083013560408301526080605f1982011215612bfe57600080fd5b50612c096080613ab3565b606083013581526080830135602082015260a0830135612c2881613b47565b8060408301525060c083013560608201528060608301525092915050565b60008060408385031215612c58578182fd5b8251612c6381613b47565b60208401519092506001600160401b03811115612c7e578182fd5b612c8a85828601612b69565b9150509250929050565b600080600060608486031215612ca8578081fd5b8351612cb381613b47565b60208501519093506001600160401b03811115612cce578182fd5b612cda86828701612b69565b925050604084015190509250925092565b6000806000806000806102008789031215612d04578384fd5b87601f880112612d12578384fd5b612d1c6060613ab3565b808860608a018b811115612d2e578788fd5b875b6003811015612d4f578251855260209485019490920191600101612d30565b50829950612d5d8c82612952565b985050505050612d708860e08901612acb565b93506101808701516001600160401b0380821115612d8c578384fd5b612d988a838b01612a73565b9450612da88a6101a08b016129b5565b93506101e0890151915080821115612dbe578283fd5b50612dcb89828a01612b69565b9150509295509295509295565b600060208284031215612de9578081fd5b81356001600160401b03811115612dfe578182fd5b61173384828501612b1b565b60008060008060808587031215612e1f578182fd5b84356001600160401b03811115612e34578283fd5b612e4087828801612b1b565b9450506020850135612e5181613b47565b93969395505050506040820135916060013590565b6000806000806000858703610280811215612e7f578384fd5b612e898888612bb6565b95506101408060df1983011215612e9e578485fd5b612ea781613ab3565b915060e08801358252610100808901356020840152610120808a01356040850152828a013560608501526101608a013560808501526101808a013560a08501526101a08a013560c08501526101c08a013560e0850152612f0b8b6101e08c01612947565b91840191909152610200890135908301525093506102208601356001600160401b0380821115612f39578485fd5b612f4589838a01612b1b565b94506102408801359350610260880135915080821115612f63578283fd5b50612f7088828901612a05565b9150509295509295909350565b60008060006101208486031215612f92578081fd5b612f9c8585612bb6565b925060e084013591506101008401356001600160401b03811115612fbe578182fd5b612fca86828701612b1b565b9150509250925092565b60008060008060006101608688031215612fec578283fd5b612ff68787612bb6565b945060e086013593506101008601356001600160401b0380821115613019578485fd5b61302589838a01612b1b565b945061012088013591508082111561303b578283fd5b5061304888828901612b1b565b9598949750929561014001359392505050565b6000806000806101408587031215613071578182fd5b61307b8686612bb6565b935060e0850135925061010085013591506101208501356001600160401b038111156130a5578182fd5b6130b187828801612b1b565b91505092959194509250565b6000602082840312156130ce578081fd5b5051919050565b600080604083850312156130e7578182fd5b8251915060208301516130f981613b47565b809150509250929050565b600080600060608486031215613118578081fd5b83519250602084015161312a81613b47565b604085015190925061313b81613b5f565b809150509250925092565b60008060006060848603121561315a578081fd5b83519250602084015161316c81613b47565b80925050604084015190509250925092565b60008060408385031215613190578182fd5b505080516020909101519092909150565b6000806000606084860312156131b5578081fd5b8351925060208401519150604084015190509250925092565b600080600080608085870312156131e3578182fd5b505082516020840151604085015160609095015191969095509092509050565b600080600080600060a0868803121561321a578283fd5b5050835160208501516040860151606087015160809097015192989197509594509092509050565b60008060008060008060c0878903121561325a578384fd5b865195506020870151945060408701519350606087015192506080870151915060a087015190509295509295509295565b6000806000806000806000806000806101408b8d0312156132aa578788fd5b8a51995060208b0151985060408b0151975060608b0151965060808b0151955060a08b01516132d881613b47565b8095505060c08b0151935060e08b015192506101008b015180151581146132fd578283fd5b6101208c01519092506001600160401b03811115613319578182fd5b6133258d828e01612b69565b9150509295989b9194979a5092959850565b600080600080600080600060e0888a031215613351578081fd5b875196506020880151955060408801519450606088015161337181613b47565b608089015160a08a0151919550935061338981613b5f565b60c08901519092506001600160401b038111156133a4578182fd5b6133b08a828b01612b69565b91505092959891949750929550565b6001600160a01b03169052565b600081518084526133e4816020860160208601613b1b565b601f01601f19169290920160200192915050565b60609190911b6bffffffffffffffffffffffff1916815260140190565b918252602082015260400190565b60008251613435818460208701613b1b565b9190910192915050565b93845260ff9290921660208401526040830152606082015260800190565b60006020825261347060208301846133cc565b9392505050565b60006080825261348a60808301876133cc565b6001600160a01b03959095166020830152506040810192909252606090910152919050565b60208101600383106134bd57fe5b91905290565b6020808252601a908201527f5265636f726420696e646578206f7574206f662072616e67652e000000000000604082015260600190565b60208082526019908201527f4465636f64696e67206572726f72206e6f7420666f756e642e00000000000000604082015260600190565b60208082526021908201527f496e76616c69642070656e64696e6720626c6f636b206f72207769746e6573736040820152601760f91b606082015260800190565b6020808252601c908201527f4e6f7420616e20696e636f6d696e67207472616e73616374696f6e2e00000000604082015260600190565b60208082526019908201527f456e636f64696e67206572726f72206e6f7420666f756e642e00000000000000604082015260600190565b6020808252601290820152712737ba10309031b0b636103932b1b7b9321760711b604082015260600190565b60208082526029908201527f43616c6c207769746e65737320636f72726563746c79207265636f726465642060408201526830b71032b93937b91760b91b606082015260800190565b60208082526018908201527f446964206e6f74207265636f676e697a65206f70636f64650000000000000000604082015260600190565b60208082526011908201527024b739bab33334b1b4b2b73a1033b0b99760791b604082015260600190565b6020808252601a908201527f5369676e6174757265206572726f72206e6f7420666f756e642e000000000000604082015260600190565b60208082526017908201527f446174612070726566697820697320696e76616c69642e000000000000000000604082015260600190565b60208082526021908201527f496e73756666696369656e742067617320666f72206f7574676f696e672074786040820152601760f91b606082015260800190565b60208082526013908201527224b73b30b634b21031b7b6b6b4ba36b2b73a1760691b604082015260600190565b6020808252601f908201527f5472616e73616374696f6e206861642076616c696420656e636f64696e672e00604082015260600190565b6020808252601b908201527f496e76616c69642066756e6374696f6e207369676e61747572652e0000000000604082015260600190565b6020808252601e908201527f496e73756666696369656e742076616c756520666f7220626f756e74792e0000604082015260600190565b6020808252600f908201526e2232b1b7b234b7339032b93937b91760891b604082015260600190565b60208082526019908201527f4e6f742061207369676e6564207472616e73616374696f6e2e00000000000000604082015260600190565b60208082526021908201527f48656164657220646f6573206e6f74206d6174636820636f6d6d69746d656e746040820152601760f91b606082015260800190565b60208082526011908201527024b73b30b634b21031b0b6363230ba309760791b604082015260600190565b6020808252600e908201526d2232b1b7b234b7339032b93937b960911b604082015260600190565b6020808252601d908201527f496e76616c6964207472616e73616374696f6e20656e636f64696e672e000000604082015260600190565b6020808252601a908201527f5769746e6573732068616420636f727265637420737461747573000000000000604082015260600190565b6020808252601a908201527f496e76616c69642063616c6c6461746120656e636f64696e672e000000000000604082015260600190565b6020808252601a908201527f496e76616c6964207472616e73616374696f6e2070726f6f662e000000000000604082015260600190565b81518152602080830151908201526040808301516001600160a01b0316908201526060918201519181019190915260800190565b600061014082019050825182526020830151602083015260408301516040830152606083015160608301526080830151608083015260a083015160a083015260c083015160c083015260e083015160e083015261010080840151613aa2828501826133bf565b505061012092830151919092015290565b6040518181016001600160401b0381118282101715613ad157600080fd5b604052919050565b60006001600160401b03821115613aee578081fd5b5060209081020190565b60006001600160401b03821115613b0d578081fd5b50601f01601f191660200190565b60005b83811015613b36578181015183820152602001613b1e565b83811115610dd35750506000910152565b6001600160a01b0381168114613b5c57600080fd5b50565b8015158114613b5c57600080fdfea2646970667358221220a4325abb8fe7548fa4c483b39208e82487250b9283401d6b90112850c28114f264736f6c634300060b0033",
  "immutableReferences": {},
  "source": "pragma solidity ^0.6.0;\npragma experimental ABIEncoderV2;\n\nimport { ChainStateImplementer as Stateful } from \"../common/ChainStateImplementer.sol\";\nimport { ConfigLib as Config } from \"../common/config/ConfigLib.sol\";\nimport { ChainStateLib as State } from \"../common/ChainStateLib.sol\";\nimport { ISO_HeaderLib as Header } from \"../common/blocks/ISO_HeaderLib.sol\";\nimport { CommitmentHeaderLib as CL } from \"../common/blocks/CommitmentHeaderLib.sol\";\nimport { SignedTransactionLib as SignedTx } from \"../common/transactions/SignedTransactionLib.sol\";\nimport { OutgoingTransactionLib as OutgoingTx } from \"../common/transactions/OutgoingTransactionLib.sol\";\nimport { MessageWitnessLib as Message } from \"../common/witness/MessageWitnessLib.sol\";\nimport { InclusionProofLib as InclusionProof } from \"./lib/InclusionProofLib.sol\";\nimport { AccessRecordLib as Access } from \"../common/witness/AccessRecordLib.sol\";\n\n\ncontract EncodingErrorProver is Stateful {\n  using State for State.ChainState;\n  using Header for Header.ISO_Header;\n  using SignedTx for SignedTx.SignedTransaction;\n  using InclusionProof for State.ChainState;\n  using InclusionProof for Header.ISO_Header;\n\n  function handleSuccess(\n    CL.CommitmentHeaderQuery memory commitmentQuery,\n    uint256 transactionIndex,\n    address challenger\n  ) internal {\n    chainState.markFraudulentBlock(commitmentQuery);\n    Config.rewardSuccessfulChallenge(challenger);\n    delete chainState\n      .challengesByBlock[commitmentQuery.commitment.blockHash]\n      .challengesByTransaction[transactionIndex];\n    delete chainState\n      .challengesByBlock[commitmentQuery.commitment.blockHash]\n      .witnessHashes[transactionIndex];\n  }\n\n  function validateWitnessInclusion(\n    CL.CommitmentHeaderQuery memory commitmentQuery,\n    uint256 transactionIndex,\n    bytes memory witnessBytes\n  ) internal view returns (address) {\n    bytes32 witnessHash = keccak256(witnessBytes);\n    require(\n      chainState.hasWitnessForPendingBlock(commitmentQuery, transactionIndex, witnessHash),\n      \"Invalid pending block or witness.\"\n    );\n    return chainState\n      .challengesByBlock[commitmentQuery.commitment.blockHash]\n      .challengesByTransaction[transactionIndex]\n      .challenger;\n  }\n\n  // function validateHeader(\n  //   CL.CommitmentHeaderQuery memory commitmentQuery,\n  //   Header.ISO_Header memory header\n  // ) internal view {\n  //   require(chainState.hasPendingBlock(commitmentQuery), \"Block not pending.\");\n  //   require(\n  //     commitmentQuery.commitment.blockHash == header.blockHash(),\n  //     \"Header does not match commitment.\"\n  //   );\n  // }\n\n  function proveIncomingTransactionEncodingError(\n    CL.CommitmentHeaderQuery memory commitmentQuery,\n    Header.ISO_Header memory header,\n    bytes memory transaction,\n    uint256 transactionIndex,\n    bytes32[] memory siblings\n  ) public {\n    chainState.validateHeaderCommitment(commitmentQuery, header);\n    require(\n      transactionIndex < header.incomingTransactionsCount,\n      \"Not an incoming transaction.\"\n    );\n    require(\n      header.hasTransaction(transaction, transactionIndex, siblings),\n      \"Invalid transaction proof.\"\n    );\n    require(transaction.length != 32, \"Transaction had valid encoding.\");\n    chainState.markFraudulentBlock(commitmentQuery);\n  }\n\n  function proveSignedTransactionEncodingError(\n    CL.CommitmentHeaderQuery memory commitmentQuery,\n    Header.ISO_Header memory header,\n    bytes memory transaction,\n    uint256 transactionIndex,\n    bytes32[] memory siblings\n  ) public {\n    chainState.validateHeaderCommitment(commitmentQuery, header);\n    header.validateSignedTransaction(\n      transaction,\n      transactionIndex,\n      siblings\n    );\n    require(\n      gasleft() > 150000, // Rough estimate of upper bound - could be more precise\n      \"Insufficient gas.\"\n    );\n    (bool success,) = chainState.encodingErrorProver.staticcall{gas: gasleft()}(\n      abi.encodeWithSignature(\n      \"tryDecodeSignedTransaction(bytes)\",\n        transaction\n      )\n    );\n    require(!success, \"Decoding error not found.\");\n    chainState.markFraudulentBlock(commitmentQuery);\n  }\n\n  function proveTransactionSignatureError(\n    CL.CommitmentHeaderQuery memory commitmentQuery,\n    Header.ISO_Header memory header,\n    bytes memory transaction,\n    uint256 transactionIndex,\n    bytes32[] memory siblings\n  ) public {\n    chainState.validateHeaderCommitment(commitmentQuery, header);\n    header.validateSignedTransaction(\n      transaction,\n      transactionIndex,\n      siblings\n    );\n    SignedTx.SignedTransaction memory _tx = SignedTx.decodeTransaction(transaction);\n    address signer = _tx.getSenderAddress();\n    require(signer == address(0), \"Signature error not found.\");\n    chainState.markFraudulentBlock(commitmentQuery);\n  }\n\n  function proveMessageWitnessEncodingError(\n    CL.CommitmentHeaderQuery memory commitmentQuery,\n    uint256 transactionIndex,\n    bytes memory witnessBytes\n  ) public {\n    address challenger = validateWitnessInclusion(\n      commitmentQuery, transactionIndex, witnessBytes\n    );\n    require(\n      gasleft() > 150000, // Rough estimate of upper bound - could be more precise\n      \"Insufficient gas.\"\n    );\n    (bool success,) = chainState.encodingErrorProver.staticcall{gas: gasleft()}(\n      abi.encodeWithSignature(\n      \"tryDecodeMessageWitness(witnessBytes)\",\n        witnessBytes\n      )\n    );\n    require(!success, \"Decoding error not found.\");\n    handleSuccess(commitmentQuery, transactionIndex, challenger);\n  }\n\n  function proveAccessRecordEncodingError(\n    CL.CommitmentHeaderQuery memory commitmentQuery,\n    uint256 transactionIndex,\n    uint256 recordIndex,\n    bytes memory witnessBytes\n  ) public {\n    address challenger = validateWitnessInclusion(\n      commitmentQuery, transactionIndex, witnessBytes\n    );\n    require(\n      gasleft() > 150000, // Rough estimate of upper bound - could be more precise\n      \"Insufficient gas.\"\n    );\n    Message.MessageWitness memory witness = Message.fromBytes(witnessBytes);\n    (bool success,) = chainState.encodingErrorProver.staticcall{gas: gasleft()}(\n      abi.encodeWithSignature(\n      \"tryDecodeAccessRecord(bytes)\",\n        witness.access_list[recordIndex]\n      )\n    );\n    require(!success, \"Decoding error not found.\");\n    handleSuccess(commitmentQuery, transactionIndex, challenger);\n  }\n\n  /**\n   * @dev Prove that a message witness targeting the child relay had\n   * a passing status when it was invalid, or a failing status\n   * when it was valid.\n   * Note: This is not strictly an encoding error, in that it is not\n   * a proof of the witness itself being encoded incorrectly. It is\n   * a proof that the witness data had a valid/invalid call to the child\n   * relay which is not reflected in the witness status.\n   * Unlike the call record proof of the same type, success here should\n   * always indicate success in the call itself, as signed transactions\n   * with invalid initial conditions (such as sufficient balance or correct\n   * nonce) should never be included in blocks.\n   */\n  function proveExitWitnessEncodingError(\n    CL.CommitmentHeaderQuery memory commitmentQuery,\n    uint256 transactionIndex,\n    bytes memory witnessBytes\n  ) public {\n    address challenger = validateWitnessInclusion(\n      commitmentQuery, transactionIndex, witnessBytes\n    );\n    Message.MessageWitness memory witness = Message.fromBytes(witnessBytes);\n    require(\n      gasleft() > 150000, // Rough estimate of upper bound - could be more precise\n      \"Insufficient gas.\"\n    );\n    (bool success,) = chainState.encodingErrorProver.staticcall{gas: gasleft()}(\n      abi.encodeWithSignature(\n      \"tryDecodeOutgoingTransaction(bytes,address,uint256,uint256)\",\n        witness.callData,\n        witness.caller,\n        witness.gasAvailable,\n        witness.callvalue\n      )\n    );\n    bool witnessSuccess = witness.status == 1;\n    require(\n      success != witnessSuccess,\n      \"Witness had correct status\"\n    );\n    handleSuccess(commitmentQuery, transactionIndex, challenger);\n  }\n\n  /**\n   * @dev Prove that a call access record targeting the child relay had\n   * a passing status when it was invalid, or a failing status\n   * when it was valid.\n   * Note: This is not strictly an encoding error, in that it is not\n   * a proof of the witness itself being encoded incorrectly. It is\n   * a proof that the witness data had an invalid call to the child\n   * relay which is not reflected in the witness status.\n   * If the encoding was valid, this does not mean the call should have\n   * succeeded, as there is still a necessary validation of the caller\n   * balance.\n   */\n  function proveExitCallEncodingError(\n    CL.CommitmentHeaderQuery memory commitmentQuery,\n    uint256 transactionIndex,\n    bytes memory witnessBytes,\n    bytes memory callData,\n    uint256 recordIndex\n  ) public {\n    address challenger = validateWitnessInclusion(\n      commitmentQuery, transactionIndex, witnessBytes\n    );\n    Message.MessageWitness memory witness = Message.fromBytes(witnessBytes);\n    bytes memory recordBytes = witness.access_list[recordIndex];\n    uint256 opcode;\n    assembly { opcode := mload(add(recordBytes, 32)) }\n    require(opcode == 0xf1, \"Not a call record.\");\n    Access.CallWitness memory record = Access.toCallWitness(recordBytes);\n    require(keccak256(callData) == record.calldataHash, \"Invalid calldata.\");\n    require(\n      gasleft() > 150000, // Rough estimate of upper bound - could be more precise\n      \"Insufficient gas.\"\n    );\n    (bool success,) = chainState.encodingErrorProver.staticcall{gas: gasleft()}(\n      abi.encodeWithSignature(\n      \"tryDecodeOutgoingTransaction(bytes,address,uint256,uint256)\",\n        callData,\n        witness.context,\n        record.gas,\n        record.value\n      )\n    );\n    require(\n      !success,\n      \"Encoding error not found.\"\n    );\n    bytes32 previousRoot = Message.getLastState(witness, recordIndex);\n    require(\n      record.success || record.stateRoot != previousRoot,\n      \"Call witness correctly recorded an error.\"\n    );\n    handleSuccess(commitmentQuery, transactionIndex, challenger);\n  }\n\n  function tryDecodeSignedTransaction(bytes memory transactionBytes)\n  public pure {\n    SignedTx.SignedTransaction memory _tx = SignedTx.decodeTransaction(transactionBytes);\n    // Use the reference so solc will compile the decode instruction\n    require(_tx.value >= 0, \"Decoding error.\");\n  }\n\n  function tryDecodeMessageWitness(bytes memory witnessBytes)\n  public pure {\n    Message.MessageWitness memory witness = Message.fromBytes(witnessBytes);\n    require(witness.status < 3, \"Decoding error.\");\n  }\n\n  function tryDecodeOutgoingTransaction(\n    bytes memory _data,\n    address _caller,\n    uint256 _gas,\n    uint256 _value\n  ) public pure {\n    OutgoingTx.OutgoingTransaction memory transaction = OutgoingTx.fromExitCalldata(\n      _data,\n      _caller,\n      _value,\n      _gas\n    );\n    require(transaction.gas >= 0, \"Decoding error\");\n  }\n\n\n  function tryDecodeAccessRecord(bytes memory recordBytes)\n  public pure {\n    uint256 opcode;\n    assembly { opcode := mload(add(recordBytes, 0x20)) }\n    uint256 _opcode;\n    if (opcode == 0x31) {\n    _opcode = Access.toBalanceWitness(recordBytes).opcode;\n    } else if (opcode == 0x3b) {\n    _opcode = Access.toExtCodeSizeWitness(recordBytes).opcode;\n    } else if (opcode == 0x3c) {\n    _opcode = Access.toExtCodeCopyWitness(recordBytes).opcode;\n    } else if (opcode == 0x3f) {\n    _opcode = Access.toExtCodeHashWitness(recordBytes).opcode;\n    }/* else if (opcode == 0x40) {\n    _opcode = Access.toBlockHashWitness(recordBytes).opcode;\n    }  */else if (opcode == 0x41) {\n    _opcode = Access.toCoinbaseWitness(recordBytes).opcode;\n    } else if (opcode == 0x42) {\n    _opcode = Access.toTimestampWitness(recordBytes).opcode;\n    } else if (opcode == 0x43) {\n    _opcode = Access.toNumberWitness(recordBytes).opcode;\n    }/*  else if (opcode == 0x44) {\n    _opcode = Access.toDifficultyWitness(recordBytes).opcode;\n    }  */else if (opcode == 0x45) {\n    _opcode = Access.toGaslimitWitness(recordBytes).opcode;\n    } else if (opcode == 0x46) {\n    _opcode = Access.toChainidWitness(recordBytes).opcode;\n    } else if (opcode == 0x47) {\n    _opcode = Access.toSelfBalanceWitness(recordBytes).opcode;\n    } else if (opcode == 0x54) {\n    _opcode = Access.toSloadWitness(recordBytes).opcode;\n    } else if (opcode == 0x55) {\n    _opcode = Access.toSstoreWitness(recordBytes).opcode;\n    } else if (opcode == 0xa0) {\n    _opcode = Access.toLog0Witness(recordBytes).opcode;\n    } else if (opcode == 0xa1) {\n    _opcode = Access.toLog1Witness(recordBytes).opcode;\n    } else if (opcode == 0xa2) {\n    _opcode = Access.toLog2Witness(recordBytes).opcode;\n    } else if (opcode == 0xa3) {\n    _opcode = Access.toLog3Witness(recordBytes).opcode;\n    } else if (opcode == 0xa4) {\n    _opcode = Access.toLog4Witness(recordBytes).opcode;\n    } else if (opcode == 0xf1) {\n    _opcode = Access.toCallWitness(recordBytes).opcode;\n    } /* else if (opcode == 0xf2) {\n    _opcode = Access.toCallWitness(recordBytes).opcode;\n    }  *//* else if (opcode == 0xf4) {\n    _opcode = Access.toDelegateCallWitness(recordBytes).opcode;\n    }  */else if (opcode == 0xfa) {\n    _opcode = Access.toStaticCallWitness(recordBytes).opcode;\n    } else revert(\"Did not recognize opcode\");\n    require(opcode == _opcode, \"Decoding error\");\n  }\n}",
  "sourcePath": "/home/dillon/sparse-iso/sparse-iso/packages/contracts/contracts/fraud-proofs/EncodingErrorProver.sol",
  "compiler": {
    "name": "solc",
    "version": "0.6.11+commit.5ef660b1.Emscripten.clang"
  },
  "schemaVersion": "3.2.1",
  "updatedAt": "2020-07-17T23:51:47.602Z",
  "devdoc": {
    "kind": "dev",
    "methods": {
      "proveExitCallEncodingError((bytes32,uint256,uint256,(uint256,bytes32,address,bytes32)),uint256,bytes,bytes,uint256)": {
        "details": "Prove that a call access record targeting the child relay had a passing status when it was invalid, or a failing status when it was valid. Note: This is not strictly an encoding error, in that it is not a proof of the witness itself being encoded incorrectly. It is a proof that the witness data had an invalid call to the child relay which is not reflected in the witness status. If the encoding was valid, this does not mean the call should have succeeded, as there is still a necessary validation of the caller balance."
      },
      "proveExitWitnessEncodingError((bytes32,uint256,uint256,(uint256,bytes32,address,bytes32)),uint256,bytes)": {
        "details": "Prove that a message witness targeting the child relay had a passing status when it was invalid, or a failing status when it was valid. Note: This is not strictly an encoding error, in that it is not a proof of the witness itself being encoded incorrectly. It is a proof that the witness data had a valid/invalid call to the child relay which is not reflected in the witness status. Unlike the call record proof of the same type, success here should always indicate success in the call itself, as signed transactions with invalid initial conditions (such as sufficient balance or correct nonce) should never be included in blocks."
      }
    },
    "version": 1
  },
  "userdoc": {
    "kind": "user",
    "methods": {},
    "version": 1
  }
}