{
  "contractName": "ExecutionErrorProver",
  "abi": [
    {
      "anonymous": false,
      "inputs": [
        {
          "components": [
            {
              "internalType": "address",
              "name": "from",
              "type": "address"
            },
            {
              "internalType": "address",
              "name": "to",
              "type": "address"
            },
            {
              "internalType": "uint256",
              "name": "gas",
              "type": "uint256"
            },
            {
              "internalType": "uint256",
              "name": "value",
              "type": "uint256"
            },
            {
              "internalType": "bytes",
              "name": "data",
              "type": "bytes"
            },
            {
              "internalType": "bytes32",
              "name": "stateRoot",
              "type": "bytes32"
            }
          ],
          "indexed": false,
          "internalType": "struct RelayTransactionLib.IncomingTransaction",
          "name": "transaction",
          "type": "tuple"
        },
        {
          "indexed": false,
          "internalType": "bytes32[]",
          "name": "siblings",
          "type": "bytes32[]"
        }
      ],
      "name": "ErrorTest",
      "type": "event"
    },
    {
      "inputs": [
        {
          "components": [
            {
              "internalType": "bytes32",
              "name": "parentHash",
              "type": "bytes32"
            },
            {
              "internalType": "uint256",
              "name": "childIndex",
              "type": "uint256"
            },
            {
              "internalType": "uint256",
              "name": "blockNumber",
              "type": "uint256"
            },
            {
              "components": [
                {
                  "internalType": "uint256",
                  "name": "submittedAt",
                  "type": "uint256"
                },
                {
                  "internalType": "bytes32",
                  "name": "exitsRoot",
                  "type": "bytes32"
                },
                {
                  "internalType": "address",
                  "name": "coinbase",
                  "type": "address"
                },
                {
                  "internalType": "bytes32",
                  "name": "blockHash",
                  "type": "bytes32"
                }
              ],
              "internalType": "struct CommitmentHeaderLib.CommitmentHeader",
              "name": "commitment",
              "type": "tuple"
            }
          ],
          "internalType": "struct CommitmentHeaderLib.CommitmentHeaderQuery",
          "name": "commitmentQuery",
          "type": "tuple"
        },
        {
          "components": [
            {
              "internalType": "bytes32",
              "name": "parentHash",
              "type": "bytes32"
            },
            {
              "internalType": "uint256",
              "name": "number",
              "type": "uint256"
            },
            {
              "internalType": "uint256",
              "name": "incomingTransactionsIndex",
              "type": "uint256"
            },
            {
              "internalType": "uint256",
              "name": "incomingTransactionsCount",
              "type": "uint256"
            },
            {
              "internalType": "uint256",
              "name": "transactionsCount",
              "type": "uint256"
            },
            {
              "internalType": "bytes32",
              "name": "transactionsRoot",
              "type": "bytes32"
            },
            {
              "internalType": "bytes32",
              "name": "stateRoot",
              "type": "bytes32"
            },
            {
              "internalType": "bytes32",
              "name": "exitsRoot",
              "type": "bytes32"
            },
            {
              "internalType": "address",
              "name": "coinbase",
              "type": "address"
            },
            {
              "internalType": "uint256",
              "name": "timestamp",
              "type": "uint256"
            }
          ],
          "internalType": "struct ISO_HeaderLib.ISO_Header",
          "name": "header",
          "type": "tuple"
        },
        {
          "internalType": "bytes",
          "name": "transaction",
          "type": "bytes"
        },
        {
          "internalType": "uint256",
          "name": "transactionIndex",
          "type": "uint256"
        },
        {
          "internalType": "bytes32[]",
          "name": "siblings",
          "type": "bytes32[]"
        }
      ],
      "name": "proveInvalidCreateTransaction",
      "outputs": [],
      "stateMutability": "nonpayable",
      "type": "function"
    },
    {
      "inputs": [
        {
          "components": [
            {
              "internalType": "bytes32",
              "name": "parentHash",
              "type": "bytes32"
            },
            {
              "internalType": "uint256",
              "name": "childIndex",
              "type": "uint256"
            },
            {
              "internalType": "uint256",
              "name": "blockNumber",
              "type": "uint256"
            },
            {
              "components": [
                {
                  "internalType": "uint256",
                  "name": "submittedAt",
                  "type": "uint256"
                },
                {
                  "internalType": "bytes32",
                  "name": "exitsRoot",
                  "type": "bytes32"
                },
                {
                  "internalType": "address",
                  "name": "coinbase",
                  "type": "address"
                },
                {
                  "internalType": "bytes32",
                  "name": "blockHash",
                  "type": "bytes32"
                }
              ],
              "internalType": "struct CommitmentHeaderLib.CommitmentHeader",
              "name": "commitment",
              "type": "tuple"
            }
          ],
          "internalType": "struct CommitmentHeaderLib.CommitmentHeaderQuery",
          "name": "commitmentQuery",
          "type": "tuple"
        },
        {
          "components": [
            {
              "internalType": "bytes32",
              "name": "parentHash",
              "type": "bytes32"
            },
            {
              "internalType": "uint256",
              "name": "number",
              "type": "uint256"
            },
            {
              "internalType": "uint256",
              "name": "incomingTransactionsIndex",
              "type": "uint256"
            },
            {
              "internalType": "uint256",
              "name": "incomingTransactionsCount",
              "type": "uint256"
            },
            {
              "internalType": "uint256",
              "name": "transactionsCount",
              "type": "uint256"
            },
            {
              "internalType": "bytes32",
              "name": "transactionsRoot",
              "type": "bytes32"
            },
            {
              "internalType": "bytes32",
              "name": "stateRoot",
              "type": "bytes32"
            },
            {
              "internalType": "bytes32",
              "name": "exitsRoot",
              "type": "bytes32"
            },
            {
              "internalType": "address",
              "name": "coinbase",
              "type": "address"
            },
            {
              "internalType": "uint256",
              "name": "timestamp",
              "type": "uint256"
            }
          ],
          "internalType": "struct ISO_HeaderLib.ISO_Header",
          "name": "header",
          "type": "tuple"
        },
        {
          "internalType": "bytes",
          "name": "transactionBytes",
          "type": "bytes"
        },
        {
          "internalType": "uint256",
          "name": "transactionIndex",
          "type": "uint256"
        },
        {
          "internalType": "bytes32[]",
          "name": "siblings",
          "type": "bytes32[]"
        },
        {
          "internalType": "bytes",
          "name": "previousRootProof",
          "type": "bytes"
        },
        {
          "internalType": "bytes",
          "name": "stateProof",
          "type": "bytes"
        }
      ],
      "name": "proveInsufficientBalanceError",
      "outputs": [],
      "stateMutability": "nonpayable",
      "type": "function"
    },
    {
      "inputs": [
        {
          "components": [
            {
              "internalType": "bytes32",
              "name": "parentHash",
              "type": "bytes32"
            },
            {
              "internalType": "uint256",
              "name": "childIndex",
              "type": "uint256"
            },
            {
              "internalType": "uint256",
              "name": "blockNumber",
              "type": "uint256"
            },
            {
              "components": [
                {
                  "internalType": "uint256",
                  "name": "submittedAt",
                  "type": "uint256"
                },
                {
                  "internalType": "bytes32",
                  "name": "exitsRoot",
                  "type": "bytes32"
                },
                {
                  "internalType": "address",
                  "name": "coinbase",
                  "type": "address"
                },
                {
                  "internalType": "bytes32",
                  "name": "blockHash",
                  "type": "bytes32"
                }
              ],
              "internalType": "struct CommitmentHeaderLib.CommitmentHeader",
              "name": "commitment",
              "type": "tuple"
            }
          ],
          "internalType": "struct CommitmentHeaderLib.CommitmentHeaderQuery",
          "name": "commitmentQuery",
          "type": "tuple"
        },
        {
          "components": [
            {
              "internalType": "bytes32",
              "name": "parentHash",
              "type": "bytes32"
            },
            {
              "internalType": "uint256",
              "name": "number",
              "type": "uint256"
            },
            {
              "internalType": "uint256",
              "name": "incomingTransactionsIndex",
              "type": "uint256"
            },
            {
              "internalType": "uint256",
              "name": "incomingTransactionsCount",
              "type": "uint256"
            },
            {
              "internalType": "uint256",
              "name": "transactionsCount",
              "type": "uint256"
            },
            {
              "internalType": "bytes32",
              "name": "transactionsRoot",
              "type": "bytes32"
            },
            {
              "internalType": "bytes32",
              "name": "stateRoot",
              "type": "bytes32"
            },
            {
              "internalType": "bytes32",
              "name": "exitsRoot",
              "type": "bytes32"
            },
            {
              "internalType": "address",
              "name": "coinbase",
              "type": "address"
            },
            {
              "internalType": "uint256",
              "name": "timestamp",
              "type": "uint256"
            }
          ],
          "internalType": "struct ISO_HeaderLib.ISO_Header",
          "name": "header",
          "type": "tuple"
        },
        {
          "internalType": "bytes",
          "name": "transactionBytes",
          "type": "bytes"
        },
        {
          "internalType": "uint256",
          "name": "transactionIndex",
          "type": "uint256"
        },
        {
          "internalType": "bytes32[]",
          "name": "siblings",
          "type": "bytes32[]"
        },
        {
          "internalType": "bytes",
          "name": "previousRootProof",
          "type": "bytes"
        },
        {
          "internalType": "bytes",
          "name": "stateProof",
          "type": "bytes"
        }
      ],
      "name": "proveInvalidNonceError",
      "outputs": [],
      "stateMutability": "nonpayable",
      "type": "function"
    },
    {
      "inputs": [
        {
          "components": [
            {
              "internalType": "bytes32",
              "name": "parentHash",
              "type": "bytes32"
            },
            {
              "internalType": "uint256",
              "name": "childIndex",
              "type": "uint256"
            },
            {
              "internalType": "uint256",
              "name": "blockNumber",
              "type": "uint256"
            },
            {
              "components": [
                {
                  "internalType": "uint256",
                  "name": "submittedAt",
                  "type": "uint256"
                },
                {
                  "internalType": "bytes32",
                  "name": "exitsRoot",
                  "type": "bytes32"
                },
                {
                  "internalType": "address",
                  "name": "coinbase",
                  "type": "address"
                },
                {
                  "internalType": "bytes32",
                  "name": "blockHash",
                  "type": "bytes32"
                }
              ],
              "internalType": "struct CommitmentHeaderLib.CommitmentHeader",
              "name": "commitment",
              "type": "tuple"
            }
          ],
          "internalType": "struct CommitmentHeaderLib.CommitmentHeaderQuery",
          "name": "commitmentQuery",
          "type": "tuple"
        },
        {
          "components": [
            {
              "internalType": "bytes32",
              "name": "parentHash",
              "type": "bytes32"
            },
            {
              "internalType": "uint256",
              "name": "number",
              "type": "uint256"
            },
            {
              "internalType": "uint256",
              "name": "incomingTransactionsIndex",
              "type": "uint256"
            },
            {
              "internalType": "uint256",
              "name": "incomingTransactionsCount",
              "type": "uint256"
            },
            {
              "internalType": "uint256",
              "name": "transactionsCount",
              "type": "uint256"
            },
            {
              "internalType": "bytes32",
              "name": "transactionsRoot",
              "type": "bytes32"
            },
            {
              "internalType": "bytes32",
              "name": "stateRoot",
              "type": "bytes32"
            },
            {
              "internalType": "bytes32",
              "name": "exitsRoot",
              "type": "bytes32"
            },
            {
              "internalType": "address",
              "name": "coinbase",
              "type": "address"
            },
            {
              "internalType": "uint256",
              "name": "timestamp",
              "type": "uint256"
            }
          ],
          "internalType": "struct ISO_HeaderLib.ISO_Header",
          "name": "header",
          "type": "tuple"
        },
        {
          "internalType": "bytes",
          "name": "transactionBytes",
          "type": "bytes"
        },
        {
          "internalType": "uint256",
          "name": "transactionIndex",
          "type": "uint256"
        },
        {
          "internalType": "bytes32[]",
          "name": "siblings",
          "type": "bytes32[]"
        }
      ],
      "name": "proveInsufficientGasError",
      "outputs": [],
      "stateMutability": "nonpayable",
      "type": "function"
    },
    {
      "inputs": [
        {
          "components": [
            {
              "internalType": "bytes32",
              "name": "parentHash",
              "type": "bytes32"
            },
            {
              "internalType": "uint256",
              "name": "childIndex",
              "type": "uint256"
            },
            {
              "internalType": "uint256",
              "name": "blockNumber",
              "type": "uint256"
            },
            {
              "components": [
                {
                  "internalType": "uint256",
                  "name": "submittedAt",
                  "type": "uint256"
                },
                {
                  "internalType": "bytes32",
                  "name": "exitsRoot",
                  "type": "bytes32"
                },
                {
                  "internalType": "address",
                  "name": "coinbase",
                  "type": "address"
                },
                {
                  "internalType": "bytes32",
                  "name": "blockHash",
                  "type": "bytes32"
                }
              ],
              "internalType": "struct CommitmentHeaderLib.CommitmentHeader",
              "name": "commitment",
              "type": "tuple"
            }
          ],
          "internalType": "struct CommitmentHeaderLib.CommitmentHeaderQuery",
          "name": "commitmentQuery",
          "type": "tuple"
        },
        {
          "components": [
            {
              "internalType": "bytes32",
              "name": "parentHash",
              "type": "bytes32"
            },
            {
              "internalType": "uint256",
              "name": "number",
              "type": "uint256"
            },
            {
              "internalType": "uint256",
              "name": "incomingTransactionsIndex",
              "type": "uint256"
            },
            {
              "internalType": "uint256",
              "name": "incomingTransactionsCount",
              "type": "uint256"
            },
            {
              "internalType": "uint256",
              "name": "transactionsCount",
              "type": "uint256"
            },
            {
              "internalType": "bytes32",
              "name": "transactionsRoot",
              "type": "bytes32"
            },
            {
              "internalType": "bytes32",
              "name": "stateRoot",
              "type": "bytes32"
            },
            {
              "internalType": "bytes32",
              "name": "exitsRoot",
              "type": "bytes32"
            },
            {
              "internalType": "address",
              "name": "coinbase",
              "type": "address"
            },
            {
              "internalType": "uint256",
              "name": "timestamp",
              "type": "uint256"
            }
          ],
          "internalType": "struct ISO_HeaderLib.ISO_Header",
          "name": "header",
          "type": "tuple"
        },
        {
          "components": [
            {
              "internalType": "address",
              "name": "from",
              "type": "address"
            },
            {
              "internalType": "address",
              "name": "to",
              "type": "address"
            },
            {
              "internalType": "uint256",
              "name": "gas",
              "type": "uint256"
            },
            {
              "internalType": "uint256",
              "name": "value",
              "type": "uint256"
            },
            {
              "internalType": "bytes",
              "name": "data",
              "type": "bytes"
            },
            {
              "internalType": "bytes32",
              "name": "stateRoot",
              "type": "bytes32"
            }
          ],
          "internalType": "struct RelayTransactionLib.IncomingTransaction",
          "name": "transaction",
          "type": "tuple"
        },
        {
          "internalType": "uint256",
          "name": "transactionIndex",
          "type": "uint256"
        },
        {
          "internalType": "bytes32[]",
          "name": "siblings",
          "type": "bytes32[]"
        },
        {
          "internalType": "bytes",
          "name": "previousRootProof",
          "type": "bytes"
        },
        {
          "internalType": "bytes",
          "name": "receiverProof",
          "type": "bytes"
        }
      ],
      "name": "proveSimpleIncomingTransactionExecutionError",
      "outputs": [],
      "stateMutability": "nonpayable",
      "type": "function"
    },
    {
      "inputs": [
        {
          "components": [
            {
              "internalType": "bytes32",
              "name": "parentHash",
              "type": "bytes32"
            },
            {
              "internalType": "uint256",
              "name": "childIndex",
              "type": "uint256"
            },
            {
              "internalType": "uint256",
              "name": "blockNumber",
              "type": "uint256"
            },
            {
              "components": [
                {
                  "internalType": "uint256",
                  "name": "submittedAt",
                  "type": "uint256"
                },
                {
                  "internalType": "bytes32",
                  "name": "exitsRoot",
                  "type": "bytes32"
                },
                {
                  "internalType": "address",
                  "name": "coinbase",
                  "type": "address"
                },
                {
                  "internalType": "bytes32",
                  "name": "blockHash",
                  "type": "bytes32"
                }
              ],
              "internalType": "struct CommitmentHeaderLib.CommitmentHeader",
              "name": "commitment",
              "type": "tuple"
            }
          ],
          "internalType": "struct CommitmentHeaderLib.CommitmentHeaderQuery",
          "name": "commitmentQuery",
          "type": "tuple"
        },
        {
          "components": [
            {
              "internalType": "bytes32",
              "name": "parentHash",
              "type": "bytes32"
            },
            {
              "internalType": "uint256",
              "name": "number",
              "type": "uint256"
            },
            {
              "internalType": "uint256",
              "name": "incomingTransactionsIndex",
              "type": "uint256"
            },
            {
              "internalType": "uint256",
              "name": "incomingTransactionsCount",
              "type": "uint256"
            },
            {
              "internalType": "uint256",
              "name": "transactionsCount",
              "type": "uint256"
            },
            {
              "internalType": "bytes32",
              "name": "transactionsRoot",
              "type": "bytes32"
            },
            {
              "internalType": "bytes32",
              "name": "stateRoot",
              "type": "bytes32"
            },
            {
              "internalType": "bytes32",
              "name": "exitsRoot",
              "type": "bytes32"
            },
            {
              "internalType": "address",
              "name": "coinbase",
              "type": "address"
            },
            {
              "internalType": "uint256",
              "name": "timestamp",
              "type": "uint256"
            }
          ],
          "internalType": "struct ISO_HeaderLib.ISO_Header",
          "name": "header",
          "type": "tuple"
        },
        {
          "internalType": "bytes",
          "name": "transactionBytes",
          "type": "bytes"
        },
        {
          "internalType": "uint256",
          "name": "transactionIndex",
          "type": "uint256"
        },
        {
          "internalType": "bytes32[]",
          "name": "siblings",
          "type": "bytes32[]"
        },
        {
          "internalType": "bytes",
          "name": "previousRootProof",
          "type": "bytes"
        },
        {
          "internalType": "bytes",
          "name": "callerProof",
          "type": "bytes"
        },
        {
          "internalType": "bytes",
          "name": "receiverProof",
          "type": "bytes"
        },
        {
          "internalType": "bytes",
          "name": "operatorProof",
          "type": "bytes"
        }
      ],
      "name": "proveSimpleSignedTransactionExecutionError",
      "outputs": [],
      "stateMutability": "nonpayable",
      "type": "function"
    },
    {
      "inputs": [
        {
          "components": [
            {
              "internalType": "bytes32",
              "name": "parentHash",
              "type": "bytes32"
            },
            {
              "internalType": "uint256",
              "name": "number",
              "type": "uint256"
            },
            {
              "internalType": "uint256",
              "name": "incomingTransactionsIndex",
              "type": "uint256"
            },
            {
              "internalType": "uint256",
              "name": "incomingTransactionsCount",
              "type": "uint256"
            },
            {
              "internalType": "uint256",
              "name": "transactionsCount",
              "type": "uint256"
            },
            {
              "internalType": "bytes32",
              "name": "transactionsRoot",
              "type": "bytes32"
            },
            {
              "internalType": "bytes32",
              "name": "stateRoot",
              "type": "bytes32"
            },
            {
              "internalType": "bytes32",
              "name": "exitsRoot",
              "type": "bytes32"
            },
            {
              "internalType": "address",
              "name": "coinbase",
              "type": "address"
            },
            {
              "internalType": "uint256",
              "name": "timestamp",
              "type": "uint256"
            }
          ],
          "internalType": "struct ISO_HeaderLib.ISO_Header",
          "name": "header",
          "type": "tuple"
        },
        {
          "internalType": "bytes",
          "name": "transactionBytes",
          "type": "bytes"
        },
        {
          "internalType": "uint256",
          "name": "transactionIndex",
          "type": "uint256"
        },
        {
          "internalType": "bytes32[]",
          "name": "siblings",
          "type": "bytes32[]"
        },
        {
          "internalType": "bytes",
          "name": "previousRootProof",
          "type": "bytes"
        },
        {
          "internalType": "bytes",
          "name": "receiverProof",
          "type": "bytes"
        }
      ],
      "name": "cancelSimpleTransactionChallenge",
      "outputs": [],
      "stateMutability": "nonpayable",
      "type": "function"
    }
  ],
  "bytecode": "0x608060405234801561001057600080fd5b50613671806100206000396000f3fe608060405234801561001057600080fd5b506004361061007d5760003560e01c80636f6984131161005b5780636f698413146100bd578063cbb2e899146100d0578063d3051e87146100e3578063f64f027c146100f65761007d565b8063116f9448146100825780631ec4ffb5146100975780632d68512c146100aa575b600080fd5b610095610090366004612857565b610109565b005b6100956100a5366004612a53565b6101c2565b6100956100b8366004612931565b6102f0565b6100956100cb366004612b81565b610422565b6100956100de3660046127c6565b6105f7565b6100956100f13660046127c6565b61066c565b610095610104366004612857565b6106da565b61011b6000888863ffffffff61076316565b6101236122bc565b61012f878787876107bd565b9050600061013e8885886107eb565b9050600061014b8361088e565b905061015561230f565b60025461016d906001600160a01b0316848488610915565b9050806020015161017d856109f7565b116101a35760405162461bcd60e51b815260040161019a90613138565b60405180910390fd5b6101b460008c63ffffffff610a0e16565b505050505050505050505050565b6101d46000888863ffffffff61076316565b6101e860008787878763ffffffff610aa716565b60006101f58784876107eb565b60208701519091506001600160a01b031661025757855160009061022090829063ffffffff610bd416565b9050600061022d82610c68565b600254895191925061024e916001600160a01b039091169085908785610c88565b925050506102b0565b61025f61230f565b60025460208801516060890151610283926001600160a01b03169185918790610d94565b909250905061029181610de4565b156102ae5760405162461bcd60e51b815260040161019a90613101565b505b808660a0015114156102d45760405162461bcd60e51b815260040161019a906133ad565b6102e560008963ffffffff610a0e16565b505050505050505050565b61030260008a8a63ffffffff61076316565b61030a6122bc565b610316898989896107bd565b905060006103258a878a6107eb565b600254909150610357906001600160a01b0316826103428561088e565b88866020015161520802876080015101610e0e565b905061036161230f565b60025460608401516080850151610385926001600160a01b03169185918990610d94565b909250905061039381610de4565b156103b05760405162461bcd60e51b815260040161019a906133ee565b6002546101008c015160208501516103d9926001600160a01b0316918591889061520802610d94565b506101208401519092508214156104025760405162461bcd60e51b815260040161019a906133ad565b61041360008d63ffffffff610a0e16565b50505050505050505050505050565b600061042d87610e4c565b90506000876060015186101561047a57610445612336565b878060200190518101906104599190612c48565b905061046f60008a838a8a63ffffffff610aa716565b602001519050610496565b6104826122bc565b61048e898989896107bd565b606001519150505b6001600160a01b038116156104ff5760006104b28986896107eb565b90506104bc61230f565b6002546104d4906001600160a01b0316838588610915565b90506104df81610de4565b156104fc5760405162461bcd60e51b815260040161019a90613101565b50505b61050761236a565b6000838152600e602090815260408083208a845260029081018352928190208151606081018352815466ffffffffffffff8116825267010000000000000081046001600160a01b03169482019490945293909291840191600160d81b900460ff169081111561057257fe5b600281111561057d57fe5b905250905060008160400151600281111561059457fe5b14156105b25760405162461bcd60e51b815260040161019a906130ca565b6000838152600e602090815260408083206001810180546000190190558a8452600201909152902080546001600160e01b03191690556101008901516102e590610e7c565b6106096000868663ffffffff61076316565b6106116122bc565b61061d858585856107bd565b9050600061062c600083610ebd565b9050808260400151106106515760405162461bcd60e51b815260040161019a9061333f565b61066260008863ffffffff610a0e16565b5050505050505050565b61067e6000868663ffffffff61076316565b6106866122bc565b610692858585856107bd565b60608101519091506001600160a01b0316156106c05760405162461bcd60e51b815260040161019a90612fca565b6106d160008763ffffffff610a0e16565b50505050505050565b6106ec6000888863ffffffff61076316565b6106f46122bc565b610700878787876107bd565b9050600061070f8885886107eb565b9050600061071c8361088e565b905061072661230f565b60025461073e906001600160a01b0316848488610915565b8051855191925014156101a35760405162461bcd60e51b815260040161019a90613065565b61076d8383610ee8565b6107895760405162461bcd60e51b815260040161019a9061322b565b61079281610e4c565b826060015160600151146107b85760405162461bcd60e51b815260040161019a906132d0565b505050565b6107c56122bc565b6107d78585858563ffffffff610f2e16565b6107e084610f86565b90505b949350505050565b600081610838576107fa612388565b610803846110e9565b905061080e81610e4c565b85511461082d5760405162461bcd60e51b815260040161019a906131e9565b60c001519050610887565b6108406123dc565b838060200190518101906108549190612cf8565b805160208201519192506108769187919060001987019063ffffffff61110516565b61087f57600080fd5b518051015190505b9392505050565b60008061089a83611117565b60e084015161010085015160ff9290921692509060006108b986611124565b9050600181858585604051600081526020016040526040516108de9493929190612f85565b6020604051602081039080840390855afa158015610900573d6000803e3d6000fd5b5050604051601f190151979650505050505050565b61091d61230f565b6109256123f6565b61092e83611157565b80516020820151604080840151905163b096267360e01b81529394506001600160a01b03808b169463b096267394610974948c9460a094929391928d1691600401612f48565b60206040518083038186803b15801561098c57600080fd5b505afa1580156109a0573d6000803e3d6000fd5b505050506040513d601f19601f820116820180604052508101906109c49190612765565b6109e05760405162461bcd60e51b815260040161019a90613038565b6109ed8160200151611173565b9695505050505050565b60808101516020820151604083015102015b919050565b80516000908152600d83016020908152604082209083015181548110610a3057fe5b6000918252602080832091909101829055606084810180518201518452600f8701909252604092839020805460ff191660029081179091559151015191517f99c9efff0684b78043f08af38ed552c7eb27175341050520cf3d3a60f83b26e591610a9991612fb6565b60405180910390a292915050565b610ade8360a00151604051602001610abf9190612ed3565b60408051601f198184030181529190528590848463ffffffff61110516565b610afa5760405162461bcd60e51b815260040161019a90613425565b83606001518210610b1d5760405162461bcd60e51b815260040161019a90613001565b60408085015160038701549151630444d0e160e21b8152908401916000916001600160a01b0390911690631113438490610b5b908590600401612ed3565b60206040518083038186803b158015610b7357600080fd5b505afa158015610b87573d6000803e3d6000fd5b505050506040513d601f19601f82011682018060405250810190610bab91906127ae565b905080610bb78661122b565b146106d15760405162461bcd60e51b815260040161019a90613258565b81546040516000916001600160a01b0316908290610bf460208201612417565b601f1982820381018352601f909101166040818152825160209384012060558084526080840190925293506060928201818036833701905050905060ff60208201538260601b60218201528460358201528160558201526001600160a01b0360556020830120811694505050505092915050565b60006001823b0360405181600182863c8181209250813682375050919050565b6000610c926123f6565b610c9b84611157565b9050610ca561230f565b610cb28260200151611173565b905083816060018181525050600080896001600160a01b0316637022c2c48a60a087600001518860200151610ce689611282565b8e6001600160a01b03168b604001516040518863ffffffff1660e01b8152600401610d179796959493929190612eea565b604080518083038186803b158015610d2e57600080fd5b505afa158015610d42573d6000803e3d6000fd5b505050506040513d601f19601f82011682018060405250810190610d669190612781565b9150915081610d875760405162461bcd60e51b815260040161019a90613311565b9998505050505050505050565b6000610d9e61230f565b610da66123f6565b610daf85611157565b9050610dbe8160200151611173565b602081018051860190529150610dd788888885856113e2565b9250509550959350505050565b606001517fc5d2460186f7233c927e7db2dcc703c0e500b653ca82273b7bfad8045d85a470141590565b6000806000610e2088888888886114ad565b9150915081610e415760405162461bcd60e51b815260040161019a9061309c565b979650505050505050565b600081604051602001610e5f9190613490565b604051602081830303815290604052805190602001209050919050565b806001600160a01b03166108fc610e91611520565b6040518115909202916000818181858888f19350505050158015610eb9573d6000803e3d6000fd5b5050565b600482015460a0820151600091610edf916001600160a01b039091169061152c565b90505b92915050565b6000610ef78260600151611543565b82516000908152600d8501602090815260409091209084015181548110610f1a57fe5b906000526020600020015414905092915050565b8360600151821015610f525760405162461bcd60e51b815260040161019a90613299565b610f648484848463ffffffff61110516565b610f805760405162461bcd60e51b815260040161019a90613425565b50505050565b610f8e6122bc565b600080600080600060606000806000806000610fe3565b8051600090600183019060f81c608081108015610fc457819350610fdc565b60808203835160088202610100031c94508084019350505b5050915091565b5060208c015160f81c8c0160d51901610ffb81610fa5565b91509a5061100881610fa5565b9150995061101581610fa5565b9150985061102281610fa5565b9150975061102f81610fa5565b9150965061103c81611556565b909650905061104a81610fa5565b9150945061105781610fa5565b9150935061106481610fa5565b8e5191945091508d0180821461108c5760405162461bcd60e51b815260040161019a90613376565b505160408051610140810182529b8c5260208c019a909a52988a01979097526001600160a01b039095166060890152608088019390935260a087019190915260c086015260e0850152610100840152506101208201529050919050565b6110f1612388565b81806020019051810190610ee29190612aef565b60006107e08560a001518585856116e8565b60c00151620186b1190190565b61c35560c0820152600060e08201819052610100820181905260606111488361177f565b80516020909101209392505050565b61115f6123f6565b81806020019051810190610ee29190612d87565b61117b61230f565b815161119057611189611956565b9050610a09565b8151602014156111cd57602082015180156111bd5760405162461bcd60e51b815260040161019a9061317b565b6111c5611956565b915050610a09565b600080600080602086015160f81c860160d519016111ea81610fa5565b915094506111f781610fa5565b6001810151602290910151604080516080810182529889526020890193909352918701526060860152509295945050505050565b6000610ee26040518060a0016040528084600001516001600160a01b0316815260200184602001516001600160a01b03168152602001846040015181526020018460600151815260200184608001518152506119c4565b805160208201516040830151606084810151909392919060006112a4856119dd565b905060006112b1856119dd565b90506000608087106112c45760016112c7565b60005b60ff1690506000608087106112dd5760016112e0565b60005b60ff169050604482850182018401016060816001600160401b038111801561130757600080fd5b506040519080825280601f01601f191660200182016040528015611332576020820181803683370190505b5090506020810160f881536001016001198301815360010161139e565b80828015611379578560800182536001820191508460088702610100031b82528582019150611395565b8480156113885785835361138d565b608083535b506001820191505b50949350505050565b6113aa878c878461134f565b90506113b8868b868461134f565b905060a081536001810189905260210160a081536001019690965250939998505050505050505050565b6000806000876001600160a01b0316637022c2c48860a08760000151886020015161140c8b611282565b8c6001600160a01b03168b604001516040518863ffffffff1660e01b815260040161143d9796959493929190612eea565b604080518083038186803b15801561145457600080fd5b505afa158015611468573d6000803e3d6000fd5b505050506040513d601f19601f8201168201806040525081019061148c9190612781565b9150915081610e415760405162461bcd60e51b815260040161019a90613311565b6000806114b86123f6565b6114c185611157565b90506114cb61230f565b6114d88260200151611173565b90508481602001511015935083156115105760208101805186900390528051600101815261150989898984866113e2565b9250611514565b8792505b50509550959350505050565b670de0b6b3a764000090565b60006115388383611c76565b615208019392505050565b600081604051602001610e5f919061345c565b805160019091019060609060009060f81c60808114156115865760408051600081526020810190915292506116e1565b60808160ff1610156115de57604080516001808252818301909252906020820181803683370190505092508060f81b836000815181106115c257fe5b60200101906001600160f81b031916908160001a9053506116e1565b60b88160ff16101561164b5760ff607f19820116806001600160401b038111801561160857600080fd5b506040519080825280601f01601f191660200182016040528015611633576020820181803683370190505b509350611641858583611d09565b93909301926116e1565b60c08160ff1610156116c957835160ff60b619830116948501949060088202610100031c806001600160401b038111801561168557600080fd5b506040519080825280601f01601f1916602001820160405280156116b0576020820181803683370190505b5094506116be868683611d09565b9490940193506116e1565b60405162461bcd60e51b815260040161019a906131b2565b5090929050565b600083516000141561170a576020840151806117085760009150506107e3565b505b8351602085012060005b835181101561177357600084828151811061172b57fe5b6020026020010151905060006117418784611d18565b905060ff811661175c576117558483611d1f565b9350611769565b6117668285611d1f565b93505b5050600101611714565b50909414949350505050565b6040805160098082526101408201909252606091829190816020015b6117a3612423565b81526020019060019003908161179b5790505090506117cd6117c88460000151611d52565b611ddd565b816000815181106117da57fe5b60200260200101819052506117f56117c88460200151611d52565b8160018151811061180257fe5b602002602001018190525061181d6117c88460400151611d52565b8160028151811061182a57fe5b6020026020010181905250611861836060015160405160200161184d9190612eb6565b604051602081830303815290604052611ddd565b8160038151811061186e57fe5b60200260200101819052506118896117c88460800151611d52565b8160048151811061189657fe5b60200260200101819052506118ae8360a00151611ddd565b816005815181106118bb57fe5b60200260200101819052506118d66117c88460c00151611d52565b816006815181106118e357fe5b60200260200101819052506119016117c88460e0015160001c611d52565b8160078151811061190e57fe5b602002602001018190525061192d6117c884610100015160001c611d52565b8160088151811061193a57fe5b602002602001018190525061194e81611deb565b519392505050565b61195e61230f565b5060408051608081018252600080825260208201527fa9a4da177ac3f81cfe85a6767678aabb095aa306e72ab73f5cf0559c56d0a530918101919091527fc5d2460186f7233c927e7db2dcc703c0e500b653ca82273b7bfad8045d85a470606082015290565b60006119cf8261204e565b805190602001209050919050565b6000816119ec57506001610a09565b6001600160f81b0319821615611a0457506020610a09565b60ff60f01b821615611a185750601f610a09565b60ff60e81b821615611a2c5750601e610a09565b60ff60e01b821615611a405750601d610a09565b60ff60d81b821615611a545750601c610a09565b60ff60d01b821615611a685750601b610a09565b60ff60c81b821615611a7c5750601a610a09565b60ff60c01b821615611a9057506019610a09565b60ff60b81b821615611aa457506018610a09565b60ff60b01b821615611ab857506017610a09565b60ff60a81b821615611acc57506016610a09565b60ff60a01b821615611ae057506015610a09565b60ff60981b821615611af457506014610a09565b60ff60901b821615611b0857506013610a09565b60ff60881b821615611b1c57506012610a09565b60ff60801b821615611b3057506011610a09565b60ff60781b821615611b4457506010610a09565b60ff60701b821615611b585750600f610a09565b60ff60681b821615611b6c5750600e610a09565b60ff60601b821615611b805750600d610a09565b60ff60581b821615611b945750600c610a09565b60ff60501b821615611ba85750600b610a09565b69ff000000000000000000821615611bc25750600a610a09565b68ff0000000000000000821615611bdb57506009610a09565b67ff00000000000000821615611bf357506008610a09565b66ff000000000000821615611c0a57506007610a09565b65ff0000000000821615611c2057506006610a09565b64ff00000000821615611c3557506005610a09565b63ff000000821615611c4957506004610a09565b62ff0000821615611c5c57506003610a09565b61ff00821615611c6e57506002610a09565b506001919050565b6000806000846001600160a01b0316639fa6b496856040518263ffffffff1660e01b8152600401611ca79190612fa3565b604080518083038186803b158015611cbe57600080fd5b505afa158015611cd2573d6000803e3d6000fd5b505050506040513d601f19601f82011682018060405250810190611cf69190612e20565b6010026004919091020195945050505050565b60208201610f80818584612077565b1c60011690565b60008282604051602001611d34929190612edc565b60405160208183030381529060405280519060200120905092915050565b60606000611d5f836119dd565b905080611d7c576040805160008152602081019091529150611dd7565b806001600160401b0381118015611d9257600080fd5b506040519080825280601f01601f191660200182016040528015611dbd576020820181803683370190505b506008919091026101000383901b60208201529050610a09565b50919050565b611de5612423565b90815290565b611df3612423565b606082516001600160401b0381118015611e0c57600080fd5b50604051908082528060200260200182016040528015611e4057816020015b6060815260200190600190039081611e2b5790505b50905060606000805b8551811015611e9c576060611e70878381518110611e6357fe5b60200260200101516120b5565b60000151905080858381518110611e8357fe5b6020908102919091010152519190910190600101611e49565b506038811015611f5c57806001016001600160401b0381118015611ebf57600080fd5b506040519080825280601f01601f191660200182016040528015611eea576020820181803683370190505b5091508060c00160f81b82600081518110611f0157fe5b60200101906001600160f81b031916908160001a905350602160005b8451811015611f555760206001820181028601518051848101948701929190910190611f4a838383612077565b505050600101611f1d565b5050612032565b6000611f67826119dd565b90508181600101016001600160401b0381118015611f8457600080fd5b506040519080825280601f01601f191660200182016040528015611faf576020820181803683370190505b5092508060f70160f81b83600081518110611fc657fe5b60200101906001600160f81b031916908160001a905350600881026101000382901b602184810191909152810160005b855181101561202e5760206001820181028701518051848101948801929190910190612023838383612077565b505050600101611ff6565b5050505b5060408051808201909152908152600160208201529392505050565b6060816040516020016120619190613507565b6040516020818303038152906040529050919050565b5b60208110612097578151835260209283019290910190601f1901612078565b600180600883602003021b0380845116811984511617845250505050565b6120bd612423565b8160200151156120ce575080610a09565b600160208083019190915282519083015160609190806121115750805160011480156121115750608060ff168160008151811061210757fe5b016020015160f81c105b1561215a578060008151811061212357fe5b016020015160f81c6121505750506040805180820190915260018152600160ff1b60208201528152610a09565b8392505050610a09565b8051603811156121f85780516001016001600160401b038111801561217e57600080fd5b506040519080825280601f01601f1916602001820160405280156121a9576020820181803683370190505b509150805160800160f81b826000815181106121c157fe5b60200101906001600160f81b031916908160001a9053508051602183019060208301906121f19083908390612077565b50506122b4565b600061220482516119dd565b9050815181600101016001600160401b038111801561222257600080fd5b506040519080825280601f01601f19166020018201604052801561224d576020820181803683370190505b5092508060b70160f81b8360008151811061226457fe5b60200101906001600160f81b031916908160001a9053508151156122b257815181600802610100031b602184015260008082602101850191506020840190506122af82828651612077565b50505b505b508152919050565b604080516101408101825260008082526020820181905291810182905260608082018390526080820183905260a082015260c0810182905260e08101829052610100810182905261012081019190915290565b60408051608081018252600080825260208201819052918101829052606081019190915290565b6040805160c0810182526000808252602082018190529181018290526060808201839052608082015260a081019190915290565b60408051606081018252600080825260208201819052909182015290565b6040805161014081018252600080825260208201819052918101829052606081018290526080810182905260a0810182905260c0810182905260e08101829052610100810182905261012081019190915290565b604051806040016040528060608152602001606081525090565b60405180606001604052806000815260200160608152602001606081525090565b602b8061361183390190565b60408051808201909152606081526000602082015290565b8035610ee2816135ea565b8051610ee2816135ea565b600082601f830112612461578081fd5b813561247461246f8261357c565b613556565b81815291506020808301908481018184028601820187101561249557600080fd5b60005b848110156124b457813584529282019290820190600101612498565b505050505092915050565b600082601f8301126124cf578081fd5b81516124dd61246f8261357c565b8181529150602080830190848101818402860182018710156124fe57600080fd5b60005b848110156124b457815184529282019290820190600101612501565b600082601f83011261252d578081fd5b813561253b61246f8261359b565b915080825283602082850101111561255257600080fd5b8060208401602084013760009082016020015292915050565b600082601f83011261257b578081fd5b815161258961246f8261359b565b91508082528360208285010111156125a057600080fd5b6125b18160208401602086016135be565b5092915050565b600081830360e08112156125ca578182fd5b6125d46080613556565b91508235825260208301356020830152604083013560408301526080605f198201121561260057600080fd5b5061260b6080613556565b606083013581526080830135602082015260a083013561262a816135ea565b8060408301525060c083013560608201528060608301525092915050565b600061014080838503121561265b578182fd5b61266481613556565b915050813581526020820135602082015260408201356040820152606082013560608201526080820135608082015260a082013560a082015260c082013560c082015260e082013560e08201526101006126c08482850161243b565b818301525061012080830135818301525092915050565b600060c082840312156126e8578081fd5b6126f260c0613556565b905081356126ff816135ea565b8152602082013561270f816135ea565b80602083015250604082013560408201526060820135606082015260808201356001600160401b0381111561274357600080fd5b61274f8482850161251d565b60808301525060a082013560a082015292915050565b600060208284031215612776578081fd5b815161088781613602565b60008060408385031215612793578081fd5b825161279e81613602565b6020939093015192949293505050565b6000602082840312156127bf578081fd5b5051919050565b600080600080600061028086880312156127de578081fd5b6127e887876125b8565b94506127f78760e08801612648565b93506102208601356001600160401b0380821115612813578283fd5b61281f89838a0161251d565b9450610240880135935061026088013591508082111561283d578283fd5b5061284a88828901612451565b9150509295509295909350565b60008060008060008060006102c0888a031215612872578485fd5b61287c89896125b8565b965061288b8960e08a01612648565b95506102208801356001600160401b03808211156128a7578687fd5b6128b38b838c0161251d565b96506102408a013595506102608a01359150808211156128d1578384fd5b6128dd8b838c01612451565b94506102808a01359150808211156128f3578384fd5b6128ff8b838c0161251d565b93506102a08a0135915080821115612915578283fd5b506129228a828b0161251d565b91505092959891949750929550565b60008060008060008060008060006103008a8c03121561294f578283fd5b6129598b8b6125b8565b98506129688b60e08c01612648565b97506102208a01356001600160401b0380821115612984578485fd5b6129908d838e0161251d565b98506102408c013597506102608c01359150808211156129ae578485fd5b6129ba8d838e01612451565b96506102808c01359150808211156129d0578485fd5b6129dc8d838e0161251d565b95506102a08c01359150808211156129f2578485fd5b6129fe8d838e0161251d565b94506102c08c0135915080821115612a14578384fd5b612a208d838e0161251d565b93506102e08c0135915080821115612a36578283fd5b50612a438c828d0161251d565b9150509295985092959850929598565b60008060008060008060006102c0888a031215612a6e578081fd5b612a7889896125b8565b9650612a878960e08a01612648565b95506102208801356001600160401b0380821115612aa3578283fd5b612aaf8b838c016126d7565b96506102408a013595506102608a0135915080821115612acd578283fd5b612ad98b838c01612451565b94506102808a01359150808211156128f3578283fd5b6000610140808385031215612b02578182fd5b612b0b81613556565b835181526020840151602082015260408401516040820152606084015160608201526080840151608082015260a084015160a082015260c084015160c082015260e084015160e08201526101009150612b6685838601612446565b91810191909152610120928301519281019290925250919050565b6000806000806000806101e08789031215612b9a578384fd5b612ba48888612648565b95506101408701356001600160401b0380821115612bc0578586fd5b612bcc8a838b0161251d565b96506101608901359550610180890135915080821115612bea578384fd5b612bf68a838b01612451565b94506101a0890135915080821115612c0c578384fd5b612c188a838b0161251d565b93506101c0890135915080821115612c2e578283fd5b50612c3b89828a0161251d565b9150509295509295509295565b600060208284031215612c59578081fd5b81516001600160401b0380821115612c6f578283fd5b81840160c08187031215612c81578384fd5b612c8b60c0613556565b92508051612c98816135ea565b83526020810151612ca8816135ea565b806020850152506040810151604084015260608101516060840152608081015182811115612cd4578485fd5b612ce08782840161256b565b60808501525060a09081015190830152509392505050565b600060208284031215612d09578081fd5b81516001600160401b0380821115612d1f578283fd5b81840160408187031215612d31578384fd5b612d3b6040613556565b9250805182811115612d4b578485fd5b612d578782840161256b565b845250602081015182811115612d6b578485fd5b612d77878284016124bf565b6020850152509195945050505050565b600060208284031215612d98578081fd5b81516001600160401b0380821115612dae578283fd5b81840160608187031215612dc0578384fd5b612dca6060613556565b925080518352602081015182811115612de1578485fd5b612ded8782840161256b565b602085015250604081015182811115612e04578485fd5b612e10878284016124bf565b6040850152509195945050505050565b60008060408385031215612e32578182fd5b505080516020909101519092909150565b6001600160a01b03169052565b6000815180845260208085019450808401835b83811015612e7f57815187529582019590820190600101612e63565b509495945050505050565b60008151808452612ea28160208601602086016135be565b601f01601f19169290920160200192915050565b60609190911b6bffffffffffffffffffffffff1916815260140190565b90815260200190565b918252602082015260400190565b600088825287602083015286604083015260e06060830152612f0f60e0830187612e8a565b8281036080840152612f218187612e8a565b8560a085015283810360c0850152612f398186612e50565b9b9a5050505050505050505050565b600087825286602083015285604083015260c06060830152612f6d60c0830186612e8a565b84608084015282810360a0840152610d878185612e50565b93845260ff9290921660208401526040830152606082015260800190565b600060208252610edf6020830184612e8a565b6020810160038310612fc457fe5b91905290565b60208082526018908201527f4e6f74206120637265617465207472616e73616374696f6e0000000000000000604082015260600190565b6020808252601c908201527f4e6f7420616e20696e636f6d696e67207472616e73616374696f6e2e00000000604082015260600190565b60208082526013908201527224b73b30b634b21039ba30ba3290383937b7b360691b604082015260600190565b6020808252601e908201527f5472616e73616374696f6e2068616420636f7272656374206e6f6e63652e0000604082015260600190565b602080825260149082015273496e73756666696369656e742062616c616e636560601b604082015260600190565b60208082526019908201527f4368616c6c656e676520646f6573206e6f742065786973742e00000000000000604082015260600190565b60208082526019908201527f4e6f7420612073696d706c65207472616e73616374696f6e2e00000000000000604082015260600190565b60208082526023908201527f42616c616e63652073756666696369656e7420666f72207472616e736163746960408201526237b71760e91b606082015260800190565b60208082526019908201527f496e76616c6964206163636f756e7420656e636f64696e672e00000000000000604082015260600190565b60208082526017908201527f446174612070726566697820697320696e76616c69642e000000000000000000604082015260600190565b60208082526022908201527f506172656e7420626c6f636b20646f6573206e6f74206d61746368206368696c604082015261321760f11b606082015260800190565b60208082526013908201527224b73b30b634b21031b7b6b6b4ba36b2b73a1760691b604082015260600190565b60208082526021908201527f5472616e73616374696f6e20646f6573206e6f74206d617463682072656c61796040820152601760f91b606082015260800190565b60208082526019908201527f4e6f742061207369676e6564207472616e73616374696f6e2e00000000000000604082015260600190565b60208082526021908201527f48656164657220646f6573206e6f74206d6174636820636f6d6d69746d656e746040820152601760f91b606082015260800190565b60208082526014908201527324b73b30b634b21039ba30ba3290383937b7b31760611b604082015260600190565b6020808252601f908201527f5472616e73616374696f6e206861642073756666696369656e74206761732e00604082015260600190565b6020808252601d908201527f496e76616c6964207472616e73616374696f6e20656e636f64696e672e000000604082015260600190565b60208082526021908201527f5472616e73616374696f6e206861642076616c696420737461746520726f6f746040820152601760f91b606082015260800190565b60208082526017908201527f5265636569766572206973206120636f6e74726163742e000000000000000000604082015260600190565b6020808252601a908201527f496e76616c6964207472616e73616374696f6e2070726f6f662e000000000000604082015260600190565b81518152602080830151908201526040808301516001600160a01b0316908201526060918201519181019190915260800190565b600061014082019050825182526020830151602083015260408301516040830152606083015160608301526080830151608083015260a083015160a083015260c083015160c083015260e083015160e0830152610100808401516134f682850182612e43565b505061012092830151919092015290565b60006020825260018060a01b03808451166020840152806020850151166040840152506040830151606083015260608301516080830152608083015160a0808401526107e360c0840182612e8a565b6040518181016001600160401b038111828210171561357457600080fd5b604052919050565b60006001600160401b03821115613591578081fd5b5060209081020190565b60006001600160401b038211156135b0578081fd5b50601f01601f191660200190565b60005b838110156135d95781810151838201526020016135c1565b83811115610f805750506000910152565b6001600160a01b03811681146135ff57600080fd5b50565b80151581146135ff57600080fdfe608060405260405160208160008034335af1508051803b6000835280600060018501843c6001810183f3fea264697066735822122020fcb9fc2813faabf8bfb9b5157033fb7e150a90365f3002618a22551e15586364736f6c634300060b0033",
  "immutableReferences": {},
  "source": "pragma solidity ^0.6.0;\npragma experimental ABIEncoderV2;\n\nimport { ChainStateImplementer as Stateful } from \"../common/ChainStateImplementer.sol\";\nimport { ChallengeLib as Challenge } from \"../challenge/ChallengeLib.sol\";\nimport { ChainStateLib as State } from \"../common/ChainStateLib.sol\";\nimport { ISO_HeaderLib as Header } from \"../common/blocks/ISO_HeaderLib.sol\";\nimport { CommitmentHeaderLib as CL } from \"../common/blocks/CommitmentHeaderLib.sol\";\nimport { StateProofLib as StateProof } from \"./lib/StateProofLib.sol\";\nimport { SignedTransactionLib as SignedTx } from \"../common/transactions/SignedTransactionLib.sol\";\nimport { RelayTransactionLib as IncomingTx } from \"../common/transactions/RelayTransactionLib.sol\";\nimport { RLPAccountLib as Account } from \"../utils/type-encoders/RLPAccountLib.sol\";\nimport { PriorStateLib as PriorState } from \"./lib/PriorStateLib.sol\";\nimport { InclusionProofLib as InclusionProof } from \"./lib/InclusionProofLib.sol\";\nimport { ConfigLib as Config } from \"../common/config/ConfigLib.sol\";\n\ncontract ExecutionErrorProver is Stateful {\n  using State for State.ChainState;\n  using InclusionProof for State.ChainState;\n  using InclusionProof for Header.ISO_Header;\n  using Header for Header.ISO_Header;\n  using SignedTx for SignedTx.SignedTransaction;\n  using IncomingTx for IncomingTx.IncomingTransaction;\n  using Account for Account.Account;\n\n  function validateSignedTransaction(\n    Header.ISO_Header memory header,\n    bytes memory transaction,\n    uint256 transactionIndex,\n    bytes32[] memory siblings\n  ) internal pure returns (SignedTx.SignedTransaction memory) {\n    header.validateSignedTransaction(\n      transaction, transactionIndex, siblings\n    );\n    return SignedTx.decodeTransaction(transaction);\n  }\n\n  function getContractCodeHash(address archiveAddress)\n  internal view returns (bytes32 codeHash) {\n    assembly {\n      // Instead of using a `bytes` var, which would permanently expand the memory buffer\n      // and increase the cost of future memory expansion, we use the free pointer set by\n      // solc to copy the code to, then reset it afterwards using calldatacopy starting at\n      // the end of the calldata buffer in order to set the code buffer to 0.\n      let codeSize := sub(extcodesize(archiveAddress), 1)\n      let ptr := mload(0x40)\n      extcodecopy(archiveAddress, ptr, 1, codeSize)\n      codeHash := keccak256(ptr, codeSize)\n      calldatacopy(ptr, calldatasize(), codeSize)\n    }\n  }\n\n  /**\n   * @dev Prove that a signed transaction targeted the null address,\n   * which is not allowed in the ISO blockchain.\n   * Note: Only valid for a signed transaction.\n   */\n  function proveInvalidCreateTransaction(\n    CL.CommitmentHeaderQuery memory commitmentQuery,\n    Header.ISO_Header memory header,\n    bytes memory transaction,\n    uint256 transactionIndex,\n    bytes32[] memory siblings\n  ) public {\n    chainState.validateHeaderCommitment(commitmentQuery, header);\n    SignedTx.SignedTransaction memory _tx = validateSignedTransaction(\n      header,\n      transaction,\n      transactionIndex,\n      siblings\n    );\n    require(_tx.to == address(0), \"Not a create transaction\");\n    chainState.markFraudulentBlock(commitmentQuery);\n  }\n\n  /**\n   * @dev Prove that the caller of a transaction had an insufficient\n   * balance to cover the upfront cost.\n   * Note: Only valid for a signed transaction.\n   */\n  function proveInsufficientBalanceError(\n    CL.CommitmentHeaderQuery memory commitmentQuery,\n    Header.ISO_Header memory header,\n    bytes memory transactionBytes,\n    uint256 transactionIndex,\n    bytes32[] memory siblings,\n    bytes memory previousRootProof,\n    bytes memory stateProof\n  ) public {\n    chainState.validateHeaderCommitment(commitmentQuery, header);\n    /* Only signed transactions reduce the caller balance. */\n    SignedTx.SignedTransaction memory transaction = validateSignedTransaction(\n      header,\n      transactionBytes,\n      transactionIndex,\n      siblings\n    );\n    bytes32 previousRoot = PriorState.provePreviousStateRoot(\n      header, previousRootProof, transactionIndex\n    );\n    address signer = transaction.getSenderAddress();\n    Account.Account memory account = StateProof.proveAccountInState(\n      chainState.sparse,\n      previousRoot,\n      signer,\n      stateProof\n    );\n    // uint256 totalCost = (_tx.gas * _tx.gasPrice) + _tx.value;\n    require(\n      transaction.getUpfrontCost() > account.balance,\n      \"Balance sufficient for transaction.\"\n    );\n    chainState.markFraudulentBlock(commitmentQuery);\n  }\n\n  /**\n   * @dev Prove that a transaction had a nonce which did not match the\n   * caller account.\n   * Note: Only valid for a signed transaction.\n   */\n  function proveInvalidNonceError(\n    CL.CommitmentHeaderQuery memory commitmentQuery,\n    Header.ISO_Header memory header,\n    bytes memory transactionBytes,\n    uint256 transactionIndex,\n    bytes32[] memory siblings,\n    bytes memory previousRootProof,\n    bytes memory stateProof\n  ) public {\n    chainState.validateHeaderCommitment(commitmentQuery, header);\n    /* Only signed transactions use a nonce. */\n    SignedTx.SignedTransaction memory transaction = validateSignedTransaction(\n      header, transactionBytes, transactionIndex, siblings\n    );\n    bytes32 previousRoot = PriorState.provePreviousStateRoot(\n      header, previousRootProof, transactionIndex\n    );\n    address signer = transaction.getSenderAddress();\n    Account.Account memory account = StateProof.proveAccountInState(\n      chainState.sparse,\n      previousRoot,\n      signer,\n      stateProof\n    );\n    require(transaction.nonce != account.nonce, \"Transaction had correct nonce.\");\n    chainState.markFraudulentBlock(commitmentQuery);\n  }\n\n  /**\n   * @dev Prove that a transaction had less gas than the base fee.\n   * Note: Only valid for a signed transaction.\n   */\n  function proveInsufficientGasError(\n    CL.CommitmentHeaderQuery memory commitmentQuery,\n    Header.ISO_Header memory header,\n    bytes memory transactionBytes,\n    uint256 transactionIndex,\n    bytes32[] memory siblings\n  ) public {\n    chainState.validateHeaderCommitment(commitmentQuery, header);\n    SignedTx.SignedTransaction memory transaction = validateSignedTransaction(\n      header, transactionBytes, transactionIndex, siblings\n    );\n    uint256 baseGasFee = SignedTx.getBaseFee(chainState, transaction);\n    require(transaction.gas < baseGasFee, \"Transaction had sufficient gas.\");\n    chainState.markFraudulentBlock(commitmentQuery);\n  }\n\n  event ErrorTest(IncomingTx.IncomingTransaction transaction, bytes32[] siblings);\n  /**\n   * @dev Prove that an incoming transaction was executed incorrectly,\n   * where the transaction was either a deployment or a simple value\n   * transfer.\n   */\n  function proveSimpleIncomingTransactionExecutionError(\n    CL.CommitmentHeaderQuery memory commitmentQuery,\n    Header.ISO_Header memory header,\n    IncomingTx.IncomingTransaction memory transaction,\n    uint256 transactionIndex,\n    bytes32[] memory siblings,\n    bytes memory previousRootProof,\n    bytes memory receiverProof\n  ) public {\n    chainState.validateHeaderCommitment(commitmentQuery, header);\n    chainState.validateIncomingTransaction(header, transaction, transactionIndex, siblings);\n    bytes32 stateRoot = PriorState.provePreviousStateRoot(\n      header, previousRootProof, transactionIndex\n    );\n    if (transaction.to == address(0)) {\n      /* Deployment transaction. */\n      address archiveAddress = chainState.getContractArchiveAddress(transaction.from);\n      bytes32 codeHash = getContractCodeHash(archiveAddress);\n      stateRoot = StateProof.setAccountCodeHash(\n        chainState.sparse,\n        stateRoot,\n        transaction.from,\n        receiverProof,\n        codeHash\n      );\n      \n    } else {\n      /* Value transfer. */\n      Account.Account memory account;\n      (stateRoot, account) = StateProof.increaseBalance(\n        chainState.sparse,\n        stateRoot,\n        transaction.to,\n        receiverProof,\n        transaction.value\n      );\n      require(!account.isContract(), \"Not a simple transaction.\");\n    }\n    require(\n      transaction.stateRoot != stateRoot, \"Transaction had valid state root.\"\n    );\n    chainState.markFraudulentBlock(commitmentQuery);\n  }\n\n  // /**\n  //  * @dev Proves that an exit transaction was executed incorrectly.\n  //  */\n  // function proveExitTransactionError(\n  //   CL.CommitmentHeaderQuery memory commitmentQuery,\n  //   Header.ISO_Header memory header,\n  //   bytes memory transactionBytes,\n  //   uint256 transactionIndex,\n  //   bytes32[] memory siblings,\n  //   bytes memory previousRootProof,\n  //   bytes memory callerProof,\n  //   bytes memory receiverProof,\n  //   bytes memory operatorProof\n  // ) public {\n  //   chainState.validateHeaderCommitment(commitmentQuery, header);\n  //   SignedTx.SignedTransaction memory transaction = validateSignedTransaction(\n  //     header, transactionBytes, transactionIndex, siblings\n  //   );\n  //   require(\n  //     transaction.to == Config.childRelayAddress(),\n  //     \"Not an exit transaction.\"\n  //   );\n  //   bytes32 stateRoot = PriorState.provePreviousStateRoot(\n  //     header, previousRootProof, transactionIndex\n  //   );\n  //   stateRoot = StateProof.subtractBalanceAndIncrementNonce(\n  //     chainState.sparse,\n  //     stateRoot,\n  //     transaction.getSenderAddress(),\n  //     callerProof,\n  //     transaction.value + (21000 * transaction.gasPrice)\n  //   );\n  // }\n\n  /**\n   * @dev Proves that a signed transaction was executed incorrectly,\n   * where the receiver was not a contract.\n   * Note: Rather than updating the caller twice (for the gas refund),\n   * this simply charges 21000 gas. This gives the same end result.\n   */\n  function proveSimpleSignedTransactionExecutionError(\n    CL.CommitmentHeaderQuery memory commitmentQuery,\n    Header.ISO_Header memory header,\n    bytes memory transactionBytes,\n    uint256 transactionIndex,\n    bytes32[] memory siblings,\n    bytes memory previousRootProof,\n    bytes memory callerProof,\n    bytes memory receiverProof,\n    bytes memory operatorProof\n  ) public {\n    chainState.validateHeaderCommitment(commitmentQuery, header);\n    SignedTx.SignedTransaction memory transaction = validateSignedTransaction(\n      header, transactionBytes, transactionIndex, siblings\n    );\n    bytes32 stateRoot = PriorState.provePreviousStateRoot(\n      header, previousRootProof, transactionIndex\n    );\n    stateRoot = StateProof.subtractBalanceAndIncrementNonce(\n      chainState.sparse,\n      stateRoot,\n      transaction.getSenderAddress(),\n      callerProof,\n      transaction.value + (21000 * transaction.gasPrice)\n    );\n    Account.Account memory receiver;\n    (stateRoot, receiver) = StateProof.increaseBalance(\n      chainState.sparse,\n      stateRoot,\n      transaction.to,\n      receiverProof,\n      transaction.value\n    );\n    require(!receiver.isContract(), \"Receiver is a contract.\");\n    (stateRoot,) = StateProof.increaseBalance(\n      chainState.sparse,\n      stateRoot,\n      header.coinbase,\n      operatorProof,\n      21000 * transaction.gasPrice\n    );\n    require(\n      transaction.stateRoot != stateRoot,\n      \"Transaction had valid state root.\"\n    );\n    chainState.markFraudulentBlock(commitmentQuery);\n  }\n\n    /**\n   * @dev Cancels a challenge on a simple transaction, i.e.\n   * a transaction which can be audited without a message witness.\n   * A transaction is considered simple if it is a deployment or\n   * the target account is not a contract.\n   * @param header Block header from the challenged block\n   * @param transactionBytes Encoded transaction - either IncomingTransaction struct\n   * or RLP encoded signed transaction\n   * @param transactionIndex Index of the transaction in the block\n   * @param siblings Merkle proof of the transaction's inclusion in the block\n   * @param previousRootProof Proof of the previous state root - if the\n   * transaction is a deployment, this can be null\n   * @param receiverProof Proof of the receiver account in the previous state - if the\n   * transaction is a deployment, this can be null\n   */\n  function cancelSimpleTransactionChallenge(\n    Header.ISO_Header memory header,\n    bytes memory transactionBytes,\n    uint256 transactionIndex,\n    bytes32[] memory siblings,\n    bytes memory previousRootProof,\n    bytes memory receiverProof\n  ) public  {\n    bytes32 blockHash = header.blockHash();\n    address receiver;\n    if (transactionIndex < header.incomingTransactionsCount) {\n      IncomingTx.IncomingTransaction memory transaction = abi.decode(\n        transactionBytes, (IncomingTx.IncomingTransaction)\n      );\n      chainState.validateIncomingTransaction(\n        header, transaction, transactionIndex, siblings\n      );\n      receiver = transaction.to;\n    } else {\n      SignedTx.SignedTransaction memory transaction = validateSignedTransaction(\n        header, transactionBytes, transactionIndex, siblings\n      );\n      receiver = transaction.to;\n    }\n    if (receiver != address(0)) {\n      bytes32 previousRoot = PriorState.provePreviousStateRoot(\n        header, previousRootProof, transactionIndex\n      );\n      Account.Account memory account = StateProof.proveAccountInState(\n        chainState.sparse,\n        previousRoot,\n        receiver,\n        receiverProof\n      );\n      require(!account.isContract(), \"Not a simple transaction.\");\n    }\n    Challenge.Challenge memory challenge = chainState\n      .challengesByBlock[blockHash]\n      .challengesByTransaction[transactionIndex];\n    require(\n      challenge.step != Challenge.ChallengeStep.NONE,\n      \"Challenge does not exist.\"\n    );\n    chainState.challengesByBlock[blockHash].openChallenges -= 1;\n    delete chainState\n      .challengesByBlock[blockHash]\n      .challengesByTransaction[transactionIndex];\n    Config.rewardChallengerTimeout(header.coinbase);\n  }\n}",
  "sourcePath": "/home/dillon/sparse-iso/sparse-iso/packages/contracts/contracts/fraud-proofs/ExecutionErrorProver.sol",
  "compiler": {
    "name": "solc",
    "version": "0.6.11+commit.5ef660b1.Emscripten.clang"
  },
  "schemaVersion": "3.2.1",
  "updatedAt": "2020-07-17T23:51:47.612Z",
  "devdoc": {
    "kind": "dev",
    "methods": {
      "cancelSimpleTransactionChallenge((bytes32,uint256,uint256,uint256,uint256,bytes32,bytes32,bytes32,address,uint256),bytes,uint256,bytes32[],bytes,bytes)": {
        "details": "Cancels a challenge on a simple transaction, i.e. a transaction which can be audited without a message witness. A transaction is considered simple if it is a deployment or the target account is not a contract.",
        "params": {
          "header": "Block header from the challenged block",
          "previousRootProof": "Proof of the previous state root - if the transaction is a deployment, this can be null",
          "receiverProof": "Proof of the receiver account in the previous state - if the transaction is a deployment, this can be null",
          "siblings": "Merkle proof of the transaction's inclusion in the block",
          "transactionBytes": "Encoded transaction - either IncomingTransaction struct or RLP encoded signed transaction",
          "transactionIndex": "Index of the transaction in the block"
        }
      },
      "proveInsufficientBalanceError((bytes32,uint256,uint256,(uint256,bytes32,address,bytes32)),(bytes32,uint256,uint256,uint256,uint256,bytes32,bytes32,bytes32,address,uint256),bytes,uint256,bytes32[],bytes,bytes)": {
        "details": "Prove that the caller of a transaction had an insufficient balance to cover the upfront cost. Note: Only valid for a signed transaction."
      },
      "proveInsufficientGasError((bytes32,uint256,uint256,(uint256,bytes32,address,bytes32)),(bytes32,uint256,uint256,uint256,uint256,bytes32,bytes32,bytes32,address,uint256),bytes,uint256,bytes32[])": {
        "details": "Prove that a transaction had less gas than the base fee. Note: Only valid for a signed transaction."
      },
      "proveInvalidCreateTransaction((bytes32,uint256,uint256,(uint256,bytes32,address,bytes32)),(bytes32,uint256,uint256,uint256,uint256,bytes32,bytes32,bytes32,address,uint256),bytes,uint256,bytes32[])": {
        "details": "Prove that a signed transaction targeted the null address, which is not allowed in the ISO blockchain. Note: Only valid for a signed transaction."
      },
      "proveInvalidNonceError((bytes32,uint256,uint256,(uint256,bytes32,address,bytes32)),(bytes32,uint256,uint256,uint256,uint256,bytes32,bytes32,bytes32,address,uint256),bytes,uint256,bytes32[],bytes,bytes)": {
        "details": "Prove that a transaction had a nonce which did not match the caller account. Note: Only valid for a signed transaction."
      },
      "proveSimpleIncomingTransactionExecutionError((bytes32,uint256,uint256,(uint256,bytes32,address,bytes32)),(bytes32,uint256,uint256,uint256,uint256,bytes32,bytes32,bytes32,address,uint256),(address,address,uint256,uint256,bytes,bytes32),uint256,bytes32[],bytes,bytes)": {
        "details": "Prove that an incoming transaction was executed incorrectly, where the transaction was either a deployment or a simple value transfer."
      },
      "proveSimpleSignedTransactionExecutionError((bytes32,uint256,uint256,(uint256,bytes32,address,bytes32)),(bytes32,uint256,uint256,uint256,uint256,bytes32,bytes32,bytes32,address,uint256),bytes,uint256,bytes32[],bytes,bytes,bytes,bytes)": {
        "details": "Proves that a signed transaction was executed incorrectly, where the receiver was not a contract. Note: Rather than updating the caller twice (for the gas refund), this simply charges 21000 gas. This gives the same end result."
      }
    },
    "version": 1
  },
  "userdoc": {
    "kind": "user",
    "methods": {},
    "version": 1
  }
}