{
  "contractName": "MerkleTreeLib",
  "abi": [
    {
      "inputs": [
        {
          "internalType": "bytes[]",
          "name": "leaves",
          "type": "bytes[]"
        }
      ],
      "name": "getMerkleRoot",
      "outputs": [
        {
          "internalType": "bytes32",
          "name": "root",
          "type": "bytes32"
        }
      ],
      "stateMutability": "pure",
      "type": "function"
    },
    {
      "inputs": [
        {
          "internalType": "uint256",
          "name": "_intVal",
          "type": "uint256"
        },
        {
          "internalType": "uint256",
          "name": "_index",
          "type": "uint256"
        }
      ],
      "name": "getNthBitFromRight",
      "outputs": [
        {
          "internalType": "uint8",
          "name": "",
          "type": "uint8"
        }
      ],
      "stateMutability": "pure",
      "type": "function"
    }
  ],
  "bytecode": "0x6103fe610026600b82828239805160001a60731461001957fe5b30600052607381538281f3fe73000000000000000000000000000000000000000030146080604052600436106100405760003560e01c806340ff34ef14610045578063db0787cb1461006e575b600080fd5b6100586100533660046102b8565b61008e565b6040516100659190610363565b60405180910390f35b61008161007c366004610324565b61027e565b604051610065919061036c565b60008161009d57506000610278565b81600060606001830167ffffffffffffffff811180156100bc57600080fd5b506040519080825280602002602001820160405280156100e6578160200160208202803683370190505b50905060005b858110156101475786868281811061010057fe5b9050602002810190610112919061037a565b604051610120929190610353565b604051809103902082828151811061013457fe5b60209081029190910101526001016100ec565b506001851415610170578060008151811061015e57fe5b60200260200101519350505050610278565b600283066001141561019f576000801b81848151811061018c57fe5b6020026020010181815250506001830192505b600183111561025d576001919091019060005b60028404811015610215576101f68282600202815181106101cf57fe5b60200260200101518383600202600101815181106101e957fe5b6020026020010151610285565b82828151811061020257fe5b60209081029190910101526001016101b2565b50600283049250600283066001148015610230575082600114155b15610258576000801b81848151811061024557fe5b6020026020010181815250506001830192505b61019f565b8060008151811061026a57fe5b602002602001015193505050505b92915050565b1c60011690565b6000828260405160200161029a929190610345565b60405160208183030381529060405280519060200120905092915050565b600080602083850312156102ca578182fd5b823567ffffffffffffffff808211156102e1578384fd5b81850186601f8201126102f2578485fd5b8035925081831115610302578485fd5b8660208085028301011115610315578485fd5b60200196919550909350505050565b60008060408385031215610336578182fd5b50508035926020909101359150565b918252602082015260400190565b6000828483379101908152919050565b90815260200190565b60ff91909116815260200190565b6000808335601e19843603018112610390578283fd5b8084018035925067ffffffffffffffff8311156103ab578384fd5b602001925050368190038213156103c157600080fd5b925092905056fea26469706673582212208a041dc6b09163748ed260cf2695f970ac68d9ab58c3072a618ddf29d4da98ba64736f6c634300060b0033",
  "immutableReferences": {},
  "source": "pragma solidity ^0.6.0;\npragma experimental ABIEncoderV2;\n\nlibrary MerkleTreeLib {\n  function getMerkleRoot(bytes[] calldata leaves) external pure returns(bytes32 root) {\n    if (leaves.length == 0) return bytes32(0);\n    uint256 nextLevelLength = leaves.length;\n    uint256 currentLevel = 0;\n    bytes32[] memory nodes = new bytes32[](nextLevelLength + 1); // Add one in case we have an odd number of leaves\n    // Generate the leaves\n    for (uint256 i = 0; i < leaves.length; i++) nodes[i] = keccak256(leaves[i]);\n    if (leaves.length == 1) return nodes[0];\n    // Add a defaultNode if we've got an odd number of leaves\n    if (nextLevelLength % 2 == 1) {\n      nodes[nextLevelLength] = bytes32(0);\n      nextLevelLength += 1;\n    }\n\n    // Now generate each level\n    while (nextLevelLength > 1) {\n      currentLevel += 1;\n      // Calculate the nodes for the currentLevel\n      for (uint256 i = 0; i < nextLevelLength / 2; i++) {\n        nodes[i] = getParent(nodes[i*2], nodes[i*2 + 1]);\n      }\n      nextLevelLength = nextLevelLength / 2;\n      // Check if we will need to add an extra node\n      if (nextLevelLength % 2 == 1 && nextLevelLength != 1) {\n        nodes[nextLevelLength] = bytes32(0);\n        nextLevelLength += 1;\n      }\n    }\n    return nodes[0];\n  }\n\n  /**\n   * @notice Get the parent of two children nodes in the tree\n   * @param _left The left child\n   * @param _right The right child\n   * @return The parent node\n   */\n  function getParent(bytes32 _left, bytes32 _right) internal pure returns(bytes32) {\n    return keccak256(abi.encodePacked(_left, _right));\n  }\n\n  /**\n   * @notice get the n'th bit in a uint.\n   *         For instance, if exampleUint=binary(11), getNth(exampleUint, 0) == 1, getNth(2, 1) == 1\n   * @param _intVal The uint256 we are extracting a bit out of\n   * @param _index The index of the bit we want to extract\n   * @return The bit (1 or 0) in a uint8\n   */\n  function getNthBitFromRight(uint256 _intVal, uint256 _index) public pure returns (uint8) {\n    return uint8(_intVal >> _index & 1);\n  }\n}",
  "sourcePath": "/home/dillon/sparse-iso/sparse-iso/packages/contracts/contracts/common/rollup/MerkleTreeLib.sol",
  "compiler": {
    "name": "solc",
    "version": "0.6.11+commit.5ef660b1.Emscripten.clang"
  },
  "schemaVersion": "3.2.1",
  "updatedAt": "2020-07-17T23:51:47.549Z",
  "devdoc": {
    "kind": "dev",
    "methods": {
      "getNthBitFromRight(uint256,uint256)": {
        "params": {
          "_index": "The index of the bit we want to extract",
          "_intVal": "The uint256 we are extracting a bit out of"
        },
        "returns": {
          "_0": "The bit (1 or 0) in a uint8"
        }
      }
    },
    "version": 1
  },
  "userdoc": {
    "kind": "user",
    "methods": {
      "getNthBitFromRight(uint256,uint256)": {
        "notice": "get the n'th bit in a uint.         For instance, if exampleUint=binary(11), getNth(exampleUint, 0) == 1, getNth(2, 1) == 1"
      }
    },
    "version": 1
  }
}