{
  "contractName": "MockChainPeg",
  "abi": [
    {
      "anonymous": false,
      "inputs": [
        {
          "indexed": true,
          "internalType": "bytes32",
          "name": "blockHash",
          "type": "bytes32"
        },
        {
          "indexed": false,
          "internalType": "uint256",
          "name": "transactionIndex",
          "type": "uint256"
        },
        {
          "indexed": false,
          "internalType": "address",
          "name": "challenger",
          "type": "address"
        }
      ],
      "name": "BlockChallenge",
      "type": "event"
    },
    {
      "anonymous": false,
      "inputs": [
        {
          "indexed": true,
          "internalType": "uint256",
          "name": "blockHeight",
          "type": "uint256"
        },
        {
          "indexed": false,
          "internalType": "bytes32",
          "name": "blockHash",
          "type": "bytes32"
        }
      ],
      "name": "BlockConfirmed",
      "type": "event"
    },
    {
      "anonymous": false,
      "inputs": [
        {
          "indexed": true,
          "internalType": "bytes32",
          "name": "blockHash",
          "type": "bytes32"
        },
        {
          "indexed": false,
          "internalType": "enum ChainStateLib.RevertReason",
          "name": "reason",
          "type": "uint8"
        }
      ],
      "name": "BlockReverted",
      "type": "event"
    },
    {
      "anonymous": false,
      "inputs": [
        {
          "indexed": true,
          "internalType": "uint256",
          "name": "blockHeight",
          "type": "uint256"
        },
        {
          "indexed": false,
          "internalType": "bytes32",
          "name": "parentHash",
          "type": "bytes32"
        },
        {
          "indexed": false,
          "internalType": "uint256",
          "name": "childIndex",
          "type": "uint256"
        },
        {
          "indexed": false,
          "internalType": "bytes32",
          "name": "blockHash",
          "type": "bytes32"
        }
      ],
      "name": "BlockSubmitted",
      "type": "event"
    },
    {
      "anonymous": false,
      "inputs": [
        {
          "indexed": true,
          "internalType": "bytes32",
          "name": "blockHash",
          "type": "bytes32"
        },
        {
          "indexed": false,
          "internalType": "uint256",
          "name": "transactionIndex",
          "type": "uint256"
        },
        {
          "indexed": false,
          "internalType": "bytes",
          "name": "witness",
          "type": "bytes"
        }
      ],
      "name": "ChallengeResponse",
      "type": "event"
    },
    {
      "anonymous": false,
      "inputs": [
        {
          "components": [
            {
              "internalType": "address",
              "name": "from",
              "type": "address"
            },
            {
              "internalType": "address",
              "name": "to",
              "type": "address"
            },
            {
              "internalType": "uint256",
              "name": "gas",
              "type": "uint256"
            },
            {
              "internalType": "uint256",
              "name": "value",
              "type": "uint256"
            },
            {
              "internalType": "bytes",
              "name": "data",
              "type": "bytes"
            },
            {
              "internalType": "bytes32",
              "name": "stateRoot",
              "type": "bytes32"
            }
          ],
          "indexed": false,
          "internalType": "struct RelayTransactionLib.IncomingTransaction",
          "name": "transaction",
          "type": "tuple"
        },
        {
          "indexed": false,
          "internalType": "bytes32[]",
          "name": "siblings",
          "type": "bytes32[]"
        }
      ],
      "name": "ErrorTest",
      "type": "event"
    },
    {
      "anonymous": false,
      "inputs": [
        {
          "indexed": false,
          "internalType": "bytes32",
          "name": "stateRoot",
          "type": "bytes32"
        },
        {
          "indexed": false,
          "internalType": "address",
          "name": "txSender",
          "type": "address"
        },
        {
          "indexed": false,
          "internalType": "uint256",
          "name": "upfrontCost",
          "type": "uint256"
        }
      ],
      "name": "TestAddress",
      "type": "event"
    },
    {
      "inputs": [
        {
          "internalType": "bytes",
          "name": "data",
          "type": "bytes"
        }
      ],
      "name": "challengeStep",
      "outputs": [],
      "stateMutability": "payable",
      "type": "function"
    },
    {
      "inputs": [
        {
          "components": [
            {
              "internalType": "bytes32",
              "name": "parentHash",
              "type": "bytes32"
            },
            {
              "internalType": "uint256",
              "name": "childIndex",
              "type": "uint256"
            },
            {
              "internalType": "uint256",
              "name": "blockNumber",
              "type": "uint256"
            },
            {
              "components": [
                {
                  "internalType": "uint256",
                  "name": "submittedAt",
                  "type": "uint256"
                },
                {
                  "internalType": "bytes32",
                  "name": "exitsRoot",
                  "type": "bytes32"
                },
                {
                  "internalType": "address",
                  "name": "coinbase",
                  "type": "address"
                },
                {
                  "internalType": "bytes32",
                  "name": "blockHash",
                  "type": "bytes32"
                }
              ],
              "internalType": "struct CommitmentHeaderLib.CommitmentHeader",
              "name": "commitment",
              "type": "tuple"
            }
          ],
          "internalType": "struct CommitmentHeaderLib.CommitmentHeaderQuery",
          "name": "_query",
          "type": "tuple"
        }
      ],
      "name": "confirmBlock",
      "outputs": [],
      "stateMutability": "nonpayable",
      "type": "function"
    },
    {
      "inputs": [
        {
          "internalType": "uint256",
          "name": "blockNumber",
          "type": "uint256"
        }
      ],
      "name": "getConfirmedBlockhash",
      "outputs": [
        {
          "internalType": "bytes32",
          "name": "",
          "type": "bytes32"
        }
      ],
      "stateMutability": "view",
      "type": "function"
    },
    {
      "inputs": [
        {
          "internalType": "bytes32",
          "name": "parentHash",
          "type": "bytes32"
        },
        {
          "internalType": "uint256",
          "name": "childIndex",
          "type": "uint256"
        }
      ],
      "name": "getPendingChild",
      "outputs": [
        {
          "internalType": "bytes32",
          "name": "",
          "type": "bytes32"
        }
      ],
      "stateMutability": "view",
      "type": "function"
    },
    {
      "inputs": [
        {
          "internalType": "bytes32",
          "name": "parentHash",
          "type": "bytes32"
        }
      ],
      "name": "getPendingChildren",
      "outputs": [
        {
          "internalType": "bytes32[]",
          "name": "",
          "type": "bytes32[]"
        }
      ],
      "stateMutability": "view",
      "type": "function"
    },
    {
      "inputs": [
        {
          "components": [
            {
              "internalType": "bytes32",
              "name": "parentHash",
              "type": "bytes32"
            },
            {
              "internalType": "uint256",
              "name": "childIndex",
              "type": "uint256"
            },
            {
              "internalType": "uint256",
              "name": "blockNumber",
              "type": "uint256"
            },
            {
              "components": [
                {
                  "internalType": "uint256",
                  "name": "submittedAt",
                  "type": "uint256"
                },
                {
                  "internalType": "bytes32",
                  "name": "exitsRoot",
                  "type": "bytes32"
                },
                {
                  "internalType": "address",
                  "name": "coinbase",
                  "type": "address"
                },
                {
                  "internalType": "bytes32",
                  "name": "blockHash",
                  "type": "bytes32"
                }
              ],
              "internalType": "struct CommitmentHeaderLib.CommitmentHeader",
              "name": "commitment",
              "type": "tuple"
            }
          ],
          "internalType": "struct CommitmentHeaderLib.CommitmentHeaderQuery",
          "name": "_query",
          "type": "tuple"
        }
      ],
      "name": "hasPendingBlock",
      "outputs": [
        {
          "internalType": "bool",
          "name": "",
          "type": "bool"
        }
      ],
      "stateMutability": "view",
      "type": "function"
    },
    {
      "inputs": [
        {
          "internalType": "bytes32",
          "name": "_blockHash",
          "type": "bytes32"
        }
      ],
      "name": "hasPendingChallenge",
      "outputs": [
        {
          "internalType": "bool",
          "name": "",
          "type": "bool"
        }
      ],
      "stateMutability": "view",
      "type": "function"
    },
    {
      "inputs": [
        {
          "internalType": "contract SparseMerkleTree",
          "name": "sparse",
          "type": "address"
        },
        {
          "internalType": "address",
          "name": "challengeManager",
          "type": "address"
        },
        {
          "internalType": "address",
          "name": "relay",
          "type": "address"
        },
        {
          "internalType": "address",
          "name": "archiveFactory",
          "type": "address"
        },
        {
          "internalType": "contract IByteCounter",
          "name": "byteCounter",
          "type": "address"
        },
        {
          "internalType": "address",
          "name": "accessErrorProver",
          "type": "address"
        },
        {
          "internalType": "address",
          "name": "blockErrorProver",
          "type": "address"
        },
        {
          "internalType": "address",
          "name": "executionErrorProver",
          "type": "address"
        },
        {
          "internalType": "address",
          "name": "transactionErrorProver",
          "type": "address"
        },
        {
          "internalType": "address",
          "name": "encodingErrorProver",
          "type": "address"
        },
        {
          "internalType": "address",
          "name": "witnessErrorProver",
          "type": "address"
        },
        {
          "internalType": "address",
          "name": "hypervisorAddress",
          "type": "address"
        }
      ],
      "name": "initialize",
      "outputs": [],
      "stateMutability": "nonpayable",
      "type": "function"
    },
    {
      "inputs": [
        {
          "internalType": "uint256",
          "name": "blockNumber",
          "type": "uint256"
        }
      ],
      "name": "isBlockConfirmed",
      "outputs": [
        {
          "internalType": "bool",
          "name": "",
          "type": "bool"
        }
      ],
      "stateMutability": "view",
      "type": "function"
    },
    {
      "inputs": [],
      "name": "owner",
      "outputs": [
        {
          "internalType": "address",
          "name": "",
          "type": "address"
        }
      ],
      "stateMutability": "view",
      "type": "function"
    },
    {
      "inputs": [
        {
          "internalType": "bytes",
          "name": "data",
          "type": "bytes"
        }
      ],
      "name": "proveAccessError",
      "outputs": [],
      "stateMutability": "nonpayable",
      "type": "function"
    },
    {
      "inputs": [
        {
          "internalType": "bytes",
          "name": "data",
          "type": "bytes"
        }
      ],
      "name": "proveBlockError",
      "outputs": [],
      "stateMutability": "nonpayable",
      "type": "function"
    },
    {
      "inputs": [
        {
          "internalType": "bytes",
          "name": "data",
          "type": "bytes"
        }
      ],
      "name": "proveEncodingError",
      "outputs": [],
      "stateMutability": "nonpayable",
      "type": "function"
    },
    {
      "inputs": [
        {
          "internalType": "bytes",
          "name": "data",
          "type": "bytes"
        }
      ],
      "name": "proveExecutionError",
      "outputs": [],
      "stateMutability": "nonpayable",
      "type": "function"
    },
    {
      "inputs": [
        {
          "internalType": "bytes",
          "name": "data",
          "type": "bytes"
        }
      ],
      "name": "proveTransactionError",
      "outputs": [],
      "stateMutability": "nonpayable",
      "type": "function"
    },
    {
      "inputs": [
        {
          "internalType": "bytes",
          "name": "data",
          "type": "bytes"
        }
      ],
      "name": "proveWitnessError",
      "outputs": [],
      "stateMutability": "nonpayable",
      "type": "function"
    },
    {
      "inputs": [
        {
          "components": [
            {
              "components": [
                {
                  "internalType": "bytes32",
                  "name": "parentHash",
                  "type": "bytes32"
                },
                {
                  "internalType": "uint256",
                  "name": "number",
                  "type": "uint256"
                },
                {
                  "internalType": "uint256",
                  "name": "incomingTransactionsIndex",
                  "type": "uint256"
                },
                {
                  "internalType": "uint256",
                  "name": "incomingTransactionsCount",
                  "type": "uint256"
                },
                {
                  "internalType": "uint256",
                  "name": "transactionsCount",
                  "type": "uint256"
                },
                {
                  "internalType": "bytes32",
                  "name": "transactionsRoot",
                  "type": "bytes32"
                },
                {
                  "internalType": "bytes32",
                  "name": "stateRoot",
                  "type": "bytes32"
                },
                {
                  "internalType": "bytes32",
                  "name": "exitsRoot",
                  "type": "bytes32"
                },
                {
                  "internalType": "address",
                  "name": "coinbase",
                  "type": "address"
                },
                {
                  "internalType": "uint256",
                  "name": "timestamp",
                  "type": "uint256"
                }
              ],
              "internalType": "struct ISO_HeaderLib.ISO_Header",
              "name": "header",
              "type": "tuple"
            },
            {
              "internalType": "bytes[]",
              "name": "transactions",
              "type": "bytes[]"
            }
          ],
          "internalType": "struct ISO_BlockLib.ISO_Block",
          "name": "_block",
          "type": "tuple"
        }
      ],
      "name": "submitBlock",
      "outputs": [],
      "stateMutability": "payable",
      "type": "function"
    },
    {
      "inputs": [
        {
          "components": [
            {
              "internalType": "bytes32",
              "name": "parentHash",
              "type": "bytes32"
            },
            {
              "internalType": "uint256",
              "name": "number",
              "type": "uint256"
            },
            {
              "internalType": "uint256",
              "name": "incomingTransactionsIndex",
              "type": "uint256"
            },
            {
              "internalType": "uint256",
              "name": "incomingTransactionsCount",
              "type": "uint256"
            },
            {
              "internalType": "uint256",
              "name": "transactionsCount",
              "type": "uint256"
            },
            {
              "internalType": "bytes32",
              "name": "transactionsRoot",
              "type": "bytes32"
            },
            {
              "internalType": "bytes32",
              "name": "stateRoot",
              "type": "bytes32"
            },
            {
              "internalType": "bytes32",
              "name": "exitsRoot",
              "type": "bytes32"
            },
            {
              "internalType": "address",
              "name": "coinbase",
              "type": "address"
            },
            {
              "internalType": "uint256",
              "name": "timestamp",
              "type": "uint256"
            }
          ],
          "internalType": "struct ISO_HeaderLib.ISO_Header",
          "name": "header",
          "type": "tuple"
        }
      ],
      "name": "putPendingBlock",
      "outputs": [],
      "stateMutability": "payable",
      "type": "function"
    },
    {
      "inputs": [
        {
          "components": [
            {
              "internalType": "bytes32",
              "name": "parentHash",
              "type": "bytes32"
            },
            {
              "internalType": "uint256",
              "name": "childIndex",
              "type": "uint256"
            },
            {
              "internalType": "uint256",
              "name": "blockNumber",
              "type": "uint256"
            },
            {
              "components": [
                {
                  "internalType": "uint256",
                  "name": "submittedAt",
                  "type": "uint256"
                },
                {
                  "internalType": "bytes32",
                  "name": "exitsRoot",
                  "type": "bytes32"
                },
                {
                  "internalType": "address",
                  "name": "coinbase",
                  "type": "address"
                },
                {
                  "internalType": "bytes32",
                  "name": "blockHash",
                  "type": "bytes32"
                }
              ],
              "internalType": "struct CommitmentHeaderLib.CommitmentHeader",
              "name": "commitment",
              "type": "tuple"
            }
          ],
          "internalType": "struct CommitmentHeaderLib.CommitmentHeaderQuery",
          "name": "_query",
          "type": "tuple"
        }
      ],
      "name": "markFraudulentBlock",
      "outputs": [],
      "stateMutability": "nonpayable",
      "type": "function"
    },
    {
      "inputs": [
        {
          "components": [
            {
              "internalType": "bytes32",
              "name": "parentHash",
              "type": "bytes32"
            },
            {
              "internalType": "uint256",
              "name": "childIndex",
              "type": "uint256"
            },
            {
              "internalType": "uint256",
              "name": "blockNumber",
              "type": "uint256"
            },
            {
              "components": [
                {
                  "internalType": "uint256",
                  "name": "submittedAt",
                  "type": "uint256"
                },
                {
                  "internalType": "bytes32",
                  "name": "exitsRoot",
                  "type": "bytes32"
                },
                {
                  "internalType": "address",
                  "name": "coinbase",
                  "type": "address"
                },
                {
                  "internalType": "bytes32",
                  "name": "blockHash",
                  "type": "bytes32"
                }
              ],
              "internalType": "struct CommitmentHeaderLib.CommitmentHeader",
              "name": "commitment",
              "type": "tuple"
            }
          ],
          "internalType": "struct CommitmentHeaderLib.CommitmentHeaderQuery",
          "name": "_query",
          "type": "tuple"
        }
      ],
      "name": "confirmPendingBlock",
      "outputs": [],
      "stateMutability": "nonpayable",
      "type": "function"
    },
    {
      "inputs": [
        {
          "components": [
            {
              "internalType": "bytes32",
              "name": "parentHash",
              "type": "bytes32"
            },
            {
              "internalType": "uint256",
              "name": "number",
              "type": "uint256"
            },
            {
              "internalType": "uint256",
              "name": "incomingTransactionsIndex",
              "type": "uint256"
            },
            {
              "internalType": "uint256",
              "name": "incomingTransactionsCount",
              "type": "uint256"
            },
            {
              "internalType": "uint256",
              "name": "transactionsCount",
              "type": "uint256"
            },
            {
              "internalType": "bytes32",
              "name": "transactionsRoot",
              "type": "bytes32"
            },
            {
              "internalType": "bytes32",
              "name": "stateRoot",
              "type": "bytes32"
            },
            {
              "internalType": "bytes32",
              "name": "exitsRoot",
              "type": "bytes32"
            },
            {
              "internalType": "address",
              "name": "coinbase",
              "type": "address"
            },
            {
              "internalType": "uint256",
              "name": "timestamp",
              "type": "uint256"
            }
          ],
          "internalType": "struct ISO_HeaderLib.ISO_Header",
          "name": "header",
          "type": "tuple"
        }
      ],
      "name": "blockHash",
      "outputs": [
        {
          "internalType": "bytes32",
          "name": "",
          "type": "bytes32"
        }
      ],
      "stateMutability": "pure",
      "type": "function"
    }
  ],
  "bytecode": "0x60806040523480156200001157600080fd5b506200001c620000f4565b50604080516101408101825260008082526020808301829052928201819052606082018190526080820181905260a082018190527f4b529be809997a3bb9e6aac629611bfe00c51044f4cb112a8b9b4ac7eab5c19a60c083015260e08201819052610100820181905261012082015290600c90620000a59083906200090c620000c2821b17901c565b8154600181018355600092835260209092209091015550620001ce565b600081604051602001620000d7919062000155565b604051602081830303815290604052805190602001209050919050565b6040805161014081018252600080825260208201819052918101829052606081018290526080810182905260a0810182905260c0810182905260e08101829052610100810182905261012081019190915290565b6001600160a01b03169052565b600061014082019050825182526020830151602083015260408301516040830152606083015160608301526080830151608083015260a083015160a083015260c083015160c083015260e083015160e083015261010080840151620001bd8285018262000148565b505061012092830151919092015290565b6118d780620001de6000396000f3fe60806040526004361061012a5760003560e01c80638da5cb5b116100ab578063ba10aee51161006f578063ba10aee514610329578063c71b9c9514610349578063d492a2ef14610369578063eadca6ff1461037c578063ecadb6861461039c578063f49e1283146103bc5761012a565b80638da5cb5b1461027a57806393c5183b1461029c5780639705f9c1146102c9578063991f6aad146102e95780639e8b1a5f146103095761012a565b806335fa1a6f116100f257806335fa1a6f146101f457806351db906414610214578063522df8361461022757806385754d451461023a5780638947ea9a1461025a5761012a565b80630721307e1461012f5780630b800f48146101515780630ff7b9671461017157806315f9ce81146101a757806324dce362146101c7575b600080fd5b34801561013b57600080fd5b5061014f61014a366004611115565b6103dc565b005b34801561015d57600080fd5b5061014f61016c366004611150565b610412565b34801561017d57600080fd5b5061019161018c3660046110c4565b610480565b60405161019e91906114d4565b60405180910390f35b3480156101b357600080fd5b5061014f6101c236600461123d565b6104a3565b3480156101d357600080fd5b506101e76101e23660046110c4565b61050d565b60405161019e91906113ee565b34801561020057600080fd5b5061014f61020f366004611115565b610575565b61014f6102223660046113aa565b6105a7565b61014f610235366004611115565b61064a565b34801561024657600080fd5b5061014f610255366004611115565b61067d565b34801561026657600080fd5b5061014f610275366004611115565b6106af565b34801561028657600080fd5b5061028f6106e1565b60405161019e91906113da565b3480156102a857600080fd5b506102bc6102b73660046110c4565b6106f0565b60405161019e91906114c9565b3480156102d557600080fd5b506102bc6102e43660046110c4565b610717565b3480156102f557600080fd5b5061014f610304366004611115565b61072f565b34801561031557600080fd5b5061014f61032436600461123d565b610761565b34801561033557600080fd5b506101916103443660046113aa565b61076f565b34801561035557600080fd5b5061014f610364366004611115565b61077a565b61014f6103773660046112cb565b6107ac565b34801561038857600080fd5b506101916103973660046110f4565b6108be565b3480156103a857600080fd5b506102bc6103b736600461123d565b6108eb565b3480156103c857600080fd5b5061014f6103d736600461123d565b6108fd565b60095460405182516001600160a01b0390921691600090819060208601855af43d6000833e806001811461040e573d83fd5b3d83f35b6001546001600160a01b0316156104445760405162461bcd60e51b815260040161043b9061177e565b60405180910390fd5b61046060008d8d8d8d8d8d8d8d8d8d8d8d63ffffffff61093c16565b5050601080546001600160a01b0319163317905550505050505050505050565b600080600c01828154811061049157fe5b90600052602060002001549050919050565b6104b460008263ffffffff610a4516565b506104c660008263ffffffff610bc616565b80604001517ff71bcb63e907b0a47ea99c03a98948a4e160451097b2e245d8bc847f1211b5c082606001516060015160405161050291906114d4565b60405180910390a250565b6000818152600d6020908152604091829020805483518184028101840190945280845260609384939092919083018282801561056857602002820191906000526020600020905b815481526020019060010190808311610554575b5093979650505050505050565b60085460405182516001600160a01b0390921691600090819060208601855af43d6000833e806001811461040e573d83fd5b6105af610f9a565b6105b882610ca6565b82516000908152600d602052604090209091506105d482610cee565b81546001810183556000928352602080842090910191909155838101518451808452600d909252604092839020546060850151935191937fda1ac488aa035adc71ce15baaa2f4cfc02dddb2face87e5150b12a9c2286a1399361063e9390926000190191906114dd565b60405180910390a25050565b60015460405182516001600160a01b0390921691600090819060208601855af43d6000833e80610678573d82fd5b503d81f35b60075460405182516001600160a01b0390921691600090819060208601855af43d6000833e806001811461040e573d83fd5b600a5460405182516001600160a01b0390921691600090819060208601855af43d6000833e806001811461040e573d83fd5b6010546001600160a01b031681565b600c805460009182918490811061070357fe5b906000526020600020015414159050919050565b6000610729818363ffffffff610d0116565b92915050565b60065460405182516001600160a01b0390921691600090819060208601855af43d6000833e806001811461040e573d83fd5b61076c600082610bc6565b50565b60006107298261090c565b60055460405182516001600160a01b0390921691600090819060208601855af43d6000833e806001811461040e573d83fd5b3332146107cb5760405162461bcd60e51b815260040161043b906115e4565b6010546001600160a01b031633146107f55760405162461bcd60e51b815260040161043b90611507565b6107fd610d1b565b61080681610d2d565b6108225760405162461bcd60e51b815260040161043b9061162f565b61082a610f9a565b815161083590610ca6565b8251516000908152600d602052604080822054855151835291209192509061085c83610cee565b815460018101835560009283526020928390200155835190810151905160608401516040517fda1ac488aa035adc71ce15baaa2f4cfc02dddb2face87e5150b12a9c2286a139926108b19290918691906114dd565b60405180910390a2505050565b6000828152600d602052604081208054839081106108d857fe5b9060005260206000200154905092915050565b6000610729818363ffffffff610d5416565b610908600082610d9a565b5050565b60008160405160200161091f91906117e0565b604051602081830303815290604052805190602001209050919050565b60028d01546001600160a01b0316156109675760405162461bcd60e51b815260040161043b906116e5565b60028d0180546001600160a01b03199081166001600160a01b039e8f16179091558d548116998d16999099178d5560018d0180548a169b8d169b909b17909a5560038c0180548916998c169990991790985560048b0180548816968b169690961790955560058a0180548716948a1694909417909355600689018054861692891692909217909155600788018054851691881691909117905560088701805484169187169190911790556009860180548316918616919091179055600a85018054821692851692909217909155600b90930180549093169116179055565b80516000908152600d8301602052604081206060830151610a6590610cee565b81846020015181548110610a7557fe5b906000526020600020015414610a9d5760405162461bcd60e51b815260040161043b90611666565b610aaf84846060015160600151610d01565b15610acc5760405162461bcd60e51b815260040161043b90611747565b826000015184600c01600185604001510381548110610ae757fe5b906000526020600020015414610b0f5760405162461bcd60e51b815260040161043b9061169d565b6040830151600c85015414610b365760405162461bcd60e51b815260040161043b906115a1565b602083015115610b915760005b8360200151811015610b8f576000801b828281548110610b5f57fe5b906000526020600020015414610b875760405162461bcd60e51b815260040161043b90611712565b600101610b43565b505b606083015151610ba090610e33565b610bbc5760405162461bcd60e51b815260040161043b9061156c565b5060019392505050565b80516000908152600d83016020908152604082209083015181548110610be857fe5b906000526020600020018190555080606001516060015182600c01826040015181548110610c1257fe5b9060005260206000200181905550610c31816060015160400151610e49565b6003820154604080830151606084015160200151915163070598e360e41b81526001600160a01b03909316926370598e3092610c709291600401611857565b600060405180830381600087803b158015610c8a57600080fd5b505af1158015610c9e573d6000803e3d6000fd5b505050505050565b610cae610f9a565b60405180608001604052804381526020018360e0015181526020018361010001516001600160a01b03168152602001610ce68461090c565b905292915050565b60008160405160200161091f91906117ac565b6000908152600e9091016020526040902060010154151590565b610d2b610d26610e86565b610e91565b565b6000610d3882610ee8565b80156107295750505161010001516001600160a01b0316331490565b6000610d638260600151610cee565b82516000908152600d8501602090815260409091209084015181548110610d8657fe5b906000526020600020015414905092915050565b80516000908152600d83016020908152604082209083015181548110610dbc57fe5b6000918252602080832091909101829055606084810180518201518452600f8701909252604092839020805460ff191660029081179091559151015191517f99c9efff0684b78043f08af38ed552c7eb27175341050520cf3d3a60f83b26e591610e25916114f3565b60405180910390a292915050565b6000610e3d610f95565b82430310159050919050565b806001600160a01b03166108fc610e5e610e86565b6040518115909202916000818181858888f19350505050158015610908573d6000803e3d6000fd5b662386f26fc1000090565b80341015610eb15760405162461bcd60e51b815260040161043b90611535565b8034111561076c5760405133903483900380156108fc02916000818181858888f19350505050158015610908573d6000803e3d6000fd5b805160a0015160208201516040516340ff34ef60e01b81526000929173__MerkleTreeLib_________________________916340ff34ef91610f2c91600401611432565b60206040518083038186803b158015610f4457600080fd5b505af4158015610f58573d6000803e3d6000fd5b505050506040513d601f19601f82011682018060405250810190610f7c91906110dc565b1480156107295750506020810151519051608001511490565b600190565b60408051608081018252600080825260208201819052918101829052606081019190915290565b80356107298161188c565b600082601f830112610fdc578081fd5b813567ffffffffffffffff811115610ff2578182fd5b611005601f8201601f1916602001611865565b915080825283602082850101111561101c57600080fd5b8060208401602084013760009082016020015292915050565b6000610140808385031215611048578182fd5b61105181611865565b915050813581526020820135602082015260408201356040820152606082013560608201526080820135608082015260a082013560a082015260c082013560c082015260e082013560e08201526101006110ad84828501610fc1565b818301525061012080830135818301525092915050565b6000602082840312156110d5578081fd5b5035919050565b6000602082840312156110ed578081fd5b5051919050565b60008060408385031215611106578081fd5b50508035926020909101359150565b600060208284031215611126578081fd5b813567ffffffffffffffff81111561113c578182fd5b61114884828501610fcc565b949350505050565b6000806000806000806000806000806000806101808d8f031215611172578788fd5b8c3561117d8161188c565b9b5060208d013561118d8161188c565b9a5060408d013561119d8161188c565b995060608d01356111ad8161188c565b985060808d01356111bd8161188c565b975060a08d01356111cd8161188c565b96506111dc8e60c08f01610fc1565b95506111eb8e60e08f01610fc1565b94506111fb8e6101008f01610fc1565b935061120b8e6101208f01610fc1565b925061121b8e6101408f01610fc1565b915061122b8e6101608f01610fc1565b90509295989b509295989b509295989b565b600081830360e081121561124f578182fd5b6112596080611865565b8335815260208401356020820152604084013560408201526080605f1983011215611282578283fd5b61128c6080611865565b9150606084013582526080840135602083015260a08401356112ad8161188c565b604083015260c0939093013560608083019190915283015250919050565b600060208083850312156112dd578182fd5b823567ffffffffffffffff808211156112f4578384fd5b8185016101608188031215611307578485fd5b6113116040611865565b925061131d8782611035565b835261014081013582811115611331578586fd5b80820188601f820112611342578687fd5b8035925083831115611352578687fd5b61135f8687850201611865565b83815286810194509150808601875b84811015611397576113858b898435860101610fcc565b8652948701949087019060010161136e565b5050509383019390935250949350505050565b600061014082840312156113bc578081fd5b6113c68383611035565b9392505050565b6001600160a01b03169052565b6001600160a01b0391909116815260200190565b6020808252825182820181905260009190848201906040850190845b818110156114265783518352928401929184019160010161140a565b50909695505050505050565b6000602080830181845280855180835260408601915060408482028701019250838701855b828110156114bc57878503603f1901845281518051808752885b8181101561148c578281018901518882018a01528801611471565b8181111561149c578989838a0101525b50601f01601f191695909501860194509285019290850190600101611457565b5092979650505050505050565b901515815260200190565b90815260200190565b9283526020830191909152604082015260600190565b602081016003831061150157fe5b91905290565b60208082526014908201527321b0b63632b9103737ba1030b8383937bb32b21760611b604082015260600190565b6020808252601c908201527f496e73756666696369656e742076616c75652072656365697665642e00000000604082015260600190565b6020808252818101527f426c6f636b206e6f7420726561647920746f20626520636f6e6669726d65642e604082015260600190565b60208082526023908201527f426c6f636b20616c726561647920636f6e6669726d656420666f722068656967604082015262343a1760e91b606082015260800190565b6020808252602b908201527f43616c6c6572206d75737420626520616e2065787465726e616c6c79206f776e60408201526a32b21030b1b1b7bab73a1760a91b606082015260800190565b6020808252601d908201527f426c6f636b206661696c656420696e7465677269747920636865636b2e000000604082015260600190565b60208082526018908201527f50656e64696e6720626c6f636b206e6f7420666f756e642e0000000000000000604082015260600190565b60208082526028908201527f426c6f636b20706172656e74206e6f7420696e207468652063616e6f6e696361604082015267361031b430b4b71760c11b606082015260800190565b602080825260139082015272105b1c9958591e481a5b9a5d1a585b1a5e9959606a1b604082015260600190565b6020808252818101527f426c6f636b206e6f74206669727374206368696c64206f6620706172656e742e604082015260600190565b6020808252601d908201527f426c6f636b206861732070656e64696e67206368616c6c656e6765732e000000604082015260600190565b602080825260149082015273416c726561647920696e697469616c697a65642160601b604082015260600190565b81518152602080830151908201526040808301516001600160a01b0316908201526060918201519181019190915260800190565b600061014082019050825182526020830151602083015260408301516040830152606083015160608301526080830151608083015260a083015160a083015260c083015160c083015260e083015160e083015261010080840151611846828501826113cd565b505061012092830151919092015290565b918252602082015260400190565b60405181810167ffffffffffffffff8111828210171561188457600080fd5b604052919050565b6001600160a01b038116811461076c57600080fdfea2646970667358221220007a4cae4e1d6dcbb2baf6e4bb0f5f6dd7203e597534ce53261b190ac9b005bf64736f6c634300060b0033",
  "immutableReferences": {},
  "source": "pragma solidity ^0.6.0;\npragma experimental ABIEncoderV2;\n\nimport \"../peg/ChainPeg.sol\";\nimport \"../relay/ParentRelay.sol\";\nimport { ISO_HeaderLib as Header } from \"../common/blocks/ISO_HeaderLib.sol\";\nimport { ISO_BlockLib as Block } from \"../common/blocks/ISO_BlockLib.sol\";\nimport { BlockQueryLib as BQ } from \"../common/blocks/BlockQueryLib.sol\";\nimport { ChainStateLib as CS } from \"../common/ChainStateLib.sol\";\nimport { CommitmentHeaderLib as CL } from \"../common/blocks/CommitmentHeaderLib.sol\";\n\ncontract MockChainPeg is ChainPeg {\n  ParentRelay parentRelay;\n\n  function putPendingBlock(Header.ISO_Header memory header) public payable {\n    CL.CommitmentHeader memory commitment = header.toCommitment();\n    chainState.pendingBlocks[header.parentHash].push(commitment.commitmentHash());\n    emit BlockSubmitted(\n      header.number,\n      header.parentHash,\n      chainState.pendingBlocks[header.parentHash].length - 1, // this can be more efficient\n      commitment.blockHash\n    );\n  }\n\n  function markFraudulentBlock(CL.CommitmentHeaderQuery memory _query) public {\n    CS.markFraudulentBlock(chainState, _query);\n  }\n\n  function confirmPendingBlock(CL.CommitmentHeaderQuery memory _query) public {\n    CS.confirmBlock(chainState, _query);\n  }\n\n  // function challengeStep(bytes calldata challengeData)\n  // external payable {\n  //   (bool success, bytes memory ret) = chainState.challengeManager.delegatecall(challengeData);\n  //   if (!success) revert(string(ret));\n  //   assembly { return(ret, add(mload(ret), 0x20)) }\n  // }\n\n  function blockHash(Header.ISO_Header memory header)\n  public pure returns (bytes32) {\n    return Header.blockHash(header);\n  }\n\n  /* function getConfirmedBlockhash(uint256 num) public view returns (bytes32) {\n    return chainState.confirmedBlocks[num];\n  } */\n}",
  "sourcePath": "/home/dillon/sparse-iso/sparse-iso/packages/contracts/contracts/mock/MockChainPeg.sol",
  "compiler": {
    "name": "solc",
    "version": "0.6.11+commit.5ef660b1.Emscripten.clang"
  },
  "schemaVersion": "3.2.1",
  "updatedAt": "2020-07-17T23:51:47.652Z",
  "devdoc": {
    "kind": "dev",
    "methods": {},
    "version": 1
  },
  "userdoc": {
    "kind": "user",
    "methods": {},
    "version": 1
  }
}