{
  "contractName": "MockParentRelay",
  "abi": [
    {
      "anonymous": false,
      "inputs": [
        {
          "indexed": false,
          "internalType": "uint256",
          "name": "blockNumber",
          "type": "uint256"
        },
        {
          "indexed": false,
          "internalType": "uint256",
          "name": "otxIndex",
          "type": "uint256"
        },
        {
          "indexed": false,
          "internalType": "bytes32",
          "name": "newExitRoot",
          "type": "bytes32"
        }
      ],
      "name": "ExitTransactionProcessed",
      "type": "event"
    },
    {
      "anonymous": false,
      "inputs": [
        {
          "indexed": true,
          "internalType": "uint256",
          "name": "itxIndex",
          "type": "uint256"
        },
        {
          "components": [
            {
              "internalType": "address",
              "name": "from",
              "type": "address"
            },
            {
              "internalType": "address",
              "name": "to",
              "type": "address"
            },
            {
              "internalType": "uint256",
              "name": "gas",
              "type": "uint256"
            },
            {
              "internalType": "uint256",
              "name": "value",
              "type": "uint256"
            },
            {
              "internalType": "bytes",
              "name": "data",
              "type": "bytes"
            }
          ],
          "indexed": false,
          "internalType": "struct RelayTransactionLib.RelayTransaction",
          "name": "transaction",
          "type": "tuple"
        }
      ],
      "name": "IncomingTransactionQueued",
      "type": "event"
    },
    {
      "inputs": [
        {
          "internalType": "address",
          "name": "to",
          "type": "address"
        },
        {
          "internalType": "uint256",
          "name": "sendGas",
          "type": "uint256"
        },
        {
          "internalType": "bytes",
          "name": "data",
          "type": "bytes"
        }
      ],
      "name": "addTransaction",
      "outputs": [
        {
          "internalType": "uint256",
          "name": "",
          "type": "uint256"
        }
      ],
      "stateMutability": "payable",
      "type": "function"
    },
    {
      "inputs": [],
      "name": "childRelayContract",
      "outputs": [
        {
          "internalType": "address",
          "name": "",
          "type": "address"
        }
      ],
      "stateMutability": "view",
      "type": "function"
    },
    {
      "inputs": [
        {
          "internalType": "address",
          "name": "runtimeCode",
          "type": "address"
        }
      ],
      "name": "deployContract",
      "outputs": [
        {
          "internalType": "uint256",
          "name": "",
          "type": "uint256"
        },
        {
          "internalType": "address",
          "name": "",
          "type": "address"
        }
      ],
      "stateMutability": "payable",
      "type": "function"
    },
    {
      "inputs": [
        {
          "components": [
            {
              "internalType": "address payable",
              "name": "from",
              "type": "address"
            },
            {
              "internalType": "address payable",
              "name": "to",
              "type": "address"
            },
            {
              "internalType": "uint256",
              "name": "gas",
              "type": "uint256"
            },
            {
              "internalType": "uint256",
              "name": "value",
              "type": "uint256"
            },
            {
              "internalType": "bytes",
              "name": "data",
              "type": "bytes"
            },
            {
              "internalType": "uint256",
              "name": "bounty",
              "type": "uint256"
            }
          ],
          "internalType": "struct OutgoingTransactionLib.OutgoingTransaction",
          "name": "_tx",
          "type": "tuple"
        },
        {
          "internalType": "bytes32[]",
          "name": "siblings",
          "type": "bytes32[]"
        },
        {
          "internalType": "uint256",
          "name": "txIndex",
          "type": "uint256"
        },
        {
          "internalType": "uint256",
          "name": "blockNumber",
          "type": "uint256"
        }
      ],
      "name": "executeOutgoingTransaction",
      "outputs": [],
      "stateMutability": "payable",
      "type": "function"
    },
    {
      "inputs": [
        {
          "internalType": "address",
          "name": "from",
          "type": "address"
        },
        {
          "internalType": "uint256",
          "name": "sendGas",
          "type": "uint256"
        },
        {
          "internalType": "bytes",
          "name": "data",
          "type": "bytes"
        }
      ],
      "name": "forwardFromProxy",
      "outputs": [],
      "stateMutability": "payable",
      "type": "function"
    },
    {
      "inputs": [
        {
          "internalType": "uint256",
          "name": "blockNumber",
          "type": "uint256"
        }
      ],
      "name": "getExitsRoot",
      "outputs": [
        {
          "internalType": "bytes32",
          "name": "",
          "type": "bytes32"
        }
      ],
      "stateMutability": "view",
      "type": "function"
    },
    {
      "inputs": [
        {
          "internalType": "uint256",
          "name": "txIndex",
          "type": "uint256"
        }
      ],
      "name": "getTransactionHash",
      "outputs": [
        {
          "internalType": "bytes32",
          "name": "txHash",
          "type": "bytes32"
        }
      ],
      "stateMutability": "view",
      "type": "function"
    },
    {
      "inputs": [
        {
          "internalType": "uint256",
          "name": "start",
          "type": "uint256"
        },
        {
          "internalType": "uint256",
          "name": "maxCount",
          "type": "uint256"
        }
      ],
      "name": "getTransactionHashes",
      "outputs": [
        {
          "internalType": "bytes32[]",
          "name": "_transactionHashes",
          "type": "bytes32[]"
        }
      ],
      "stateMutability": "view",
      "type": "function"
    },
    {
      "inputs": [],
      "name": "getTransactionsCount",
      "outputs": [
        {
          "internalType": "uint256",
          "name": "length",
          "type": "uint256"
        }
      ],
      "stateMutability": "view",
      "type": "function"
    },
    {
      "inputs": [
        {
          "components": [
            {
              "internalType": "address payable",
              "name": "from",
              "type": "address"
            },
            {
              "internalType": "address payable",
              "name": "to",
              "type": "address"
            },
            {
              "internalType": "uint256",
              "name": "gas",
              "type": "uint256"
            },
            {
              "internalType": "uint256",
              "name": "value",
              "type": "uint256"
            },
            {
              "internalType": "bytes",
              "name": "data",
              "type": "bytes"
            },
            {
              "internalType": "uint256",
              "name": "bounty",
              "type": "uint256"
            }
          ],
          "internalType": "struct OutgoingTransactionLib.OutgoingTransaction",
          "name": "_tx",
          "type": "tuple"
        },
        {
          "internalType": "bytes32[]",
          "name": "siblings",
          "type": "bytes32[]"
        },
        {
          "internalType": "uint256",
          "name": "txIndex",
          "type": "uint256"
        },
        {
          "internalType": "uint256",
          "name": "blockNumber",
          "type": "uint256"
        }
      ],
      "name": "hasOutgoingTransaction",
      "outputs": [
        {
          "internalType": "bool",
          "name": "",
          "type": "bool"
        }
      ],
      "stateMutability": "view",
      "type": "function"
    },
    {
      "inputs": [
        {
          "internalType": "address",
          "name": "chainPeg",
          "type": "address"
        },
        {
          "internalType": "address",
          "name": "archiveFactory",
          "type": "address"
        },
        {
          "internalType": "address",
          "name": "childRelayCode",
          "type": "address"
        }
      ],
      "name": "initialize",
      "outputs": [],
      "stateMutability": "payable",
      "type": "function"
    },
    {
      "inputs": [
        {
          "internalType": "uint256",
          "name": "blockNumber",
          "type": "uint256"
        },
        {
          "internalType": "bytes32",
          "name": "exitsRoot",
          "type": "bytes32"
        }
      ],
      "name": "putConfirmedBlock",
      "outputs": [],
      "stateMutability": "nonpayable",
      "type": "function"
    },
    {
      "stateMutability": "payable",
      "type": "receive"
    },
    {
      "inputs": [
        {
          "internalType": "uint256",
          "name": "blockNumber",
          "type": "uint256"
        },
        {
          "components": [
            {
              "internalType": "address payable",
              "name": "from",
              "type": "address"
            },
            {
              "internalType": "address payable",
              "name": "to",
              "type": "address"
            },
            {
              "internalType": "uint256",
              "name": "gas",
              "type": "uint256"
            },
            {
              "internalType": "uint256",
              "name": "value",
              "type": "uint256"
            },
            {
              "internalType": "bytes",
              "name": "data",
              "type": "bytes"
            },
            {
              "internalType": "uint256",
              "name": "bounty",
              "type": "uint256"
            }
          ],
          "internalType": "struct OutgoingTransactionLib.OutgoingTransaction",
          "name": "otx",
          "type": "tuple"
        }
      ],
      "name": "putOutgoingTransaction",
      "outputs": [],
      "stateMutability": "nonpayable",
      "type": "function"
    },
    {
      "inputs": [
        {
          "components": [
            {
              "internalType": "address payable",
              "name": "from",
              "type": "address"
            },
            {
              "internalType": "address payable",
              "name": "to",
              "type": "address"
            },
            {
              "internalType": "uint256",
              "name": "gas",
              "type": "uint256"
            },
            {
              "internalType": "uint256",
              "name": "value",
              "type": "uint256"
            },
            {
              "internalType": "bytes",
              "name": "data",
              "type": "bytes"
            },
            {
              "internalType": "uint256",
              "name": "bounty",
              "type": "uint256"
            }
          ],
          "internalType": "struct OutgoingTransactionLib.OutgoingTransaction",
          "name": "otx",
          "type": "tuple"
        }
      ],
      "name": "encodeOutgoing",
      "outputs": [
        {
          "internalType": "bytes",
          "name": "",
          "type": "bytes"
        }
      ],
      "stateMutability": "pure",
      "type": "function"
    },
    {
      "inputs": [
        {
          "internalType": "address payable",
          "name": "proxy",
          "type": "address"
        },
        {
          "internalType": "address payable",
          "name": "_to",
          "type": "address"
        },
        {
          "internalType": "uint256",
          "name": "_gas",
          "type": "uint256"
        },
        {
          "internalType": "bytes",
          "name": "_data",
          "type": "bytes"
        }
      ],
      "name": "callThroughProxy",
      "outputs": [],
      "stateMutability": "payable",
      "type": "function"
    }
  ],
  "bytecode": "0x608060405234801561001057600080fd5b50611c08806100206000396000f3fe6080604052600436106100ec5760003560e01c80637de567821161008a578063dd99fa6711610059578063dd99fa6714610241578063e471236514610261578063ea5cc3801461028e578063ec096f8d146102bb576100f3565b80637de56782146101c0578063a46b7244146101e0578063a4898fd51461020d578063c0c53b8b1461022e576100f3565b8063578cb8f9116100c6578063578cb8f91461015657806366ee1ecd1461016b5780636b16ff601461017e57806370598e30146101a0576100f3565b806311134384146100f85780632aa342531461012e578063400cbbb814610143576100f3565b366100f357005b600080fd5b34801561010457600080fd5b50610118610113366004611377565b6102ce565b604051610125919061144b565b60405180910390f35b61014161013c366004611155565b61031a565b005b6101416101513660046112ab565b610385565b34801561016257600080fd5b506101186106dd565b610141610179366004611209565b6106e3565b34801561018a57600080fd5b5061019361075a565b6040516101259190611454565b3480156101ac57600080fd5b506101416101bb36600461138f565b610769565b3480156101cc57600080fd5b506101186101db366004611377565b6107a8565b3480156101ec57600080fd5b506102006101fb3660046112ab565b6107bd565b604051610125919061159a565b61022061021b366004611116565b6107ef565b6040516101259291906117d3565b61014161023c3660046111bf565b61092a565b34801561024d57600080fd5b5061014161025c3660046113b0565b610aa9565b34801561026d57600080fd5b5061028161027c366004611278565b610ba4565b60405161012591906115a5565b34801561029a57600080fd5b506102ae6102a936600461138f565b610bb5565b60405161012591906114f6565b6101186102c9366004611209565b610c67565b60035460009082106102fb5760405162461bcd60e51b81526004016102f2906116ad565b60405180910390fd5b6003828154811061030857fe5b90600052602060002001549050919050565b836001600160a01b03166367a30e515a348686866040518663ffffffff1660e01b815260040161034c939291906114b5565b6000604051808303818589803b15801561036557600080fd5b5088f1158015610379573d6000803e3d6000fd5b50505050505050505050565b60008181526005602052604081206001015490806103bd836103a689610d07565b60405180602001604052806000815250888a610d52565b91509150816103de5760405162461bcd60e51b81526004016102f290611727565b866060015134101580156103fa57508660400151613a98015a10155b6104165760405162461bcd60e51b81526004016102f29061163f565b600084815260056020908152604080832060010184905589516001600160a01b03168352600490915290205460ff16156105c55786516001600160a01b03166367a30e515a89606001518a602001518b604001518c608001516040518663ffffffff1660e01b815260040161048d939291906114b5565b6000604051808303818589803b1580156104a657600080fd5b5088f194505050505080156104b9575060015b610583573d8080156104e7576040519150601f19603f3d011682016040523d82523d6000602084013e6104ec565b606091505b506105486040518060a0016040528060006001600160a01b031681526020018a600001516001600160a01b0316815260200161c35081526020018a60600151815260200160405180602001604052806000815250815250610e18565b5060a0880151604051339180156108fc02916000818181858888f19350505050158015610579573d6000803e3d6000fd5b50505050506106d7565b606087015160a088015160405133929190910180156108fc02916000818181858888f193505050501580156105bc573d6000803e3d6000fd5b505050506106d7565b600087602001516001600160a01b0316886040015189606001518a608001516040516105f1919061142f565b600060405180830381858888f193505050503d806000811461062f576040519150601f19603f3d011682016040523d82523d6000602084013e610634565b606091505b5050905080610698576105486040518060a0016040528060006001600160a01b031681526020018a600001516001600160a01b0316815260200161c35081526020018a60600151815260200160405180602001604052806000815250815250610e18565b606088015160a089015160405133929190910180156108fc02916000818181858888f193505050501580156106d1573d6000803e3d6000fd5b50505050505b50505050565b60035490565b3360009081526004602052604090205460ff166107125760405162461bcd60e51b81526004016102f290611676565b61071a610fd0565b506040805160a0810182526001600160a01b03851681523360208201529081018390523460608201526080810182905261075381610e18565b5050505050565b6000546001600160a01b031681565b6001546001600160a01b031633146107935760405162461bcd60e51b81526004016102f2906116f0565b60009182526005602052604090912060010155565b60009081526005602052604090206001015490565b6000818152600560205260408120600101546107e3816107dc88610d07565b8688610ebd565b9150505b949350505050565b600080600060405161080090611011565b604051809103906000f08015801561081c573d6000803e3d6000fd5b506001600160a01b03808216600090815260046020819052604091829020805460ff191660011790556002549151633d699f1f60e01b8152939450911691633d699f1f9161086e9185918991016114dc565b602060405180830381600087803b15801561088857600080fd5b505af115801561089c573d6000803e3d6000fd5b505050506040513d601f19601f820116820180604052508101906108c09190611139565b506108c9610fd0565b6040518060a00160405280836001600160a01b0316815260200160006001600160a01b03168152602001600081526020016000815260200160405180602001604052806000815250815250905061091f81610e18565b935090915050915091565b6001546001600160a01b031615801561094c57506002546001600160a01b0316155b6109685760405162461bcd60e51b81526004016102f290611756565b600180546001600160a01b038086166001600160a01b03199283161790925560028054928516929091169190911790556109a0610f54565b600080546001600160a01b0319166001600160a01b039283161780825582168152600460208190526040808320805460ff1916600117905560025492549051633d699f1f60e01b815292841693633d699f1f93610a049392909116918691016114dc565b602060405180830381600087803b158015610a1e57600080fd5b505af1158015610a32573d6000803e3d6000fd5b505050506040513d601f19601f82011682018060405250810190610a569190611139565b50610a5f610fd0565b506040805160a081018252600080546001600160a01b0316825260208083018290528284018290526060830182905283519081019093528252608081019190915261075381610e18565b6060610ab482610d07565b60408051600180825281830190925291925060609190816020015b6060815260200190600190039081610acf5790505090508181600081518110610af457fe5b6020026020010181905250600073__MerkleTreeLib_________________________6340ff34ef836040518263ffffffff1660e01b8152600401610b38919061153a565b60206040518083038186803b158015610b5057600080fd5b505af4158015610b64573d6000803e3d6000fd5b505050506040513d601f19601f82011682018060405250810190610b889190611260565b6000958652600560205260409095206001019490945550505050565b6060610baf82610d07565b92915050565b60035460609060008484018210610bce57838501610bd0565b815b90508481038067ffffffffffffffff81118015610bec57600080fd5b50604051908082528060200260200182016040528015610c16578160200160208202803683370190505b50935060005b81811015610c5d57600381880181548110610c3357fe5b9060005260206000200154858281518110610c4a57fe5b6020908102919091010152600101610c1c565b5050505092915050565b60006001600160a01b038416610c8f5760405162461bcd60e51b81526004016102f2906115b8565b6000546001600160a01b0385811691161415610cbd5760405162461bcd60e51b81526004016102f2906115fc565b610cc5610fd0565b506040805160a0810182523381526001600160a01b038616602082015290810184905234606082015260808101839052610cfe81610e18565b95945050505050565b6060816000015182602001518360400151846060015185608001518660a00151604051602001610d3c96959493929190611468565b6040516020818303038152906040529050919050565b600080855160201415610d795760208601518015610d77576000889250925050610e0e565b505b50835160208086019190912086519187019190912060005b8451811015610e08576000858281518110610da857fe5b602002602001015190506000610dbe8884610f90565b905060ff8116610de557610dd28483610f97565b9350610dde8583610f97565b9450610dfe565b610def8285610f97565b9350610dfb8286610f97565b94505b5050600101610d91565b50871491505b9550959350505050565b60008082604051602001610e2c9190611784565b60408051601f19818403018152908290528051602090910120600380546001810182556000919091527fc2575a0e9e593c00f959f8c92f12db2869c3395a3b0502d05e2516446f71f85b81018290559092509081907f2a6ad1dd7d53b46233b254e6dbe20ed2ef6bd2a971c79c697e3d244a02cda93290610eae908790611784565b60405180910390a29392505050565b6000835160001415610edf57602084015180610edd5760009150506107e7565b505b8351602085012060005b8351811015610f48576000848281518110610f0057fe5b602002602001015190506000610f168784610f90565b905060ff8116610f3157610f2a8483610f97565b9350610f3e565b610f3b8285610f97565b93505b5050600101610ee9565b50909414949350505050565b600080610f5f610fca565b604051602001610f6f919061144b565b60408051601f19818403018152919052805160209091012060601c92915050565b1c60011690565b60008282604051602001610fac929190611421565b60405160208183030381529060405280519060200120905092915050565b61c35590565b6040518060a0016040528060006001600160a01b0316815260200160006001600160a01b031681526020016000815260200160008152602001606081525090565b61035d8061187683390190565b600082601f83011261102e578081fd5b813567ffffffffffffffff811115611044578182fd5b611057601f8201601f19166020016117ea565b915080825283602082850101111561106e57600080fd5b8060208401602084013760009082016020015292915050565b600060c08284031215611098578081fd5b6110a260c06117ea565b905081356110af8161185d565b815260208201356110bf8161185d565b806020830152506040820135604082015260608201356060820152608082013567ffffffffffffffff8111156110f457600080fd5b6111008482850161101e565b60808301525060a082013560a082015292915050565b600060208284031215611127578081fd5b81356111328161185d565b9392505050565b60006020828403121561114a578081fd5b81516111328161185d565b6000806000806080858703121561116a578283fd5b84356111758161185d565b935060208501356111858161185d565b925060408501359150606085013567ffffffffffffffff8111156111a7578182fd5b6111b38782880161101e565b91505092959194509250565b6000806000606084860312156111d3578283fd5b83356111de8161185d565b925060208401356111ee8161185d565b915060408401356111fe8161185d565b809150509250925092565b60008060006060848603121561121d578283fd5b83356112288161185d565b925060208401359150604084013567ffffffffffffffff81111561124a578182fd5b6112568682870161101e565b9150509250925092565b600060208284031215611271578081fd5b5051919050565b600060208284031215611289578081fd5b813567ffffffffffffffff81111561129f578182fd5b6107e784828501611087565b600080600080608085870312156112c0578384fd5b843567ffffffffffffffff808211156112d7578586fd5b6112e388838901611087565b95506020915081870135818111156112f9578586fd5b87019050601f8101881361130b578485fd5b803561131e61131982611811565b6117ea565b81815283810190838501858402850186018c101561133a578889fd5b8894505b8385101561135c57803583526001949094019391850191850161133e565b50979a97995050505060408601359560600135949350505050565b600060208284031215611388578081fd5b5035919050565b600080604083850312156113a1578182fd5b50508035926020909101359150565b600080604083850312156113c2578182fd5b82359150602083013567ffffffffffffffff8111156113df578182fd5b6113eb85828601611087565b9150509250929050565b6000815180845261140d816020860160208601611831565b601f01601f19169290920160200192915050565b918252602082015260400190565b60008251611441818460208701611831565b9190910192915050565b90815260200190565b6001600160a01b0391909116815260200190565b6001600160a01b03878116825286166020820152604081018590526060810184905260c0608082018190526000906114a2908301856113f5565b90508260a0830152979650505050505050565b600060018060a01b038516825283602083015260606040830152610cfe60608301846113f5565b6001600160a01b0392831681529116602082015260400190565b6020808252825182820181905260009190848201906040850190845b8181101561152e57835183529284019291840191600101611512565b50909695505050505050565b6000602080830181845280855180835260408601915060408482028701019250838701855b8281101561158d57603f1988860301845261157b8583516113f5565b9450928501929085019060010161155f565b5092979650505050505050565b901515815260200190565b60006020825261113260208301846113f5565b60208082526024908201527f4465706f73697420746f206e756c6c2061646472657373206e6f7420616c6c6f6040820152633bb2b21760e11b606082015260800190565b60208082526023908201527f4465706f73697420746f206368696c642072656c6179206e6f7420616c6c6f7760408201526232b21760e91b606082015260800190565b6020808252601a908201527f496e73756666696369656e7420676173206f722076616c75652e000000000000604082015260600190565b6020808252601c908201527f43616c6c6572206e6f7420612070726f787920636f6e74726163742e00000000604082015260600190565b60208082526023908201527f496e76616c6964207175657279202d20696e646578206f7574206f662072616e60408201526233b29760e91b606082015260800190565b60208082526018908201527f4e6f742073656e742066726f6d20636861696e207065672e0000000000000000604082015260600190565b60208082526015908201527424b73b30b634b21036b2b935b63290383937b7b31760591b604082015260600190565b602080825260149082015273416c726561647920696e697469616c697a65642160601b604082015260600190565b60006020825260018060a01b03808451166020840152806020850151166040840152506040830151606083015260608301516080830152608083015160a0808401526107e760c08401826113f5565b9182526001600160a01b0316602082015260400190565b60405181810167ffffffffffffffff8111828210171561180957600080fd5b604052919050565b600067ffffffffffffffff821115611827578081fd5b5060209081020190565b60005b8381101561184c578181015183820152602001611834565b838111156106d75750506000910152565b6001600160a01b038116811461187257600080fd5b5056fe608060405234801561001057600080fd5b50600080546001600160a01b0319163317905561032b806100326000396000f3fe6080604052600436106100225760003560e01c806367a30e51146101b75761011f565b3661011f576000546001600160a01b03166366ee1ecd5a34335a604051806020016040528060008152506040518663ffffffff1660e01b815260040180846001600160a01b03166001600160a01b0316815260200183815260200180602001828103825283818151815260200191508051906020019080838360005b838110156100b657818101518382015260200161009e565b50505050905090810190601f1680156100e35780820380516001836020036101000a031916815260200191505b509450505050506000604051808303818589803b15801561010357600080fd5b5088f1158015610117573d6000803e3d6000fd5b505050505050005b6000546001600160a01b03166366ee1ecd5a34335a6000366040518763ffffffff1660e01b815260040180856001600160a01b03166001600160a01b03168152602001848152602001806020018281038252848482818152602001925080828437600081840152601f19601f820116905080830192505050955050505050506000604051808303818589803b15801561010357600080fd5b610272600480360360608110156101cd57600080fd5b6001600160a01b03823516916020810135918101906060810160408201356401000000008111156101fd57600080fd5b82018360208201111561020f57600080fd5b8035906020019184600183028401116401000000008311171561023157600080fd5b91908080601f016020809104026020016040519081016040528093929190818152602001838380828437600092019190915250929550610274945050505050565b005b6000546001600160a01b031633146102d3576040805162461bcd60e51b815260206004820152601860248201527f43616c6c6572206e6f7420706172656e742072656c61792e0000000000000000604482015290519081900360640190fd5b600080825160208401348787f16040513d6000823e816102f1573d81fd5b3d81f3fea26469706673582212201aa4d4ea328589aedb2ba4ab7b25a3ebdb26f36ee320f749b75b6be1830a1e8164736f6c634300060b0033a2646970667358221220c30a739080e767e2a5c1bee8f43aff9cb7d995a14abf0b33ae901b0693c9f19664736f6c634300060b0033",
  "immutableReferences": {},
  "source": "pragma solidity ^0.6.0;\npragma experimental ABIEncoderV2;\n\nimport \"../relay/ParentRelay.sol\";\nimport { MerkleTreeLib as MerkleTree } from \"../common/rollup/MerkleTreeLib.sol\";\nimport { OutgoingTransactionLib as OTL } from \"../common/transactions/OutgoingTransactionLib.sol\";\n\ncontract MockParentRelay is ParentRelay {\n\n  function putOutgoingTransaction(uint256 blockNumber, OTL.OutgoingTransaction memory otx) public {\n    bytes memory exit = OTL.toBytes(otx);\n    bytes[] memory exits = new bytes[](1);\n    exits[0] = exit;\n    bytes32 exitsRoot = MerkleTree.getMerkleRoot(exits);\n    confirmedExitRoots[blockNumber].exitsRoot = exitsRoot;\n  }\n\n  function encodeOutgoing(OTL.OutgoingTransaction memory otx) public pure returns (bytes memory) {\n    return OTL.toBytes(otx);\n  }\n\n  function callThroughProxy(address payable proxy, address payable _to, uint256 _gas, bytes memory _data) public payable {\n    IProxy(proxy).executeOutgoingTransaction{gas: gasleft(), value: msg.value}(_to, _gas, _data);\n  }\n}",
  "sourcePath": "/home/dillon/sparse-iso/sparse-iso/packages/contracts/contracts/mock/MockParentRelay.sol",
  "compiler": {
    "name": "solc",
    "version": "0.6.11+commit.5ef660b1.Emscripten.clang"
  },
  "schemaVersion": "3.2.1",
  "updatedAt": "2020-07-17T23:51:47.653Z",
  "devdoc": {
    "kind": "dev",
    "methods": {
      "addTransaction(address,uint256,bytes)": {
        "details": "addTransaction",
        "params": {
          "data": "The data to send in the incoming transaction.",
          "sendGas": "Gas to send with the transaction.",
          "to": "Recipient address."
        },
        "returns": {
          "_0": "Index of the transaction in the incoming transactions array for this block."
        }
      },
      "forwardFromProxy(address,uint256,bytes)": {
        "details": "forwardFromProxy",
        "params": {
          "data": "The data to send in the incoming transaction.",
          "from": "The address that called the contract proxy.",
          "sendGas": "The amount of gas to send in the incoming transaction."
        }
      }
    },
    "version": 1
  },
  "userdoc": {
    "kind": "user",
    "methods": {
      "addTransaction(address,uint256,bytes)": {
        "notice": "External function for recording a transaction for the child chain.         Does not allow null address as the receiver."
      },
      "forwardFromProxy(address,uint256,bytes)": {
        "notice": "Adds an incoming transaction from a contract proxy.         Uses the from address provided by the contract proxy and uses the caller address as the to address.         Allows transactions sent from contract proxies to keep the caller address."
      }
    },
    "version": 1
  }
}