{
  "contractName": "ParentRelay",
  "abi": [
    {
      "anonymous": false,
      "inputs": [
        {
          "indexed": false,
          "internalType": "uint256",
          "name": "blockNumber",
          "type": "uint256"
        },
        {
          "indexed": false,
          "internalType": "uint256",
          "name": "otxIndex",
          "type": "uint256"
        },
        {
          "indexed": false,
          "internalType": "bytes32",
          "name": "newExitRoot",
          "type": "bytes32"
        }
      ],
      "name": "ExitTransactionProcessed",
      "type": "event"
    },
    {
      "anonymous": false,
      "inputs": [
        {
          "indexed": true,
          "internalType": "uint256",
          "name": "itxIndex",
          "type": "uint256"
        },
        {
          "components": [
            {
              "internalType": "address",
              "name": "from",
              "type": "address"
            },
            {
              "internalType": "address",
              "name": "to",
              "type": "address"
            },
            {
              "internalType": "uint256",
              "name": "gas",
              "type": "uint256"
            },
            {
              "internalType": "uint256",
              "name": "value",
              "type": "uint256"
            },
            {
              "internalType": "bytes",
              "name": "data",
              "type": "bytes"
            }
          ],
          "indexed": false,
          "internalType": "struct RelayTransactionLib.RelayTransaction",
          "name": "transaction",
          "type": "tuple"
        }
      ],
      "name": "IncomingTransactionQueued",
      "type": "event"
    },
    {
      "inputs": [],
      "name": "childRelayContract",
      "outputs": [
        {
          "internalType": "address",
          "name": "",
          "type": "address"
        }
      ],
      "stateMutability": "view",
      "type": "function"
    },
    {
      "stateMutability": "payable",
      "type": "receive"
    },
    {
      "inputs": [
        {
          "internalType": "address",
          "name": "chainPeg",
          "type": "address"
        },
        {
          "internalType": "address",
          "name": "archiveFactory",
          "type": "address"
        },
        {
          "internalType": "address",
          "name": "childRelayCode",
          "type": "address"
        }
      ],
      "name": "initialize",
      "outputs": [],
      "stateMutability": "payable",
      "type": "function"
    },
    {
      "inputs": [
        {
          "internalType": "uint256",
          "name": "txIndex",
          "type": "uint256"
        }
      ],
      "name": "getTransactionHash",
      "outputs": [
        {
          "internalType": "bytes32",
          "name": "txHash",
          "type": "bytes32"
        }
      ],
      "stateMutability": "view",
      "type": "function"
    },
    {
      "inputs": [],
      "name": "getTransactionsCount",
      "outputs": [
        {
          "internalType": "uint256",
          "name": "length",
          "type": "uint256"
        }
      ],
      "stateMutability": "view",
      "type": "function"
    },
    {
      "inputs": [
        {
          "internalType": "uint256",
          "name": "start",
          "type": "uint256"
        },
        {
          "internalType": "uint256",
          "name": "maxCount",
          "type": "uint256"
        }
      ],
      "name": "getTransactionHashes",
      "outputs": [
        {
          "internalType": "bytes32[]",
          "name": "_transactionHashes",
          "type": "bytes32[]"
        }
      ],
      "stateMutability": "view",
      "type": "function"
    },
    {
      "inputs": [
        {
          "components": [
            {
              "internalType": "address payable",
              "name": "from",
              "type": "address"
            },
            {
              "internalType": "address payable",
              "name": "to",
              "type": "address"
            },
            {
              "internalType": "uint256",
              "name": "gas",
              "type": "uint256"
            },
            {
              "internalType": "uint256",
              "name": "value",
              "type": "uint256"
            },
            {
              "internalType": "bytes",
              "name": "data",
              "type": "bytes"
            },
            {
              "internalType": "uint256",
              "name": "bounty",
              "type": "uint256"
            }
          ],
          "internalType": "struct OutgoingTransactionLib.OutgoingTransaction",
          "name": "_tx",
          "type": "tuple"
        },
        {
          "internalType": "bytes32[]",
          "name": "siblings",
          "type": "bytes32[]"
        },
        {
          "internalType": "uint256",
          "name": "txIndex",
          "type": "uint256"
        },
        {
          "internalType": "uint256",
          "name": "blockNumber",
          "type": "uint256"
        }
      ],
      "name": "hasOutgoingTransaction",
      "outputs": [
        {
          "internalType": "bool",
          "name": "",
          "type": "bool"
        }
      ],
      "stateMutability": "view",
      "type": "function"
    },
    {
      "inputs": [
        {
          "internalType": "uint256",
          "name": "blockNumber",
          "type": "uint256"
        }
      ],
      "name": "getExitsRoot",
      "outputs": [
        {
          "internalType": "bytes32",
          "name": "",
          "type": "bytes32"
        }
      ],
      "stateMutability": "view",
      "type": "function"
    },
    {
      "inputs": [
        {
          "internalType": "uint256",
          "name": "blockNumber",
          "type": "uint256"
        },
        {
          "internalType": "bytes32",
          "name": "exitsRoot",
          "type": "bytes32"
        }
      ],
      "name": "putConfirmedBlock",
      "outputs": [],
      "stateMutability": "nonpayable",
      "type": "function"
    },
    {
      "inputs": [
        {
          "internalType": "address",
          "name": "to",
          "type": "address"
        },
        {
          "internalType": "uint256",
          "name": "sendGas",
          "type": "uint256"
        },
        {
          "internalType": "bytes",
          "name": "data",
          "type": "bytes"
        }
      ],
      "name": "addTransaction",
      "outputs": [
        {
          "internalType": "uint256",
          "name": "",
          "type": "uint256"
        }
      ],
      "stateMutability": "payable",
      "type": "function"
    },
    {
      "inputs": [
        {
          "internalType": "address",
          "name": "runtimeCode",
          "type": "address"
        }
      ],
      "name": "deployContract",
      "outputs": [
        {
          "internalType": "uint256",
          "name": "",
          "type": "uint256"
        },
        {
          "internalType": "address",
          "name": "",
          "type": "address"
        }
      ],
      "stateMutability": "payable",
      "type": "function"
    },
    {
      "inputs": [
        {
          "internalType": "address",
          "name": "from",
          "type": "address"
        },
        {
          "internalType": "uint256",
          "name": "sendGas",
          "type": "uint256"
        },
        {
          "internalType": "bytes",
          "name": "data",
          "type": "bytes"
        }
      ],
      "name": "forwardFromProxy",
      "outputs": [],
      "stateMutability": "payable",
      "type": "function"
    },
    {
      "inputs": [
        {
          "components": [
            {
              "internalType": "address payable",
              "name": "from",
              "type": "address"
            },
            {
              "internalType": "address payable",
              "name": "to",
              "type": "address"
            },
            {
              "internalType": "uint256",
              "name": "gas",
              "type": "uint256"
            },
            {
              "internalType": "uint256",
              "name": "value",
              "type": "uint256"
            },
            {
              "internalType": "bytes",
              "name": "data",
              "type": "bytes"
            },
            {
              "internalType": "uint256",
              "name": "bounty",
              "type": "uint256"
            }
          ],
          "internalType": "struct OutgoingTransactionLib.OutgoingTransaction",
          "name": "_tx",
          "type": "tuple"
        },
        {
          "internalType": "bytes32[]",
          "name": "siblings",
          "type": "bytes32[]"
        },
        {
          "internalType": "uint256",
          "name": "txIndex",
          "type": "uint256"
        },
        {
          "internalType": "uint256",
          "name": "blockNumber",
          "type": "uint256"
        }
      ],
      "name": "executeOutgoingTransaction",
      "outputs": [],
      "stateMutability": "payable",
      "type": "function"
    }
  ],
  "bytecode": "0x608060405234801561001057600080fd5b5061186e806100206000396000f3fe6080604052600436106100ab5760003560e01c80637de56782116100645780637de567821461016c578063a46b72441461018c578063a4898fd5146101b9578063c0c53b8b146101da578063ea5cc380146101ed578063ec096f8d1461021a576100b2565b806311134384146100b7578063400cbbb8146100ed578063578cb8f91461010257806366ee1ecd146101175780636b16ff601461012a57806370598e301461014c576100b2565b366100b257005b600080fd5b3480156100c357600080fd5b506100d76100d23660046110b5565b61022d565b6040516100e49190611144565b60405180910390f35b6101006100fb366004610fcf565b610279565b005b34801561010e57600080fd5b506100d76105d1565b610100610125366004610f78565b6105d7565b34801561013657600080fd5b5061013f61064e565b6040516100e4919061114d565b34801561015857600080fd5b506101006101673660046110cd565b61065d565b34801561017857600080fd5b506100d76101873660046110b5565b61069c565b34801561019857600080fd5b506101ac6101a7366004610fcf565b6106b1565b6040516100e49190611233565b6101cc6101c7366004610eef565b6106e3565b6040516100e4929190611459565b6101006101e8366004610f2e565b61081e565b3480156101f957600080fd5b5061020d6102083660046110cd565b61099d565b6040516100e491906111ef565b6100d7610228366004610f78565b610a4f565b600354600090821061025a5760405162461bcd60e51b815260040161025190611333565b60405180910390fd5b6003828154811061026757fe5b90600052602060002001549050919050565b60008181526005602052604081206001015490806102b18361029a89610aef565b60405180602001604052806000815250888a610b3a565b91509150816102d25760405162461bcd60e51b8152600401610251906113ad565b866060015134101580156102ee57508660400151613a98015a10155b61030a5760405162461bcd60e51b8152600401610251906112c5565b600084815260056020908152604080832060010184905589516001600160a01b03168352600490915290205460ff16156104b95786516001600160a01b03166367a30e515a89606001518a602001518b604001518c608001516040518663ffffffff1660e01b8152600401610381939291906111ae565b6000604051808303818589803b15801561039a57600080fd5b5088f194505050505080156103ad575060015b610477573d8080156103db576040519150601f19603f3d011682016040523d82523d6000602084013e6103e0565b606091505b5061043c6040518060a0016040528060006001600160a01b031681526020018a600001516001600160a01b0316815260200161c35081526020018a60600151815260200160405180602001604052806000815250815250610c00565b5060a0880151604051339180156108fc02916000818181858888f1935050505015801561046d573d6000803e3d6000fd5b50505050506105cb565b606087015160a088015160405133929190910180156108fc02916000818181858888f193505050501580156104b0573d6000803e3d6000fd5b505050506105cb565b600087602001516001600160a01b0316886040015189606001518a608001516040516104e59190611128565b600060405180830381858888f193505050503d8060008114610523576040519150601f19603f3d011682016040523d82523d6000602084013e610528565b606091505b505090508061058c5761043c6040518060a0016040528060006001600160a01b031681526020018a600001516001600160a01b0316815260200161c35081526020018a60600151815260200160405180602001604052806000815250815250610c00565b606088015160a089015160405133929190910180156108fc02916000818181858888f193505050501580156105c5573d6000803e3d6000fd5b50505050505b50505050565b60035490565b3360009081526004602052604090205460ff166106065760405162461bcd60e51b8152600401610251906112fc565b61060e610db8565b506040805160a0810182526001600160a01b03851681523360208201529081018390523460608201526080810182905261064781610c00565b5050505050565b6000546001600160a01b031681565b6001546001600160a01b031633146106875760405162461bcd60e51b815260040161025190611376565b60009182526005602052604090912060010155565b60009081526005602052604090206001015490565b6000818152600560205260408120600101546106d7816106d088610aef565b8688610ca5565b9150505b949350505050565b60008060006040516106f490610df9565b604051809103906000f080158015610710573d6000803e3d6000fd5b506001600160a01b03808216600090815260046020819052604091829020805460ff191660011790556002549151633d699f1f60e01b8152939450911691633d699f1f916107629185918991016111d5565b602060405180830381600087803b15801561077c57600080fd5b505af1158015610790573d6000803e3d6000fd5b505050506040513d601f19601f820116820180604052508101906107b49190610f12565b506107bd610db8565b6040518060a00160405280836001600160a01b0316815260200160006001600160a01b03168152602001600081526020016000815260200160405180602001604052806000815250815250905061081381610c00565b935090915050915091565b6001546001600160a01b031615801561084057506002546001600160a01b0316155b61085c5760405162461bcd60e51b8152600401610251906113dc565b600180546001600160a01b038086166001600160a01b0319928316179092556002805492851692909116919091179055610894610d3c565b600080546001600160a01b0319166001600160a01b039283161780825582168152600460208190526040808320805460ff1916600117905560025492549051633d699f1f60e01b815292841693633d699f1f936108f89392909116918691016111d5565b602060405180830381600087803b15801561091257600080fd5b505af1158015610926573d6000803e3d6000fd5b505050506040513d601f19601f8201168201806040525081019061094a9190610f12565b50610953610db8565b506040805160a081018252600080546001600160a01b0316825260208083018290528284018290526060830182905283519081019093528252608081019190915261064781610c00565b600354606090600084840182106109b6578385016109b8565b815b90508481038067ffffffffffffffff811180156109d457600080fd5b506040519080825280602002602001820160405280156109fe578160200160208202803683370190505b50935060005b81811015610a4557600381880181548110610a1b57fe5b9060005260206000200154858281518110610a3257fe5b6020908102919091010152600101610a04565b5050505092915050565b60006001600160a01b038416610a775760405162461bcd60e51b81526004016102519061123e565b6000546001600160a01b0385811691161415610aa55760405162461bcd60e51b815260040161025190611282565b610aad610db8565b506040805160a0810182523381526001600160a01b038616602082015290810184905234606082015260808101839052610ae681610c00565b95945050505050565b6060816000015182602001518360400151846060015185608001518660a00151604051602001610b2496959493929190611161565b6040516020818303038152906040529050919050565b600080855160201415610b615760208601518015610b5f576000889250925050610bf6565b505b50835160208086019190912086519187019190912060005b8451811015610bf0576000858281518110610b9057fe5b602002602001015190506000610ba68884610d78565b905060ff8116610bcd57610bba8483610d7f565b9350610bc68583610d7f565b9450610be6565b610bd78285610d7f565b9350610be38286610d7f565b94505b5050600101610b79565b50871491505b9550959350505050565b60008082604051602001610c14919061140a565b60408051601f19818403018152908290528051602090910120600380546001810182556000919091527fc2575a0e9e593c00f959f8c92f12db2869c3395a3b0502d05e2516446f71f85b81018290559092509081907f2a6ad1dd7d53b46233b254e6dbe20ed2ef6bd2a971c79c697e3d244a02cda93290610c9690879061140a565b60405180910390a29392505050565b6000835160001415610cc757602084015180610cc55760009150506106db565b505b8351602085012060005b8351811015610d30576000848281518110610ce857fe5b602002602001015190506000610cfe8784610d78565b905060ff8116610d1957610d128483610d7f565b9350610d26565b610d238285610d7f565b93505b5050600101610cd1565b50909414949350505050565b600080610d47610db2565b604051602001610d579190611144565b60408051601f19818403018152919052805160209091012060601c92915050565b1c60011690565b60008282604051602001610d9492919061111a565b60405160208183030381529060405280519060200120905092915050565b61c35590565b6040518060a0016040528060006001600160a01b0316815260200160006001600160a01b031681526020016000815260200160008152602001606081525090565b61035d806114dc83390190565b600082601f830112610e16578081fd5b813567ffffffffffffffff811115610e2c578182fd5b6020808202610e3c828201611470565b83815293508184018583018287018401881015610e5857600080fd5b600092505b84831015610e7b578035825260019290920191908301908301610e5d565b505050505092915050565b600082601f830112610e96578081fd5b813567ffffffffffffffff811115610eac578182fd5b610ebf601f8201601f1916602001611470565b9150808252836020828501011115610ed657600080fd5b8060208401602084013760009082016020015292915050565b600060208284031215610f00578081fd5b8135610f0b816114c3565b9392505050565b600060208284031215610f23578081fd5b8151610f0b816114c3565b600080600060608486031215610f42578182fd5b8335610f4d816114c3565b92506020840135610f5d816114c3565b91506040840135610f6d816114c3565b809150509250925092565b600080600060608486031215610f8c578283fd5b8335610f97816114c3565b925060208401359150604084013567ffffffffffffffff811115610fb9578182fd5b610fc586828701610e86565b9150509250925092565b60008060008060808587031215610fe4578081fd5b843567ffffffffffffffff80821115610ffb578283fd5b81870160c0818a03121561100d578384fd5b61101760c0611470565b92508035611024816114c3565b83526020810135611034816114c3565b806020850152506040810135604084015260608101356060840152608081013582811115611060578485fd5b61106c8a828401610e86565b60808501525060a0908101359083015290945060208601359080821115611091578283fd5b5061109e87828801610e06565b949794965050505060408301359260600135919050565b6000602082840312156110c6578081fd5b5035919050565b600080604083850312156110df578182fd5b50508035926020909101359150565b60008151808452611106816020860160208601611497565b601f01601f19169290920160200192915050565b918252602082015260400190565b6000825161113a818460208701611497565b9190910192915050565b90815260200190565b6001600160a01b0391909116815260200190565b6001600160a01b03878116825286166020820152604081018590526060810184905260c06080820181905260009061119b908301856110ee565b90508260a0830152979650505050505050565b600060018060a01b038516825283602083015260606040830152610ae660608301846110ee565b6001600160a01b0392831681529116602082015260400190565b6020808252825182820181905260009190848201906040850190845b818110156112275783518352928401929184019160010161120b565b50909695505050505050565b901515815260200190565b60208082526024908201527f4465706f73697420746f206e756c6c2061646472657373206e6f7420616c6c6f6040820152633bb2b21760e11b606082015260800190565b60208082526023908201527f4465706f73697420746f206368696c642072656c6179206e6f7420616c6c6f7760408201526232b21760e91b606082015260800190565b6020808252601a908201527f496e73756666696369656e7420676173206f722076616c75652e000000000000604082015260600190565b6020808252601c908201527f43616c6c6572206e6f7420612070726f787920636f6e74726163742e00000000604082015260600190565b60208082526023908201527f496e76616c6964207175657279202d20696e646578206f7574206f662072616e60408201526233b29760e91b606082015260800190565b60208082526018908201527f4e6f742073656e742066726f6d20636861696e207065672e0000000000000000604082015260600190565b60208082526015908201527424b73b30b634b21036b2b935b63290383937b7b31760591b604082015260600190565b602080825260149082015273416c726561647920696e697469616c697a65642160601b604082015260600190565b60006020825260018060a01b03808451166020840152806020850151166040840152506040830151606083015260608301516080830152608083015160a0808401526106db60c08401826110ee565b9182526001600160a01b0316602082015260400190565b60405181810167ffffffffffffffff8111828210171561148f57600080fd5b604052919050565b60005b838110156114b257818101518382015260200161149a565b838111156105cb5750506000910152565b6001600160a01b03811681146114d857600080fd5b5056fe608060405234801561001057600080fd5b50600080546001600160a01b0319163317905561032b806100326000396000f3fe6080604052600436106100225760003560e01c806367a30e51146101b75761011f565b3661011f576000546001600160a01b03166366ee1ecd5a34335a604051806020016040528060008152506040518663ffffffff1660e01b815260040180846001600160a01b03166001600160a01b0316815260200183815260200180602001828103825283818151815260200191508051906020019080838360005b838110156100b657818101518382015260200161009e565b50505050905090810190601f1680156100e35780820380516001836020036101000a031916815260200191505b509450505050506000604051808303818589803b15801561010357600080fd5b5088f1158015610117573d6000803e3d6000fd5b505050505050005b6000546001600160a01b03166366ee1ecd5a34335a6000366040518763ffffffff1660e01b815260040180856001600160a01b03166001600160a01b03168152602001848152602001806020018281038252848482818152602001925080828437600081840152601f19601f820116905080830192505050955050505050506000604051808303818589803b15801561010357600080fd5b610272600480360360608110156101cd57600080fd5b6001600160a01b03823516916020810135918101906060810160408201356401000000008111156101fd57600080fd5b82018360208201111561020f57600080fd5b8035906020019184600183028401116401000000008311171561023157600080fd5b91908080601f016020809104026020016040519081016040528093929190818152602001838380828437600092019190915250929550610274945050505050565b005b6000546001600160a01b031633146102d3576040805162461bcd60e51b815260206004820152601860248201527f43616c6c6572206e6f7420706172656e742072656c61792e0000000000000000604482015290519081900360640190fd5b600080825160208401348787f16040513d6000823e816102f1573d81fd5b3d81f3fea26469706673582212201aa4d4ea328589aedb2ba4ab7b25a3ebdb26f36ee320f749b75b6be1830a1e8164736f6c634300060b0033a264697066735822122038b9d014809bae33ec772deebbba01bfa887dccaacd69c05cc4bffb5e80da90b64736f6c634300060b0033",
  "immutableReferences": {},
  "source": "pragma solidity ^0.6.0;\npragma experimental ABIEncoderV2;\n\nimport { RelayTransactionLib as RTL } from \"../common/transactions/RelayTransactionLib.sol\";\nimport { OutgoingTransactionLib as OTL } from \"../common/transactions/OutgoingTransactionLib.sol\";\nimport { MerkleProofLib as Merkle } from \"../common/rollup/MerkleProofLib.sol\";\nimport { ConfigLib as Config } from \"../common/config/ConfigLib.sol\";\nimport { IContractProxy as IProxy } from \"./IContractProxy.sol\";\nimport \"./ArchiveFactory.sol\";\nimport \"./ContractProxy.sol\";\n\ncontract ParentRelay {\n  /**\n   * @notice Currently confirmedExitRoots is only used for the actual roots,\n   * but we have it store the gas price for when we implement that in the future.\n   * If this is determined to be a better approach by the time of production release,\n   * remove the BlockExitData struct.\n  */\n  struct BlockExitData {\n    uint256 exitGasPrice;\n    bytes32 exitsRoot;\n  }\n\n  address public childRelayContract;\n  address internal _chainPeg;\n  ArchiveFactory internal _archiveFactory;\n  bytes32[] internal transactionHashes;\n  mapping(address => bool) internal deployedContracts;\n  mapping(uint256 => BlockExitData) internal confirmedExitRoots;\n\n  event IncomingTransactionQueued(uint256 indexed itxIndex, RTL.RelayTransaction transaction);\n  event ExitTransactionProcessed(uint256 blockNumber, uint256 otxIndex, bytes32 newExitRoot);\n\n\n  function initialize(address chainPeg, address archiveFactory, address childRelayCode) public payable {\n    require(_chainPeg == address(0) && address(_archiveFactory) == address(0), \"Already initialized!\");\n    _chainPeg = chainPeg;\n    _archiveFactory = ArchiveFactory(archiveFactory);\n    childRelayContract = Config.childRelayAddress();\n    /* Temporary work-around to ensure the child relay has contract code */\n    deployedContracts[childRelayContract] = true;\n    _archiveFactory.archiveContract(childRelayContract, childRelayCode);\n    RTL.RelayTransaction memory transaction = RTL.RelayTransaction(\n      childRelayContract,\n      address(0),\n      uint256(0),\n      uint256(0),\n      bytes(\"\")\n    );\n    _addTransaction(transaction);\n  }\n\n  /**\n   * @dev _addTransaction\n   * @notice Internal function for recording a transaction for the child chain.\n   *         Adds the hash of the transaction to the incoming transactions array.\n   *         Emits a TransactionSent event.\n   * @param transaction Transaction struct with the data to be processed by the child chain.\n   * @return Index of the transaction in the incoming transactions array for this block.\n   */\n  function _addTransaction(RTL.RelayTransaction memory transaction) internal returns (uint256) {\n    bytes32 txHash = keccak256(abi.encode(transaction));\n    uint256 transactionIndex = transactionHashes.length;\n    transactionHashes.push(txHash);\n    emit IncomingTransactionQueued(transactionIndex, transaction);\n    return transactionIndex;\n  }\n\n  /* <-- Query Functions --> */\n  function getTransactionHash(uint256 txIndex) external view returns (bytes32 txHash) {\n    require(transactionHashes.length > txIndex, \"Invalid query - index out of range.\");\n    return transactionHashes[txIndex];\n  }\n\n  function getTransactionsCount() external view returns(uint256 length) {\n    length = transactionHashes.length;\n  }\n\n  function getTransactionHashes(uint256 start, uint256 maxCount)\n  external view returns(bytes32[] memory _transactionHashes) {\n    uint256 len = transactionHashes.length;\n    uint256 stop = (start+maxCount) > len ? len : (start+maxCount);\n    uint256 count = stop - start;\n    _transactionHashes = new bytes32[](count);\n    for (uint256 i = 0; i < count; i++) _transactionHashes[i] = transactionHashes[start + i];\n  }\n\n  function hasOutgoingTransaction(\n    OTL.OutgoingTransaction memory _tx,\n    bytes32[] memory siblings,\n    uint256 txIndex,\n    uint256 blockNumber\n  ) public view returns (bool) {\n    bytes32 exitsRoot = confirmedExitRoots[blockNumber].exitsRoot;\n    return Merkle.verify(exitsRoot, OTL.toBytes(_tx), txIndex, siblings);\n  }\n\n  function getExitsRoot(uint256 blockNumber) external view returns (bytes32) {\n    return confirmedExitRoots[blockNumber].exitsRoot;\n  }\n\n  /* <-- Action Functions --> */\n  function putConfirmedBlock(uint256 blockNumber, bytes32 exitsRoot) external {\n    require(msg.sender == _chainPeg, \"Not sent from chain peg.\");\n    confirmedExitRoots[blockNumber].exitsRoot = exitsRoot;\n  }\n\n  /**\n   * @dev addTransaction\n   * @notice External function for recording a transaction for the child chain.\n   *         Does not allow null address as the receiver.\n   * @param to Recipient address.\n   * @param sendGas Gas to send with the transaction.\n   * @param data The data to send in the incoming transaction.\n   * @return Index of the transaction in the incoming transactions array for this block.\n   */\n  function addTransaction(address to, uint256 sendGas, bytes memory data)\n  public payable returns (uint256) {\n    /* Disallow targetting 0 address - required for deployment logic */\n    require(to != address(0), \"Deposit to null address not allowed.\");\n    require(\n      to != childRelayContract,\n      \"Deposit to child relay not allowed.\"\n    );\n    RTL.RelayTransaction memory transaction = RTL.RelayTransaction(\n      msg.sender,\n      to,\n      sendGas,\n      msg.value,\n      data\n    );\n    return _addTransaction(transaction);\n  }\n\n  function deployContract(address runtimeCode) public payable returns (uint256, address) {\n    address proxyAddress = address(new ContractProxy());\n    deployedContracts[proxyAddress] = true;\n    _archiveFactory.archiveContract(proxyAddress, runtimeCode);\n    RTL.RelayTransaction memory transaction = RTL.RelayTransaction(\n      proxyAddress,\n      address(0),\n      uint256(0),\n      uint256(0),\n      bytes(\"\")\n    );\n    return (_addTransaction(transaction), proxyAddress);\n  }\n\n  /**\n   * @dev forwardFromProxy\n   * @notice Adds an incoming transaction from a contract proxy.\n   *         Uses the from address provided by the contract proxy and uses the caller address as the to address.\n   *         Allows transactions sent from contract proxies to keep the caller address.\n   * @param from The address that called the contract proxy.\n   * @param sendGas The amount of gas to send in the incoming transaction.\n   * @param data The data to send in the incoming transaction.\n   */\n  function forwardFromProxy(address from, uint256 sendGas, bytes memory data) public payable {\n    require(deployedContracts[msg.sender], \"Caller not a proxy contract.\");\n    RTL.RelayTransaction memory transaction = RTL.RelayTransaction(\n      from,\n      msg.sender,\n      sendGas,\n      msg.value,\n      data\n    );\n    _addTransaction(transaction);\n  }\n\n  function executeOutgoingTransaction(\n    OTL.OutgoingTransaction memory _tx,\n    bytes32[] memory siblings,\n    uint256 txIndex,\n    uint256 blockNumber\n  ) public payable {\n    bytes32 exitsRoot = confirmedExitRoots[blockNumber].exitsRoot;\n    (bool valid, bytes32 newRoot) = Merkle.verifyAndUpdate(\n      exitsRoot,\n      OTL.toBytes(_tx),\n      bytes(\"\"),\n      txIndex,\n      siblings\n    );\n    require(valid, \"Invalid merkle proof.\");\n    require(\n      msg.value >= _tx.value &&\n      gasleft() >= _tx.gas + 15000, // TODO - better method for ensuring sufficient gas is available\n      \"Insufficient gas or value.\"\n    );\n    // Update exits root to delete the transaction\n    confirmedExitRoots[blockNumber].exitsRoot = newRoot;\n    // If the transaction is from a contract, forward it through its proxy\n    if (deployedContracts[_tx.from]) {\n      try IProxy(_tx.from).executeOutgoingTransaction{gas: gasleft(), value: _tx.value}(_tx.to, _tx.gas, _tx.data) {\n        msg.sender.transfer(_tx.bounty + _tx.value);\n        return;\n      }\n      catch (bytes memory) {\n        _addTransaction(\n          RTL.RelayTransaction(\n            address(0),\n            _tx.from,\n            uint256(50000), // Give small amount of gas to process the refund\n            _tx.value,\n            bytes(\"\")\n          )\n        );\n        msg.sender.transfer(_tx.bounty);\n        return;\n      }\n    }\n    (bool success,) = _tx.to.call{gas: _tx.gas, value: _tx.value}(_tx.data);\n    /*\n      If the transaction fails, return only the tx bounty\n      to the forwarder and add a deposit to refund the submitter.\n    */\n    if (!success) {\n      _addTransaction(\n        RTL.RelayTransaction(\n          address(0),\n          _tx.from,\n          uint256(50000), // Give small amount of gas to process the refund\n          _tx.value,\n          bytes(\"\")\n        )\n      );\n      msg.sender.transfer(_tx.bounty);\n      return;\n    }\n    msg.sender.transfer(_tx.bounty + _tx.value);\n    return;\n  }\n\n  receive() external payable {}\n}",
  "sourcePath": "/home/dillon/sparse-iso/sparse-iso/packages/contracts/contracts/relay/ParentRelay.sol",
  "compiler": {
    "name": "solc",
    "version": "0.6.11+commit.5ef660b1.Emscripten.clang"
  },
  "schemaVersion": "3.2.1",
  "updatedAt": "2020-07-17T23:51:47.674Z",
  "devdoc": {
    "kind": "dev",
    "methods": {
      "addTransaction(address,uint256,bytes)": {
        "details": "addTransaction",
        "params": {
          "data": "The data to send in the incoming transaction.",
          "sendGas": "Gas to send with the transaction.",
          "to": "Recipient address."
        },
        "returns": {
          "_0": "Index of the transaction in the incoming transactions array for this block."
        }
      },
      "forwardFromProxy(address,uint256,bytes)": {
        "details": "forwardFromProxy",
        "params": {
          "data": "The data to send in the incoming transaction.",
          "from": "The address that called the contract proxy.",
          "sendGas": "The amount of gas to send in the incoming transaction."
        }
      }
    },
    "version": 1
  },
  "userdoc": {
    "kind": "user",
    "methods": {
      "addTransaction(address,uint256,bytes)": {
        "notice": "External function for recording a transaction for the child chain.         Does not allow null address as the receiver."
      },
      "forwardFromProxy(address,uint256,bytes)": {
        "notice": "Adds an incoming transaction from a contract proxy.         Uses the from address provided by the contract proxy and uses the caller address as the to address.         Allows transactions sent from contract proxies to keep the caller address."
      }
    },
    "version": 1
  }
}