{
  "contractName": "SparseMerkleTree",
  "abi": [
    {
      "inputs": [],
      "stateMutability": "nonpayable",
      "type": "constructor"
    },
    {
      "inputs": [],
      "name": "defaultHashStorage",
      "outputs": [
        {
          "internalType": "address",
          "name": "",
          "type": "address"
        }
      ],
      "stateMutability": "view",
      "type": "function"
    },
    {
      "inputs": [],
      "name": "getDefaultHashes",
      "outputs": [
        {
          "internalType": "bytes32[256]",
          "name": "defaultHashes",
          "type": "bytes32[256]"
        }
      ],
      "stateMutability": "view",
      "type": "function"
    },
    {
      "inputs": [
        {
          "internalType": "bytes[]",
          "name": "_dataBlocks",
          "type": "bytes[]"
        }
      ],
      "name": "getMerkleRoot",
      "outputs": [
        {
          "internalType": "bytes32",
          "name": "",
          "type": "bytes32"
        }
      ],
      "stateMutability": "view",
      "type": "function"
    },
    {
      "inputs": [
        {
          "internalType": "bytes32",
          "name": "_root",
          "type": "bytes32"
        },
        {
          "internalType": "bytes",
          "name": "_proveData",
          "type": "bytes"
        },
        {
          "internalType": "bytes",
          "name": "_setData",
          "type": "bytes"
        },
        {
          "internalType": "uint256",
          "name": "_path",
          "type": "uint256"
        },
        {
          "internalType": "bytes32[]",
          "name": "_siblings",
          "type": "bytes32[]"
        }
      ],
      "name": "verifyAndUpdate",
      "outputs": [
        {
          "internalType": "bool",
          "name": "_valid",
          "type": "bool"
        },
        {
          "internalType": "bytes32",
          "name": "_updatedRoot",
          "type": "bytes32"
        }
      ],
      "stateMutability": "pure",
      "type": "function"
    },
    {
      "inputs": [
        {
          "internalType": "bytes32",
          "name": "_root",
          "type": "bytes32"
        },
        {
          "internalType": "uint256",
          "name": "_height",
          "type": "uint256"
        },
        {
          "internalType": "uint256",
          "name": "_inclusionBits",
          "type": "uint256"
        },
        {
          "internalType": "bytes",
          "name": "_proveData",
          "type": "bytes"
        },
        {
          "internalType": "bytes",
          "name": "_setData",
          "type": "bytes"
        },
        {
          "internalType": "uint256",
          "name": "_path",
          "type": "uint256"
        },
        {
          "internalType": "bytes32[]",
          "name": "_siblings",
          "type": "bytes32[]"
        }
      ],
      "name": "verifyAndUpdateSparse",
      "outputs": [
        {
          "internalType": "bool",
          "name": "_valid",
          "type": "bool"
        },
        {
          "internalType": "bytes32",
          "name": "_updatedRoot",
          "type": "bytes32"
        }
      ],
      "stateMutability": "view",
      "type": "function"
    },
    {
      "inputs": [
        {
          "internalType": "bytes32",
          "name": "_root",
          "type": "bytes32"
        },
        {
          "internalType": "uint256",
          "name": "_height",
          "type": "uint256"
        },
        {
          "internalType": "uint256",
          "name": "_inclusionBits",
          "type": "uint256"
        },
        {
          "internalType": "bytes",
          "name": "_leaf",
          "type": "bytes"
        },
        {
          "internalType": "uint256",
          "name": "_path",
          "type": "uint256"
        },
        {
          "internalType": "bytes32[]",
          "name": "_siblings",
          "type": "bytes32[]"
        }
      ],
      "name": "verifySparse",
      "outputs": [
        {
          "internalType": "bool",
          "name": "",
          "type": "bool"
        }
      ],
      "stateMutability": "view",
      "type": "function"
    },
    {
      "inputs": [
        {
          "internalType": "bytes32",
          "name": "_root",
          "type": "bytes32"
        },
        {
          "internalType": "bytes",
          "name": "_dataBlock",
          "type": "bytes"
        },
        {
          "internalType": "uint256",
          "name": "_path",
          "type": "uint256"
        },
        {
          "internalType": "bytes32[]",
          "name": "_siblings",
          "type": "bytes32[]"
        }
      ],
      "name": "verify",
      "outputs": [
        {
          "internalType": "bool",
          "name": "",
          "type": "bool"
        }
      ],
      "stateMutability": "pure",
      "type": "function"
    },
    {
      "inputs": [
        {
          "internalType": "uint256",
          "name": "_intVal",
          "type": "uint256"
        },
        {
          "internalType": "uint256",
          "name": "_index",
          "type": "uint256"
        }
      ],
      "name": "getNthBitFromRight",
      "outputs": [
        {
          "internalType": "uint8",
          "name": "",
          "type": "uint8"
        }
      ],
      "stateMutability": "pure",
      "type": "function"
    }
  ],
  "bytecode": "0x608060405234801561001057600080fd5b5060405161001d9061005f565b604051809103906000f080158015610039573d6000803e3d6000fd5b50600080546001600160a01b0319166001600160a01b039290921691909117905561006b565b60dc80610cdf83390190565b610c658061007a6000396000f3fe608060405234801561001057600080fd5b50600436106100885760003560e01c80634516e2a41161005b5780634516e2a4146101005780637022c2c414610121578063b096267314610134578063db0787cb1461014757610088565b8063053914771461008d57806330d90a76146100ab5780633300872e146100cb57806340ff34ef146100e0575b600080fd5b610095610167565b6040516100a29190610b55565b60405180910390f35b6100be6100b936600461095d565b61017f565b6040516100a29190610b88565b6100d361020e565b6040516100a29190610b41565b6100f36100ee366004610859565b61021d565b6040516100a29190610ba3565b61011361010e3660046108c5565b610431565b6040516100a2929190610b93565b61011361012f3660046109d1565b6104dd565b6100be610142366004610a7c565b6105f1565b61015a610155366004610b02565b6106bd565b6040516100a29190610bac565b61016f610750565b6020610100026000826000543c90565b82516020840120604080518181526060818101835260009392909190602082018180368337019050509050602081016040820160208601865160005b818110156101fc57825160208401935060018b831c1615600181146101e5578187528886526101ec565b8887528186525b50506040852096506001016101bb565b50505097909214979650505050505050565b6000546001600160a01b031681565b6000818160606001830167ffffffffffffffff8111801561023d57600080fd5b50604051908082528060200260200182016040528015610267578160200160208202803683370190505b5090506060610278846001016106c4565b905060005b868110156102d85787878281811061029157fe5b90506020028101906102a39190610bba565b6040516102b1929190610b31565b60405180910390208382815181106102c557fe5b602090810291909101015260010161027d565b50600186141561030257816000815181106102ef57fe5b602002602001015194505050505061042b565b60028406600114156103415780838151811061031a57fe5b602002602001015182858151811061032e57fe5b6020026020010181815250506001840193505b600184111561040f576001929092019160005b600285048110156103b75761039883826002028151811061037157fe5b602002602001015184836002026001018151811061038b57fe5b602002602001015161071d565b8382815181106103a457fe5b6020908102919091010152600101610354565b506002840493506002840660011480156103d2575083600114155b1561040a578083815181106103e357fe5b60200260200101518285815181106103f757fe5b6020026020010181815250506001840193505b610341565b8160008151811061041c57fe5b60200260200101519450505050505b92915050565b8251602080850191909120855186830120604080518181526060808201835260009590929082018180368337019050509050602081016040820160208701875160005b818110156104c757825160208401935060018c831c1615600181146104aa578187529785526040808720998652862098976104bd565b9786528085526040808720998752862098975b5050600101610474565b5050505050888214935050509550959350505050565b60008060606104eb896106c4565b9050858051906020012091506000878051906020012090506060604067ffffffffffffffff8111801561051d57600080fd5b506040519080825280601f01601f191660200182016040528015610548576020820181803683370190505b50905060208101604082016020880160005b60018f038110156105d957600060018f600184011c1615600181146105885783519150602084019350610595565b6001830160200289015191505b5060018c831c1615600181146105bc578186529684526040808620998552852098966105cf565b9685528084526040808620998652852098965b505060010161055a565b505050508b8214945050505097509795505050505050565b600060606105fe876106c4565b855160208701206040805181815260608181018352939450919291906020820181803683370190505090506020810160408201602085016020880160018d0360005b818110156106a757600060018f600184011c16156001811461066b5784519150602085019450610675565b8260200286015191505b5060018d831c16156001811461069057818852898752610697565b8988528187525b5050604086209750600101610640565b5050509b9093149b9a5050505050505050505050565b1c60011690565b60608167ffffffffffffffff811180156106dd57600080fd5b50604051908082528060200260200182016040528015610707578160200160208202803683370190505b509050602082026000602083016000543c919050565b60008282604051602001610732929190610b23565b60405160208183030381529060405280519060200120905092915050565b604051806120000160405280610100906020820280368337509192915050565b600082601f830112610780578081fd5b813567ffffffffffffffff811115610796578182fd5b60208082026107a6828201610c08565b838152935081840185830182870184018810156107c257600080fd5b600092505b848310156107e55780358252600192909201919083019083016107c7565b505050505092915050565b600082601f830112610800578081fd5b813567ffffffffffffffff811115610816578182fd5b610829601f8201601f1916602001610c08565b915080825283602082850101111561084057600080fd5b8060208401602084013760009082016020015292915050565b6000806020838503121561086b578182fd5b823567ffffffffffffffff80821115610882578384fd5b81850186601f820112610893578485fd5b80359250818311156108a3578485fd5b86602080850283010111156108b6578485fd5b60200196919550909350505050565b600080600080600060a086880312156108dc578081fd5b85359450602086013567ffffffffffffffff808211156108fa578283fd5b61090689838a016107f0565b9550604088013591508082111561091b578283fd5b61092789838a016107f0565b9450606088013593506080880135915080821115610943578283fd5b5061095088828901610770565b9150509295509295909350565b60008060008060808587031215610972578384fd5b84359350602085013567ffffffffffffffff80821115610990578485fd5b61099c888389016107f0565b94506040870135935060608701359150808211156109b8578283fd5b506109c587828801610770565b91505092959194509250565b600080600080600080600060e0888a0312156109eb578182fd5b873596506020880135955060408801359450606088013567ffffffffffffffff80821115610a17578384fd5b610a238b838c016107f0565b955060808a0135915080821115610a38578384fd5b610a448b838c016107f0565b945060a08a0135935060c08a0135915080821115610a60578283fd5b50610a6d8a828b01610770565b91505092959891949750929550565b60008060008060008060c08789031215610a94578182fd5b863595506020870135945060408701359350606087013567ffffffffffffffff80821115610ac0578384fd5b610acc8a838b016107f0565b94506080890135935060a0890135915080821115610ae8578283fd5b50610af589828a01610770565b9150509295509295509295565b60008060408385031215610b14578182fd5b50508035926020909101359150565b918252602082015260400190565b6000828483379101908152919050565b6001600160a01b0391909116815260200190565b6120008101818360005b610100811015610b7f578151835260209283019290910190600101610b5f565b50505092915050565b901515815260200190565b9115158252602082015260400190565b90815260200190565b60ff91909116815260200190565b6000808335601e19843603018112610bd0578283fd5b8084018035925067ffffffffffffffff831115610beb578384fd5b60200192505036819003821315610c0157600080fd5b9250929050565b60405181810167ffffffffffffffff81118282101715610c2757600080fd5b60405291905056fea2646970667358221220635d1633c75d1561da4f91cdd3c3c3cdea624eb1b942c72b2fd21839e567a9e964736f6c634300060b00336080604052348015600f57600080fd5b50601660bb565b6040805160006020808301919091528251808303820181529183019092528051910120815260015b61010081101560b45781600182036101008110605657fe5b602002015182600183036101008110606a57fe5b60200201516040516020018083815260200182815260200192505050604051602081830303815290604052805190602001208282610100811060a857fe5b6020020152600101603e565b5061200081f35b60405180612000016040528061010090602082028036833750919291505056fe",
  "immutableReferences": {},
  "source": "pragma solidity ^0.6.0;\npragma experimental ABIEncoderV2;\n\nimport \"./DefaultHashes.sol\";\n\n/*\n * Merkle Tree Utilities for Rollup\n */\ncontract SparseMerkleTree {\n  /* Structs */\n\n  /* Fields */\n  // The address of the default hash storage.\n  address public defaultHashStorage;\n\n  // A tree which is used in `update()` and `store()`\n  /**\n   * @notice Initialize a new SparseMerkleUtils contract, computing the default hashes\n   * for the sparse merkle tree (SMT) and saving them as a contract.\n   */\n  constructor() public {\n    defaultHashStorage = address(new DefaultHashes());\n  }\n\n  /* Methods */\n  function _getDefaultHashes(uint256 height)\n  internal view returns (bytes32[] memory defaultHashes) {\n    defaultHashes = new bytes32[](height);\n    assembly {\n      extcodecopy(\n        sload(defaultHashStorage_slot),\n        add(defaultHashes, 0x20),\n        0,\n        mul(height, 0x20)\n      )\n    }\n  }\n\n  function getDefaultHashes()\n  public view returns (bytes32[256] memory defaultHashes) {\n    assembly {\n      extcodecopy(\n        sload(defaultHashStorage_slot),\n        defaultHashes,\n        0,\n        mul(256, 0x20)\n      )\n    }\n  }\n\n  /**\n   * @notice Get the sparse merkle root computed from some set of data blocks.\n   * @param _dataBlocks The data being used to generate the tree.\n   * @return the sparse merkle tree root\n   */\n  function getMerkleRoot(bytes[] calldata _dataBlocks)\n  external view returns (bytes32) {\n    uint256 nextLevelLength = _dataBlocks.length;\n    uint256 currentLevel = 0;\n    bytes32[] memory nodes = new bytes32[](nextLevelLength + 1); // Add one in case we have an odd number of leaves\n    bytes32[] memory defaultHashes = _getDefaultHashes(nextLevelLength + 1);\n    // Generate the leaves\n    for (uint256 i = 0; i < _dataBlocks.length; i++) {\n      nodes[i] = keccak256(_dataBlocks[i]);\n    }\n\n    if (_dataBlocks.length == 1) {\n      return nodes[0];\n    }\n\n    // Add a defaultNode if we've got an odd number of leaves\n    if (nextLevelLength % 2 == 1) {\n      nodes[nextLevelLength] = defaultHashes[currentLevel];\n      nextLevelLength += 1;\n    }\n\n    // Now generate each level\n    while (nextLevelLength > 1) {\n      currentLevel += 1;\n      // Calculate the nodes for the currentLevel\n      for (uint256 i = 0; i < nextLevelLength / 2; i++) {\n        nodes[i] = getParent(nodes[i * 2], nodes[i * 2 + 1]);\n      }\n      nextLevelLength = nextLevelLength / 2;\n      // Check if we will need to add an extra node\n      if (nextLevelLength % 2 == 1 && nextLevelLength != 1) {\n        nodes[nextLevelLength] = defaultHashes[currentLevel];\n        nextLevelLength += 1;\n      }\n    }\n\n    // Alright! We should be left with a single node! Return it...\n    return nodes[0];\n  }\n\n  /**\n   * @dev Verify an inclusion proof for a sparse merkle tree, where some of the\n   * siblings are not included because they are default nodes, and simultaneously\n   * calculate the root using an alternative leaf node.\n   * @param _root The root of the tree we are verifying inclusion for.\n   * @param _proveData The data block we're verifying inclusion for.\n   * @param _setData The data block we're replacing _proveData with.\n   * @param _path The path from the leaf to the root.\n   * @param _siblings The sibling nodes along the way.\n   * @return _valid Boolean stating whether the proof was valid.\n   * @return _updatedRoot Merkle root with _proveData set to _setData.\n   */\n  function verifyAndUpdate(\n    bytes32 _root,\n    bytes memory _proveData,\n    bytes memory _setData,\n    uint256 _path,\n    bytes32[] memory _siblings\n  ) public pure returns (bool _valid, bytes32 _updatedRoot) {\n    // First compute the leaf node\n    _updatedRoot = keccak256(_setData);\n    bytes32 computedNode = keccak256(_proveData);\n\n    bytes memory hashBuffer = new bytes(64);\n    assembly {\n      let h1Ptr := add(hashBuffer, 32)\n      let h2Ptr := add(hashBuffer, 64)\n      // let defPtr := add(defaultHashes, 32)\n      let siblingPtr := add(_siblings, 32)\n      let max := mload(_siblings)\n      // let siblingIndex := 0\n      for { let i := 0 } lt(i, max) { i := add(i, 1) } {\n        let _sibling := mload(siblingPtr)\n        siblingPtr := add(siblingPtr, 32)\n        switch iszero(and(shr(i, _path), 1))\n          case true {\n            mstore(h1Ptr, computedNode)\n            mstore(h2Ptr, _sibling)\n            computedNode := keccak256(h1Ptr, 64)\n            mstore(h1Ptr, _updatedRoot)\n            _updatedRoot := keccak256(h1Ptr, 64)\n          } default {\n            mstore(h1Ptr, _sibling)\n            mstore(h2Ptr, computedNode)\n            computedNode := keccak256(h1Ptr, 64)\n            mstore(h2Ptr, _updatedRoot)\n            _updatedRoot := keccak256(h1Ptr, 64)\n          }\n      }\n    }\n    // Check if the computed node (_root) is equal to the provided root\n    _valid = computedNode == _root;\n  }\n\n  /**\n   * @dev Verify an inclusion proof for a sparse merkle tree, where some of the\n   * siblings are not included because they are default nodes, and simultaneously\n   * calculate the root using an alternative leaf node.\n   * @param _root The root of the tree we are verifying inclusion for.\n   * @param _height The height of the tree the proof is for.\n   * @param _inclusionBits Bit field indicating which siblings are included as siblings.\n   * @param _proveData The data block we're verifying inclusion for.\n   * @param _setData The data block we're replacing _proveData with.\n   * @param _path The path from the leaf to the root.\n   * @param _siblings The sibling nodes along the way.\n   * @return _valid Boolean stating whether the proof was valid.\n   * @return _updatedRoot Merkle root with _proveData set to _setData.\n   */\n  function verifyAndUpdateSparse(\n    bytes32 _root,\n    uint256 _height,\n    uint256 _inclusionBits,\n    bytes memory _proveData,\n    bytes memory _setData,\n    uint256 _path,\n    bytes32[] memory _siblings\n  ) public view returns (bool _valid, bytes32 _updatedRoot) {\n    bytes32[] memory defaultHashes = _getDefaultHashes(_height);\n    // First compute the leaf node\n    _updatedRoot = keccak256(_setData);\n    bytes32 computedNode = keccak256(_proveData);\n    bytes memory hashBuffer = new bytes(64);\n    assembly {\n      let h1Ptr := add(hashBuffer, 32)\n      let h2Ptr := add(hashBuffer, 64)\n      let siblingPtr := add(_siblings, 32)\n      /*\n        Using sub(height, 1) instead of setting a pointer because of the solc stack limit\n      */\n      for { let i := 0 } lt(i, sub(_height, 1)) { i := add(i, 1) } {\n        let _sibling := 0\n        switch iszero(and(shr(add(i, 1), _inclusionBits), 1))\n          case true {\n            _sibling := mload(add(defaultHashes, mul(32, add(i, 1))))\n          }\n          default {\n            _sibling := mload(siblingPtr)\n            siblingPtr := add(siblingPtr, 32)\n          }\n        switch iszero(and(shr(i, _path), 1))\n          case true {\n            mstore(h1Ptr, computedNode)\n            mstore(h2Ptr, _sibling)\n            computedNode := keccak256(h1Ptr, 64)\n            mstore(h1Ptr, _updatedRoot)\n            _updatedRoot := keccak256(h1Ptr, 64)\n          } default {\n            mstore(h1Ptr, _sibling)\n            mstore(h2Ptr, computedNode)\n            computedNode := keccak256(h1Ptr, 64)\n            mstore(h2Ptr, _updatedRoot)\n            _updatedRoot := keccak256(h1Ptr, 64)\n          }\n      }\n    }\n    // Check if the computed node (_root) is equal to the provided root\n    _valid = computedNode == _root;\n  }\n\n  /**\n   * @dev Verify an inclusion proof for a sparse merkle tree, where some of the\n   * siblings are not included because they are default nodes.\n   * @param _root The root of the tree we are verifying inclusion for.\n   * @param _height The height of the tree the proof is for.\n   * @param _inclusionBits Bit field indicating which siblings are included as siblings.\n   * @param _leaf The data block we're verifying inclusion for.\n   * @param _path The path from the leaf to the root.\n   * @param _siblings The sibling nodes along the way.\n   * @return The next level of the tree\n   */\n  function verifySparse(\n    bytes32 _root,\n    uint256 _height,\n    uint256 _inclusionBits,\n    bytes memory _leaf,\n    uint256 _path,\n    bytes32[] memory _siblings\n  ) public view returns (bool) {\n    bytes32[] memory defaultHashes = _getDefaultHashes(_height);\n    // First compute the leaf node\n    bytes32 computedNode = keccak256(_leaf);\n    bytes memory hashBuffer = new bytes(64);\n    assembly {\n      let h1Ptr := add(hashBuffer, 32)\n      let h2Ptr := add(hashBuffer, 64)\n      let defPtr := add(defaultHashes, 32)\n      let siblingPtr := add(_siblings, 32)\n      let max := sub(_height, 1)\n      // let siblingIndex := 0\n      for { let i := 0 } lt(i, max) { i := add(i, 1) } {\n        // let isRight := and(shr(i, _path), 1)\n        // let isDefault := and(shr(add(i, 1), _inclusionBits), 1)\n        let _sibling := 0\n        switch iszero(and(shr(add(i, 1), _inclusionBits), 1))\n          case true { _sibling := mload(add(defPtr, mul(32, i))) }\n          default {\n            _sibling := mload(siblingPtr)\n            siblingPtr := add(siblingPtr, 32)\n          }\n        switch iszero(and(shr(i, _path), 1))\n          case true {\n            mstore(h1Ptr, computedNode)\n            mstore(h2Ptr, _sibling)\n          }\n          default {\n            mstore(h1Ptr, _sibling)\n            mstore(h2Ptr, computedNode)\n          }\n        computedNode := keccak256(h1Ptr, 64)\n      }\n    }\n    return computedNode == _root;\n  }\n\n  /**\n   * @notice Verify an inclusion proof.\n   * @param _root The root of the tree we are verifying inclusion for.\n   * @param _dataBlock The data block we're verifying inclusion for.\n   * @param _path The path from the leaf to the root.\n   * @param _siblings The sibling nodes along the way.\n   * @return The next level of the tree\n   */\n  function verify(\n    bytes32 _root,\n    bytes memory _dataBlock,\n    uint256 _path,\n    bytes32[] memory _siblings\n  ) public pure returns (bool) {\n    // bytes32[] memory defaultHashes = _getDefaultHashes(_height);\n    // First compute the leaf node\n    bytes32 computedNode = keccak256(_dataBlock);\n    bytes memory hashBuffer = new bytes(64);\n    assembly {\n      let h1Ptr := add(hashBuffer, 32)\n      let h2Ptr := add(hashBuffer, 64)\n      // let defPtr := add(defaultHashes, 32)\n      let siblingPtr := add(_siblings, 32)\n      let max := mload(_siblings)\n      // let siblingIndex := 0\n      for { let i := 0 } lt(i, max) { i := add(i, 1) } {\n        let _sibling := mload(siblingPtr)\n        siblingPtr := add(siblingPtr, 32)\n        switch iszero(and(shr(i, _path), 1))\n          case true {\n            mstore(h1Ptr, computedNode)\n            mstore(h2Ptr, _sibling)\n          } default {\n            mstore(h1Ptr, _sibling)\n            mstore(h2Ptr, computedNode)\n          }\n        computedNode := keccak256(h1Ptr, 64)\n      }\n    }\n    return computedNode == _root;\n  }\n\n  /*********************\n   * Utility Functions *\n   ********************/\n\n  /**\n   * @notice Get the parent of two children nodes in the tree\n   * @param _left The left child\n   * @param _right The right child\n   * @return The parent node\n   */\n  function getParent(bytes32 _left, bytes32 _right)\n  internal pure returns (bytes32) {\n    return keccak256(abi.encodePacked(_left, _right));\n  }\n\n  /**\n   * @notice get the n'th bit in a uint.\n   *         For instance, if exampleUint=binary(11), getNth(exampleUint, 0) == 1, getNth(2, 1) == 1\n   * @param _intVal The uint we are extracting a bit out of\n   * @param _index The index of the bit we want to extract\n   * @return The bit (1 or 0) in a uint8\n   */\n  function getNthBitFromRight(uint256 _intVal, uint256 _index)\n  public pure returns (uint8) {\n    return uint8((_intVal >> _index) & 1);\n  }\n}\n",
  "sourcePath": "/home/dillon/sparse-iso/sparse-iso/packages/contracts/contracts/common/rollup/SparseMerkleTree.sol",
  "compiler": {
    "name": "solc",
    "version": "0.6.11+commit.5ef660b1.Emscripten.clang"
  },
  "schemaVersion": "3.2.1",
  "updatedAt": "2020-07-17T23:51:47.551Z",
  "devdoc": {
    "kind": "dev",
    "methods": {
      "getMerkleRoot(bytes[])": {
        "params": {
          "_dataBlocks": "The data being used to generate the tree."
        },
        "returns": {
          "_0": "the sparse merkle tree root"
        }
      },
      "getNthBitFromRight(uint256,uint256)": {
        "params": {
          "_index": "The index of the bit we want to extract",
          "_intVal": "The uint we are extracting a bit out of"
        },
        "returns": {
          "_0": "The bit (1 or 0) in a uint8"
        }
      },
      "verify(bytes32,bytes,uint256,bytes32[])": {
        "params": {
          "_dataBlock": "The data block we're verifying inclusion for.",
          "_path": "The path from the leaf to the root.",
          "_root": "The root of the tree we are verifying inclusion for.",
          "_siblings": "The sibling nodes along the way."
        },
        "returns": {
          "_0": "The next level of the tree"
        }
      },
      "verifyAndUpdate(bytes32,bytes,bytes,uint256,bytes32[])": {
        "details": "Verify an inclusion proof for a sparse merkle tree, where some of the siblings are not included because they are default nodes, and simultaneously calculate the root using an alternative leaf node.",
        "params": {
          "_path": "The path from the leaf to the root.",
          "_proveData": "The data block we're verifying inclusion for.",
          "_root": "The root of the tree we are verifying inclusion for.",
          "_setData": "The data block we're replacing _proveData with.",
          "_siblings": "The sibling nodes along the way."
        },
        "returns": {
          "_updatedRoot": "Merkle root with _proveData set to _setData.",
          "_valid": "Boolean stating whether the proof was valid."
        }
      },
      "verifyAndUpdateSparse(bytes32,uint256,uint256,bytes,bytes,uint256,bytes32[])": {
        "details": "Verify an inclusion proof for a sparse merkle tree, where some of the siblings are not included because they are default nodes, and simultaneously calculate the root using an alternative leaf node.",
        "params": {
          "_height": "The height of the tree the proof is for.",
          "_inclusionBits": "Bit field indicating which siblings are included as siblings.",
          "_path": "The path from the leaf to the root.",
          "_proveData": "The data block we're verifying inclusion for.",
          "_root": "The root of the tree we are verifying inclusion for.",
          "_setData": "The data block we're replacing _proveData with.",
          "_siblings": "The sibling nodes along the way."
        },
        "returns": {
          "_updatedRoot": "Merkle root with _proveData set to _setData.",
          "_valid": "Boolean stating whether the proof was valid."
        }
      },
      "verifySparse(bytes32,uint256,uint256,bytes,uint256,bytes32[])": {
        "details": "Verify an inclusion proof for a sparse merkle tree, where some of the siblings are not included because they are default nodes.",
        "params": {
          "_height": "The height of the tree the proof is for.",
          "_inclusionBits": "Bit field indicating which siblings are included as siblings.",
          "_leaf": "The data block we're verifying inclusion for.",
          "_path": "The path from the leaf to the root.",
          "_root": "The root of the tree we are verifying inclusion for.",
          "_siblings": "The sibling nodes along the way."
        },
        "returns": {
          "_0": "The next level of the tree"
        }
      }
    },
    "version": 1
  },
  "userdoc": {
    "kind": "user",
    "methods": {
      "constructor": "Initialize a new SparseMerkleUtils contract, computing the default hashes for the sparse merkle tree (SMT) and saving them as a contract.",
      "getMerkleRoot(bytes[])": {
        "notice": "Get the sparse merkle root computed from some set of data blocks."
      },
      "getNthBitFromRight(uint256,uint256)": {
        "notice": "get the n'th bit in a uint.         For instance, if exampleUint=binary(11), getNth(exampleUint, 0) == 1, getNth(2, 1) == 1"
      },
      "verify(bytes32,bytes,uint256,bytes32[])": {
        "notice": "Verify an inclusion proof."
      }
    },
    "version": 1
  }
}