{
  "contractName": "StateQueries",
  "abi": [
    {
      "inputs": [
        {
          "internalType": "uint256",
          "name": "blockNumber",
          "type": "uint256"
        }
      ],
      "name": "isBlockConfirmed",
      "outputs": [
        {
          "internalType": "bool",
          "name": "",
          "type": "bool"
        }
      ],
      "stateMutability": "view",
      "type": "function"
    },
    {
      "inputs": [
        {
          "internalType": "uint256",
          "name": "blockNumber",
          "type": "uint256"
        }
      ],
      "name": "getConfirmedBlockhash",
      "outputs": [
        {
          "internalType": "bytes32",
          "name": "",
          "type": "bytes32"
        }
      ],
      "stateMutability": "view",
      "type": "function"
    },
    {
      "inputs": [
        {
          "internalType": "bytes32",
          "name": "parentHash",
          "type": "bytes32"
        },
        {
          "internalType": "uint256",
          "name": "childIndex",
          "type": "uint256"
        }
      ],
      "name": "getPendingChild",
      "outputs": [
        {
          "internalType": "bytes32",
          "name": "",
          "type": "bytes32"
        }
      ],
      "stateMutability": "view",
      "type": "function"
    },
    {
      "inputs": [
        {
          "internalType": "bytes32",
          "name": "parentHash",
          "type": "bytes32"
        }
      ],
      "name": "getPendingChildren",
      "outputs": [
        {
          "internalType": "bytes32[]",
          "name": "",
          "type": "bytes32[]"
        }
      ],
      "stateMutability": "view",
      "type": "function"
    },
    {
      "inputs": [
        {
          "components": [
            {
              "internalType": "bytes32",
              "name": "parentHash",
              "type": "bytes32"
            },
            {
              "internalType": "uint256",
              "name": "childIndex",
              "type": "uint256"
            },
            {
              "internalType": "uint256",
              "name": "blockNumber",
              "type": "uint256"
            },
            {
              "components": [
                {
                  "internalType": "uint256",
                  "name": "submittedAt",
                  "type": "uint256"
                },
                {
                  "internalType": "bytes32",
                  "name": "exitsRoot",
                  "type": "bytes32"
                },
                {
                  "internalType": "address",
                  "name": "coinbase",
                  "type": "address"
                },
                {
                  "internalType": "bytes32",
                  "name": "blockHash",
                  "type": "bytes32"
                }
              ],
              "internalType": "struct CommitmentHeaderLib.CommitmentHeader",
              "name": "commitment",
              "type": "tuple"
            }
          ],
          "internalType": "struct CommitmentHeaderLib.CommitmentHeaderQuery",
          "name": "_query",
          "type": "tuple"
        }
      ],
      "name": "hasPendingBlock",
      "outputs": [
        {
          "internalType": "bool",
          "name": "",
          "type": "bool"
        }
      ],
      "stateMutability": "view",
      "type": "function"
    },
    {
      "inputs": [
        {
          "internalType": "bytes32",
          "name": "_blockHash",
          "type": "bytes32"
        }
      ],
      "name": "hasPendingChallenge",
      "outputs": [
        {
          "internalType": "bool",
          "name": "",
          "type": "bool"
        }
      ],
      "stateMutability": "view",
      "type": "function"
    }
  ],
  "bytecode": "0x608060405234801561001057600080fd5b5061046a806100206000396000f3fe608060405234801561001057600080fd5b50600436106100625760003560e01c80630ff7b9671461006757806324dce3621461009057806393c5183b146100b05780639705f9c1146100d0578063eadca6ff146100e3578063ecadb686146100f6575b600080fd5b61007a6100753660046102a2565b610109565b60405161008791906103b8565b60405180910390f35b6100a361009e3660046102a2565b61012c565b6040516100879190610369565b6100c36100be3660046102a2565b610194565b60405161008791906103ad565b6100c36100de3660046102a2565b6101bb565b61007a6100f13660046102ba565b6101d3565b6100c36101043660046102db565b610200565b600080600c01828154811061011a57fe5b90600052602060002001549050919050565b6000818152600d6020908152604091829020805483518184028101840190945280845260609384939092919083018282801561018757602002820191906000526020600020905b815481526020019060010190808311610173575b5093979650505050505050565b600c80546000918291849081106101a757fe5b906000526020600020015414159050919050565b60006101cd818363ffffffff61021216565b92915050565b6000828152600d602052604081208054839081106101ed57fe5b9060005260206000200154905092915050565b60006101cd818363ffffffff61022c16565b6000908152600e9091016020526040902060010154151590565b600061023b8260600151610272565b82516000908152600d850160209081526040909120908401518154811061025e57fe5b906000526020600020015414905092915050565b60008160405160200161028591906103c1565b604051602081830303815290604052805190602001209050919050565b6000602082840312156102b3578081fd5b5035919050565b600080604083850312156102cc578081fd5b50508035926020909101359150565b600081830360e08112156102ed578182fd5b6102f760806103f5565b8335815260208401356020820152604084013560408201526080605f1983011215610320578283fd5b61032a60806103f5565b9150606084013582526080840135602083015260a084013561034b8161041c565b604083015260c0939093013560608083019190915283015250919050565b6020808252825182820181905260009190848201906040850190845b818110156103a157835183529284019291840191600101610385565b50909695505050505050565b901515815260200190565b90815260200190565b81518152602080830151908201526040808301516001600160a01b0316908201526060918201519181019190915260800190565b60405181810167ffffffffffffffff8111828210171561041457600080fd5b604052919050565b6001600160a01b038116811461043157600080fd5b5056fea2646970667358221220ba9b480a39e80fd824b450bc9e0b248546fc53f21ba5abed16f2a80af978228864736f6c634300060b0033",
  "immutableReferences": {},
  "source": "pragma solidity ^0.6.0;\npragma experimental ABIEncoderV2;\n\nimport { ChainStateImplementer } from \"../common/ChainStateImplementer.sol\";\nimport { ChainStateLib as State } from \"../common/ChainStateLib.sol\";\nimport { CommitmentHeaderLib as Commitment } from \"../common/blocks/CommitmentHeaderLib.sol\";\n\n\ncontract StateQueries is ChainStateImplementer {\n  using State for State.ChainState;\n\n  function isBlockConfirmed(uint256 blockNumber)\n  external view returns(bool) {\n    return chainState.confirmedBlocks[blockNumber] != bytes32(0);\n  }\n\n  function getConfirmedBlockhash(uint256 blockNumber)\n  external view returns(bytes32) {\n    return chainState.confirmedBlocks[blockNumber];\n  }\n\n  function getPendingChild(bytes32 parentHash, uint256 childIndex)\n  public view returns (bytes32) {\n    return chainState.pendingBlocks[parentHash][childIndex];\n  }\n\n  function getPendingChildren(bytes32 parentHash)\n  public view returns (bytes32[] memory) {\n    bytes32[] memory children = chainState.pendingBlocks[parentHash];\n    return children;\n  }\n\n  function hasPendingBlock(Commitment.CommitmentHeaderQuery memory _query)\n  public view returns (bool) {\n    return chainState.hasPendingBlock(_query);\n  }\n\n  function hasPendingChallenge(bytes32 _blockHash)\n  public view returns (bool) {\n    return chainState.hasPendingChallenge(_blockHash);\n  }\n}",
  "sourcePath": "/home/dillon/sparse-iso/sparse-iso/packages/contracts/contracts/peg/StateQueries.sol",
  "compiler": {
    "name": "solc",
    "version": "0.6.11+commit.5ef660b1.Emscripten.clang"
  },
  "schemaVersion": "3.2.1",
  "updatedAt": "2020-07-17T23:51:47.666Z",
  "devdoc": {
    "kind": "dev",
    "methods": {},
    "version": 1
  },
  "userdoc": {
    "kind": "user",
    "methods": {},
    "version": 1
  }
}