{
  "contractName": "TestReceiver",
  "abi": [
    {
      "inputs": [],
      "name": "hasReceived",
      "outputs": [
        {
          "internalType": "bool",
          "name": "",
          "type": "bool"
        }
      ],
      "stateMutability": "view",
      "type": "function"
    },
    {
      "inputs": [],
      "name": "receiveCall",
      "outputs": [],
      "stateMutability": "nonpayable",
      "type": "function"
    }
  ],
  "bytecode": "0x6080604052348015600f57600080fd5b5060a78061001e6000396000f3fe6080604052348015600f57600080fd5b506004361060325760003560e01c80636226f35b1460375780639cc8dc4b146051575b600080fd5b603d6059565b604080519115158252519081900360200190f35b60576062565b005b60005460ff1690565b6000805460ff1916600117905556fea2646970667358221220390ed9db43b97ea91d62c5bd237f43717e93d8569a844b62df11bb49870e247164736f6c634300060b0033",
  "immutableReferences": {},
  "source": "pragma solidity ^0.6.0;\n\ncontract TestReceiver {\n  bool private received;\n\n  function hasReceived() public view returns (bool) {\n    return received;\n  }\n\n  function receiveCall() public {\n    received = true;\n  }\n}",
  "sourcePath": "/home/dillon/sparse-iso/sparse-iso/packages/contracts/contracts/mock/testData/TestReceiver.sol",
  "compiler": {
    "name": "solc",
    "version": "0.6.11+commit.5ef660b1.Emscripten.clang"
  },
  "schemaVersion": "3.2.1",
  "updatedAt": "2020-07-17T23:51:47.660Z",
  "devdoc": {
    "kind": "dev",
    "methods": {},
    "version": 1
  },
  "userdoc": {
    "kind": "user",
    "methods": {},
    "version": 1
  }
}