{
  "contractName": "TestProxyReceiver",
  "abi": [
    {
      "inputs": [
        {
          "internalType": "address",
          "name": "_allowOnly",
          "type": "address"
        }
      ],
      "stateMutability": "nonpayable",
      "type": "constructor"
    },
    {
      "inputs": [],
      "name": "received",
      "outputs": [
        {
          "internalType": "bool",
          "name": "",
          "type": "bool"
        }
      ],
      "stateMutability": "view",
      "type": "function"
    },
    {
      "inputs": [],
      "name": "hasReceived",
      "outputs": [
        {
          "internalType": "bool",
          "name": "",
          "type": "bool"
        }
      ],
      "stateMutability": "view",
      "type": "function"
    },
    {
      "inputs": [],
      "name": "reset",
      "outputs": [],
      "stateMutability": "nonpayable",
      "type": "function"
    },
    {
      "inputs": [],
      "name": "receiveCall",
      "outputs": [],
      "stateMutability": "nonpayable",
      "type": "function"
    }
  ],
  "bytecode": "0x608060405234801561001057600080fd5b506040516101b33803806101b38339818101604052602081101561003357600080fd5b5051600080546001600160a01b039092166001600160a01b031990921691909117905561014e806100656000396000f3fe608060405234801561001057600080fd5b506004361061004c5760003560e01c80636226f35b1461005157806383a6deb51461006d5780639cc8dc4b14610075578063d826f88f1461007f575b600080fd5b610059610087565b604080519115158252519081900360200190f35b610059610097565b61007d6100a7565b005b61007d610109565b600054600160a01b900460ff1690565b600054600160a01b900460ff1681565b6000546001600160a01b031633146100f4576040805162461bcd60e51b815260206004820152600b60248201526a4261642073656e6465722160a81b604482015290519081900360640190fd5b6000805460ff60a01b1916600160a01b179055565b6000805460ff60a01b1916905556fea2646970667358221220b3684c0edff657de2c8e29a78401269cf3ecc993b6d017249bb8501b2a6a4a4b64736f6c634300060b0033",
  "immutableReferences": {},
  "source": "pragma solidity ^0.6.0;\n\n/**\n * @title TestProxyReceiver\n * @dev Only accepts receipt when sender is a specific address.\n */\ncontract TestProxyReceiver {\n  address private allowedSender;\n  bool public received;\n\n  constructor(address _allowOnly) public {\n    allowedSender = _allowOnly;\n  }\n\n  function hasReceived() external view returns (bool) {\n    return received;\n  }\n\n  function reset() external {\n    received = false;\n  }\n\n  function receiveCall() external {\n    require(msg.sender == allowedSender, \"Bad sender!\");\n    received = true;\n  }\n}",
  "sourcePath": "/home/dillon/sparse-iso/sparse-iso/packages/contracts/contracts/mock/testData/TestProxyReceiver.sol",
  "compiler": {
    "name": "solc",
    "version": "0.6.11+commit.5ef660b1.Emscripten.clang"
  },
  "schemaVersion": "3.2.1",
  "updatedAt": "2020-07-17T23:51:47.659Z",
  "devdoc": {
    "details": "Only accepts receipt when sender is a specific address.",
    "kind": "dev",
    "methods": {},
    "title": "TestProxyReceiver",
    "version": 1
  },
  "userdoc": {
    "kind": "user",
    "methods": {},
    "version": 1
  }
}