{
  "contractName": "TestArchive",
  "abi": [
    {
      "inputs": [],
      "name": "getInitCodeHash",
      "outputs": [
        {
          "internalType": "bytes32",
          "name": "",
          "type": "bytes32"
        }
      ],
      "stateMutability": "pure",
      "type": "function"
    },
    {
      "inputs": [
        {
          "internalType": "address",
          "name": "deployer",
          "type": "address"
        },
        {
          "internalType": "address",
          "name": "proxy",
          "type": "address"
        },
        {
          "internalType": "bytes32",
          "name": "initCodeHash",
          "type": "bytes32"
        }
      ],
      "name": "getC2Address",
      "outputs": [
        {
          "internalType": "address",
          "name": "_address",
          "type": "address"
        }
      ],
      "stateMutability": "pure",
      "type": "function"
    },
    {
      "inputs": [
        {
          "internalType": "address",
          "name": "redeployed",
          "type": "address"
        },
        {
          "internalType": "address",
          "name": "archived",
          "type": "address"
        }
      ],
      "name": "checkCode",
      "outputs": [
        {
          "internalType": "bool",
          "name": "_codeMatch",
          "type": "bool"
        }
      ],
      "stateMutability": "view",
      "type": "function"
    },
    {
      "inputs": [],
      "name": "doTest",
      "outputs": [
        {
          "internalType": "address",
          "name": "",
          "type": "address"
        },
        {
          "internalType": "address",
          "name": "",
          "type": "address"
        }
      ],
      "stateMutability": "nonpayable",
      "type": "function"
    }
  ],
  "bytecode": "0x608060405234801561001057600080fd5b506105ad806100206000396000f3fe608060405234801561001057600080fd5b506004361061004b5760003560e01c80621f03ae146100505780635431927d146100925780637a536973146100ac578063c226d9ee146100fe575b600080fd5b61007e6004803603604081101561006657600080fd5b506001600160a01b038135811691602001351661012c565b604080519115158252519081900360200190f35b61009a610150565b60408051918252519081900360200190f35b6100e2600480360360608110156100c257600080fd5b506001600160a01b03813581169160208101359091169060400135610182565b604080516001600160a01b039092168252519081900360200190f35b6101066101de565b604080516001600160a01b03938416815291909216602082015281519081900390910190f35b600060405160008152833b80600060018401873c6001019020913f90911492915050565b600060405180602001610162906103d6565b6020820181038252601f19601f8201166040525080519060200120905090565b604080516055808252608082019092526000916060919060208201818036833701905050905060ff602082015360609490941b60218501525060358301919091526055808301919091526020909101206001600160a01b031690565b60008060006040516101ef906103e2565b604051809103906000f08015801561020b573d6000803e3d6000fd5b5060408051808201909152600e81526d3002acc0b004c11cf9d55de66ef760911b6020820152909150600061023f826103c5565b60408051633d699f1f60e01b81526000600482018190526001600160a01b03808516602484015292519394509291861691633d699f1f9160448082019260209290919082900301818787803b15801561029757600080fd5b505af11580156102ab573d6000803e3d6000fd5b505050506040513d60208110156102c157600080fd5b505160405190915060009061030090869083906102e0602082016103d6565b6020820181038252601f19601f8201166040525080519060200120610182565b9050806001600160a01b0316826001600160a01b03161461035e576040805162461bcd60e51b8152602060048201526013602482015272105c98da1a5d99481859191c995cdcc8189859606a1b604482015290519081900360640190fd5b610368838361012c565b6103b9576040805162461bcd60e51b815260206004820152601960248201527f436f6465206861736820646f6573206e6f74206d617463682e00000000000000604482015290519081900360640190fd5b90955093505050509091565b60008151602083016000f092915050565b602b806103f083390190565b61015d8061041b8339019056fe608060405260405160208160008034335af1508051803b6000835280600060018501843c6001810183f3fe608060405234801561001057600080fd5b5061013d806100206000396000f3fe6080604052348015600f57600080fd5b506004361060285760003560e01c80633d699f1f146036575b600054604051818152602081f35b606160048036036040811015604a57600080fd5b506001600160a01b0381358116916020013516607d565b604080516001600160a01b039092168252519081900360200190f35b600080546001600160a01b0319166001600160a01b03831617815560405160609060a86020820160d0565b6020820181038252601f19601f820116604052509050838151602083016000f5949350505050565b602b806100dd8339019056fe608060405260405160208160008034335af1508051803b6000835280600060018501843c6001810183f3fea2646970667358221220e077f4444a7bbf0bbf32aa31bbb1f1a096d8743d198672d65594583eed44d5a864736f6c634300060b0033a2646970667358221220271e9b5d7094e0dc99b3db88b3e8ac120cc7d8ccf964b5b5d7ca949879c3ecc764736f6c634300060b0033",
  "immutableReferences": {},
  "source": "pragma solidity ^0.6.0;\n\nimport \"../../relay/ArchiveFactory.sol\";\n\ncontract TestArchive {\n  function getInitCodeHash() public pure returns (bytes32) {\n    return keccak256(type(ArchiveInitializer).creationCode);\n  }\n\n  function getC2Address(address deployer, address proxy, bytes32 initCodeHash)\n  public pure returns(address _address) {\n    bytes memory input = new bytes(85);\n    assembly {\n      mstore8(add(input, 0x20), 0xff) // 1\n      mstore(add(input, 0x21), shl(0x60, deployer)) // 20\n      mstore(add(input, 0x35), proxy) // 32\n      mstore(add(input, 0x55), initCodeHash) // 32\n      let mask := 0x000000000000000000000000ffffffffffffffffffffffffffffffffffffffff\n      _address := and(mask, keccak256(add(input, 0x20), 85))\n    }\n  }\n\n  function checkCode(address redeployed, address archived)\n  public view returns (bool _codeMatch) {\n    assembly {\n      let ptr := mload(0x40)\n      mstore(ptr, 0)\n      let size := extcodesize(redeployed)\n      extcodecopy(redeployed, add(ptr, 0x01), 0, size)\n      let codeHash_expected := keccak256(ptr, add(size, 0x01))\n      let codeHash_real := extcodehash(archived)\n      _codeMatch := eq(codeHash_expected, codeHash_real)\n    }\n  }\n\n  function putContract(bytes memory code) internal returns (address _deployed) {\n    assembly {\n      _deployed := create(0, add(code, 0x20), mload(code))\n    }\n  }\n\n  function doTest() external returns (address, address) {\n    ArchiveFactory factory = new ArchiveFactory();\n    bytes memory _code = hex\"6005598160098239f3aabbccddee\";\n    address toDeploy = putContract(_code);\n    address archive = factory.archiveContract(address(0), toDeploy);\n    address _c2 = getC2Address(address(factory), address(0), keccak256(type(ArchiveInitializer).creationCode));\n    require(archive == _c2, \"Archive address bad\");\n    require(checkCode(toDeploy, archive), \"Code hash does not match.\");\n    return (archive, _c2);\n  }\n}",
  "sourcePath": "/home/dillon/sparse-iso/sparse-iso/packages/contracts/contracts/mock/testData/TestArchive.sol",
  "compiler": {
    "name": "solc",
    "version": "0.6.11+commit.5ef660b1.Emscripten.clang"
  },
  "schemaVersion": "3.2.1",
  "updatedAt": "2020-07-17T23:51:47.658Z",
  "devdoc": {
    "kind": "dev",
    "methods": {},
    "version": 1
  },
  "userdoc": {
    "kind": "user",
    "methods": {},
    "version": 1
  }
}