{
  "contractName": "TransactionErrorProver",
  "abi": [
    {
      "inputs": [
        {
          "components": [
            {
              "internalType": "bytes32",
              "name": "parentHash",
              "type": "bytes32"
            },
            {
              "internalType": "uint256",
              "name": "childIndex",
              "type": "uint256"
            },
            {
              "internalType": "uint256",
              "name": "blockNumber",
              "type": "uint256"
            },
            {
              "components": [
                {
                  "internalType": "uint256",
                  "name": "submittedAt",
                  "type": "uint256"
                },
                {
                  "internalType": "bytes32",
                  "name": "exitsRoot",
                  "type": "bytes32"
                },
                {
                  "internalType": "address",
                  "name": "coinbase",
                  "type": "address"
                },
                {
                  "internalType": "bytes32",
                  "name": "blockHash",
                  "type": "bytes32"
                }
              ],
              "internalType": "struct CommitmentHeaderLib.CommitmentHeader",
              "name": "commitment",
              "type": "tuple"
            }
          ],
          "internalType": "struct CommitmentHeaderLib.CommitmentHeaderQuery",
          "name": "commitmentQuery",
          "type": "tuple"
        },
        {
          "components": [
            {
              "internalType": "bytes32",
              "name": "parentHash",
              "type": "bytes32"
            },
            {
              "internalType": "uint256",
              "name": "number",
              "type": "uint256"
            },
            {
              "internalType": "uint256",
              "name": "incomingTransactionsIndex",
              "type": "uint256"
            },
            {
              "internalType": "uint256",
              "name": "incomingTransactionsCount",
              "type": "uint256"
            },
            {
              "internalType": "uint256",
              "name": "transactionsCount",
              "type": "uint256"
            },
            {
              "internalType": "bytes32",
              "name": "transactionsRoot",
              "type": "bytes32"
            },
            {
              "internalType": "bytes32",
              "name": "stateRoot",
              "type": "bytes32"
            },
            {
              "internalType": "bytes32",
              "name": "exitsRoot",
              "type": "bytes32"
            },
            {
              "internalType": "address",
              "name": "coinbase",
              "type": "address"
            },
            {
              "internalType": "uint256",
              "name": "timestamp",
              "type": "uint256"
            }
          ],
          "internalType": "struct ISO_HeaderLib.ISO_Header",
          "name": "header",
          "type": "tuple"
        },
        {
          "internalType": "bytes",
          "name": "transaction",
          "type": "bytes"
        },
        {
          "internalType": "uint256",
          "name": "transactionIndex",
          "type": "uint256"
        },
        {
          "internalType": "bytes32[]",
          "name": "siblings",
          "type": "bytes32[]"
        }
      ],
      "name": "proveTransactionSignatureError",
      "outputs": [],
      "stateMutability": "nonpayable",
      "type": "function"
    },
    {
      "inputs": [
        {
          "components": [
            {
              "internalType": "bytes32",
              "name": "parentHash",
              "type": "bytes32"
            },
            {
              "internalType": "uint256",
              "name": "childIndex",
              "type": "uint256"
            },
            {
              "internalType": "uint256",
              "name": "blockNumber",
              "type": "uint256"
            },
            {
              "components": [
                {
                  "internalType": "uint256",
                  "name": "submittedAt",
                  "type": "uint256"
                },
                {
                  "internalType": "bytes32",
                  "name": "exitsRoot",
                  "type": "bytes32"
                },
                {
                  "internalType": "address",
                  "name": "coinbase",
                  "type": "address"
                },
                {
                  "internalType": "bytes32",
                  "name": "blockHash",
                  "type": "bytes32"
                }
              ],
              "internalType": "struct CommitmentHeaderLib.CommitmentHeader",
              "name": "commitment",
              "type": "tuple"
            }
          ],
          "internalType": "struct CommitmentHeaderLib.CommitmentHeaderQuery",
          "name": "commitmentQuery",
          "type": "tuple"
        },
        {
          "components": [
            {
              "internalType": "bytes32",
              "name": "parentHash",
              "type": "bytes32"
            },
            {
              "internalType": "uint256",
              "name": "number",
              "type": "uint256"
            },
            {
              "internalType": "uint256",
              "name": "incomingTransactionsIndex",
              "type": "uint256"
            },
            {
              "internalType": "uint256",
              "name": "incomingTransactionsCount",
              "type": "uint256"
            },
            {
              "internalType": "uint256",
              "name": "transactionsCount",
              "type": "uint256"
            },
            {
              "internalType": "bytes32",
              "name": "transactionsRoot",
              "type": "bytes32"
            },
            {
              "internalType": "bytes32",
              "name": "stateRoot",
              "type": "bytes32"
            },
            {
              "internalType": "bytes32",
              "name": "exitsRoot",
              "type": "bytes32"
            },
            {
              "internalType": "address",
              "name": "coinbase",
              "type": "address"
            },
            {
              "internalType": "uint256",
              "name": "timestamp",
              "type": "uint256"
            }
          ],
          "internalType": "struct ISO_HeaderLib.ISO_Header",
          "name": "header",
          "type": "tuple"
        },
        {
          "internalType": "bytes",
          "name": "transaction",
          "type": "bytes"
        },
        {
          "internalType": "uint256",
          "name": "transactionIndex",
          "type": "uint256"
        },
        {
          "internalType": "bytes32[]",
          "name": "siblings",
          "type": "bytes32[]"
        },
        {
          "internalType": "bytes",
          "name": "stateProof",
          "type": "bytes"
        }
      ],
      "name": "proveInsufficientBalanceError",
      "outputs": [],
      "stateMutability": "nonpayable",
      "type": "function"
    }
  ],
  "bytecode": "0x608060405234801561001057600080fd5b50611dfb806100206000396000f3fe608060405234801561001057600080fd5b50600436106100365760003560e01c8063ce94ddda1461003b578063f1fa0aca14610050575b600080fd5b61004e610049366004611730565b610063565b005b61004e61005e3660046117c1565b6100db565b61006d8585610186565b610075611406565b610081858585856101e6565b9050600061008e82610254565b90506001600160a01b038116156100c05760405162461bcd60e51b81526004016100b790611aa0565b60405180910390fd5b6100d160008863ffffffff6102db16565b5050505050505050565b6100e58686610186565b6100ed611406565b6100f9868686866101e6565b9050600061010682610254565b9050610110611459565b60025461012084015161012e916001600160a01b0316908487610374565b9050600083608001518460200151856040015102019050816020015181116101685760405162461bcd60e51b81526004016100b790611ad7565b61017960008b63ffffffff6102db16565b5050505050505050505050565b61019760008363ffffffff61045616565b6101b35760405162461bcd60e51b81526004016100b790611a74565b6101bc8161049c565b826060015160600151146101e25760405162461bcd60e51b81526004016100b790611bbf565b5050565b6101ee611406565b84606001518310156102125760405162461bcd60e51b81526004016100b790611b88565b6102248585858563ffffffff6104cc16565b6102405760405162461bcd60e51b81526004016100b790611c37565b610249846104de565b90505b949350505050565b60008061026083610642565b60e084015161010085015160ff92909216925090600061027f8661064f565b9050600181858585604051600081526020016040526040516102a49493929190611a15565b6020604051602081039080840390855afa1580156102c6573d6000803e3d6000fd5b5050604051601f190151979650505050505050565b80516000908152600d830160209081526040822090830151815481106102fd57fe5b6000918252602080832091909101829055606084810180518201518452600f8701909252604092839020805460ff191660029081179091559151015191517f99c9efff0684b78043f08af38ed552c7eb27175341050520cf3d3a60f83b26e59161036691611a33565b60405180910390a292915050565b61037c611459565b610384611480565b61038d83610682565b80516020820151604080840151905163b096267360e01b81529394506001600160a01b03808b169463b0962673946103d3948c9460a094929391928d1691600401611981565b60206040518083038186803b1580156103eb57600080fd5b505afa1580156103ff573d6000803e3d6000fd5b505050506040513d601f19601f820116820180604052508101906104239190611709565b61043f5760405162461bcd60e51b81526004016100b790611a47565b61044c81602001516106a4565b9695505050505050565b6000610465826060015161075c565b82516000908152600d850160209081526040909120908401518154811061048857fe5b906000526020600020015414905092915050565b6000816040516020016104af9190611ca2565b604051602081830303815290604052805190602001209050919050565b60006102498560a0015185858561076f565b6104e6611406565b60008060008060006060600080600080600061053b565b8051600090600183019060f81c60808110801561051c57819350610534565b60808203835160088202610100031c94508084019350505b5050915091565b5060208c015160f81c8c0160d51901610553816104fd565b91509a50610560816104fd565b9150995061056d816104fd565b9150985061057a816104fd565b91509750610587816104fd565b9150965061059481610806565b90965090506105a2816104fd565b915094506105af816104fd565b915093506105bc816104fd565b8e5191945091508d018082146105e45760405162461bcd60e51b81526004016100b790611c00565b505160408051610140810182529b8c5260208c019a909a52988a01979097526001600160a01b039095166060890152608088019390935260a087019190915260c086015260e08501526101008401525061012082015290505b919050565b60c00151620186b1190190565b61c35560c0820152600060e082018190526101008201819052606061067383610998565b80516020909101209392505050565b61068a611480565b8180602001905181019061069e9190611875565b92915050565b6106ac611459565b81516106c1576106ba610b6f565b905061063d565b8151602014156106fe57602082015180156106ee5760405162461bcd60e51b81526004016100b790611b1a565b6106f6610b6f565b91505061063d565b600080600080602086015160f81c860160d5190161071b816104fd565b91509450610728816104fd565b6001810151602290910151604080516080810182529889526020890193909352918701526060860152509295945050505050565b6000816040516020016104af9190611c6e565b60008351600014156107915760208401518061078f57600091505061024c565b505b8351602085012060005b83518110156107fa5760008482815181106107b257fe5b6020026020010151905060006107c88784610bdd565b905060ff81166107e3576107dc8483610be4565b93506107f0565b6107ed8285610be4565b93505b505060010161079b565b50909414949350505050565b805160019091019060609060009060f81c6080811415610836576040805160008152602081019091529250610991565b60808160ff16101561088e57604080516001808252818301909252906020820181803683370190505092508060f81b8360008151811061087257fe5b60200101906001600160f81b031916908160001a905350610991565b60b88160ff1610156108fb5760ff607f19820116806001600160401b03811180156108b857600080fd5b506040519080825280601f01601f1916602001820160405280156108e3576020820181803683370190505b5093506108f1858583610c17565b9390930192610991565b60c08160ff16101561097957835160ff60b619830116948501949060088202610100031c806001600160401b038111801561093557600080fd5b506040519080825280601f01601f191660200182016040528015610960576020820181803683370190505b50945061096e868683610c17565b949094019350610991565b60405162461bcd60e51b81526004016100b790611b51565b5090929050565b6040805160098082526101408201909252606091829190816020015b6109bc6114a1565b8152602001906001900390816109b45790505090506109e66109e18460000151610c2c565b610cb7565b816000815181106109f357fe5b6020026020010181905250610a0e6109e18460200151610c2c565b81600181518110610a1b57fe5b6020026020010181905250610a366109e18460400151610c2c565b81600281518110610a4357fe5b6020026020010181905250610a7a8360600151604051602001610a669190611956565b604051602081830303815290604052610cb7565b81600381518110610a8757fe5b6020026020010181905250610aa26109e18460800151610c2c565b81600481518110610aaf57fe5b6020026020010181905250610ac78360a00151610cb7565b81600581518110610ad457fe5b6020026020010181905250610aef6109e18460c00151610c2c565b81600681518110610afc57fe5b6020026020010181905250610b1a6109e18460e0015160001c610c2c565b81600781518110610b2757fe5b6020026020010181905250610b466109e184610100015160001c610c2c565b81600881518110610b5357fe5b6020026020010181905250610b6781610cc5565b519392505050565b610b77611459565b5060408051608081018252600080825260208201527fa9a4da177ac3f81cfe85a6767678aabb095aa306e72ab73f5cf0559c56d0a530918101919091527fc5d2460186f7233c927e7db2dcc703c0e500b653ca82273b7bfad8045d85a470606082015290565b1c60011690565b60008282604051602001610bf9929190611973565b60405160208183030381529060405280519060200120905092915050565b60208201610c26818584610f28565b50505050565b60606000610c3983610f66565b905080610c56576040805160008152602081019091529150610cb1565b806001600160401b0381118015610c6c57600080fd5b506040519080825280601f01601f191660200182016040528015610c97576020820181803683370190505b506008919091026101000383901b6020820152905061063d565b50919050565b610cbf6114a1565b90815290565b610ccd6114a1565b606082516001600160401b0381118015610ce657600080fd5b50604051908082528060200260200182016040528015610d1a57816020015b6060815260200190600190039081610d055790505b50905060606000805b8551811015610d76576060610d4a878381518110610d3d57fe5b60200260200101516111ff565b60000151905080858381518110610d5d57fe5b6020908102919091010152519190910190600101610d23565b506038811015610e3657806001016001600160401b0381118015610d9957600080fd5b506040519080825280601f01601f191660200182016040528015610dc4576020820181803683370190505b5091508060c00160f81b82600081518110610ddb57fe5b60200101906001600160f81b031916908160001a905350602160005b8451811015610e2f5760206001820181028601518051848101948701929190910190610e24838383610f28565b505050600101610df7565b5050610f0c565b6000610e4182610f66565b90508181600101016001600160401b0381118015610e5e57600080fd5b506040519080825280601f01601f191660200182016040528015610e89576020820181803683370190505b5092508060f70160f81b83600081518110610ea057fe5b60200101906001600160f81b031916908160001a905350600881026101000382901b602184810191909152810160005b8551811015610f085760206001820181028701518051848101948801929190910190610efd838383610f28565b505050600101610ed0565b5050505b5060408051808201909152908152600160208201529392505050565b5b60208110610f48578151835260209283019290910190601f1901610f29565b600180600883602003021b0380845116811984511617845250505050565b600081610f755750600161063d565b6001600160f81b0319821615610f8d5750602061063d565b60ff60f01b821615610fa15750601f61063d565b60ff60e81b821615610fb55750601e61063d565b60ff60e01b821615610fc95750601d61063d565b60ff60d81b821615610fdd5750601c61063d565b60ff60d01b821615610ff15750601b61063d565b60ff60c81b8216156110055750601a61063d565b60ff60c01b8216156110195750601961063d565b60ff60b81b82161561102d5750601861063d565b60ff60b01b8216156110415750601761063d565b60ff60a81b8216156110555750601661063d565b60ff60a01b8216156110695750601561063d565b60ff60981b82161561107d5750601461063d565b60ff60901b8216156110915750601361063d565b60ff60881b8216156110a55750601261063d565b60ff60801b8216156110b95750601161063d565b60ff60781b8216156110cd5750601061063d565b60ff60701b8216156110e15750600f61063d565b60ff60681b8216156110f55750600e61063d565b60ff60601b8216156111095750600d61063d565b60ff60581b82161561111d5750600c61063d565b60ff60501b8216156111315750600b61063d565b69ff00000000000000000082161561114b5750600a61063d565b68ff00000000000000008216156111645750600961063d565b67ff0000000000000082161561117c5750600861063d565b66ff0000000000008216156111935750600761063d565b65ff00000000008216156111a95750600661063d565b64ff000000008216156111be5750600561063d565b63ff0000008216156111d25750600461063d565b62ff00008216156111e55750600361063d565b61ff008216156111f75750600261063d565b506001919050565b6112076114a1565b81602001511561121857508061063d565b6001602080830191909152825190830151606091908061125b57508051600114801561125b5750608060ff168160008151811061125157fe5b016020015160f81c105b156112a4578060008151811061126d57fe5b016020015160f81c61129a5750506040805180820190915260018152600160ff1b6020820152815261063d565b839250505061063d565b8051603811156113425780516001016001600160401b03811180156112c857600080fd5b506040519080825280601f01601f1916602001820160405280156112f3576020820181803683370190505b509150805160800160f81b8260008151811061130b57fe5b60200101906001600160f81b031916908160001a90535080516021830190602083019061133b9083908390610f28565b50506113fe565b600061134e8251610f66565b9050815181600101016001600160401b038111801561136c57600080fd5b506040519080825280601f01601f191660200182016040528015611397576020820181803683370190505b5092508060b70160f81b836000815181106113ae57fe5b60200101906001600160f81b031916908160001a9053508151156113fc57815181600802610100031b602184015260008082602101850191506020840190506113f982828651610f28565b50505b505b508152919050565b604080516101408101825260008082526020820181905291810182905260608082018390526080820183905260a082015260c0810182905260e08101829052610100810182905261012081019190915290565b60408051608081018252600080825260208201819052918101829052606081019190915290565b60405180606001604052806000815260200160608152602001606081525090565b60408051808201909152606081526000602082015290565b80356001600160a01b038116811461069e57600080fd5b600082601f8301126114e0578081fd5b81356114f36114ee82611d3f565b611d19565b81815291506020808301908481018184028601820187101561151457600080fd5b60005b8481101561153357813584529282019290820190600101611517565b505050505092915050565b600082601f83011261154e578081fd5b815161155c6114ee82611d3f565b81815291506020808301908481018184028601820187101561157d57600080fd5b60005b8481101561153357815184529282019290820190600101611580565b600082601f8301126115ac578081fd5b81356115ba6114ee82611d5e565b91508082528360208285010111156115d157600080fd5b8060208401602084013760009082016020015292915050565b600081830360e08112156115fc578182fd5b6116066080611d19565b91508235825260208301356020830152604083013560408301526080605f198201121561163257600080fd5b5061163d6080611d19565b606083013581526080830135602082015260a083013561165c81611dad565b8060408301525060c083013560608201528060608301525092915050565b600061014080838503121561168d578182fd5b61169681611d19565b915050813581526020820135602082015260408201356040820152606082013560608201526080820135608082015260a082013560a082015260c082013560c082015260e082013560e08201526101006116f2848285016114b9565b818301525061012080830135818301525092915050565b60006020828403121561171a578081fd5b81518015158114611729578182fd5b9392505050565b60008060008060006102808688031215611748578081fd5b61175287876115ea565b94506117618760e0880161167a565b93506102208601356001600160401b038082111561177d578283fd5b61178989838a0161159c565b945061024088013593506102608801359150808211156117a7578283fd5b506117b4888289016114d0565b9150509295509295909350565b6000806000806000806102a087890312156117da578081fd5b6117e488886115ea565b95506117f38860e0890161167a565b94506102208701356001600160401b038082111561180f578283fd5b61181b8a838b0161159c565b95506102408901359450610260890135915080821115611839578283fd5b6118458a838b016114d0565b935061028089013591508082111561185b578283fd5b5061186889828a0161159c565b9150509295509295509295565b60006020808385031215611887578182fd5b82516001600160401b038082111561189d578384fd5b818501606081880312156118af578485fd5b6118b96060611d19565b92508051835283810151828111156118cf578586fd5b80820188601f8201126118e0578687fd5b805191506118f06114ee83611d5e565b8281528987848401011115611903578788fd5b61191283888301898501611d81565b8087870152505050604081015193508184111561192d578485fd5b6119398785830161153e565b6040840152509095945050505050565b6001600160a01b03169052565b60609190911b6bffffffffffffffffffffffff1916815260140190565b918252602082015260400190565b60008782526020878184015286604084015260c0606084015285518060c08501526119b28160e08601848a01611d81565b60808401869052601f01601f1916830183810360e090810160a08601528551908201819052828601918491610100909101905b80831015611a0557835182529284019260019290920191908401906119e5565b509b9a5050505050505050505050565b93845260ff9290921660208401526040830152606082015260800190565b6020810160038310611a4157fe5b91905290565b60208082526013908201527224b73b30b634b21039ba30ba3290383937b7b360691b604082015260600190565b602080825260129082015271213637b1b5903737ba103832b73234b7339760711b604082015260600190565b6020808252601a908201527f5369676e6174757265206572726f72206e6f7420666f756e642e000000000000604082015260600190565b60208082526023908201527f42616c616e63652073756666696369656e7420666f72207472616e736163746960408201526237b71760e91b606082015260800190565b60208082526019908201527f496e76616c6964206163636f756e7420656e636f64696e672e00000000000000604082015260600190565b60208082526017908201527f446174612070726566697820697320696e76616c69642e000000000000000000604082015260600190565b60208082526019908201527f4e6f742061207369676e6564207472616e73616374696f6e2e00000000000000604082015260600190565b60208082526021908201527f48656164657220646f6573206e6f74206d6174636820636f6d6d69746d656e746040820152601760f91b606082015260800190565b6020808252601d908201527f496e76616c6964207472616e73616374696f6e20656e636f64696e672e000000604082015260600190565b6020808252601a908201527f496e76616c6964207472616e73616374696f6e2070726f6f662e000000000000604082015260600190565b81518152602080830151908201526040808301516001600160a01b0316908201526060918201519181019190915260800190565b600061014082019050825182526020830151602083015260408301516040830152606083015160608301526080830151608083015260a083015160a083015260c083015160c083015260e083015160e083015261010080840151611d0882850182611949565b505061012092830151919092015290565b6040518181016001600160401b0381118282101715611d3757600080fd5b604052919050565b60006001600160401b03821115611d54578081fd5b5060209081020190565b60006001600160401b03821115611d73578081fd5b50601f01601f191660200190565b60005b83811015611d9c578181015183820152602001611d84565b83811115610c265750506000910152565b6001600160a01b0381168114611dc257600080fd5b5056fea2646970667358221220edfca715ed953b425f3c9a3a3381d9f2114642323c4020d4d76f6e08b1cf055664736f6c634300060b0033",
  "immutableReferences": {},
  "source": "pragma solidity ^0.6.0;\npragma experimental ABIEncoderV2;\n\nimport { ChainStateImplementer as Stateful } from \"../common/ChainStateImplementer.sol\";\nimport { ChainStateLib as State } from \"../common/ChainStateLib.sol\";\nimport { ISO_HeaderLib as Header } from \"../common/blocks/ISO_HeaderLib.sol\";\nimport { CommitmentHeaderLib as CL } from \"../common/blocks/CommitmentHeaderLib.sol\";\nimport { StateProofLib as StateProof } from \"./lib/StateProofLib.sol\";\nimport { SignedTransactionLib as SignedTx } from \"../common/transactions/SignedTransactionLib.sol\";\nimport { RelayTransactionLib as IncomingTx } from \"../common/transactions/RelayTransactionLib.sol\";\nimport { RLPAccountLib as Account } from \"../utils/type-encoders/RLPAccountLib.sol\";\n\n\ncontract TransactionErrorProver is Stateful {\n  using State for State.ChainState;\n  using Header for Header.ISO_Header;\n  using SignedTx for SignedTx.SignedTransaction;\n\n  function validateHeader(\n    CL.CommitmentHeaderQuery memory commitmentQuery,\n    Header.ISO_Header memory header\n  ) internal view {\n    require(chainState.hasPendingBlock(commitmentQuery), \"Block not pending.\");\n    require(\n      commitmentQuery.commitment.blockHash == header.blockHash(),\n      \"Header does not match commitment.\"\n    );\n  }\n\n  function validateSignedTransaction(\n    Header.ISO_Header memory header,\n    bytes memory transaction,\n    uint256 transactionIndex,\n    bytes32[] memory siblings\n  ) internal pure returns (SignedTx.SignedTransaction memory) {\n    require(\n      transactionIndex >= header.incomingTransactionsCount,\n      \"Not a signed transaction.\"\n    );\n    require(\n      header.hasTransaction(transaction, transactionIndex, siblings),\n      \"Invalid transaction proof.\"\n    );\n    return SignedTx.decodeTransaction(transaction);\n  }\n\n  function proveTransactionSignatureError(\n    CL.CommitmentHeaderQuery memory commitmentQuery,\n    Header.ISO_Header memory header,\n    bytes memory transaction,\n    uint256 transactionIndex,\n    bytes32[] memory siblings\n  ) public {\n    validateHeader(commitmentQuery, header);\n    SignedTx.SignedTransaction memory _tx = validateSignedTransaction(\n      header,\n      transaction,\n      transactionIndex,\n      siblings\n    );\n    address signer = _tx.getSenderAddress();\n    require(signer == address(0), \"Signature error not found.\");\n    chainState.markFraudulentBlock(commitmentQuery);\n  }\n\n  function proveInsufficientBalanceError(\n    CL.CommitmentHeaderQuery memory commitmentQuery,\n    Header.ISO_Header memory header,\n    bytes memory transaction,\n    uint256 transactionIndex,\n    bytes32[] memory siblings,\n    bytes memory stateProof\n  ) public {\n    validateHeader(commitmentQuery, header);\n    /* Only signed transactions reduce the caller balance. */\n    SignedTx.SignedTransaction memory _tx = validateSignedTransaction(\n      header,\n      transaction,\n      transactionIndex,\n      siblings\n    );\n    address signer = _tx.getSenderAddress();\n    Account.Account memory account = StateProof.proveAccountInState(\n      chainState.sparse,\n      _tx.stateRoot,\n      signer,\n      stateProof\n    );\n    uint256 totalCost = (_tx.gas * _tx.gasPrice) + _tx.value;\n    require(totalCost > account.balance, \"Balance sufficient for transaction.\");\n    chainState.markFraudulentBlock(commitmentQuery);\n  }\n\n\n  // function validateSimpleTransactionErrorProof(\n  //   Header.ISO_Header memory header,\n  //   uint256 transactionIndex,\n  //   bytes memory transaction,\n  //   bytes32[] memory siblings\n  // ) internal pure {\n  //   bytes memory _tx;\n  //   if (transactionIndex < header.incomingTransactionsCount) {\n      \n  //   }\n  //   require(\n  //     header.hasTransaction(\n  //       transaction, transactionIndex, siblings\n  //     ),\n  //     \"Invalid transaction proof submitted.\"\n  //   );\n  // }\n}",
  "sourcePath": "/home/dillon/sparse-iso/sparse-iso/packages/contracts/contracts/fraud-proofs/TransactionErrorProver.sol",
  "compiler": {
    "name": "solc",
    "version": "0.6.11+commit.5ef660b1.Emscripten.clang"
  },
  "schemaVersion": "3.2.1",
  "updatedAt": "2020-07-17T23:51:47.621Z",
  "devdoc": {
    "kind": "dev",
    "methods": {},
    "version": 1
  },
  "userdoc": {
    "kind": "user",
    "methods": {},
    "version": 1
  }
}