{
  "contractName": "WitnessErrorLib",
  "abi": [
    {
      "inputs": [
        {
          "components": [
            {
              "internalType": "bytes32",
              "name": "stateRootEnter",
              "type": "bytes32"
            },
            {
              "internalType": "bytes32",
              "name": "stateRootLeave",
              "type": "bytes32"
            },
            {
              "internalType": "bool",
              "name": "isStatic",
              "type": "bool"
            },
            {
              "internalType": "address",
              "name": "origin",
              "type": "address"
            },
            {
              "internalType": "address",
              "name": "caller",
              "type": "address"
            },
            {
              "internalType": "address",
              "name": "to",
              "type": "address"
            },
            {
              "internalType": "address",
              "name": "context",
              "type": "address"
            },
            {
              "internalType": "uint256",
              "name": "callvalue",
              "type": "uint256"
            },
            {
              "internalType": "uint256",
              "name": "gasPrice",
              "type": "uint256"
            },
            {
              "internalType": "uint256",
              "name": "gasAvailable",
              "type": "uint256"
            },
            {
              "internalType": "uint256",
              "name": "gasUsed",
              "type": "uint256"
            },
            {
              "internalType": "uint256",
              "name": "gasRefund",
              "type": "uint256"
            },
            {
              "internalType": "bytes[]",
              "name": "access_list",
              "type": "bytes[]"
            },
            {
              "internalType": "uint256",
              "name": "status",
              "type": "uint256"
            },
            {
              "internalType": "bytes32",
              "name": "returndataHash",
              "type": "bytes32"
            },
            {
              "internalType": "bytes",
              "name": "callData",
              "type": "bytes"
            }
          ],
          "internalType": "struct MessageWitnessLib.MessageWitness",
          "name": "witness",
          "type": "tuple"
        }
      ],
      "name": "validateGasExceededErrorProof",
      "outputs": [],
      "stateMutability": "pure",
      "type": "function"
    }
  ],
  "bytecode": "0x610378610026600b82828239805160001a60731461001957fe5b30600052607381538281f3fe73000000000000000000000000000000000000000030146080604052600436106100355760003560e01c8063e7f997af1461003a575b600080fd5b61004d610048366004610191565b61004f565b005b806101200151816101400151116100815760405162461bcd60e51b8152600401610078906102e4565b60405180910390fd5b50565b80356001600160a01b038116811461009b57600080fd5b92915050565b600082601f8301126100b1578081fd5b813567ffffffffffffffff8111156100c7578182fd5b60206100d6818284020161031b565b828152925080830184820160005b8481101561010d576100fb888584358a0101610128565b835291830191908301906001016100e4565b505050505092915050565b8035801515811461009b57600080fd5b600082601f830112610138578081fd5b813567ffffffffffffffff81111561014e578182fd5b610161601f8201601f191660200161031b565b915080825283602082850101111561017857600080fd5b8060208401602084013760009082016020015292915050565b6000602082840312156101a2578081fd5b813567ffffffffffffffff808211156101b9578283fd5b6102009184018086038313156101cd578384fd5b6101d68361031b565b81358152602082013560208201526101f18760408401610118565b60408201526102038760608401610084565b60608201526102158760808401610084565b60808201526102278760a08401610084565b60a08201526102398760c08401610084565b60c082015260e08281013590820152610100808301359082015261012080830135908201526101408083013590820152610160808301359082015261018093508382013583811115610289578586fd5b610295888285016100a1565b948201949094526101a082810135908201526101c080830135908201526101e0935083820135838111156102c7578586fd5b6102d388828501610128565b948201949094529695505050505050565b6020808252601e908201527f476173207573656420646964206e6f7420657863656564206c696d69742e0000604082015260600190565b60405181810167ffffffffffffffff8111828210171561033a57600080fd5b60405291905056fea264697066735822122075dc91f9dd0ed6f1a9a92cea9934d10870c0f0b54e4c9ae13e7572f405a6669464736f6c634300060b0033",
  "immutableReferences": {},
  "source": "pragma solidity ^0.6.0;\npragma experimental ABIEncoderV2;\n\nimport { MessageWitnessLib as Message } from \"../common/witness/MessageWitnessLib.sol\";\nimport { ISO_HeaderLib as Header } from \"../common/blocks/ISO_HeaderLib.sol\";\n\nlibrary WitnessErrorLib {\n  // function validateWitnessErrorProof_StateRoot(\n    \n  // ) internal pure {\n    \n  // }\n\n  function validateGasExceededErrorProof(\n    Message.MessageWitness memory witness\n  ) public pure {\n    require(witness.gasUsed > witness.gasAvailable, \"Gas used did not exceed limit.\");\n  }\n}",
  "sourcePath": "/home/dillon/sparse-iso/sparse-iso/packages/contracts/contracts/fraud-proofs/WitnessErrorLib.sol",
  "compiler": {
    "name": "solc",
    "version": "0.6.11+commit.5ef660b1.Emscripten.clang"
  },
  "schemaVersion": "3.2.1",
  "updatedAt": "2020-07-17T23:51:47.624Z",
  "devdoc": {
    "kind": "dev",
    "methods": {},
    "version": 1
  },
  "userdoc": {
    "kind": "user",
    "methods": {},
    "version": 1
  }
}