{
  "contractName": "WitnessErrorProver",
  "abi": [
    {
      "inputs": [
        {
          "components": [
            {
              "internalType": "bytes32",
              "name": "parentHash",
              "type": "bytes32"
            },
            {
              "internalType": "uint256",
              "name": "childIndex",
              "type": "uint256"
            },
            {
              "internalType": "uint256",
              "name": "blockNumber",
              "type": "uint256"
            },
            {
              "components": [
                {
                  "internalType": "uint256",
                  "name": "submittedAt",
                  "type": "uint256"
                },
                {
                  "internalType": "bytes32",
                  "name": "exitsRoot",
                  "type": "bytes32"
                },
                {
                  "internalType": "address",
                  "name": "coinbase",
                  "type": "address"
                },
                {
                  "internalType": "bytes32",
                  "name": "blockHash",
                  "type": "bytes32"
                }
              ],
              "internalType": "struct CommitmentHeaderLib.CommitmentHeader",
              "name": "commitment",
              "type": "tuple"
            }
          ],
          "internalType": "struct CommitmentHeaderLib.CommitmentHeaderQuery",
          "name": "commitmentQuery",
          "type": "tuple"
        },
        {
          "components": [
            {
              "internalType": "bytes32",
              "name": "parentHash",
              "type": "bytes32"
            },
            {
              "internalType": "uint256",
              "name": "number",
              "type": "uint256"
            },
            {
              "internalType": "uint256",
              "name": "incomingTransactionsIndex",
              "type": "uint256"
            },
            {
              "internalType": "uint256",
              "name": "incomingTransactionsCount",
              "type": "uint256"
            },
            {
              "internalType": "uint256",
              "name": "transactionsCount",
              "type": "uint256"
            },
            {
              "internalType": "bytes32",
              "name": "transactionsRoot",
              "type": "bytes32"
            },
            {
              "internalType": "bytes32",
              "name": "stateRoot",
              "type": "bytes32"
            },
            {
              "internalType": "bytes32",
              "name": "exitsRoot",
              "type": "bytes32"
            },
            {
              "internalType": "address",
              "name": "coinbase",
              "type": "address"
            },
            {
              "internalType": "uint256",
              "name": "timestamp",
              "type": "uint256"
            }
          ],
          "internalType": "struct ISO_HeaderLib.ISO_Header",
          "name": "header",
          "type": "tuple"
        },
        {
          "internalType": "bytes",
          "name": "transactionBytes",
          "type": "bytes"
        },
        {
          "internalType": "uint256",
          "name": "transactionIndex",
          "type": "uint256"
        },
        {
          "internalType": "bytes32[]",
          "name": "siblings",
          "type": "bytes32[]"
        },
        {
          "internalType": "bytes",
          "name": "previousRootProof",
          "type": "bytes"
        },
        {
          "internalType": "bytes",
          "name": "witnessBytes",
          "type": "bytes"
        },
        {
          "internalType": "bytes",
          "name": "stateProof1",
          "type": "bytes"
        },
        {
          "internalType": "bytes",
          "name": "stateProof2",
          "type": "bytes"
        }
      ],
      "name": "proveWitnessEntryRootError",
      "outputs": [],
      "stateMutability": "nonpayable",
      "type": "function"
    },
    {
      "inputs": [
        {
          "components": [
            {
              "internalType": "bytes32",
              "name": "parentHash",
              "type": "bytes32"
            },
            {
              "internalType": "uint256",
              "name": "childIndex",
              "type": "uint256"
            },
            {
              "internalType": "uint256",
              "name": "blockNumber",
              "type": "uint256"
            },
            {
              "components": [
                {
                  "internalType": "uint256",
                  "name": "submittedAt",
                  "type": "uint256"
                },
                {
                  "internalType": "bytes32",
                  "name": "exitsRoot",
                  "type": "bytes32"
                },
                {
                  "internalType": "address",
                  "name": "coinbase",
                  "type": "address"
                },
                {
                  "internalType": "bytes32",
                  "name": "blockHash",
                  "type": "bytes32"
                }
              ],
              "internalType": "struct CommitmentHeaderLib.CommitmentHeader",
              "name": "commitment",
              "type": "tuple"
            }
          ],
          "internalType": "struct CommitmentHeaderLib.CommitmentHeaderQuery",
          "name": "commitmentQuery",
          "type": "tuple"
        },
        {
          "components": [
            {
              "internalType": "bytes32",
              "name": "parentHash",
              "type": "bytes32"
            },
            {
              "internalType": "uint256",
              "name": "number",
              "type": "uint256"
            },
            {
              "internalType": "uint256",
              "name": "incomingTransactionsIndex",
              "type": "uint256"
            },
            {
              "internalType": "uint256",
              "name": "incomingTransactionsCount",
              "type": "uint256"
            },
            {
              "internalType": "uint256",
              "name": "transactionsCount",
              "type": "uint256"
            },
            {
              "internalType": "bytes32",
              "name": "transactionsRoot",
              "type": "bytes32"
            },
            {
              "internalType": "bytes32",
              "name": "stateRoot",
              "type": "bytes32"
            },
            {
              "internalType": "bytes32",
              "name": "exitsRoot",
              "type": "bytes32"
            },
            {
              "internalType": "address",
              "name": "coinbase",
              "type": "address"
            },
            {
              "internalType": "uint256",
              "name": "timestamp",
              "type": "uint256"
            }
          ],
          "internalType": "struct ISO_HeaderLib.ISO_Header",
          "name": "header",
          "type": "tuple"
        },
        {
          "internalType": "bytes",
          "name": "transactionBytes",
          "type": "bytes"
        },
        {
          "internalType": "uint256",
          "name": "transactionIndex",
          "type": "uint256"
        },
        {
          "internalType": "bytes32[]",
          "name": "siblings",
          "type": "bytes32[]"
        },
        {
          "internalType": "bytes",
          "name": "witnessBytes",
          "type": "bytes"
        }
      ],
      "name": "proveWitnessContextError",
      "outputs": [],
      "stateMutability": "nonpayable",
      "type": "function"
    },
    {
      "inputs": [
        {
          "components": [
            {
              "internalType": "bytes32",
              "name": "parentHash",
              "type": "bytes32"
            },
            {
              "internalType": "uint256",
              "name": "childIndex",
              "type": "uint256"
            },
            {
              "internalType": "uint256",
              "name": "blockNumber",
              "type": "uint256"
            },
            {
              "components": [
                {
                  "internalType": "uint256",
                  "name": "submittedAt",
                  "type": "uint256"
                },
                {
                  "internalType": "bytes32",
                  "name": "exitsRoot",
                  "type": "bytes32"
                },
                {
                  "internalType": "address",
                  "name": "coinbase",
                  "type": "address"
                },
                {
                  "internalType": "bytes32",
                  "name": "blockHash",
                  "type": "bytes32"
                }
              ],
              "internalType": "struct CommitmentHeaderLib.CommitmentHeader",
              "name": "commitment",
              "type": "tuple"
            }
          ],
          "internalType": "struct CommitmentHeaderLib.CommitmentHeaderQuery",
          "name": "commitmentQuery",
          "type": "tuple"
        },
        {
          "internalType": "uint256",
          "name": "transactionIndex",
          "type": "uint256"
        },
        {
          "internalType": "bytes",
          "name": "witnessBytes",
          "type": "bytes"
        }
      ],
      "name": "proveWitnessExitRootError",
      "outputs": [],
      "stateMutability": "nonpayable",
      "type": "function"
    },
    {
      "inputs": [
        {
          "components": [
            {
              "internalType": "bytes32",
              "name": "parentHash",
              "type": "bytes32"
            },
            {
              "internalType": "uint256",
              "name": "childIndex",
              "type": "uint256"
            },
            {
              "internalType": "uint256",
              "name": "blockNumber",
              "type": "uint256"
            },
            {
              "components": [
                {
                  "internalType": "uint256",
                  "name": "submittedAt",
                  "type": "uint256"
                },
                {
                  "internalType": "bytes32",
                  "name": "exitsRoot",
                  "type": "bytes32"
                },
                {
                  "internalType": "address",
                  "name": "coinbase",
                  "type": "address"
                },
                {
                  "internalType": "bytes32",
                  "name": "blockHash",
                  "type": "bytes32"
                }
              ],
              "internalType": "struct CommitmentHeaderLib.CommitmentHeader",
              "name": "commitment",
              "type": "tuple"
            }
          ],
          "internalType": "struct CommitmentHeaderLib.CommitmentHeaderQuery",
          "name": "commitmentQuery",
          "type": "tuple"
        },
        {
          "internalType": "uint256",
          "name": "transactionIndex",
          "type": "uint256"
        },
        {
          "internalType": "bytes",
          "name": "witnessBytes",
          "type": "bytes"
        }
      ],
      "name": "proveExitCallWitnessGasError",
      "outputs": [],
      "stateMutability": "nonpayable",
      "type": "function"
    },
    {
      "inputs": [
        {
          "components": [
            {
              "internalType": "bytes32",
              "name": "parentHash",
              "type": "bytes32"
            },
            {
              "internalType": "uint256",
              "name": "childIndex",
              "type": "uint256"
            },
            {
              "internalType": "uint256",
              "name": "blockNumber",
              "type": "uint256"
            },
            {
              "components": [
                {
                  "internalType": "uint256",
                  "name": "submittedAt",
                  "type": "uint256"
                },
                {
                  "internalType": "bytes32",
                  "name": "exitsRoot",
                  "type": "bytes32"
                },
                {
                  "internalType": "address",
                  "name": "coinbase",
                  "type": "address"
                },
                {
                  "internalType": "bytes32",
                  "name": "blockHash",
                  "type": "bytes32"
                }
              ],
              "internalType": "struct CommitmentHeaderLib.CommitmentHeader",
              "name": "commitment",
              "type": "tuple"
            }
          ],
          "internalType": "struct CommitmentHeaderLib.CommitmentHeaderQuery",
          "name": "commitmentQuery",
          "type": "tuple"
        },
        {
          "components": [
            {
              "internalType": "bytes32",
              "name": "parentHash",
              "type": "bytes32"
            },
            {
              "internalType": "uint256",
              "name": "number",
              "type": "uint256"
            },
            {
              "internalType": "uint256",
              "name": "incomingTransactionsIndex",
              "type": "uint256"
            },
            {
              "internalType": "uint256",
              "name": "incomingTransactionsCount",
              "type": "uint256"
            },
            {
              "internalType": "uint256",
              "name": "transactionsCount",
              "type": "uint256"
            },
            {
              "internalType": "bytes32",
              "name": "transactionsRoot",
              "type": "bytes32"
            },
            {
              "internalType": "bytes32",
              "name": "stateRoot",
              "type": "bytes32"
            },
            {
              "internalType": "bytes32",
              "name": "exitsRoot",
              "type": "bytes32"
            },
            {
              "internalType": "address",
              "name": "coinbase",
              "type": "address"
            },
            {
              "internalType": "uint256",
              "name": "timestamp",
              "type": "uint256"
            }
          ],
          "internalType": "struct ISO_HeaderLib.ISO_Header",
          "name": "header",
          "type": "tuple"
        },
        {
          "internalType": "uint256",
          "name": "transactionIndex",
          "type": "uint256"
        },
        {
          "internalType": "bytes",
          "name": "witnessBytes",
          "type": "bytes"
        },
        {
          "internalType": "bytes",
          "name": "stateProofBytes",
          "type": "bytes"
        },
        {
          "internalType": "bytes",
          "name": "storageProofBytes",
          "type": "bytes"
        },
        {
          "internalType": "bytes",
          "name": "leafProofBytes",
          "type": "bytes"
        }
      ],
      "name": "proveExitCallWitnessExitRootError",
      "outputs": [],
      "stateMutability": "nonpayable",
      "type": "function"
    },
    {
      "inputs": [
        {
          "components": [
            {
              "internalType": "bytes32",
              "name": "parentHash",
              "type": "bytes32"
            },
            {
              "internalType": "uint256",
              "name": "childIndex",
              "type": "uint256"
            },
            {
              "internalType": "uint256",
              "name": "blockNumber",
              "type": "uint256"
            },
            {
              "components": [
                {
                  "internalType": "uint256",
                  "name": "submittedAt",
                  "type": "uint256"
                },
                {
                  "internalType": "bytes32",
                  "name": "exitsRoot",
                  "type": "bytes32"
                },
                {
                  "internalType": "address",
                  "name": "coinbase",
                  "type": "address"
                },
                {
                  "internalType": "bytes32",
                  "name": "blockHash",
                  "type": "bytes32"
                }
              ],
              "internalType": "struct CommitmentHeaderLib.CommitmentHeader",
              "name": "commitment",
              "type": "tuple"
            }
          ],
          "internalType": "struct CommitmentHeaderLib.CommitmentHeaderQuery",
          "name": "commitmentQuery",
          "type": "tuple"
        },
        {
          "components": [
            {
              "internalType": "bytes32",
              "name": "parentHash",
              "type": "bytes32"
            },
            {
              "internalType": "uint256",
              "name": "number",
              "type": "uint256"
            },
            {
              "internalType": "uint256",
              "name": "incomingTransactionsIndex",
              "type": "uint256"
            },
            {
              "internalType": "uint256",
              "name": "incomingTransactionsCount",
              "type": "uint256"
            },
            {
              "internalType": "uint256",
              "name": "transactionsCount",
              "type": "uint256"
            },
            {
              "internalType": "bytes32",
              "name": "transactionsRoot",
              "type": "bytes32"
            },
            {
              "internalType": "bytes32",
              "name": "stateRoot",
              "type": "bytes32"
            },
            {
              "internalType": "bytes32",
              "name": "exitsRoot",
              "type": "bytes32"
            },
            {
              "internalType": "address",
              "name": "coinbase",
              "type": "address"
            },
            {
              "internalType": "uint256",
              "name": "timestamp",
              "type": "uint256"
            }
          ],
          "internalType": "struct ISO_HeaderLib.ISO_Header",
          "name": "header",
          "type": "tuple"
        },
        {
          "components": [
            {
              "internalType": "bytes",
              "name": "transactionBytes",
              "type": "bytes"
            },
            {
              "internalType": "uint256",
              "name": "transactionIndex",
              "type": "uint256"
            },
            {
              "internalType": "bytes32[]",
              "name": "siblings",
              "type": "bytes32[]"
            }
          ],
          "internalType": "struct WitnessErrorProver.TransactionProof",
          "name": "txProof",
          "type": "tuple"
        },
        {
          "internalType": "bytes",
          "name": "witnessBytes",
          "type": "bytes"
        },
        {
          "internalType": "bytes",
          "name": "callerProof",
          "type": "bytes"
        },
        {
          "internalType": "bytes",
          "name": "operatorProof",
          "type": "bytes"
        }
      ],
      "name": "proveSuccessfulSignedTransactionStateRootError",
      "outputs": [],
      "stateMutability": "nonpayable",
      "type": "function"
    },
    {
      "inputs": [
        {
          "components": [
            {
              "internalType": "bytes32",
              "name": "parentHash",
              "type": "bytes32"
            },
            {
              "internalType": "uint256",
              "name": "childIndex",
              "type": "uint256"
            },
            {
              "internalType": "uint256",
              "name": "blockNumber",
              "type": "uint256"
            },
            {
              "components": [
                {
                  "internalType": "uint256",
                  "name": "submittedAt",
                  "type": "uint256"
                },
                {
                  "internalType": "bytes32",
                  "name": "exitsRoot",
                  "type": "bytes32"
                },
                {
                  "internalType": "address",
                  "name": "coinbase",
                  "type": "address"
                },
                {
                  "internalType": "bytes32",
                  "name": "blockHash",
                  "type": "bytes32"
                }
              ],
              "internalType": "struct CommitmentHeaderLib.CommitmentHeader",
              "name": "commitment",
              "type": "tuple"
            }
          ],
          "internalType": "struct CommitmentHeaderLib.CommitmentHeaderQuery",
          "name": "commitmentQuery",
          "type": "tuple"
        },
        {
          "components": [
            {
              "internalType": "bytes32",
              "name": "parentHash",
              "type": "bytes32"
            },
            {
              "internalType": "uint256",
              "name": "number",
              "type": "uint256"
            },
            {
              "internalType": "uint256",
              "name": "incomingTransactionsIndex",
              "type": "uint256"
            },
            {
              "internalType": "uint256",
              "name": "incomingTransactionsCount",
              "type": "uint256"
            },
            {
              "internalType": "uint256",
              "name": "transactionsCount",
              "type": "uint256"
            },
            {
              "internalType": "bytes32",
              "name": "transactionsRoot",
              "type": "bytes32"
            },
            {
              "internalType": "bytes32",
              "name": "stateRoot",
              "type": "bytes32"
            },
            {
              "internalType": "bytes32",
              "name": "exitsRoot",
              "type": "bytes32"
            },
            {
              "internalType": "address",
              "name": "coinbase",
              "type": "address"
            },
            {
              "internalType": "uint256",
              "name": "timestamp",
              "type": "uint256"
            }
          ],
          "internalType": "struct ISO_HeaderLib.ISO_Header",
          "name": "header",
          "type": "tuple"
        },
        {
          "components": [
            {
              "internalType": "bytes",
              "name": "transactionBytes",
              "type": "bytes"
            },
            {
              "internalType": "uint256",
              "name": "transactionIndex",
              "type": "uint256"
            },
            {
              "internalType": "bytes32[]",
              "name": "siblings",
              "type": "bytes32[]"
            }
          ],
          "internalType": "struct WitnessErrorProver.TransactionProof",
          "name": "txProof",
          "type": "tuple"
        },
        {
          "internalType": "bytes",
          "name": "witnessBytes",
          "type": "bytes"
        },
        {
          "internalType": "bytes",
          "name": "previousRootProof",
          "type": "bytes"
        },
        {
          "internalType": "bytes",
          "name": "callerProof",
          "type": "bytes"
        },
        {
          "internalType": "bytes",
          "name": "operatorProof",
          "type": "bytes"
        }
      ],
      "name": "proveFailedSignedTransactionStateRootError",
      "outputs": [],
      "stateMutability": "nonpayable",
      "type": "function"
    },
    {
      "inputs": [
        {
          "components": [
            {
              "internalType": "bytes32",
              "name": "parentHash",
              "type": "bytes32"
            },
            {
              "internalType": "uint256",
              "name": "childIndex",
              "type": "uint256"
            },
            {
              "internalType": "uint256",
              "name": "blockNumber",
              "type": "uint256"
            },
            {
              "components": [
                {
                  "internalType": "uint256",
                  "name": "submittedAt",
                  "type": "uint256"
                },
                {
                  "internalType": "bytes32",
                  "name": "exitsRoot",
                  "type": "bytes32"
                },
                {
                  "internalType": "address",
                  "name": "coinbase",
                  "type": "address"
                },
                {
                  "internalType": "bytes32",
                  "name": "blockHash",
                  "type": "bytes32"
                }
              ],
              "internalType": "struct CommitmentHeaderLib.CommitmentHeader",
              "name": "commitment",
              "type": "tuple"
            }
          ],
          "internalType": "struct CommitmentHeaderLib.CommitmentHeaderQuery",
          "name": "commitmentQuery",
          "type": "tuple"
        },
        {
          "components": [
            {
              "internalType": "bytes32",
              "name": "parentHash",
              "type": "bytes32"
            },
            {
              "internalType": "uint256",
              "name": "number",
              "type": "uint256"
            },
            {
              "internalType": "uint256",
              "name": "incomingTransactionsIndex",
              "type": "uint256"
            },
            {
              "internalType": "uint256",
              "name": "incomingTransactionsCount",
              "type": "uint256"
            },
            {
              "internalType": "uint256",
              "name": "transactionsCount",
              "type": "uint256"
            },
            {
              "internalType": "bytes32",
              "name": "transactionsRoot",
              "type": "bytes32"
            },
            {
              "internalType": "bytes32",
              "name": "stateRoot",
              "type": "bytes32"
            },
            {
              "internalType": "bytes32",
              "name": "exitsRoot",
              "type": "bytes32"
            },
            {
              "internalType": "address",
              "name": "coinbase",
              "type": "address"
            },
            {
              "internalType": "uint256",
              "name": "timestamp",
              "type": "uint256"
            }
          ],
          "internalType": "struct ISO_HeaderLib.ISO_Header",
          "name": "header",
          "type": "tuple"
        },
        {
          "internalType": "bytes",
          "name": "transactionBytes",
          "type": "bytes"
        },
        {
          "internalType": "uint256",
          "name": "transactionIndex",
          "type": "uint256"
        },
        {
          "internalType": "bytes32[]",
          "name": "siblings",
          "type": "bytes32[]"
        },
        {
          "internalType": "bytes",
          "name": "witnessBytes",
          "type": "bytes"
        }
      ],
      "name": "proveSuccessfulIncomingTransactionStateRootError",
      "outputs": [],
      "stateMutability": "nonpayable",
      "type": "function"
    },
    {
      "inputs": [
        {
          "components": [
            {
              "internalType": "bytes32",
              "name": "parentHash",
              "type": "bytes32"
            },
            {
              "internalType": "uint256",
              "name": "childIndex",
              "type": "uint256"
            },
            {
              "internalType": "uint256",
              "name": "blockNumber",
              "type": "uint256"
            },
            {
              "components": [
                {
                  "internalType": "uint256",
                  "name": "submittedAt",
                  "type": "uint256"
                },
                {
                  "internalType": "bytes32",
                  "name": "exitsRoot",
                  "type": "bytes32"
                },
                {
                  "internalType": "address",
                  "name": "coinbase",
                  "type": "address"
                },
                {
                  "internalType": "bytes32",
                  "name": "blockHash",
                  "type": "bytes32"
                }
              ],
              "internalType": "struct CommitmentHeaderLib.CommitmentHeader",
              "name": "commitment",
              "type": "tuple"
            }
          ],
          "internalType": "struct CommitmentHeaderLib.CommitmentHeaderQuery",
          "name": "commitmentQuery",
          "type": "tuple"
        },
        {
          "internalType": "uint256",
          "name": "transactionIndex",
          "type": "uint256"
        },
        {
          "internalType": "bytes",
          "name": "witnessBytes",
          "type": "bytes"
        }
      ],
      "name": "proveWitnessGasExceededError",
      "outputs": [],
      "stateMutability": "nonpayable",
      "type": "function"
    },
    {
      "inputs": [
        {
          "components": [
            {
              "internalType": "bytes32",
              "name": "parentHash",
              "type": "bytes32"
            },
            {
              "internalType": "uint256",
              "name": "childIndex",
              "type": "uint256"
            },
            {
              "internalType": "uint256",
              "name": "blockNumber",
              "type": "uint256"
            },
            {
              "components": [
                {
                  "internalType": "uint256",
                  "name": "submittedAt",
                  "type": "uint256"
                },
                {
                  "internalType": "bytes32",
                  "name": "exitsRoot",
                  "type": "bytes32"
                },
                {
                  "internalType": "address",
                  "name": "coinbase",
                  "type": "address"
                },
                {
                  "internalType": "bytes32",
                  "name": "blockHash",
                  "type": "bytes32"
                }
              ],
              "internalType": "struct CommitmentHeaderLib.CommitmentHeader",
              "name": "commitment",
              "type": "tuple"
            }
          ],
          "internalType": "struct CommitmentHeaderLib.CommitmentHeaderQuery",
          "name": "commitmentQuery",
          "type": "tuple"
        },
        {
          "internalType": "uint256",
          "name": "transactionIndex",
          "type": "uint256"
        },
        {
          "internalType": "bytes",
          "name": "witnessBytes",
          "type": "bytes"
        }
      ],
      "name": "proveWitnessRefundError",
      "outputs": [],
      "stateMutability": "nonpayable",
      "type": "function"
    },
    {
      "inputs": [
        {
          "components": [
            {
              "internalType": "bytes32",
              "name": "parentHash",
              "type": "bytes32"
            },
            {
              "internalType": "uint256",
              "name": "childIndex",
              "type": "uint256"
            },
            {
              "internalType": "uint256",
              "name": "blockNumber",
              "type": "uint256"
            },
            {
              "components": [
                {
                  "internalType": "uint256",
                  "name": "submittedAt",
                  "type": "uint256"
                },
                {
                  "internalType": "bytes32",
                  "name": "exitsRoot",
                  "type": "bytes32"
                },
                {
                  "internalType": "address",
                  "name": "coinbase",
                  "type": "address"
                },
                {
                  "internalType": "bytes32",
                  "name": "blockHash",
                  "type": "bytes32"
                }
              ],
              "internalType": "struct CommitmentHeaderLib.CommitmentHeader",
              "name": "commitment",
              "type": "tuple"
            }
          ],
          "internalType": "struct CommitmentHeaderLib.CommitmentHeaderQuery",
          "name": "commitmentQuery",
          "type": "tuple"
        },
        {
          "internalType": "uint256",
          "name": "transactionIndex",
          "type": "uint256"
        },
        {
          "internalType": "bytes",
          "name": "witnessBytes",
          "type": "bytes"
        }
      ],
      "name": "proveExecutionError",
      "outputs": [],
      "stateMutability": "nonpayable",
      "type": "function"
    }
  ],
  "bytecode": "0x608060405234801561001057600080fd5b50614ba5806100206000396000f3fe608060405234801561001057600080fd5b50600436106100a95760003560e01c80638248440911610071578063824844091461010f5780639b676dc114610122578063b53cea0914610135578063bbd7a75814610148578063d524790b1461015b578063ea0d23951461016e576100a9565b8063017c5a84146100ae5780631036fbc4146100c3578063250dd91e146100d65780633ca82f7b146100e957806367e302cb146100fc575b600080fd5b6100c16100bc366004613cc7565b610181565b005b6100c16100d1366004613d1f565b6102a8565b6100c16100e4366004613d1f565b610384565b6100c16100f7366004613d1f565b61041e565b6100c161010a36600461396c565b610472565b6100c161011d366004613bd3565b610717565b6100c1610130366004613b35565b61087d565b6100c1610143366004613d1f565b6109f0565b6100c1610156366004613d1f565b610a7e565b6100c161016936600461396c565b610b0c565b6100c161017c366004613a13565b610bd3565b61018961306f565b6000610196898888610d5e565b915091506101a388610dd0565b896060015160600151146101d25760405162461bcd60e51b81526004016101c990614747565b60405180910390fd5b6101da610e00565b6001600160a01b03168260a001516001600160a01b03161461020e5760405162461bcd60e51b81526004016101c99061431a565b6102166130f5565b610234836101e0015184608001518560e00151866101200151610e3c565b9050606061024182611091565b600254855160208d0151929350600092610269926001600160a01b031691908b8b8b886110dc565b9050808560200151141561028f5760405162461bcd60e51b81526004016101c99061435e565b61029a8c8b86611160565b505050505050505050505050565b805160208201206102c2600085858463ffffffff6111ce16565b60608085015101516000908152600e60209081526040808320868452600201909152812054600b546001600160a01b03600160381b90920482169291165a8560405161030e91906140dd565b6000604051808303818686fa925050503d806000811461034a576040519150601f19603f3d011682016040523d82523d6000602084013e61034f565b606091505b5050905080156103715760405162461bcd60e51b81526004016101c9906145b8565b61037c868684611160565b505050505050565b61038c61306f565b6000610399858585610d5e565b90925090506000805b836101800151518110156103f857606084610180015182815181106103c357fe5b60200260200101519050600060208201519050806055146103e55750506103f0565b508051015191909101905b6001016103a2565b508083610160015114156103715760405162461bcd60e51b81526004016101c9906147b6565b61042661306f565b6000610433858585610d5e565b91509150816101200151826101400151116104605760405162461bcd60e51b81526004016101c9906141e9565b61046b858583611160565b5050505050565b61047a61306f565b6000610487888685610d5e565b9150915061049487610dd0565b886060015160600151146104ba5760405162461bcd60e51b81526004016101c990614747565b600087606001518610156105e0576104d061313d565b878060200190518101906104e49190613e08565b90506104fa60008a838a8a63ffffffff61120e16565b61010084015115801561050f57508360400151155b8015610534575080600001516001600160a01b031684606001516001600160a01b0316145b8015610559575080600001516001600160a01b031684608001516001600160a01b0316145b801561057e575080602001516001600160a01b03168460a001516001600160a01b0316145b80156105a3575080602001516001600160a01b03168460c001516001600160a01b0316145b80156105b6575080606001518460e00151145b80156105d85750806080015180519060200120846101e0015180519060200120145b9150506106e3565b6105e8613171565b6105f489898989611344565b9050600061060182611372565b9050816020015185610100015114801561061d57508460400151155b801561063e5750806001600160a01b031685606001516001600160a01b0316145b801561065f5750806001600160a01b031685608001516001600160a01b0316145b8015610684575081606001516001600160a01b03168560a001516001600160a01b0316145b80156106a9575081606001516001600160a01b03168560c001516001600160a01b0316145b80156106bc575081608001518560e00151145b80156106de57508160a0015180519060200120856101e0015180519060200120145b925050505b80156107015760405162461bcd60e51b81526004016101c9906147ed565b61070c898784611160565b505050505050505050565b61071f61306f565b600061073089886020015188610d5e565b91509150816101a001516001141561075a5760405162461bcd60e51b81526004016101c9906143d2565b61076388610dd0565b896060015160600151146107895760405162461bcd60e51b81526004016101c990614747565b610791613171565b6107a98989600001518a602001518b60400151611344565b6101408401519091506002810484610160015110156107cf5761016084015190036107d6565b6002810490035b81602001516107e66000846113f9565b820102905060006107fc8b898c60200151611424565b6002546080870151919250610820916001600160a01b039091169083908a866114c7565b6002546101008d0151919250610845916001600160a01b039091169083908986611505565b5061012084015190915081141561086e5760405162461bcd60e51b81526004016101c990614257565b61029a8c8b6020015186611160565b61088561306f565b600061089688876020015187610d5e565b91509150816101a001516001146108bf5760405162461bcd60e51b81526004016101c99061429a565b6108c887610dd0565b886060015160600151146108ee5760405162461bcd60e51b81526004016101c990614747565b6108f6613171565b61090e88886000015189602001518a60400151611344565b9050600061091d6000836113f9565b61014085015101905060028104846101600151101561094357610160840151900361094a565b6002810490035b602080830151600254918601516080870151604086015194830294600094610985946001600160a01b039091169392918c9102879003611505565b506002546101008c01519192506109ab916001600160a01b039091169083908986611505565b506101208401519091508114156109d45760405162461bcd60e51b81526004016101c990614257565b6109e38b8a6020015186611160565b5050505050505050505050565b6109f861306f565b6000610a05858585610d5e565b91509150610a11610e00565b6001600160a01b03168260a001516001600160a01b031614610a455760405162461bcd60e51b81526004016101c9906148c9565b816101200151826101400151141580610a62575061016082015115155b6104605760405162461bcd60e51b81526004016101c990614661565b610a8661306f565b6000610a93858585610d5e565b91509150610a9f610e00565b6001600160a01b03168260a001516001600160a01b03161415610ad45760405162461bcd60e51b81526004016101c9906144ed565b6000610ae68384610180015151611555565b905080836020015114156103715760405162461bcd60e51b81526004016101c990614944565b610b1461306f565b6000610b21888685610d5e565b91509150610b2e87610dd0565b88606001516060015114610b545760405162461bcd60e51b81526004016101c990614747565b816101a00151600114610b795760405162461bcd60e51b81526004016101c99061429a565b610b8161313d565b86806020019051810190610b959190613e08565b9050610bab60008983898963ffffffff61120e16565b82602001518160a0015114156107015760405162461bcd60e51b81526004016101c990614257565b610bdb61306f565b6000610be88b8987610d5e565b91509150610bf58a610dd0565b8b606001516060015114610c1b5760405162461bcd60e51b81526004016101c990614747565b6000610c288b888b611424565b90508a60600151891015610c9657610c3e61313d565b8a806020019051810190610c529190613e08565b9050610c6860008d838d8d63ffffffff61120e16565b60025460208201516060830151610c8c926001600160a01b03169185918a90611505565b509150610d329050565b610c9e613171565b610caa8c8c8c8c611344565b90506000610cb782611372565b90506000610cc48361160e565b600254909150610ce0906001600160a01b031685848b856114c7565b9350610cea610e00565b6001600160a01b031683606001516001600160a01b031614610d2e5760025460608401516080850151610d2a926001600160a01b03169187918b90611505565b5093505b5050505b8251811415610d535760405162461bcd60e51b81526004016101c990614824565b61029a8c8a84611160565b610d6661306f565b81516020830120600090610d828287878463ffffffff6111ce16565b610d8b84611625565b606096870151909601516000908152600e602090815260408083209783526002909701905294909420549495600160381b9095046001600160a01b0316949350505050565b600081604051602001610de391906149e6565b604051602081830303815290604052805190602001209050919050565b600080610e0b61175c565b604051602001610e1b91906140c6565b60408051601f19818403018152919052805160209091012060601c92915050565b610e446130f5565b600485511015610e665760405162461bcd60e51b81526004016101c990614892565b6000610e7186611762565b90506060610e7e8761176c565b6001600160a01b038716845260608401869052600060a08501529050633ccfd60b60e01b6001600160e01b031983161415610edb576040805160208082019092526000815260808501526001600160a01b03871690840152611053565b632e1a7d4d60e01b6001600160e01b031983161415610f6757600081806020019051810190610f0a9190613954565b905080861015610f2c5760405162461bcd60e51b81526004016101c9906146d9565b6040805160208082019092526000815260808601526001600160a01b0388169085015260a08401819052606084018051919091039052611053565b6309370cdf60e11b6001600160e01b031983161415610fb5576000606082806020019051810190610f989190613791565b6001600160a01b0390911660208701526080860152506110539050565b6310f3c58b60e01b6001600160e01b03198316141561103b5760006060600083806020019051810190610fe891906137df565b9250925092508088101561100e5760405162461bcd60e51b81526004016101c9906146d9565b6001600160a01b039092166020860152608085015260a08401819052606084018051919091039052611053565b60405162461bcd60e51b81526004016101c99061462a565b600061105e8461177d565b9050808510156110805760405162461bcd60e51b81526004016101c990614577565b909303604083015250949350505050565b6060816000015182602001518360400151846060015185608001518660a001516040516020016110c6969594939291906140f9565b6040516020818303038152906040529050919050565b60006110e66131c4565b6110ef8661179b565b90506110f96131c4565b6111028661179b565b905061110c6131e5565b61111983602001516117b7565b9050606061112d8c846020015189896118b2565b905061113c8c8b8486856119b8565b6111508c8c611149610e00565b8588611aac565b9c9b505050505050505050505050565b61117160008463ffffffff611b7716565b5061117b81611c10565b50606091820180518301516000908152600e60208181526040808420868552600201825280842080546001600160e01b031916905593519095015182528452818120928152600390920190925290812055565b6111d88484611d59565b6111f45760405162461bcd60e51b81526004016101c9906145fd565b611208848460600151606001518484611d9f565b50505050565b6112458360a0015160405160200161122691906140c6565b60408051601f198184030181529190528590848463ffffffff611ddc16565b6112615760405162461bcd60e51b81526004016101c99061490d565b836060015182106112845760405162461bcd60e51b81526004016101c9906142e3565b60408085015160038701549151630444d0e160e21b8152908401916000916001600160a01b03909116906311134384906112c29085906004016140c6565b60206040518083038186803b1580156112da57600080fd5b505afa1580156112ee573d6000803e3d6000fd5b505050506040513d601f19601f820116820180604052508101906113129190613954565b90508061131e86611dee565b1461133b5760405162461bcd60e51b81526004016101c990614698565b50505050505050565b61134c613171565b61135e8585858563ffffffff611e4516565b61136784611e97565b90505b949350505050565b60008061137e83611fb4565b60e084015161010085015160ff92909216925090600061139d86611fc1565b9050600181858585604051600081526020016040526040516113c294939291906141a4565b6020604051602081039080840390855afa1580156113e4573d6000803e3d6000fd5b5050604051601f190151979650505050505050565b600482015460a082015160009161141b916001600160a01b0390911690611ff4565b90505b92915050565b6000816114715761143361320c565b61143c8461200b565b905061144781610dd0565b8551146114665760405162461bcd60e51b81526004016101c990614535565b60c0015190506114c0565b611479613260565b8380602001905181019061148d9190613eb8565b805160208201519192506114af9187919060001987019063ffffffff611ddc16565b6114b857600080fd5b518051015190505b9392505050565b60008060006114d98888888888612027565b91509150816114fa5760405162461bcd60e51b81526004016101c9906143a4565b979650505050505050565b600061150f6131e5565b6115176131c4565b6115208561179b565b905061152f81602001516117b7565b6020810180518601905291506115488888888585611aac565b9250509550959350505050565b60008261018001515182111561157d5760405162461bcd60e51b81526004016101c990614220565b8161158a5750815161141e565b60001982015b606084610180015182815181106115a357fe5b602002602001015190506000602082015190508060f414806115c557508060f1145b806115d057508060f2145b806115db5750806055145b156115ee575060400151915061141e9050565b826115fa575050611605565b505060001901611590565b50509051919050565b60808101516020820151604083015102015b919050565b61162d61306f565b61163561327a565b61163d613298565b6116456132b6565b606061164f6132d4565b6060878060200190518101906116659190613836565b9550955095509550955095506040518061020001604052808760006003811061168a57fe5b60200201518152602001876001600381106116a157fe5b602090810291909101518252604089810151158383015288516001600160a01b03908116828501528983015181166060808601919091528a83015182166080860152808b015190911660a0850152885160c08501529188015160e084015287015161010083015286015161012082015261014001856004602002015181526020018481526020018360006002811061173557fe5b60209081029190910151825293840151938101939093526040909201529695505050505050565b61c35590565b6020015160e01c90565b805160031901600490910190815290565b60008061178d836080015161209a565b600601612710029392505050565b6117a36131c4565b8180602001905181019061141e9190613f7a565b6117bf6131e5565b81516117d4576117cd6120c1565b9050611620565b81516020141561181157602082015180156118015760405162461bcd60e51b81526004016101c99061447f565b6118096120c1565b915050611620565b60008060008061185a565b8051600090600183019060f81c60808110801561183b57819350611853565b60808203835160088202610100031c94508084019350505b5050915091565b602086015160f81c860160d519016118718161181c565b9150945061187e8161181c565b6001810151602290910151604080516080810182529889526020890193909352918701526060860152509295945050505050565b60606118bc6131c4565b6118c58461179b565b90506118cf6132f2565b6118d88661212f565b9050600080886001600160a01b0316637022c2c484600001516010876000015188602001518b89602001518b604001516040518863ffffffff1660e01b815260040161192a9796959493929190614146565b604080518083038186803b15801561194157600080fd5b505afa158015611955573d6000803e3d6000fd5b505050506040513d601f19601f820116820180604052508101906119799190613923565b915091508161199a5760405162461bcd60e51b81526004016101c99061497b565b6119ab818460200151600101612193565b9998505050505050505050565b600080866001600160a01b0316637022c2c4866040015161010087600001518860200151888c6040516020016119ee91906140c6565b60408051601f198184030181528282528051602090910120908d01516001600160e01b031960e08a901b168352611a2c979695949392600401614146565b604080518083038186803b158015611a4357600080fd5b505afa158015611a57573d6000803e3d6000fd5b505050506040513d601f19601f82011682018060405250810190611a7b9190613923565b9150915081611a9c5760405162461bcd60e51b81526004016101c990614450565b6040909401939093525050505050565b6000806000876001600160a01b0316637022c2c48860a087600001518860200151611ad68b6121d1565b8c6001600160a01b03168b604001516040518863ffffffff1660e01b8152600401611b079796959493929190614146565b604080518083038186803b158015611b1e57600080fd5b505afa158015611b32573d6000803e3d6000fd5b505050506040513d601f19601f82011682018060405250810190611b569190613923565b91509150816114fa5760405162461bcd60e51b81526004016101c990614788565b80516000908152600d83016020908152604082209083015181548110611b9957fe5b6000918252602080832091909101829055606084810180518201518452600f8701909252604092839020805460ff191660029081179091559151015191517f99c9efff0684b78043f08af38ed552c7eb27175341050520cf3d3a60f83b26e591611c02916141d5565b60405180910390a292915050565b806001600160a01b038116331415611c7b57806001600160a01b03166108fc6002611c39612331565b81611c4057fe5b04611c4961233c565b019081150290604051600060405180830381858888f19350505050158015611c75573d6000803e3d6000fd5b50611d12565b806001600160a01b03166108fc6004611c92612331565b81611c9957fe5b04611ca261233c565b019081150290604051600060405180830381858888f19350505050158015611cce573d6000803e3d6000fd5b50336108fc6004611cdd612331565b81611ce457fe5b049081150290604051600060405180830381858888f19350505050158015611d10573d6000803e3d6000fd5b505b60006108fc6002611d21612331565b81611d2857fe5b049081150290604051600060405180830381858888f19350505050158015611d54573d6000803e3d6000fd5b505050565b6000611d688260600151612348565b82516000908152600d8501602090815260409091209084015181548110611d8b57fe5b906000526020600020015414905092915050565b6000838152600e85016020908152604080832085845260030190915290205481146112085760405162461bcd60e51b81526004016101c990614419565b60006113678560a0015185858561235b565b600061141e6040518060a0016040528084600001516001600160a01b0316815260200184602001516001600160a01b03168152602001846040015181526020018460600151815260200184608001518152506123f2565b8360600151821015611e695760405162461bcd60e51b81526004016101c990614710565b611e7b8484848463ffffffff611ddc16565b6112085760405162461bcd60e51b81526004016101c99061490d565b611e9f613171565b6000806000806000606060008060008060208c015160f81c8c0160d51901611ec68161181c565b91509a50611ed38161181c565b91509950611ee08161181c565b91509850611eed8161181c565b91509750611efa8161181c565b91509650611f078161240b565b9096509050611f158161181c565b91509450611f228161181c565b91509350611f2f8161181c565b8e5191945091508d01808214611f575760405162461bcd60e51b81526004016101c99061485b565b505160408051610140810182529b8c5260208c019a909a52988a01979097526001600160a01b039095166060890152608088019390935260a087019190915260c086015260e0850152610100840152506101208201529050919050565b60c00151620186b1190190565b61c35560c0820152600060e0820181905261010082018190526060611fe58361259d565b80516020909101209392505050565b60006120008383612774565b615208019392505050565b61201361320c565b8180602001905181019061141e9190613d76565b6000806120326131c4565b61203b8561179b565b90506120456131e5565b61205282602001516117b7565b905084816020015110159350831561208a576020810180518690039052805160010181526120838989898486611aac565b925061208e565b8792505b50509550959350505050565b8051600090601f8116806120b45750602090049050611620565b6020910381010492915050565b6120c96131e5565b5060408051608081018252600080825260208201527fa9a4da177ac3f81cfe85a6767678aabb095aa306e72ab73f5cf0559c56d0a530918101919091527fc5d2460186f7233c927e7db2dcc703c0e500b653ca82273b7bfad8045d85a470606082015290565b6121376132f2565b61214082612807565b1561217f5750604080518082019091527f2def10d13dd169f550f578bda343d9717a138562e0093b380a1120789d53cf10815260006020820152611620565b8180602001905181019061141e9190613f47565b60606040518060400160405280848152602001838152506040516020016121ba9190614aac565b604051602081830303815290604052905092915050565b805160208201516040830151606084810151909392919060006121f385612839565b9050600061220085612839565b9050600060808710612213576001612216565b60005b60ff16905060006080871061222c57600161222f565b60005b60ff169050604482850182018401016060816001600160401b038111801561225657600080fd5b506040519080825280601f01601f191660200182016040528015612281576020820181803683370190505b5090506020810160f88153600101600119830181536001016122ed565b808280156122c8578560800182536001820191508460088702610100031b825285820191506122e4565b8480156122d7578583536122dc565b608083535b506001820191505b50949350505050565b6122f9878c878461229e565b9050612307868b868461229e565b905060a081536001810189905260210160a081536001019690965250939998505050505050505050565b662386f26fc1000090565b670de0b6b3a764000090565b600081604051602001610de391906149b2565b600083516000141561237d5760208401518061237b57600091505061136a565b505b8351602085012060005b83518110156123e657600084828151811061239e57fe5b6020026020010151905060006123b48784612ad2565b905060ff81166123cf576123c88483612ad9565b93506123dc565b6123d98285612ad9565b93505b5050600101612387565b50909414949350505050565b60006123fd82612b0c565b805190602001209050919050565b805160019091019060609060009060f81c608081141561243b576040805160008152602081019091529250612596565b60808160ff16101561249357604080516001808252818301909252906020820181803683370190505092508060f81b8360008151811061247757fe5b60200101906001600160f81b031916908160001a905350612596565b60b88160ff1610156125005760ff607f19820116806001600160401b03811180156124bd57600080fd5b506040519080825280601f01601f1916602001820160405280156124e8576020820181803683370190505b5093506124f6858583612b1f565b9390930192612596565b60c08160ff16101561257e57835160ff60b619830116948501949060088202610100031c806001600160401b038111801561253a57600080fd5b506040519080825280601f01601f191660200182016040528015612565576020820181803683370190505b509450612573868683612b1f565b949094019350612596565b60405162461bcd60e51b81526004016101c9906144b6565b5090929050565b6040805160098082526101408201909252606091829190816020015b6125c1613309565b8152602001906001900390816125b95790505090506125eb6125e68460000151612b2e565b612bb9565b816000815181106125f857fe5b60200260200101819052506126136125e68460200151612b2e565b8160018151811061262057fe5b602002602001018190525061263b6125e68460400151612b2e565b8160028151811061264857fe5b602002602001018190525061267f836060015160405160200161266b91906140a9565b604051602081830303815290604052612bb9565b8160038151811061268c57fe5b60200260200101819052506126a76125e68460800151612b2e565b816004815181106126b457fe5b60200260200101819052506126cc8360a00151612bb9565b816005815181106126d957fe5b60200260200101819052506126f46125e68460c00151612b2e565b8160068151811061270157fe5b602002602001018190525061271f6125e68460e0015160001c612b2e565b8160078151811061272c57fe5b602002602001018190525061274b6125e684610100015160001c612b2e565b8160088151811061275857fe5b602002602001018190525061276c81612bc7565b519392505050565b6000806000846001600160a01b0316639fa6b496856040518263ffffffff1660e01b81526004016127a591906141c2565b604080518083038186803b1580156127bc57600080fd5b505afa1580156127d0573d6000803e3d6000fd5b505050506040513d601f19601f820116820180604052508101906127f49190614013565b6010026004919091020195945050505050565b600081516000141561281b57506001611620565b8151602014156128315750602081015115611620565b506000919050565b60008161284857506001611620565b6001600160f81b031982161561286057506020611620565b60ff60f01b8216156128745750601f611620565b60ff60e81b8216156128885750601e611620565b60ff60e01b82161561289c5750601d611620565b60ff60d81b8216156128b05750601c611620565b60ff60d01b8216156128c45750601b611620565b60ff60c81b8216156128d85750601a611620565b60ff60c01b8216156128ec57506019611620565b60ff60b81b82161561290057506018611620565b60ff60b01b82161561291457506017611620565b60ff60a81b82161561292857506016611620565b60ff60a01b82161561293c57506015611620565b60ff60981b82161561295057506014611620565b60ff60901b82161561296457506013611620565b60ff60881b82161561297857506012611620565b60ff60801b82161561298c57506011611620565b60ff60781b8216156129a057506010611620565b60ff60701b8216156129b45750600f611620565b60ff60681b8216156129c85750600e611620565b60ff60601b8216156129dc5750600d611620565b60ff60581b8216156129f05750600c611620565b60ff60501b821615612a045750600b611620565b69ff000000000000000000821615612a1e5750600a611620565b68ff0000000000000000821615612a3757506009611620565b67ff00000000000000821615612a4f57506008611620565b66ff000000000000821615612a6657506007611620565b65ff0000000000821615612a7c57506006611620565b64ff00000000821615612a9157506005611620565b63ff000000821615612aa557506004611620565b62ff0000821615612ab857506003611620565b61ff00821615612aca57506002611620565b506001919050565b1c60011690565b60008282604051602001612aee9291906140cf565b60405160208183030381529060405280519060200120905092915050565b6060816040516020016110c69190614a5d565b60208201611208818584612e2a565b60606000612b3b83612839565b905080612b58576040805160008152602081019091529150612bb3565b806001600160401b0381118015612b6e57600080fd5b506040519080825280601f01601f191660200182016040528015612b99576020820181803683370190505b506008919091026101000383901b60208201529050611620565b50919050565b612bc1613309565b90815290565b612bcf613309565b606082516001600160401b0381118015612be857600080fd5b50604051908082528060200260200182016040528015612c1c57816020015b6060815260200190600190039081612c075790505b50905060606000805b8551811015612c78576060612c4c878381518110612c3f57fe5b6020026020010151612e68565b60000151905080858381518110612c5f57fe5b6020908102919091010152519190910190600101612c25565b506038811015612d3857806001016001600160401b0381118015612c9b57600080fd5b506040519080825280601f01601f191660200182016040528015612cc6576020820181803683370190505b5091508060c00160f81b82600081518110612cdd57fe5b60200101906001600160f81b031916908160001a905350602160005b8451811015612d315760206001820181028601518051848101948701929190910190612d26838383612e2a565b505050600101612cf9565b5050612e0e565b6000612d4382612839565b90508181600101016001600160401b0381118015612d6057600080fd5b506040519080825280601f01601f191660200182016040528015612d8b576020820181803683370190505b5092508060f70160f81b83600081518110612da257fe5b60200101906001600160f81b031916908160001a905350600881026101000382901b602184810191909152810160005b8551811015612e0a5760206001820181028701518051848101948801929190910190612dff838383612e2a565b505050600101612dd2565b5050505b5060408051808201909152908152600160208201529392505050565b5b60208110612e4a578151835260209283019290910190601f1901612e2b565b600180600883602003021b0380845116811984511617845250505050565b612e70613309565b816020015115612e81575080611620565b60016020808301919091528251908301516060919080612ec4575080516001148015612ec45750608060ff1681600081518110612eba57fe5b016020015160f81c105b15612f0d5780600081518110612ed657fe5b016020015160f81c612f035750506040805180820190915260018152600160ff1b60208201528152611620565b8392505050611620565b805160381115612fab5780516001016001600160401b0381118015612f3157600080fd5b506040519080825280601f01601f191660200182016040528015612f5c576020820181803683370190505b509150805160800160f81b82600081518110612f7457fe5b60200101906001600160f81b031916908160001a905350805160218301906020830190612fa49083908390612e2a565b5050613067565b6000612fb78251612839565b9050815181600101016001600160401b0381118015612fd557600080fd5b506040519080825280601f01601f191660200182016040528015613000576020820181803683370190505b5092508060b70160f81b8360008151811061301757fe5b60200101906001600160f81b031916908160001a90535081511561306557815181600802610100031b6021840152600080826021018501915060208401905061306282828651612e2a565b50505b505b508152919050565b604080516102008101825260008082526020820181905291810182905260608082018390526080820183905260a0820183905260c0820183905260e08201839052610100820183905261012082018390526101408201839052610160820183905261018082018190526101a082018390526101c08201929092526101e081019190915290565b6040518060c0016040528060006001600160a01b0316815260200160006001600160a01b03168152602001600081526020016000815260200160608152602001600081525090565b6040805160c0810182526000808252602082018190529181018290526060808201839052608082015260a081019190915290565b604080516101408101825260008082526020820181905291810182905260608082018390526080820183905260a082015260c0810182905260e08101829052610100810182905261012081019190915290565b60405180606001604052806000815260200160608152602001606081525090565b60408051608081018252600080825260208201819052918101829052606081019190915290565b6040805161014081018252600080825260208201819052918101829052606081018290526080810182905260a0810182905260c0810182905260e08101829052610100810182905261012081019190915290565b604051806040016040528060608152602001606081525090565b60405180606001604052806003906020820280368337509192915050565b60405180608001604052806004906020820280368337509192915050565b6040518060a001604052806005906020820280368337509192915050565b60405180604001604052806002906020820280368337509192915050565b604080518082019091526000808252602082015290565b60408051808201909152606081526000602082015290565b803561141e81614b57565b805161141e81614b57565b600082601f830112613347578081fd5b6133516080614ac3565b905080828460808501111561336557600080fd5b60005b600481101561339157815161337c81614b57565b83526020928301929190910190600101613368565b50505092915050565b600082601f8301126133aa578081fd5b6133b46040614ac3565b90508082846040850111156133c857600080fd5b60005b60028110156133915781518352602092830192909101906001016133cb565b600082601f8301126133fa578081fd5b813561340d61340882614ae9565b614ac3565b81815291506020808301908481018184028601820187101561342e57600080fd5b60005b8481101561344d57813584529282019290820190600101613431565b505050505092915050565b600082601f830112613468578081fd5b815161347661340882614ae9565b81815291506020808301908481018184028601820187101561349757600080fd5b60005b8481101561344d5781518452928201929082019060010161349a565b600082601f8301126134c6578081fd5b81516134d461340882614ae9565b818152915060208083019084810160005b8481101561344d576134fc888484518a01016135ac565b845292820192908201906001016134e5565b600082601f83011261351e578081fd5b61352860a0614ac3565b905080828460a08501111561353c57600080fd5b60005b600581101561339157815183526020928301929091019060010161353f565b600082601f83011261356e578081fd5b813561357c61340882614b08565b915080825283602082850101111561359357600080fd5b8060208401602084013760009082016020015292915050565b600082601f8301126135bc578081fd5b81516135ca61340882614b08565b91508082528360208285010111156135e157600080fd5b6135f2816020840160208601614b2b565b5092915050565b600081830360e081121561360b578182fd5b6136156080614ac3565b91508235825260208301356020830152604083013560408301526080605f198201121561364157600080fd5b5061364c6080614ac3565b606083013581526080830135602082015260a083013561366b81614b57565b8060408301525060c083013560608201528060608301525092915050565b600061014080838503121561369c578182fd5b6136a581614ac3565b915050813581526020820135602082015260408201356040820152606082013560608201526080820135608082015260a082013560a082015260c082013560c082015260e082013560e082015261010061370184828501613321565b818301525061012080830135818301525092915050565b600060608284031215613729578081fd5b6137336060614ac3565b905081356001600160401b038082111561374c57600080fd5b6137588583860161355e565b835260208401356020840152604084013591508082111561377857600080fd5b50613785848285016133ea565b60408301525092915050565b600080604083850312156137a3578182fd5b82516137ae81614b57565b60208401519092506001600160401b038111156137c9578182fd5b6137d5858286016135ac565b9150509250929050565b6000806000606084860312156137f3578081fd5b83516137fe81614b57565b60208501519093506001600160401b03811115613819578182fd5b613825868287016135ac565b925050604084015190509250925092565b600080600080600080610200878903121561384f578384fd5b87601f88011261385d578384fd5b6138676060614ac3565b808860608a018b811115613879578788fd5b875b600381101561389a57825185526020948501949092019160010161387b565b508299506138a88c82613337565b9850505050506138bb8860e0890161350e565b93506101808701516001600160401b03808211156138d7578384fd5b6138e38a838b016134b6565b94506138f38a6101a08b0161339a565b93506101e0890151915080821115613909578283fd5b5061391689828a016135ac565b9150509295509295509295565b60008060408385031215613935578182fd5b82518015158114613944578283fd5b6020939093015192949293505050565b600060208284031215613965578081fd5b5051919050565b6000806000806000806102a08789031215613985578384fd5b61398f88886135f9565b955061399e8860e08901613689565b94506102208701356001600160401b03808211156139ba578586fd5b6139c68a838b0161355e565b955061024089013594506102608901359150808211156139e4578384fd5b6139f08a838b016133ea565b9350610280890135915080821115613a06578283fd5b5061391689828a0161355e565b60008060008060008060008060006103008a8c031215613a31578687fd5b613a3b8b8b6135f9565b9850613a4a8b60e08c01613689565b97506102208a01356001600160401b0380821115613a66578889fd5b613a728d838e0161355e565b98506102408c013597506102608c0135915080821115613a90578485fd5b613a9c8d838e016133ea565b96506102808c0135915080821115613ab2578485fd5b613abe8d838e0161355e565b95506102a08c0135915080821115613ad4578485fd5b613ae08d838e0161355e565b94506102c08c0135915080821115613af6578384fd5b613b028d838e0161355e565b93506102e08c0135915080821115613b18578283fd5b50613b258c828d0161355e565b9150509295985092959850929598565b6000806000806000806102a08789031215613b4e578384fd5b613b5888886135f9565b9550613b678860e08901613689565b94506102208701356001600160401b0380821115613b83578586fd5b613b8f8a838b01613718565b9550610240890135915080821115613ba5578384fd5b613bb18a838b0161355e565b9450610260890135915080821115613bc7578384fd5b6139f08a838b0161355e565b60008060008060008060006102c0888a031215613bee578081fd5b613bf889896135f9565b9650613c078960e08a01613689565b95506102208801356001600160401b0380821115613c23578283fd5b613c2f8b838c01613718565b96506102408a0135915080821115613c45578283fd5b613c518b838c0161355e565b95506102608a0135915080821115613c67578283fd5b613c738b838c0161355e565b94506102808a0135915080821115613c89578283fd5b613c958b838c0161355e565b93506102a08a0135915080821115613cab578283fd5b50613cb88a828b0161355e565b91505092959891949750929550565b60008060008060008060006102c0888a031215613ce2578081fd5b613cec89896135f9565b9650613cfb8960e08a01613689565b955061022088013594506102408801356001600160401b0380821115613c45578283fd5b60008060006101208486031215613d34578081fd5b613d3e85856135f9565b925060e084013591506101008401356001600160401b03811115613d60578182fd5b613d6c8682870161355e565b9150509250925092565b6000610140808385031215613d89578182fd5b613d9281614ac3565b835181526020840151602082015260408401516040820152606084015160608201526080840151608082015260a084015160a082015260c084015160c082015260e084015160e08201526101009150613ded8583860161332c565b91810191909152610120928301519281019290925250919050565b600060208284031215613e19578081fd5b81516001600160401b0380821115613e2f578283fd5b81840160c08187031215613e41578384fd5b613e4b60c0614ac3565b92508051613e5881614b57565b83526020810151613e6881614b57565b806020850152506040810151604084015260608101516060840152608081015182811115613e94578485fd5b613ea0878284016135ac565b60808501525060a09081015190830152509392505050565b600060208284031215613ec9578081fd5b81516001600160401b0380821115613edf578283fd5b81840160408187031215613ef1578384fd5b613efb6040614ac3565b9250805182811115613f0b578485fd5b613f17878284016135ac565b845250602081015182811115613f2b578485fd5b613f3787828401613458565b6020850152509195945050505050565b600060408284031215613f58578081fd5b613f626040614ac3565b82518152602083015160208201528091505092915050565b600060208284031215613f8b578081fd5b81516001600160401b0380821115613fa1578283fd5b81840160608187031215613fb3578384fd5b613fbd6060614ac3565b925080518352602081015182811115613fd4578485fd5b613fe0878284016135ac565b602085015250604081015182811115613ff7578485fd5b61400387828401613458565b6040850152509195945050505050565b60008060408385031215614025578182fd5b505080516020909101519092909150565b6001600160a01b03169052565b6000815180845260208085019450808401835b8381101561407257815187529582019590820190600101614056565b509495945050505050565b60008151808452614095816020860160208601614b2b565b601f01601f19169290920160200192915050565b60609190911b6bffffffffffffffffffffffff1916815260140190565b90815260200190565b918252602082015260400190565b600082516140ef818460208701614b2b565b9190910192915050565b6001600160a01b03878116825286166020820152604081018590526060810184905260c0608082018190526000906141339083018561407d565b90508260a0830152979650505050505050565b600088825287602083015286604083015260e0606083015261416b60e083018761407d565b828103608084015261417d818761407d565b8560a085015283810360c08501526141958186614043565b9b9a5050505050505050505050565b93845260ff9290921660208401526040830152606082015260800190565b60006020825261141b602083018461407d565b60208101600383106141e357fe5b91905290565b6020808252601e908201527f476173207573656420646964206e6f7420657863656564206c696d69742e0000604082015260600190565b6020808252601a908201527f5265636f726420696e646578206f7574206f662072616e67652e000000000000604082015260600190565b60208082526023908201527f5472616e73616374696f6e2068616420636f727265637420737461746520726f60408201526237ba1760e91b606082015260800190565b60208082526029908201527f556e7375636365737366756c207472616e73616374696f6e2063616e206e6f74604082015268103132903ab9b2b21760b91b606082015260800190565b6020808252601c908201527f4e6f7420616e20696e636f6d696e67207472616e73616374696f6e2e00000000604082015260600190565b60208082526024908201527f5769746e65737320646f6573206e6f7420746172676574206368696c642072656040820152633630bc9760e11b606082015260800190565b60208082526026908201527f5769746e6573732068616420636f7272656374206f7574707574207374617465604082015265103937b7ba1760d11b606082015260800190565b602080825260149082015273496e73756666696369656e742062616c616e636560601b604082015260600190565b60208082526027908201527f5375636365737366756c207472616e73616374696f6e2063616e206e6f74206260408201526632903ab9b2b21760c91b606082015260800190565b6020808252601c908201527f496e76616c6964207472616e73616374696f6e207769746e6573732e00000000604082015260600190565b60208082526015908201527424b73b30b634b21039ba37b930b3b290383937b7b360591b604082015260600190565b60208082526019908201527f496e76616c6964206163636f756e7420656e636f64696e672e00000000000000604082015260600190565b60208082526017908201527f446174612070726566697820697320696e76616c69642e000000000000000000604082015260600190565b60208082526028908201527f43616e206e6f742075736520657869742063616c6c20666f72207468697320666040820152673ab731ba34b7b71760c11b606082015260800190565b60208082526022908201527f506172656e7420626c6f636b20646f6573206e6f74206d61746368206368696c604082015261321760f11b606082015260800190565b60208082526021908201527f496e73756666696369656e742067617320666f72206f7574676f696e672074786040820152601760f91b606082015260800190565b60208082526025908201527f4e6f206572726f727320666f756e6420696e207769746e6573732065786563756040820152643a34b7b71760d91b606082015260800190565b60208082526013908201527224b73b30b634b21031b7b6b6b4ba36b2b73a1760691b604082015260600190565b6020808252601b908201527f496e76616c69642066756e6374696f6e207369676e61747572652e0000000000604082015260600190565b6020808252601f908201527f5769746e6573732068616420636f7272656374206761732076616c7565732e00604082015260600190565b60208082526021908201527f5472616e73616374696f6e20646f6573206e6f74206d617463682072656c61796040820152601760f91b606082015260800190565b6020808252601e908201527f496e73756666696369656e742076616c756520666f7220626f756e74792e0000604082015260600190565b60208082526019908201527f4e6f742061207369676e6564207472616e73616374696f6e2e00000000000000604082015260600190565b60208082526021908201527f48656164657220646f6573206e6f74206d6174636820636f6d6d69746d656e746040820152601760f91b606082015260800190565b60208082526014908201527324b73b30b634b21039ba30ba3290383937b7b31760611b604082015260600190565b6020808252601f908201527f5769746e6573732068616420636f72726563742067617320726566756e642e00604082015260600190565b6020808252601a908201527f5769746e657373206861642076616c696420636f6e746578742e000000000000604082015260600190565b6020808252601d908201527f5769746e657373206861642076616c696420696e70757420726f6f742e000000604082015260600190565b6020808252601d908201527f496e76616c6964207472616e73616374696f6e20656e636f64696e672e000000604082015260600190565b6020808252601a908201527f496e76616c69642063616c6c6461746120656e636f64696e672e000000000000604082015260600190565b60208082526024908201527f5769746e657373206e6f7420666f7220616e2065786974207472616e7361637460408201526334b7b71760e11b606082015260800190565b6020808252601a908201527f496e76616c6964207472616e73616374696f6e2070726f6f662e000000000000604082015260600190565b6020808252601e908201527f5769746e657373206861642076616c6964206f757470757420726f6f742e0000604082015260600190565b60208082526018908201527f496e76616c69642065786974206c6561662070726f6f662e0000000000000000604082015260600190565b81518152602080830151908201526040808301516001600160a01b0316908201526060918201519181019190915260800190565b600061014082019050825182526020830151602083015260408301516040830152606083015160608301526080830151608083015260a083015160a083015260c083015160c083015260e083015160e083015261010080840151614a4c82850182614036565b505061012092830151919092015290565b60006020825260018060a01b03808451166020840152806020850151166040840152506040830151606083015260608301516080830152608083015160a08084015261136a60c084018261407d565b815181526020918201519181019190915260400190565b6040518181016001600160401b0381118282101715614ae157600080fd5b604052919050565b60006001600160401b03821115614afe578081fd5b5060209081020190565b60006001600160401b03821115614b1d578081fd5b50601f01601f191660200190565b60005b83811015614b46578181015183820152602001614b2e565b838111156112085750506000910152565b6001600160a01b0381168114614b6c57600080fd5b5056fea26469706673582212205c8e9f39ca0f857f198272320fc8eb07ea49d1694fa647dbcea341474bb7acc864736f6c634300060b0033",
  "immutableReferences": {},
  "source": "pragma solidity ^0.6.0;\npragma experimental ABIEncoderV2;\n\nimport { ChainStateLib as State } from \"../common/ChainStateLib.sol\";\nimport { ChainStateImplementer as Stateful } from \"../common/ChainStateImplementer.sol\";\nimport { ConfigLib as Config } from \"../common/config/ConfigLib.sol\";\nimport { ISO_HeaderLib as Header } from \"../common/blocks/ISO_HeaderLib.sol\";\nimport { CommitmentHeaderLib as CL } from \"../common/blocks/CommitmentHeaderLib.sol\";\nimport { StateProofLib as StateProof } from \"./lib/StateProofLib.sol\";\nimport { PriorStateLib as PriorState } from \"./lib/PriorStateLib.sol\";\nimport { RLPAccountLib as Account } from \"../utils/type-encoders/RLPAccountLib.sol\";\nimport { SignedTransactionLib as SignedTx } from \"../common/transactions/SignedTransactionLib.sol\";\nimport { RelayTransactionLib as IncomingTx } from \"../common/transactions/RelayTransactionLib.sol\";\nimport { OutgoingTransactionLib as OutgoingTx } from \"../common/transactions/OutgoingTransactionLib.sol\";\nimport { InclusionProofLib as InclusionProof } from \"./lib/InclusionProofLib.sol\";\nimport { MessageWitnessLib as Message } from \"../common/witness/MessageWitnessLib.sol\";\nimport { ExitProofLib as ExitProof } from \"./lib/ExitProofLib.sol\";\n\n\ncontract WitnessErrorProver is Stateful {\n  using State for State.ChainState;\n  using InclusionProof for State.ChainState;\n  using InclusionProof for Header.ISO_Header;\n  using Header for Header.ISO_Header;\n  using SignedTx for SignedTx.SignedTransaction;\n  using Message for Message.MessageWitness;\n\n  /**\n   * @dev Contains the information needed to prove a transaction\n   * exists in a block. This is used to get around the stack limit\n   * in some crowded functions.\n   */\n  struct TransactionProof {\n    bytes transactionBytes;\n    uint256 transactionIndex;\n    bytes32[] siblings;\n  }\n\n  /**\n   * @dev Prove that the input state root for a message witness is incorrect\n   * by executing the state transition from the previous state root to the\n   * witness input root.\n   * For a signed transaction, this involves subtracting the upfront cost\n   * from the caller and increasing the recipient's balance by the transaction\n   * value.\n   * For an incoming transaction, this involves increasing the recipient's\n   * balance by the transaction value.\n   */\n  function proveWitnessEntryRootError(\n    CL.CommitmentHeaderQuery memory commitmentQuery,\n    Header.ISO_Header memory header,\n    bytes memory transactionBytes,\n    uint256 transactionIndex,\n    bytes32[] memory siblings,\n    bytes memory previousRootProof,\n    bytes memory witnessBytes,\n    bytes memory stateProof1,\n    bytes memory stateProof2\n  ) public {\n    (\n      Message.MessageWitness memory witness,\n      address challenger\n    ) = validateWitnessInclusion(commitmentQuery, transactionIndex, witnessBytes);\n    require(\n      commitmentQuery.commitment.blockHash == header.blockHash(),\n      \"Header does not match commitment.\"\n    );\n    bytes32 stateRoot = PriorState.provePreviousStateRoot(\n      header, previousRootProof, transactionIndex\n    );\n    if (transactionIndex < header.incomingTransactionsCount) {\n      /* Incoming transactions can not target the child relay address. */\n      IncomingTx.IncomingTransaction memory transaction = abi.decode(\n        transactionBytes, (IncomingTx.IncomingTransaction)\n      );\n      chainState.validateIncomingTransaction(\n        header, transaction, transactionIndex, siblings\n      );\n      (stateRoot,) = StateProof.increaseBalance(\n        chainState.sparse,\n        stateRoot,\n        transaction.to,\n        stateProof1,\n        transaction.value\n      );\n    } else {\n      SignedTx.SignedTransaction memory transaction = validateSignedTransaction(\n        header, transactionBytes, transactionIndex, siblings\n      );\n      address caller = transaction.getSenderAddress();\n      uint256 upfrontCost = transaction.getUpfrontCost();\n      stateRoot = StateProof.subtractBalanceAndIncrementNonce(\n        chainState.sparse,\n        stateRoot,\n        caller,\n        stateProof1,\n        upfrontCost\n      );\n      /*\n        Calls to the relay address do not add value to the relay account,\n        and only subtract from the caller.\n       */\n      if (transaction.to != Config.childRelayAddress()) {\n        (stateRoot,) = StateProof.increaseBalance(\n          chainState.sparse,\n          stateRoot,\n          transaction.to,\n          stateProof2,\n          transaction.value\n        );\n      }\n    }\n    require(witness.stateRootEnter != stateRoot, \"Witness had valid input root.\");\n    handleSuccess(commitmentQuery, transactionIndex, challenger);\n  }\n\n  /**\n   * @dev Proves that some of the data in a message witness does\n   * not match the transaction that created it.\n   */\n  function proveWitnessContextError(\n    CL.CommitmentHeaderQuery memory commitmentQuery,\n    Header.ISO_Header memory header,\n    bytes memory transactionBytes,\n    uint256 transactionIndex,\n    bytes32[] memory siblings,\n    bytes memory witnessBytes\n  ) public {\n    (\n      Message.MessageWitness memory witness,\n      address challenger\n    ) = validateWitnessInclusion(commitmentQuery, transactionIndex, witnessBytes);\n    require(\n      commitmentQuery.commitment.blockHash == header.blockHash(),\n      \"Header does not match commitment.\"\n    );\n    bool isValid;\n    if (transactionIndex < header.incomingTransactionsCount) {\n      IncomingTx.IncomingTransaction memory transaction = abi.decode(\n        transactionBytes, (IncomingTx.IncomingTransaction)\n      );\n      chainState.validateIncomingTransaction(\n        header, transaction, transactionIndex, siblings\n      );\n      isValid = (\n        0 == witness.gasPrice &&\n        !witness.isStatic &&\n        witness.origin == transaction.from &&\n        witness.caller == transaction.from &&\n        witness.to == transaction.to &&\n        witness.context == transaction.to &&\n        witness.callvalue == transaction.value &&\n        keccak256(witness.callData) == keccak256(transaction.data)\n      );\n    } else {\n      SignedTx.SignedTransaction memory transaction = validateSignedTransaction(\n        header, transactionBytes, transactionIndex, siblings\n      );\n      address caller = transaction.getSenderAddress();\n      isValid = (\n        witness.gasPrice == transaction.gasPrice &&\n        !witness.isStatic &&\n        witness.origin == caller &&\n        witness.caller == caller &&\n        witness.to == transaction.to &&\n        witness.context == transaction.to &&\n        witness.callvalue == transaction.value &&\n        keccak256(witness.callData) == keccak256(transaction.data)\n      );\n    }\n    require(!isValid, \"Witness had valid context.\");\n    handleSuccess(commitmentQuery, transactionIndex, challenger);\n  }\n\n  /**\n   * @dev Prove that the output root on a message witness is invalid.\n   * The output root should be the state root of the last access\n   * record in the access list.\n   */\n  function proveWitnessExitRootError(\n    CL.CommitmentHeaderQuery memory commitmentQuery,\n    uint256 transactionIndex,\n    bytes memory witnessBytes\n  ) public {\n    (\n      Message.MessageWitness memory witness,\n      address challenger\n    ) = validateWitnessInclusion(commitmentQuery, transactionIndex, witnessBytes);\n    require(\n      witness.to != Config.childRelayAddress(),\n      \"Can not use exit call for this function.\"\n    );\n    bytes32 expectedRoot = Message.getLastState(witness, witness.access_list.length);\n    require(\n      witness.stateRootLeave != expectedRoot,\n      \"Witness had valid output root.\"\n    );\n    handleSuccess(commitmentQuery, transactionIndex, challenger);\n  }\n\n  function proveExitCallWitnessGasError(\n    CL.CommitmentHeaderQuery memory commitmentQuery,\n    uint256 transactionIndex,\n    bytes memory witnessBytes\n  ) public {\n    (\n      Message.MessageWitness memory witness,\n      address challenger\n    ) = validateWitnessInclusion(\n      commitmentQuery,\n      transactionIndex,\n      witnessBytes\n    );\n    require(\n      witness.to == Config.childRelayAddress(),\n      \"Witness not for an exit transaction.\"\n    );\n    // Whether the call to the relay succeeds or fails,\n    // it will always use all remaining gas.\n    require(\n      witness.gasUsed != witness.gasAvailable ||\n      witness.gasRefund != 0,\n      \"Witness had correct gas values.\"\n    );\n    handleSuccess(commitmentQuery, transactionIndex, challenger);\n  }\n\n  /**\n   * @dev Prove that the output state root for a witness\n   * targeting the child relay address is incorrect.\n   * The state transition involves adding the encoded outgoing transaction\n   * to the transactions tree embedded in the storage tree of the child\n   * relay contract.\n   */\n  function proveExitCallWitnessExitRootError(\n    CL.CommitmentHeaderQuery memory commitmentQuery,\n    Header.ISO_Header memory header,\n    uint256 transactionIndex,\n    bytes memory witnessBytes,\n    bytes memory stateProofBytes,\n    bytes memory storageProofBytes,\n    bytes memory leafProofBytes\n  ) public {\n    // Verify that the witness is for the correct block & transaction\n    (\n      Message.MessageWitness memory witness,\n      address challenger\n    ) = validateWitnessInclusion(\n      commitmentQuery,\n      transactionIndex,\n      witnessBytes\n    );\n    // Verify that the header matches the commitment\n    require(\n      commitmentQuery.commitment.blockHash == header.blockHash(),\n      \"Header does not match commitment.\"\n    );\n    require(\n      witness.to == Config.childRelayAddress(),\n      \"Witness does not target child relay.\"\n    );\n    OutgoingTx.OutgoingTransaction memory transaction = OutgoingTx.fromExitCalldata(\n      witness.callData,\n      witness.caller,\n      witness.callvalue,\n      witness.gasAvailable\n    );\n    bytes memory transactionData = OutgoingTx.toBytes(transaction);\n    bytes32 stateRoot = ExitProof.updateExitsRoot(\n      chainState.sparse,\n      witness.stateRootEnter,\n      header.number,\n      stateProofBytes,\n      storageProofBytes,\n      leafProofBytes,\n      transactionData\n    );\n    require(\n      witness.stateRootLeave != stateRoot,\n      \"Witness had correct output state root.\"\n    );\n    handleSuccess(commitmentQuery, transactionIndex, challenger);\n  }\n\n  /**\n   * @dev Prove that the state root for a successful signed transaction\n   * is invalid by executing the state transition between its message\n   * witness's output state root and the transaction state root.\n   * This involves refunding the unspent gas cost to the caller\n   * and paying the spent gas cost to the block producer.\n   */\n  function proveSuccessfulSignedTransactionStateRootError(\n    CL.CommitmentHeaderQuery memory commitmentQuery,\n    Header.ISO_Header memory header,\n    TransactionProof memory txProof,\n    bytes memory witnessBytes,\n    bytes memory callerProof,\n    bytes memory operatorProof\n  ) public {\n    // Verify that the witness is for the correct block & transaction\n    (\n      Message.MessageWitness memory witness,\n      address challenger\n    ) = validateWitnessInclusion(\n      commitmentQuery,\n      txProof.transactionIndex,\n      witnessBytes\n    );\n    // Verify that the transaction was successful\n    require(witness.status == 1, \"Unsuccessful transaction can not be used.\");\n    // Verify that the header matches the commitment\n    require(\n      commitmentQuery.commitment.blockHash == header.blockHash(),\n      \"Header does not match commitment.\"\n    );\n    // Verify that the transaction is a signed transaction in the block & decode it\n    SignedTx.SignedTransaction memory transaction = validateSignedTransaction(\n      header,\n      txProof.transactionBytes,\n      txProof.transactionIndex,\n      txProof.siblings\n    );\n    // Calculate the final gas refund & gas used\n    uint256 amountSpent = witness.gasUsed + SignedTx.getBaseFee(chainState, transaction);\n    if (witness.gasRefund < amountSpent / 2) {\n      amountSpent -= witness.gasRefund;\n    } else {\n      amountSpent -= amountSpent / 2;\n    }\n    amountSpent = amountSpent * transaction.gasPrice;\n\n    // Calculate the state root after the caller is refunded\n    (bytes32 stateRoot, ) = StateProof.increaseBalance(\n      chainState.sparse,\n      witness.stateRootLeave,\n      witness.caller,\n      callerProof,\n      (transaction.gas * transaction.gasPrice) - amountSpent\n    );\n    // Calculate the state root after the operator is paid for gas\n    (stateRoot, ) = StateProof.increaseBalance(\n      chainState.sparse,\n      stateRoot,\n      header.coinbase,\n      operatorProof,\n      amountSpent\n    );\n    require(\n      stateRoot != transaction.stateRoot,\n      \"Transaction had correct state root.\"\n    );\n    handleSuccess(commitmentQuery, txProof.transactionIndex, challenger);\n  }\n\n  /**\n   * @dev Prove that the state root for an unsuccessful signed transaction\n   * is invalid by executing the state transition between the state prior\n   * to the transaction and the transaction's state root.\n   * If a transaction is unsuccessful, the gas is still paid for and the caller's\n   * nonce incremented, but the value transfer to the recipient and all other\n   * state changes are reverted.\n   */\n  function proveFailedSignedTransactionStateRootError(\n    CL.CommitmentHeaderQuery memory commitmentQuery,\n    Header.ISO_Header memory header,\n    TransactionProof memory txProof,\n    bytes memory witnessBytes,\n    bytes memory previousRootProof,\n    bytes memory callerProof,\n    bytes memory operatorProof\n  ) public {\n    // Verify that the witness is for the correct block & transaction\n    (\n      Message.MessageWitness memory witness,\n      address challenger\n    ) = validateWitnessInclusion(commitmentQuery, txProof.transactionIndex, witnessBytes);\n    // Verify that the transaction was unsuccessful\n    require(witness.status != 1, \"Successful transaction can not be used.\");\n    // Verify that the header matches the commitment\n    require(\n      commitmentQuery.commitment.blockHash == header.blockHash(),\n      \"Header does not match commitment.\"\n    );\n    // Verify that the transaction is a signed transaction in the block & decode it\n    SignedTx.SignedTransaction memory transaction = validateSignedTransaction(\n      header,\n      txProof.transactionBytes,\n      txProof.transactionIndex,\n      txProof.siblings\n    );\n    // Calculate the final gas refund & gas used\n    uint256 amountSpent = witness.gasUsed;\n    if (witness.gasRefund < amountSpent / 2) {\n      amountSpent -= witness.gasRefund;\n    } else {\n      amountSpent -= amountSpent / 2;\n    }\n    amountSpent = (amountSpent + SignedTx.getBaseFee(chainState, transaction)) * transaction.gasPrice;\n    // Get the state root prior to the transaction\n    bytes32 stateRoot = PriorState.provePreviousStateRoot(\n      header, previousRootProof, txProof.transactionIndex\n    );\n    // Calculate the state root after the caller pays for gas and has nonce increased\n    stateRoot = StateProof.subtractBalanceAndIncrementNonce(\n      chainState.sparse,\n      stateRoot,\n      witness.caller,\n      callerProof,\n      amountSpent\n    );\n    // Calculate the state root after the operator is paid for gas\n    (stateRoot, ) = StateProof.increaseBalance(\n      chainState.sparse,\n      stateRoot,\n      header.coinbase,\n      operatorProof,\n      amountSpent\n    );\n    require(\n      stateRoot != transaction.stateRoot,\n      \"Transaction had correct state root.\"\n    );\n    handleSuccess(commitmentQuery, txProof.transactionIndex, challenger);\n  }\n\n  /**\n   * @dev Prove that the state root for a successful incoming transaction\n   * is invalid by demonstrating that it does not match  the state root\n   * for the witness.\n   * Because of the cost of outgoing transactions, successful incoming\n   * transactions do not return a gas refund.\n   */\n  function proveSuccessfulIncomingTransactionStateRootError(\n    CL.CommitmentHeaderQuery memory commitmentQuery,\n    Header.ISO_Header memory header,\n    bytes memory transactionBytes,\n    uint256 transactionIndex,\n    bytes32[] memory siblings,\n    bytes memory witnessBytes\n  ) public {\n    (\n      Message.MessageWitness memory witness,\n      address challenger\n    ) = validateWitnessInclusion(commitmentQuery, transactionIndex, witnessBytes);\n    require(\n      commitmentQuery.commitment.blockHash == header.blockHash(),\n      \"Header does not match commitment.\"\n    );\n    // Verify that the transaction was successful\n    require(witness.status == 1, \"Unsuccessful transaction can not be used.\");\n    IncomingTx.IncomingTransaction memory transaction = abi.decode(\n      transactionBytes, (IncomingTx.IncomingTransaction)\n    );\n    chainState.validateIncomingTransaction(\n      header, transaction, transactionIndex, siblings\n    );\n    require(\n      transaction.stateRoot != witness.stateRootLeave,\n      \"Transaction had correct state root.\"\n    );\n    handleSuccess(commitmentQuery, transactionIndex, challenger);\n  }\n\n  function proveWitnessGasExceededError(\n    CL.CommitmentHeaderQuery memory commitmentQuery,\n    uint256 transactionIndex,\n    bytes memory witnessBytes\n  ) public {\n    (\n      Message.MessageWitness memory witness,\n      address challenger\n    ) = validateWitnessInclusion(commitmentQuery, transactionIndex, witnessBytes);\n    require(witness.gasUsed > witness.gasAvailable, \"Gas used did not exceed limit.\");\n    handleSuccess(commitmentQuery, transactionIndex, challenger);\n  }\n\n  function proveWitnessRefundError(\n    CL.CommitmentHeaderQuery memory commitmentQuery,\n    uint256 transactionIndex,\n    bytes memory witnessBytes\n  ) public {\n    (\n      Message.MessageWitness memory witness,\n      address challenger\n    ) = validateWitnessInclusion(commitmentQuery, transactionIndex, witnessBytes);\n    uint256 expectedRefund = 0;\n    for (uint256 i = 0; i < witness.access_list.length; i++) {\n      bytes memory record = witness.access_list[i];\n      uint256 opcode;\n      assembly { opcode := mload(add(record, 0x20)) }\n      // todo add call record conditions\n      if (opcode != 0x55) continue;\n      assembly {\n        let refund := mload(add(record, mload(record)))\n        expectedRefund := add(expectedRefund, refund)\n      }\n    }\n    require(witness.gasRefund != expectedRefund, \"Witness had correct gas refund.\");\n    handleSuccess(commitmentQuery, transactionIndex, challenger);\n  }\n\n  function proveExecutionError(\n    CL.CommitmentHeaderQuery memory commitmentQuery,\n    uint256 transactionIndex,\n    bytes memory witnessBytes\n  ) public {\n    bytes32 witnessHash = keccak256(witnessBytes);\n    chainState.validateWitnessForPendingBlock(\n      commitmentQuery, transactionIndex, witnessHash\n    );\n    address challenger = chainState\n      .challengesByBlock[commitmentQuery.commitment.blockHash]\n      .challengesByTransaction[transactionIndex]\n      .challenger;\n    (bool success,) = chainState.hypervisorAddress.staticcall{gas: gasleft()}(witnessBytes);\n    require(!success, \"No errors found in witness execution.\");\n    handleSuccess(commitmentQuery, transactionIndex, challenger);\n  }\n\n  function handleSuccess(\n    CL.CommitmentHeaderQuery memory commitmentQuery,\n    uint256 transactionIndex,\n    address challenger\n  ) internal {\n    chainState.markFraudulentBlock(commitmentQuery);\n    Config.rewardSuccessfulChallenge(challenger);\n    delete chainState\n      .challengesByBlock[commitmentQuery.commitment.blockHash]\n      .challengesByTransaction[transactionIndex];\n    delete chainState\n      .challengesByBlock[commitmentQuery.commitment.blockHash]\n      .witnessHashes[transactionIndex];\n  }\n\n  function validateSignedTransaction(\n    Header.ISO_Header memory header,\n    bytes memory transaction,\n    uint256 transactionIndex,\n    bytes32[] memory siblings\n  ) internal pure returns (SignedTx.SignedTransaction memory) {\n    header.validateSignedTransaction(\n      transaction, transactionIndex, siblings\n    );\n    return SignedTx.decodeTransaction(transaction);\n  }\n\n  function validateWitnessInclusion(\n    CL.CommitmentHeaderQuery memory commitmentQuery,\n    uint256 transactionIndex,\n    bytes memory witnessBytes\n  ) internal view returns (\n    Message.MessageWitness memory witness,\n    address challenger\n  ) {\n    bytes32 witnessHash = keccak256(witnessBytes);\n    chainState.validateWitnessForPendingBlock(\n      commitmentQuery, transactionIndex, witnessHash\n    );\n    witness = Message.fromBytes(witnessBytes);\n    challenger = chainState\n      .challengesByBlock[commitmentQuery.commitment.blockHash]\n      .challengesByTransaction[transactionIndex]\n      .challenger;\n  }\n}",
  "sourcePath": "/home/dillon/sparse-iso/sparse-iso/packages/contracts/contracts/fraud-proofs/WitnessErrorProver.sol",
  "compiler": {
    "name": "solc",
    "version": "0.6.11+commit.5ef660b1.Emscripten.clang"
  },
  "schemaVersion": "3.2.1",
  "updatedAt": "2020-07-17T23:51:47.624Z",
  "devdoc": {
    "kind": "dev",
    "methods": {
      "proveExitCallWitnessExitRootError((bytes32,uint256,uint256,(uint256,bytes32,address,bytes32)),(bytes32,uint256,uint256,uint256,uint256,bytes32,bytes32,bytes32,address,uint256),uint256,bytes,bytes,bytes,bytes)": {
        "details": "Prove that the output state root for a witness targeting the child relay address is incorrect. The state transition involves adding the encoded outgoing transaction to the transactions tree embedded in the storage tree of the child relay contract."
      },
      "proveFailedSignedTransactionStateRootError((bytes32,uint256,uint256,(uint256,bytes32,address,bytes32)),(bytes32,uint256,uint256,uint256,uint256,bytes32,bytes32,bytes32,address,uint256),(bytes,uint256,bytes32[]),bytes,bytes,bytes,bytes)": {
        "details": "Prove that the state root for an unsuccessful signed transaction is invalid by executing the state transition between the state prior to the transaction and the transaction's state root. If a transaction is unsuccessful, the gas is still paid for and the caller's nonce incremented, but the value transfer to the recipient and all other state changes are reverted."
      },
      "proveSuccessfulIncomingTransactionStateRootError((bytes32,uint256,uint256,(uint256,bytes32,address,bytes32)),(bytes32,uint256,uint256,uint256,uint256,bytes32,bytes32,bytes32,address,uint256),bytes,uint256,bytes32[],bytes)": {
        "details": "Prove that the state root for a successful incoming transaction is invalid by demonstrating that it does not match  the state root for the witness. Because of the cost of outgoing transactions, successful incoming transactions do not return a gas refund."
      },
      "proveSuccessfulSignedTransactionStateRootError((bytes32,uint256,uint256,(uint256,bytes32,address,bytes32)),(bytes32,uint256,uint256,uint256,uint256,bytes32,bytes32,bytes32,address,uint256),(bytes,uint256,bytes32[]),bytes,bytes,bytes)": {
        "details": "Prove that the state root for a successful signed transaction is invalid by executing the state transition between its message witness's output state root and the transaction state root. This involves refunding the unspent gas cost to the caller and paying the spent gas cost to the block producer."
      },
      "proveWitnessContextError((bytes32,uint256,uint256,(uint256,bytes32,address,bytes32)),(bytes32,uint256,uint256,uint256,uint256,bytes32,bytes32,bytes32,address,uint256),bytes,uint256,bytes32[],bytes)": {
        "details": "Proves that some of the data in a message witness does not match the transaction that created it."
      },
      "proveWitnessEntryRootError((bytes32,uint256,uint256,(uint256,bytes32,address,bytes32)),(bytes32,uint256,uint256,uint256,uint256,bytes32,bytes32,bytes32,address,uint256),bytes,uint256,bytes32[],bytes,bytes,bytes,bytes)": {
        "details": "Prove that the input state root for a message witness is incorrect by executing the state transition from the previous state root to the witness input root. For a signed transaction, this involves subtracting the upfront cost from the caller and increasing the recipient's balance by the transaction value. For an incoming transaction, this involves increasing the recipient's balance by the transaction value."
      },
      "proveWitnessExitRootError((bytes32,uint256,uint256,(uint256,bytes32,address,bytes32)),uint256,bytes)": {
        "details": "Prove that the output root on a message witness is invalid. The output root should be the state root of the last access record in the access list."
      }
    },
    "version": 1
  },
  "userdoc": {
    "kind": "user",
    "methods": {},
    "version": 1
  }
}